:020000041400E6
:10000000F07B0020D900001400F002F800F08AF81C
:100010000AA090E8000C82448344AAF10107DA4563
:1000200001D100F07FF8AFF2090EBAE80F0013F02B
:10003000010F18BFFB1A43F001031847F40000003A
:10004000240100000A444FF0000C10F8013B13F0AB
:10005000070408BF10F8014B1D1108BF10F8015B21
:10006000641E05D010F8016B641E01F8016BF9D114
:1000700013F0080F1EBF10F8014BAD1C0C1B09D16B
:100080006D1E58BF01F801CBFAD505E014F8016BDD
:1000900001F8016B6D1EF9D59142D6D3704700006F
:1000A000103A24BF78C878C1FAD8520724BF30C8A4
:1000B00030C144BF04680C60704700000023002476
:1000C00000250026103A28BF78C1FBD8520728BF68
:1000D00030C148BF0B607047DFF82C00016841F465
:1000E0007001016009480047FEE7FEE7FEE7FEE712
:1000F000FEE7FEE7FEE7FEE7FEE7FEE70448054908
:10010000054A064B7047000088ED00E00900001426
:10011000F00B0020F07B0020F0730020F073002033
:100120007046704740F2DF1CC1F2000C60470000CF
:100130006001001400000010686C0100A0000014B1
:10014000C86D0114000000208C0100004400001460
:100150000C6E01148C010020647A0000BC000014B5
:10016000F07B0020D9000014E9000014EB0000141B
:10017000ED000014EF000014F10000145A5A5A5A0E
:10018000000000000000000000000000F300001468
:10019000F500001400000000F7000014F90000143E
:1001A000FB0000146DAD0010FB000014FB000014F8
:1001B000FB000014FB000014FB000014FB00001403
:1001C000D9B60010FB000014FB000014FB00001463
:1001D000FB000014F9AE0010FB000014FB0000143B
:1001E000FB000014FB000014F11C0010FB000014C5
:1001F000FB000014FB000014FB000014753000101D
:1002000011350010FB000014FB000014FB0000146B
:10021000FB000014FB000014FB000014FB000014A2
:10022000FB000014FB000014FB000014FB00001492
:10023000FB000014FB000014FB000014FB00001482
:10024000FB000014FB000014FB000014FB00001472
:1002500000000000FB000014FB000014FB00001471
:1002600000000000FB000014FB000014FB00001461
:10027000FB0000146E2909F0C180702909F020826A
:10028000662912F04E80652912F04B80672912F022
:1002900048806129AFF3008003681B0A28BF41F042
:1002A0008001692908F08884642908F0858475290B
:1002B00008F082846F2909F0AB81782909F0EC817C
:1002C000E92909F04381E42909F04081F52909F081
:1002D0003D81EF2909F0A881F82909F0EB81036835
:1002E000DB0928BF41F08001632909F0C48073292C
:1002F00009F0C980E32909F0A584F32909F0AA844B
:10030000002070471FB511F0EEFF9DE8030008F0D4
:100310009FFF09F007FD04000020002111F052FBAF
:10032000401C60600020002111F036FBE06008F006
:1003300047FF1FBD10B5002010F03DFB10BD09F0B8
:10034000C3FC1146FFF7DEFF03F0F6FA09F09EFD4D
:1003500003B4FFF7EFFF03BC09F0DEF94C494D4948
:1003600001604FF0010101714FF0000141717047D0
:1003700010B5082010F05EFA0446FFF7EFFF0446C0
:100380004548046010BD0171704710B504464FF038
:1003900002034FF0F0024FF003014FF0010011F0A3
:1003A00011F94FF004003D4988624FF480603C49E8
:1003B00008604FF008003B4948604FF0000010BD56
:1003C00010B504464FF00000364948604FF0050371
:1003D0004FF0F0024FF003014FF0010011F0F2F87E
:1003E000002010BD70B506464FF0000211462E48A1
:1003F000006805F055F90446CCB3307990B1A18876
:100400006288A1EB0201084601EBD07102EB6101A9
:100410000D464FEA054005464FF4A070B5FBF0F0DD
:10042000054613E02189E288A1EB0201084601EBB1
:10043000D07102EB6101C1F1C8010D464FEA0540E0
:1004400005464FF0C800B5FBF0F005464FF6C0700A
:1004500005EA0000054613480560707910B964206C
:1004600010F0CEFF4FF480601049086006E0FFE70F
:100470004FF000000D4908600A49086014B14FF0C0
:10048000010001E04FF000007071002070BD00001D
:10049000944E0110D44E01100000002000101040B6
:1004A0001812104000100E401000002014121040CE
:1004B0002DE9FF4F85B01E46DDE90501884201D2D6
:1004C000059800E0069804460798844201D2204629
:1004D00000E007980446DDE90501884201D9059846
:1004E00000E0069807460798874201D9384600E0A1
:1004F000079807460599A1EB040101FB01F1069A53
:10050000A2EB0402069BA3EB040302FB0311079A70
:10051000A2EB0402079BA3EB040302FB031011F000
:1005200073FE8146484611F0D5F8804611F05EFE14
:1005300005461E2D02D94FF01E0005460A2D03D296
:100540004FF00000019012E0284611F05DFE824657
:10055000304611F059FE8346FE4911F075FE814682
:10056000514611F071FE804611F040FE0190019855
:10057000B0F57A6F02D94FF47A60019001A80DF0BE
:1005800043FB05A807C805F01FFA814605F057FA96
:10059000804607AB06AA05A905F02BFA0598C0B25C
:1005A00004900698C0B203900798C0B2029002AAC5
:1005B00003A904A80CF0FCFC09B0BDE8F08F38B525
:1005C00004464FF0000060702072009068460DF005
:1005D000A5FD4FF00000207038BD10B50446204640
:1005E000FFF7EDFF204610BD704738B505460C46B5
:1005F000684611F03BF800BF009810F071FFA04270
:10060000FAD30EF041F838BDF8B504460D464FF068
:100610000000064619E04FF00000009068460DF01B
:100620007DFD4EF660212046FFF7DFFF6178CA4A64
:1006300002EB810108460DF071FD4EF66021204667
:10064000FFF7D3FF06F101000646AE42E3DBF8BD3B
:100650007FB504464FF0000003904FF0A0000290D9
:100660004FF0640001904FF00000009001AB02AA2F
:1006700004F1010103A800F039FD0546002D00DA60
:100680007FBD0121B548006801F0F7FA042120463A
:10069000FFF7BAFF00BFF3E738B5044660780728D4
:1006A00000DD38BD4FF00000009068460DF036FDCB
:1006B0004EF660212046FFF798FF6178A64A02EBCC
:1006C000810108460DF02AFD00BFEAE7F0B593B0BE
:1006D00007460FAC4FF000052846206005F11000DA
:1006E0006060606801469E4A4FF0040010F057F9C0
:1006F000A06000BF0EA8294681704170017000BF44
:1007000012A84FF0A0014FF064020180428000BFA8
:1007100004460FAB224693499348006805F0CBFE90
:10072000032000908D480422114603680FA800F0B2
:1007300078FC0FAA8B4901A805F035FA0AA901A88F
:1007400005F0EFFA06460BAB0CAA0DA9304605F0F2
:1007500050F9DDE90A32DDE90C10FFF7A9FE0FAC14
:10076000A168084610F056F800BF13B0F0BD30B5D0
:1007700089B0044610F0A2FC0546207AF0B14FF093
:10078000210008904FF00000079006904FF4A070F1
:1007900005904FF0C80004904FF000006F490968C1
:1007A00004AACDE90021029005AB06AA07A908A872
:1007B0000DF09AFB2046FFF789FF1DE02078D8B1A5
:1007C0004FF0210008904FF00000079006904FF482
:1007D000A07005904FF0C80004904FF001005F49F1
:1007E000096804AACDE90021029005AB06AA07A971
:1007F00008A80DF079FB00BF2078062871D2DFE849
:1008000000F0031838687CBD95B1201D10F02EFF54
:1008100056480088089008A80DF0F6F94FF001003E
:1008200020704FF00000089008A80DF077FC00BF82
:10083000ADE01DB94FF00000207019E06168084676
:1008400010F04EFE4A49884212D90CF077FA18B1DE
:100850004FF00100607002E04FF000006070201D5A
:1008600010F004FF2046FFF717FF4FF00200207042
:100870008DE0B5B903212046FFF7C6FE201D10F01C
:10088000F5FE607830B94FF00100089008A80CF030
:10089000C7FA02E04FF0010020724FF00300207011
:1008A00016E06168084610F01BFE324988420FD9F5
:1008B000201D10F0DBFE607800F1010060706078B0
:1008C000082802D14FF0000060702046FFF7E4FED8
:1008D0005DE03DB1201D10F0C9FE4FF00400207016
:1008E0000AE050E06168084610F0FAFD22498842AB
:1008F00002D92046FFF763FE49E09DB9607850B900
:100900004FF00000089008A80CF08AFA0421204655
:10091000FFF77AFE02E02046FFF79AFE2046FFF737
:100920004EFE15E06168084610F0DAFD1049884275
:100930000ED9607830B94FF00000089008A80CF08C
:100940006FFA00BF2046FFF73AFE4FF00500207017
:100950001DE000008FC2753C88220110C8000020F5
:1009600003050110A000002010000020140000204A
:10097000D012130040420F000087930315B92046A0
:10098000FFF71DFE03E02046FFF719FE00BF00BF82
:10099000207810B1012009B030BD0020FBE72DE91F
:1009A000F04104460D461646012D02DC0020BDE84C
:1009B000F0815FE010F082FB07460DF065FE2078C5
:1009C00020B101280CD002284FD12AE0201D10F0C0
:1009D0004DFE4FF0010020702046FFF75DFE48E01D
:1009E00067B1201D10F042FE4FF0000060702046FD
:1009F000FFF752FE4FF00200207011E061680846D8
:100A000010F06EFD1C4988420AD9307860700421CC
:100A10002046FFF7F9FD2046FFF7D1FD0020C6E78D
:100A200027E057B96078307004212046FFF7ECFDCD
:100A30002046FFF7C4FD0120B9E76168084610F0C1
:100A40004FFD0E4988420FD9201D10F00FFE60782F
:100A500000F1010060706078A84202D14FF0000000
:100A600060702046FFF718FE03E02046FFF7A7FD61
:100A700000BF00BF9EE7000060E3160040420F0089
:100A80000146F94A086810604FF00000704730B521
:100A90008BB04FF00100044619E02246F3A102A8F2
:100AA00008F04AF8002301AA0AA902A80DF076FC72
:100AB0000546002D02DA28460BB030BDE1B2EE4803
:100AC000019A006805F02AFE04F101000446072C93
:100AD000E3DDE948006805F03AFEE848006805F003
:100AE00087FF0020E8E770B504460D4620785328BC
:100AF0000CD1A07AA0F13000C0B2064628680246A8
:100B00003146DD48006805F0CFFE08E020784D282A
:100B100005D128680146D848006805F041F901F080
:100B200099F828B1D448006805F011FE01F09BF84F
:100B300070BD38B504460D464FF000026946D0A09E
:100B40000DF02CFCCC480099006805F0BBFE38BDC8
:100B500038B504460D464FF00002D049D0A00DF044
:100B60001DFCCE480088009068460DF04DF838BD59
:100B700010B5B6B02DA80DF0FBFE4FF001000446F5
:100B800053E02246B9A125A807F0D6FF2246C8A106
:100B90000CA807F0D1FF00202DA920228123CDE948
:100BA000002102900CAA012125A80DF063FB22462A
:100BB000C4A125A807F0C0FF2246C7490CA807F02A
:100BC000BBFF002001460290C44814230CAACDE9C3
:100BD0000010811525A80DF04DFB00220BA925A8BA
:100BE0000DF0DCFBE1B2A4480B9A006805F05CFE56
:100BF000AFF20D1125A80DF02DF92246B8A125A8B8
:100C000007F09AFF2246B44958310CA807F094FF28
:100C10000020B8A1A1230CAACDE90010014625A807
:100C20000DF028FB04F101000446072CA9DD00208B
:100C30004FF020410290B0481423A74AA032CDE9DA
:100C400000104FF48071ADA00DF014FBAFF26911EC
:100C5000AAA00DF0FFF800204FF040410290AB48F1
:100C60001423AB4ACDE900100021AAA00DF002FB2D
:100C7000002001210B46A64A5C32CDE90010014656
:100C8000AAA00DF0F7FA00204FF4FA610423A04A5D
:100C9000D032CDE90010990179A00DF0EBFAAFF256
:100CA0006D1177A00DF0D6F8002040F2EE2102235E
:100CB000A24ACDE90010D90179A00DF0DBFAAFF21C
:100CC0006F1177A00DF0C6F800204FF47A7102235F
:100CD0009A4AA432CDE90010014699A00DF0CAFA53
:100CE00000204FF47A710223944AEC32CDE90010CF
:100CF000014696A00DF0BEFA0020142104239A4A62
:100D0000CDE90010014699A00DF0B4FA002209A91E
:100D10008BA00DF043FB002208A98CA00DF03EFB38
:100D2000002207A991A00DF039FB00220AA97FA09B
:100D30000DF034FB002205A970A00DF02FFB00225E
:100D400004A974A00DF02AFB002206A94CA00DF006
:100D500025FB0022514952A00DF020FB9DF82800F0
:100D60000090BDF82020BDF824104348079B006880
:100D700004F047FD40480599006805F011F83E4829
:100D80000499006805F0A1FD3B480699006805F04C
:100D900099FD42480088359035A80CF035FFFFF7E3
:100DA00076FE36B010BD70B506464FF004000FF069
:100DB00041FD044605F098FD0446304804604FF4B8
:100DC00024700FF037FD05466C4802462B48016839
:100DD000284603F081F905462748056068493046F2
:100DE0000EF088FC002267A1694800680EF088FEBA
:100DF000684908800846B0F90000002802DA4FF080
:100E0000FF3070BDFFF7B4FE0020FAE72DE9F04F88
:100E100095B006460C4617469846DDE91FABDDF84F
:100E200078900BA83988B8F80020B9F80030BAF8E3
:100E300000C0018042808380A0F806C000BF2078F7
:100E4000012802DB2078072804DD4FF0FF3015B0C1
:100E5000BDE8F08F5048006828B950A00DF042F965
:100E60006FF00100F3E7A7E0040000207369676EEC
:100E70006174757265256400100000200C0000206C
:100E80005369676E6174757265207465616368206B
:100E90007468726573686F6C640000001400002051
:100EA0004C4544206272696768746E657373000014
:100EB000436F6C6F72207369676E61747572652021
:100EC000256400005369676E61747572652025643E
:100ED0002072616E67650000A822011000000840C2
:100EE0005369676E6174757265206C6162656C2010
:100EF00025640000000000009999B93F4D696E20FB
:100F00006272696768746E6573730000CCCCFC3FD5
:100F1000A8230110436F6C6F7220636F6465206DAE
:100F2000756C7469706C696572000000436F6C6F5A
:100F30007220636F6465206D6F6465000425011085
:100F40004D617820626C6F636B7300004D61782097
:100F5000626C6F636B7320706572207369676E617A
:100F60007475726500000000502601104D696E20F6
:100F7000626C6F636B206172656100000010091084
:100F8000C8210110676574524C534672616D65004B
:100F9000CC00002008000020A00000204E6F20722E
:100FA0006177206672616D6520696E206D656D6F79
:100FB0007279210A00000000207803460BAAFF493D
:100FC000FF48006805F00FF920780146FC480068EA
:100FD00005F099FB05463068E8610BAAF74902A8BD
:100FE00004F0C0FD002102A804F09BFEA861207857
:100FF0000246AFF288110DA807F09EFD00202B4697
:101000002022812100900DA80DF0FDF9FFF73FFD92
:10101000ECA00DF067F80121584600F02EFE0020EC
:1010200015E72DE9F04F8FB004460F4690461D4658
:10103000E848814615B90FB0BDE8F08F0020B22214
:10104000CDE90A020C900D9002200021CDE9061096
:10105000CDE90810CDE90210CDE904104120642348
:101060004FF49032CDE90010494628460FF08BF935
:10107000064600BF20684FEA80008246A06883468B
:1010800009EB060108465246594607F08DFF00BF9E
:101090002068800040088246B2200221CDE90B0A78
:1010A000CDE909180846C8210222CDE90707CDE994
:1010B00005214FF4A07141231898CDE90130CDE905
:1010C0000321C54864234FF49032494600902846D6
:1010D0000FF059F900BF206806EB800082465246A7
:1010E000494628460FF063F900BFA4E72DE9F04F09
:1010F00097B007460C4690469946DDF880A00BADA8
:101100004FF0000B584628600BF1100068606868CB
:101110000146B24A4FF004000FF041FCA86000BF46
:101120002078012802DB2078072807DD0BA810F0C3
:1011300003FD4FF0FF3017B0BDE8F08F9F48006807
:1011400048B9AFF2A8100CF0CDFF0BA810F0F4FCDA
:101150006FF00100EFE716A8B8F8003019B2B9F83F
:1011600000301AB20180428000BF054620780BABE8
:101170002A46924900909248006805F093FA207838
:1011800001468F48006805F0BEFA06463868F061EF
:101190000BAA8A4902A804F006FD002102A804F067
:1011A000C0FDB061032053460422114600900BA8F5
:1011B000FFF737FF20780246AFF250310EA807F054
:1011C000BBFC002033462022812100900EA80DF0A8
:1011D0001AF9FFF75CFC7BA00CF084FF012150465C
:1011E00000F04BFD0BA810F0A7FC0020A3E770B5A2
:1011F00092B004460D4602A80DF0BAFB20780128F3
:1012000002DB2078072803DD4FF0FF3012B070BDFD
:10121000202102A807F069FF20780246AFF2B4311E
:101220000AA807F089FC002002AB2022812100904F
:101230000AA80DF0E8F80646FFF729FCFFF727FC9F
:101240000121284600F019FD3046DFE770B592B065
:10125000064602A80DF08CFB202102A807F045FFEE
:101260004FF00100044617E02246AFF200410AA801
:1012700007F062FC002002AB2022812100900AA826
:101280000DF0C1F80546002D02DA284612B070BDF7
:1012900004F10100C0B20446072CE5DDFFF7F7FBBF
:1012A0000121304600F0E9FC0020EFE770B5ACB05A
:1012B00004460E461546206818B149492068884200
:1012C00003D94FF0FF302CB070BD20680246AFF25A
:1012D000F03124A807F030FC2068024641490BA8F1
:1012E00007F02AFC314603A807F0D5FD002003A92A
:1012F000A1230BAACDE90010014624A80CF0BAFFE7
:10130000002805DA002303AAA12124A80DF07BF808
:101310000121284600F0B1FC0020D4E7F0B589B0E7
:1013200004460D4616464FF0FF3007904FF001007F
:10133000089008A80BF08AFF071E02DA384609B0A9
:10134000F0BDA6B1002007AACDE9030205900690E2
:1013500004200346CDE9010500942348B0F900209C
:101360000021224800680EF09DFB0798E7E7002067
:101370000422CDE902501346CDE9004204901A48F8
:10138000B0F900200121194800680EF08BFB002005
:10139000D5E72DE9F04F8BB082460F4614480A90EE
:1013A000144880460B488146A8EB000005464FF0E4
:1013B00000004FF0B102CDE906021DE0A0000020C0
:1013C000100000205369676E617475726520736543
:1013D00074210A0000000810424C5431030501102A
:1013E000DF2B01000023011008000020CC000020AA
:1013F0000010091000000910089009904FF0020039
:101400004FF00001CDE90210CDE904104FF041008A
:101410004FF064032A46CDE90010494650460EF0CD
:10142000B2FF0446AC48006805F0E2FA01224046EB
:101430000A99FFF773FF8346A5EB040005464FEAC0
:10144000D500054609EB040001462A46A24800687B
:1014500005F085FA06464FF00101A04800680EF03D
:10146000EBFB0021F000B122C823CDE90632CDE923
:10147000080102204FF4A071CDE90270CDE90410FB
:101480004120974964232A46CDE900104946504639
:101490000EF079FF04EBC6000246494650460EF0B6
:1014A00086FF58460BB0BDE8F08F10B504464FF0EC
:1014B00001012046FFF76DFF10BD30B504460B4615
:1014C000206805464FF00000014604E0505C685477
:1014D00001F10100014618688842F7D8186830BD4C
:1014E000F0B58BB007460C4615461E464FF000017E
:1014F00005EB850020F00040CDE908410A910790F6
:101500004FF082004FF0C8014FF042024FF4A07339
:10151000CDE90332CDE905104FF04101714BCDE922
:10152000016200914FF064024FF0000138460EF066
:1015300056FC00200BB0F0BD2DE9F0438FB00746FC
:101540000C4615461E46DDE916894FF0000108EBF2
:1015500048004FEA80004FEA5000CDE90B610D9141
:101560000A904FF0820105EB850020F00040CDE9A4
:1015700006104FF0C800CDE908414FF042014FF48A
:10158000A072CDE90212CDE904104FF04100564B94
:101590004FF064024FF00001CDE9000938460EF02B
:1015A0001EFC00200FB0BDE8F0832DE9F041054698
:1015B0004FEA052044F62061B0FBF1F0044614B96F
:1015C0000120BDE8F081204610F01EFE8046404616
:1015D0000FF090FF0746454910F036FE064610F022
:1015E00005FE0446FF2C03D94FF0FF00044603E03C
:1015F00014B94FF001000446E0B2E2E7F0B587B05D
:10160000002211463A48006804F04AF80446002CCB
:1016100058D0208807280CDC2088A0F1010000EBBE
:1016200080013348006800F1E00000EB81000669AA
:1016300001E030480668A0886188A0EB010021899C
:10164000E288A1EB020100FB01F73846FFF7ADFF8E
:10165000054604AB05AA06A9304604F0CAF9049869
:1016600030B1049868434FEA102000F1010001E016
:101670004FF000000490059830B1059868434FEA98
:10168000102000F1010001E04FF0000005900698E5
:1016900030B1069868434FEA102000F1010001E0E4
:1016A0004FF0000006900698C0B203900598C0B2B3
:1016B00002900498C0B2019001AA02A903A80BF0FD
:1016C00077FC06E04FF00000039003A80CF026FD25
:1016D00000BF07B0F0BD00000C000020CC000020CF
:1016E0004343513243434231434342320000484274
:1016F00010000020882201101CB50020009001235A
:10170000EDA201460190FCA00CF0B4FD0022FC49C2
:10171000F9A00CF043FE1CBD70B505464FF00C005F
:101720000FF088F80446FEF758FF0446F5480460B9
:10173000F54928460DF0DEFF0022F4A1F4480068C8
:101740000EF0DEF9F34908800022F3A1F0480068AA
:101750000EF0D6F9F24908800022F2A1EC480068A8
:101760000EF0CEF9F1490880FFF7C6FF002070BDEA
:1017700002460B4613B1EE48026212E04FF0000140
:1017800007E0092902DB4FF0FF30704701F101004B
:101790000146E74850F821000028F2D1E44840F81B
:1017A00021200020F1E7E348007810B1E1480078FB
:1017B0007047E148007808B10220F9E70020F7E718
:1017C0004FF00000DD49087070474FF00100DB4921
:1017D0000870D84908704FF00000704710B50346F4
:1017E0000C461878024634B150B2D54908704FF013
:1017F0000000D4490860D24890F90000002802DBBC
:10180000CF48007802464FF00000CF490870092AFF
:1018100003DAC74850F8220010B94FF0FF3010BD6E
:10182000C74890F90000002804DBC6480068C74993
:10183000086003E04FF00000C4490860C24802702D
:10184000FFF7C3FFEBE7F0B507460C461546294600
:101850003846FFF7C3FF0646002E01DA3046F0BDDA
:1018600015B1B84920680860B54890F90000002813
:1018700004DBB4480068B549086002E0B349206859
:1018800008600020EBE710B54FF00000044610E0C0
:10189000A74850F8240040680346A54850F82400A3
:1018A000006802462146AAA00CF01CFC04F10100CD
:1018B00004469F4850F824000028E9D110BD10B517
:1018C00086B00446A54903C9CDE9040154B10020FE
:1018D00004AACDE900200623822201460290204678
:1018E0000EF07DFA002006B010BD1CB5044644B1D0
:1018F000002000909AA3A1220146019020460EF0FC
:101900006EFA00201CBD7FB504460D464FF0120054
:1019100006462088B04203DB4FF0FF3004B070BDB4
:10192000A5B100212088904B03EBC0004068A123A3
:10193000CDE901010093039120888B4951F83000D3
:101940000346A122002128460EF049FA0020E5E7CF
:101950004FF000021046854A114605E00A6802442D
:10196000104601F104021146804A10329142F5D32B
:10197000704710B586B004464FF0000005AACDE9C7
:10198000010203904FF00103009404906148B0F904
:1019900000204FF000015E4800680EF083F87448A4
:1019A0000470059806B010BD1FB5002003AACDE94C
:1019B0000020034602905D48B0F900200021544801
:1019C00000680EF06FF8039804B010BD1FB500203A
:1019D00003AACDE90020034602905148B0F9002047
:1019E00000214B4800680EF05DF80398C0B204B0C7
:1019F00010BD10B5FFF7BCF801F04DFB0BF0ACFECD
:101A0000FFF77AFE10BD10B50CF03EFE3D480068B1
:101A1000FEF7ADFE484908700CF076FF08B1FFF7FD
:101A2000E8FF10BD10B50022524953A00CF0B6FCDF
:101A300050480078444908704FF00000044603E025
:101A400004F10100C0B20446394850F824000028CF
:101A5000F6D13D4A21462B480068FEF7A0FF002141
:101A60003948FFF7BBFE10BD08B54FF00000054632
:101A70000646014600906846FFF7B0FEE9E042489E
:101A800000680EF0FBFB0446FFF7BDFF052D12D2E8
:101A9000DFE805F00381ACB3BF0025492A4A12787C
:101AA00051F8221089680846804700286FDA4FF005
:101AB000030005466EE0C6E040632045787065721D
:101AC000742053657473207468652064656275675B
:101AD000206C6576656C20666F7220746865206680
:101AE00069726D776172652E202864656661756C18
:101AF0007420302900000000446562756700000012
:101B00002C00002038000020C426011072756E00E1
:101B1000CC0000202E00002072756E6E696E67008A
:101B20003000002073746F7000000000320000204D
:101B30008C01002018000020240000201900002043
:101B40001C000020200000201A0000202800002097
:101B500025643A2025732C2025730A005C28011087
:101B60004C45474F00000000CC27011000500440B6
:101B7000340000201B0000205374617274757020C3
:101B800070726F6772616D00C8000020FFE74FF050
:101B9000010005465BE04148007828B1FFF704FFEB
:101BA0004FF00200054620E03D48007848B13D492D
:101BB0003D4A127851F82210C9680846804700282B
:101BC00003DA4FF0030005460FE076B16CB90BF075
:101BD0008DFF4FF0FF00354908704FF00001344889
:101BE000FFF7FCFD4FF00000054630E02B48007881
:101BF00010B94FF00000054629E04FF000002849D9
:101C000008702C490870FFF7CFFE4FF0040005461E
:101C10001DE02348007828B1FFF7D7FD4FF0000002
:101C200005460FE014B12448007858B94FF0FF0082
:101C30001E4908704FF000011D48FFF7CFFD4FF01F
:101C40000000054603E04FF00300054600BF00BF5B
:101C5000264614E710B5FFF7B9FE04460CB1FFF7AE
:101C6000A3FE204610BD10B51448006804F0C0FE65
:101C700013480078FFF77DFE10BD3EB504460D46C3
:101C800054B1002004210F4B6422CDE900150290CD
:101C9000182120460EF0A3F83EBD000024000020CD
:101CA000190000208C0100201A0000201C000020D8
:101CB0001B00002018000020E70000200C0000207E
:101CC0003400002045565431F8B504464FF000006A
:101CD000FA490870A068406800F0F800074617F05D
:101CE000070F73D1F8100C3814286FD2DFE800F01A
:101CF00013A914A91D481E494A53A9549695A9A988
:101D0000A9A9A90A4FF00400A16808604FF00800D3
:101D1000A16888619AE000BF4FF00400A1680860E4
:101D20004FF00800A168886190E000BF04F10C0545
:101D3000A0688068C6B200BF28460FF005FF29687A
:101D4000A1EB0000002800DC11E0E96801F10100CE
:101D5000E86068684654286900F101002861296834
:101D6000E868884202D14FF00000E86000BF4FF001
:101D70000400A16808604FF00800A168886165E070
:101D800000BF00BF4FF00400A16808604FF00800DA
:101D9000A16888615AE000BF207938B1607928B124
:101DA0004FF00000A168886020712DE000BF206B1B
:101DB00080B9636A1946A36A1846636B1A4690474E
:101DC0002063206B18B94FF0000010E039E04FF0AD
:101DD0000000E062E16A01F10100E062A06A405C9B
:101DE0000090206BA0F1010020634FF0010020B1B2
:101DF0009DF80000A168886006E04FF00000A1682F
:101E000088604FF0010020714FF00400A168086065
:101E10004FF00800A168886118E000BFA07938B1D0
:101E200004F124000FF0C5FE04F10C000FF092FE47
:101E30004FF00400A16808604FF00800A1688861B5
:101E400004E04FF02C00A168886100BF00BFF8BD1E
:101E500010B59B480068FFF737FF10BD38B5044642
:101E60000D468DF801504FF000008DF803008DF8FD
:101E70000000A1680846694608F0A6FF002038BDAA
:101E80002DE9F04704460F4690461E468D498E4880
:101E9000206004F10C054FF02009C5F80090296876
:101EA00008460EF0BFFC686028460FF053FE00BFE6
:101EB000A5F10C052C4604F12405C5F8009029680D
:101EC00008460EF0AFFC68602E6128460FF071FEE8
:101ED00000BFA5F124052C46A7604FF001006071FA
:101EE0004FF00000A071A1680846784908F01EFF75
:101EF00041462046FFF7B2FF4FF017004FF00001B8
:101F000000280ADA4FEA01724FEA1262704B00F0C1
:101F10000F05A5F104055A5505E04FEA01724FEA95
:101F200012626C4B1A5400BF2046BDE8F08770B5B2
:101F300004464FF038000EF07DFC0546234654223F
:101F40006549FFF79DFF05465D48056070BD4FF090
:101F50003801826891614FF04401826811607047D6
:101F600010B504464FF000034FF0F0024FF00301AC
:101F70004FF001000FF026FB0423F0220121022084
:101F80000FF020FB0423F022012102200FF01AFBA6
:101F90000023F022042101200FF014FB0423F0227F
:101FA000002102200FF00EFB4FF000004B490860AB
:101FB00020714FF012004FF0010101FA00F14FEAD9
:101FC00050124FF0E02303EB8202C2F8001100BF71
:101FD0002046FFF7BCFF002010BD10B501464FF0B2
:101FE00012004FF0010202FA00F23D4B4FEA50148A
:101FF00043F8242000BF4FF0000010BD2DE9F0474A
:1020000007460E4690464FF00000054625E007F1D2
:102010000C0406EB050920460FF096FD002802DCB3
:102020004FF0000014E0A16801F10100A0606068B9
:10203000405C89F80000606900F10100606121687E
:10204000A068884202D14FF00000A0604FF001006C
:1020500000B904E005F1010005464545D7D300BFAE
:102060002846BDE8F08710B5044604F10C000FF0D7
:102070006BFD10BD00B503469868006810F0040FB2
:1020800003D11846FFF763FF16E098684068F82808
:1020900012D10A480078322808DD4FF06C009968A8
:1020A00088614FF000000549087005E0034800789A
:1020B00000F1010001490870002000BD3C00002033
:1020C00040000020944E0110E04D0110A086010058
:1020D00018ED00E000E400E000100A401812104083
:1020E00080E100E081714271704700001CB54FF043
:1020F0000100019001A80BF0A9F89548006804F0D0
:1021000026FB9448006804F073FC0020FFF731FCC4
:1021100000BF00F0EFFD044600688068034601221E
:102120006946204698470028F3D18B4908701CBDAA
:1021300030B587B000F0DEFD04464FF000000546E4
:10214000AEE08548007820B101280BD002287ED16E
:1021500027E04FF0FF00814908704FF001007E49F1
:10216000087098E0206880680346012206A920468E
:102170009847A8B1794800784FEA0020784908804C
:10218000084600889DF8181040EA0100744908804C
:102190009DF81800714908704FF002006E490870F0
:1021A00079E06F480088FF2827D12068C068014681
:1021B00020468847042868DB20688068034602229E
:1021C00005A920469847206880680346022204A992
:1021D000204698474FF0000005A9039003A80AF095
:1021E000D9FF4FF0010004A9039003A80AF0D2FF21
:1021F0004FF000005849087047E059480088FE2811
:102200000FD1206880680346012206A9204698471E
:10221000B0B306A80BF0C8FC4FF000004E490870A0
:1022200033E04F480088FD282BD12068C068014664
:1022300020468847032828DB20688068034601225F
:1022400003A92046984720688068034600E01DE007
:10225000012202A92046984720688068034601228F
:1022600001A92046984701AA02A903A80AF0A0FEE6
:102270004FF001003B4908704FF0000036490870EC
:1022800003E04FF001003449087004E04FF0000013
:102290003149087000BF00BF05F10100C0B205461A
:1022A0000A2DFFF64EAF07B030BD10B586B02848F6
:1022B000006802F071FF00280FDA2B48007848B15F
:1022C0002A4802680068401C284B1146186028A064
:1022D0000BF008FF002006B010BD28480078062843
:1022E00001D0FFF725FF02A804AB03AA05A90090BF
:1022F0001748006803F076FA01200299CDE9001032
:102300001F48DDE9032305990068FFF715F900F080
:10231000F1FC0446006800690146204688471148E0
:10232000007808B9FFF76AF905E014480078062834
:1023300001D0FFF7FDFE0749086801688988026837
:10234000D288A1EB02010029EFD04FF00000C2E7D4
:10235000100000200C000020450000205A00002042
:1023600058000020440000202C0000205C000020C9
:1023700064726F702025640A000000007000002065
:10238000C800002001464FF000021046002903DD7E
:1023900001F11E02104604E0002902DAA1F11E023A
:1023A000104600F5FA721046B0F57A7F03DD4FF45F
:1023B0007A72104604E0002802DA4FF0000210465C
:1023C000704710B5D0E90034A3EB04031A4603EBC1
:1023D000D2734FEA63030B60D0E9003423441A46FA
:1023E00003EBD2734FEA63034B6010BD10B5024696
:1023F0001368B3F1004F18D01368A1EB030394687E
:1024000003FB04F3546801FB04334FF47A7493FB29
:10241000F4F0B0F5FA7F03DD4FF4FA73184604E0E8
:1024200010F5FA7F01DA8E4B1846116010BDF0B539
:1024300087B004460D46C4F1A0000646C5F18200EF
:10244000074639468748FFF7D1FF03903146864853
:10245000FFF7CCFF049001A903A8FFF7B2FF019991
:102460000846FFF78FFF80B205904FF000000690FE
:1024700005A906A80AF08EFE02990846FFF782FF1A
:1024800080B205904FF00100069005A906A80AF059
:1024900081FE07B0F0BD4160826070471FB500202B
:1024A0004FF4FA71042371A2CDE9001001467EA019
:1024B0000BF0E0FE00204FF4487104237FA2CDE929
:1024C000001001468CA00BF0D5FE00204FF4FA71ED
:1024D00004238EA2CDE9001001469BA00BF0CAFE9A
:1024E00000204FF4487104239BA2CDE9001001465F
:1024F000A7A00BF0BFFE002203A96BA00BF04EFFBC
:10250000002202A97CA00BF049FF5648DDE9022118
:10251000FFF7C1FF002203A98BA00BF03FFF0022B1
:1025200002A99BA00BF03AFF4F48DDE90221FFF71B
:10253000B2FF1FBD1CB54FF00100019001A80AF0C9
:1025400085FEFFF7ABFF4FF0000001904FF4FA70EB
:102550000090694601A80AF01DFE4FF001000190AD
:102560004FF4FA700090694601A80AF013FE8C48F7
:10257000006808B1FEF78BFA8A48006804F038FA60
:102580000020FFF7F6F900201CBD70B586B0864824
:10259000006802F001FE002211468348006803F043
:1025A0007FF80446C4B1A1886288A1EB0201084605
:1025B00001EBD07102EB61018DB22189E288A1EBC0
:1025C0000201084601EBD07102EB61018EB2314687
:1025D0002846FFF72CFF14E04FF0000001904FF465
:1025E000FA700090694601A80AF0D4FD4FF001008E
:1025F00001904FF4FA700090694601A80AF0CAFDF4
:1026000000BF02A804AB03AA05A9009066480068B1
:1026100003F0E8F801200299CDE900106348DDE9F4
:10262000032305990068FEF787FFFEF7E7FF002008
:1026300006B070BD416082604FF000430360704798
:1026400000B54FF448724FF4FA710648FFF7F2FFF5
:102650004FF461724FF42F710348FFF7EBFF00BD99
:102660000CFEFFFFB0010020BC01002040632043AE
:10267000686173655F64656D6F207472616E6C6113
:1026800074696F6E616C2070726F706F7274696FB5
:102690006E616C206761696E202864656661756C87
:1026A00074203530302900005472616E736C61748F
:1026B000696F6E2050206761696E0000406320439F
:1026C000686173655F64656D6F207472616E736CB1
:1026D0006174696F6E616C2064657269766174699A
:1026E0007665206761696E202864656661756C7423
:1026F00020383030290000005472616E736C6174B0
:10270000696F6E2044206761696E0000406320435A
:10271000686173655F64656D6F20726F7461746961
:102720006F6E616C2070726F706F7274696F6E6122
:102730006C206761696E202864656661756C742021
:102740003530302900000000526F746174696F6E7B
:102750002050206761696E004063204368617365A3
:102760005F64656D6F20726F746174696F6E616C08
:102770002064657269766174697665206761696E47
:10278000202864656661756C74203830302900003B
:10279000526F746174696F6E2044206761696E00C6
:1027A000A00000200C00002010000020C800002025
:1027B00038B504464FF4FA702060206880B200906B
:1027C000694604F108000AF0E5FC38BDC160026109
:1027D00070471FB500204FF4AF7104237CA2CDE9F0
:1027E0000010802189A00BF045FD00204FF41671E8
:1027F000042389A2CDE90010802195A00BF03AFDB9
:1028000000204FF4FA71042394A2CDE90010802136
:10281000A1A00BF02FFD00204FF42F710423A1A2E3
:10282000CDE900108021AEA00BF024FD002203A909
:1028300076A00BF0B3FD002202A985A00BF0AEFD3F
:10284000AA48DDE90221FFF7C1FF002203A992A0F7
:102850000BF0A4FD002202A9A1A00BF09FFDA4484B
:10286000DDE90221FFF7B2FF1FBD08B54FF00100FF
:10287000009068460AF0EAFCFFF7ABFF9B48FFF7C1
:1028800097FF9B48FFF794FF9A48006808B1FEF74E
:10289000FEF89948006804F0ABF80020FFF769F8EB
:1028A000002008BDF8B504460D466068B0F1004F41
:1028B00025D06068A5EB0000216900FB01F0E1680C
:1028C00005FB01004FF47A7190FBF1F6206830446B
:1028D00020602068B0F57A7F02DD0846206005E0C0
:1028E0002068002802DA4FF000002060206880B2E3
:1028F0000090694604F108000AF04CFC00BF6560D6
:10290000F8BD2DE9F04186B07C48006802F044FC37
:10291000002211467948006802F0C2FE044604B362
:10292000A1886288A1EB0201084601EBD07102EB9D
:1029300061018FB22189E288A1EB0201084601EB17
:10294000D07102EB61011FFA81F8C7F1A005A8F16F
:10295000640629466548FFF7A5FF31466448FFF73E
:10296000A1FF02A804AB03AA05A900906348006870
:1029700002F038FF01200299CDE900106048DDE93E
:10298000032305990068FEF7D7FDFEF737FE002008
:1029900006B0BDE8F08110B54FF4FA74046001721E
:1029A000C26003614FF00044446010BD00B54FF4B5
:1029B00048734FF4FA7200214C48FFF7ECFF4FF4D4
:1029C00061734FF42F7201214948FFF7E4FF00BD06
:1029D00040632050616E2F74696C745F44656D6F45
:1029E0002050616E20617869732070726F706F7211
:1029F00074696F6E616C206761696E20286465661A
:102A000061756C74203335302900000050616E20F0
:102A100050206761696E000040632050616E2F7422
:102A2000696C745F44656D6F2050616E20617869D8
:102A3000732064657269766174697665206761697F
:102A40006E202864656661756C742036303029000C
:102A500050616E2044206761696E00004063205021
:102A6000616E2F74696C745F44656D6F2054696C7E
:102A70007420617869732070726F706F7274696FFF
:102A80006E616C206761696E202864656661756C93
:102A9000742035303029000054696C742050206750
:102AA00061696E0040632050616E2F74696C745FC1
:102AB00044656D6F2054696C74206178697320647B
:102AC000657269766174697665206761696E202830
:102AD00064656661756C7420373030290000000031
:102AE00054696C742044206761696E00C80100203D
:102AF000DC010020A00000200C00002010000020BD
:102B0000C800002000207047F0B58BB0054675481E
:102B1000064675480068012839D100204FF47A41F3
:102B2000B122C823CDE90632CDE9081002204FF4C6
:102B3000A071CDE90250CDE9041041206B49642316
:102B40004FF49032CDE900103146694800680DF02D
:102B50001AFC04464FF0C8004FF4A0714FF0000279
:102B6000CDE900210290C4F59032114606EB040233
:102B700010464FF000034FF021020AF059FC04F513
:102B80007A4231465A4800680DF011FC7DE0564803
:102B90000068642860DB54480068C8285CDA524842
:102BA00000684FF0640190FBF1F201FB12004FF05E
:102BB0000A01B0FBF1F000F1300045F6450141EAB1
:102BC0000041494800684FF00A0290FBF2F302FB13
:102BD000130000F1300041EA00674FF000004FF4AD
:102BE0007A414FF0B1024FF0C803CDE90632CDE98A
:102BF00008104FF002004FF4A071CDE90250CDE96A
:102C000004104FF041004FF064034FF4903231460E
:102C1000CDE90070364800680DF0B5FB04464FF072
:102C2000C8004FF4A0714FF00002CDE900210290DE
:102C3000C4F59032114606EB040210464FF0000333
:102C40004FF021020AF0F4FB04F57A42314628489D
:102C500000680DF0ACFB18E04FF021000A904FF037
:102C60000000099008904FF4A07007904FF0C80042
:102C700006901F48006806A9CDE9001007AB08AA16
:102C800009A90AA80AF072FF00BF0BB0F0BD00B599
:102C900089B04FF00000089008A80BF03FFA1248E6
:102CA0000068C0B94FF0210007904FF00000069077
:102CB00005904FF4A07004904FF0C80003900C48AA
:102CC000006803A9CDE9001004AB05AA06A907A86E
:102CD0000AF04CFF02E00120FFF716FF002009B0C8
:102CE00000BD00000000081028000020434D5632AF
:102CF000C8000020F548006870472DE9FE4F0446E3
:102D00008A46FFF7F7FF8146D9F80000806803463E
:102D10004FF0010202A94846984710B90020BDE8CB
:102D2000FE8F9DF8080038B9E9A0074639462046CD
:102D300006F0B1F80520F2E79DF80800082807D151
:102D4000E5A007463946204606F0A5F80520E6E747
:102D50009DF80800102807D1DFA007463946204615
:102D600006F099F80520DAE79DF80800502846D1CA
:102D700000221146DA48006802F092FC07462FB99B
:102D80004FF000002060A080A07136E0781C05D1D3
:102D9000421E0721204606F07EF92EE0B888798889
:102DA000A0EB01063889F988A0EB0108388820805B
:102DB000788800EB560040F2333100FB01F04FEA17
:102DC00090200546A570F88800EB5800E070084692
:102DD00006FB00F04FEA90200546257184F8058037
:102DE0003888072809DD78894FF05B0110FB01F076
:102DF0004FEAE01568B2BB49087006208FE79DF8DE
:102E00000800602804D1B74800782070012086E7C8
:102E10009DF80800512841DB9DF8080057283DDC4B
:102E20009DF80800503880B201466A46AC480068F8
:102E300002F036FC074627B94FF0000020602071F1
:102E40002AE0781C05D1421E0521204606F023F910
:102E500022E0B8887988A0EB01063889F988A0EBD0
:102E60000108BDF800002070788800EB560040F2A1
:102E7000333100FB01F04FEA902005466570F88879
:102E800000EB5800A070084606FB00F04FEA9020C7
:102E90000546E57084F80480052040E79DF80800A9
:102EA00058284FD1D9F8000080680346022201A9B2
:102EB00048469847022801DA002030E76A46BDF804
:102EC00004108748006802F0EBFB074627B94FF073
:102ED00000002060A08033E0781C05D1421E06214E
:102EE000204606F0D8F82BE0B8887988A0EB0106D8
:102EF0003889F988A0EB0108BDF8000020707888B7
:102F000000EB560040F2333100FB01F04FEA902015
:102F100005466570F88800EB5800A070084606FB6F
:102F200000F04FEA90200546E57084F80480788927
:102F30004FF05B0110FB01F04FEAE01005466571B0
:102F40000620ECE69DF8080042281CD1002211461C
:102F50006348006802F0A4FB07460FB1781C03D158
:102F60004FF0000020700DE0B8887988A0EB0106D2
:102F7000788800EB560040F2333100FB01F04FEA55
:102F80009025257002E04FF0010020700120C6E678
:102F900070B504460D4654480078062804D12946E9
:102FA0002046FFF7AAFE70BD2A4621464C4800681D
:102FB00002F0D6FAF7E710B50446062C02DD4FF012
:102FC000FF3010BD4148006838B1404800680068D3
:102FD000406801463D480068884743480470072C14
:102FE00043D2DFE804F043040E191E2832003F48A4
:102FF00000683649086000213C48006800F0F0F89D
:103000003EE03B4800683149086001220021384811
:103010000068FFF767F833E0364800682B4908601E
:103020002EE0012134480068FDF7ADF93248006810
:103030002649086024E000212F480068FDF7A3F925
:103040002D480068214908601AE0294800681F4996
:103050000860012126480068FEF700FF00220121D8
:1030600023480068FFF73EF80AE000BF1F480068E9
:103070001649086001211D48006800F0B1F800BF42
:1030800000BF124800680068006801460F480068E9
:103090008847002095E710B50620FFF78CFF10BD8C
:1030A00010B5AFF21310FEF742FFAFF21B1000F0A5
:1030B0002FF9AFF2231000F069FBFDF759F9FFF784
:1030C000EAFF002010BD0848007870477400002017
:1030D00056302E3100000000506978790000000061
:1030E00010000020710000207000002078000020F7
:1030F000400000207C0000200000002038B504467D
:1031000094F83D00002842D04FF48040F749086011
:103110004FF00000F649C1F81402F64885684FF0F8
:103120000400F44908620CE0694604F11C000EF04A
:1031300045FD10B94FF000000090BDF80000ED49CA
:103140008860EC48C06810F0020FEDD105F47F40B4
:10315000B0F5B44F04D14FF0010084F8300011E015
:1031600005F47F40B0F5B64F08D1A9B2201D0EF08E
:10317000FEFC4FF0010084F8300003E04FF0000047
:1031800084F83000606B00F10100606321E0D948F1
:1031900085684FF00400D74908620CE0694604F1E5
:1031A0001C000EF00BFD10B94FF000000090BDF8B0
:1031B0000000D0498860CF48C06810F0020FEDD100
:1031C00005F47F40B0F5B64F03D1A9B2201D0EF033
:1031D000CEFC38BD10B5C8480068FFF78FFF10BDA2
:1031E00080F83D1090F83D2022B14FF48042C34B4F
:1031F0001A6003E04FF00002C04B1A6070472DE9DF
:10320000F04387B004460E46BD49BE48206004F135
:1032100004054FF01009C5F8009029684FEA4101F4
:1032200008460DF0FFFA686000BF4FF00000A8608C
:10323000E8602861686100BF00BFA5F104052C4665
:1032400004F11C05C5F8009029684FEA41010846C1
:103250000DF0E8FA68602E6100BF4FF00000A86032
:10326000E86000BF00BFA5F11C052C46029003904A
:10327000A54806904FF00F0001904FF00400049015
:103280004FF00000059001A99A4807F04BFE4FF05F
:103290000000074605E09748D0F8088007F10100D4
:1032A0000746082FF7D30121924807F02FFE04218B
:1032B000904807F029FE012204218E4807F0A4FE61
:1032C0004FF017004FF0000100280ADA4FEA0172B0
:1032D0004FEA12628D4B00F00F05A5F104055A5517
:1032E00005E04FEA01724FEA1262894B1A5400BF9F
:1032F0004FF0000084F830006063A06384F83C0065
:1033000001462046FFF76CFF204607B0BDE8F0837A
:1033100070B504464FF040000DF08CFA054621468A
:10332000FFF76DFF05467448056070BD02464FF417
:1033300080406E4B18604FF00000014608E0754871
:10334000406910F0040F00D004E001F101000146D3
:103350009629F4D300BF962915D14FF00000634B96
:103360001860014608E06B48406910F0040F00D077
:1033700004E001F1010001461029F4D300BF102937
:1033800001D1012070474FF00000584B186000BF7A
:10339000F8E738B504464FF00000054694F83D00C4
:1033A00008B9002038BD00220421524807F02CFE45
:1033B00068460EF05BF90EE02046FFF7B7FF18B144
:1033C0004FF00100054607E000980EF089F85249D9
:1033D000884200D900E0EFE700BF01220421454800
:1033E00007F012FE2846DDE710B504464FF0040052
:1033F0003F4988634FF005034FF0F0024FF003019F
:103400004FF001000EF0DEF80523F0220421012028
:103410000EF0D8F80123F022132118460EF0D2F84E
:103420004FF017004FF0010101FA00F14FEA50127E
:103430004FF0E02303EB8202C2F8001100BF2046E8
:10344000FFF7A7FF002010BD10B501464FF00000A8
:103450002A4A10604FF017004FF0010202FA00F202
:103460002E4B4FEA501443F8242000BF4FF00000C9
:1034700010BD2DE9F84380460E4617464FF0000078
:10348000054626E008F1040420460EF06AFB0028F9
:1034900002DC4FF0000014E0A16801F10100A0601F
:1034A000606830F811000090606900F1010060610F
:1034B0002168A068884202D14FF00000A0604FF060
:1034C000010000B907E0BDF80000705505F10100EA
:1034D0000546BD42D6D300BF2846BDE8F88310B5E7
:1034E000044604F104000EF03CFB10BD1412104021
:1034F0000010104000500C407800002018121040BE
:10350000944E0110FC4D011000CB280C18ED00E08A
:1035100000E400E000610F4020A1070080E100E02E
:1035200010B5044694F83D0050B3D4E90D01401A9B
:103530001BD094F8300098B914F83C0F00F101004A
:10354000207014F83C09052818D12046FFF721FF08
:103550000CA00AF0C7FD4FF0000084F83C000DE01D
:103560004FF0000084F83C0008E04FF48040074929
:1035700008604FF000000649C1F81402606BA063B8
:10358000002010BD73796E630A0000001412104011
:10359000001010402DE9F84304464FF0000084F875
:1035A00034006068806800F00E000646042E23D1C7
:1035B00004F108056068006800F0FF0800BF2846B5
:1035C0000EF0C2FA2968A1EB0000002800DC12E02E
:1035D000E96801F10100E860686800F80180286985
:1035E00000F1010028612968E868884202D14FF0A3
:1035F0000000E86000BF39E00C2E03D16068D0F80D
:10360000009033E0022E31D14FF000072CE000BFD4
:10361000E06A78B9236A1946636A1846236B1A462A
:103620009047E062E06A10B94FF000000FE04FF001
:103630000000A062A16A01F10100A062606A405C22
:103640000090E06AA0F10100E0624FF0010038B1A3
:103650004FF0010084F834009DF8000061680860B4
:1036600007F10100C0B20746102FD0DBBDE8F88398
:1036700010B5A0480068FFF78DFF10BD2DE9FF4190
:1036800004460F4616469C499C48206004F10805F4
:103690004FF02008C5F80080296808460DF0C2F8F0
:1036A000686000BF4FF00000A860E86028616861B2
:1036B00000BF00BFA5F108052C4604F12005C5F8A0
:1036C0000080296808460DF0ADF868602E6100BFE3
:1036D0004FF00000A860E86000BF00BFA5F1200522
:1036E0002C46676084F834004FF4964000904FF009
:1036F00003008DF805004FF000008DF804008DF8F0
:1037000006007F48029061680846694607F0E4FDBC
:103710004FF000008DF80E008DF80F004FF0010003
:103720008DF80C008DF80D006168084603A907F0BC
:1037300093FD61680846012107F04EFF6168084665
:103740000122002107F08CFE616808460122114623
:1037500007F086FE4FF018004FF0000100280ADA4B
:103760004FEA01724FEA1262664B00F00F05A5F1B5
:1037700004055A5505E04FEA01724FEA1263624AA6
:10378000135400BF204604B0BDE8F08170B5044674
:103790004FF038000DF04EF8054622465B49FFF722
:1037A0006DFF05465348056070BD10B504464FF0E7
:1037B00001034FF0F0024FF000014FF002000DF056
:1037C00001FF0123F022194602200DF0FBFE002329
:1037D000F022032101200DF0F5FE0023F022042148
:1037E00001200DF0EFFE4FF018004FF0010101FA3B
:1037F00000F14FEA50124FF0E02303EB8202C2F8CF
:10380000001100BF4FF0000010BD10B504464FF08E
:1038100004034FF0F0024FF000014FF002000DF0F2
:10382000D1FE0423F022012102200DF0CBFE4FF047
:1038300018004FF0010101FA00F1354A4FEA501328
:1038400042F8231000BF4FF0000010BD2DE9F047F3
:1038500007460E4690464FF00000054625E007F16A
:10386000080406EB050920460EF06EF9002802DC7C
:103870004FF0000014E0A16801F10100A060606851
:10388000405C89F80000606900F101006061216816
:10389000A068884202D14FF00000A0604FF0010004
:1038A00000B904E005F1010005464545D7D300BF46
:1038B0002846BDE8F08710B5044604F108000EF074
:1038C00043F910BD014691F8340028B94FF00000CB
:1038D0004A6810604A6810600020704770B504465E
:1038E0000D4661680846064A294607F093FE002007
:1038F00070BD00007C000020944E01103C4E011071
:1039000000CB280C18ED00E000E400E000100840B7
:1039100080E100E030B58DB004460D462B462246CE
:1039200043A101A805F008F901AA4FF47F01E0B214
:103930000DF0A2FE0DB030BD2DE9F0418AB04FF080
:103940000000804602E008F1010080463E488045C4
:10395000F9D341F2A8623D493D480AF0A3FE3D4833
:103960000068FDF720FAFFF79BFB3A480068FDF777
:10397000D3FE00213848FDF7FBFE01213748FDF753
:10398000F7FE4FF00004254626462BE0002007AB4B
:1039900008AA09A9009032A00AF000FD0746002FEE
:1039A0000DDBBDF82400022809D1BDF8200030B994
:1039B000BDF81C00132802D105F1010005460022C4
:1039C00006A929A00AF0EAFC0746002F07DB28A178
:1039D000069805F0B1FB10B906F10100064604F1A6
:1039E00001000446192CD1DB05B10EB909F0FAFA31
:1039F000002013210222CDE9020200921346019217
:103A0000CDE904101BA2012115A00AF033FC00200F
:103A100017A1A12317A2CDE90010012112A00AF0DD
:103A200029FCFEF721F800200AB0BDE8F081000073
:103A30007265636569766564207369676E616C3A67
:103A40002025642025640A00A02526006228011094
:103A500000800020C80000204800002060000020F6
:103A6000667776657200000066777479706500008D
:103A70004C45474F0000000070B5044600BF4FF0B2
:103A80000000206200BF4FF0FF30A08247F6FF70B9
:103A90006082208240F2FF10A18860F3CB01A180F8
:103AA000618960F3CB01618105E0A569A868A06127
:103AB00028460CF0B3FEA0690028F6D104F11800E6
:103AC000E06170BD10B504464FF00000A06104F144
:103AD0001800E0612046FFF7CFFF204610BD10B56B
:103AE00004462046FFF7C8FF204610BD4189C1F3B8
:103AF000C801A1F58072FF3A0AD0D0F80A104160DF
:103B0000C189018140F2FF11428961F3CB024281F8
:103B1000704710B5B0F910408C4201DD0CB2048240
:103B2000B0F91240944201DD14B24482B0F914405D
:103B30009C4201DA1CB2848210BDF8B504460D46E1
:103B4000A888C0F3090003462888C0F3C8000246CD
:103B50006888C0F3090001462046FFF7DAFF608954
:103B6000C0F3C800A0F58071FF3905D12868C4F8FA
:103B70000A00A888E08103E0A888C0F30900E0817A
:103B800000BF6A88C2F30902A2F101021046AA88A6
:103B9000C2F309021146A1EB0002009200BF694680
:103BA00004F120000CF031FEFF480078F0B13946F6
:103BB0000C200CF053FE06000AD030462968016044
:103BC000A98881804FF00001816000BF064601E0B6
:103BD0004FF00000E1690860E069006800B9F8BDD5
:103BE000E069006800F10800E06100BF00BFF6E78F
:103BF00070B505460C4604F1200105F120000CF0DB
:103C000004FEB4F914000346B4F912000246B4F9F4
:103C1000100001462846FFF77CFF2089C0F3090108
:103C20002889C0F30900814203DD2089C0F309001F
:103C30002881DD48007850B1A069E9690860E06931
:103C4000E8614FF00000A06104F11800E06170BD70
:103C50004FF0000101618160416000F10401C16029
:103C60004FF0FF3101804FF0010181824FF00001E0
:103C70008161704770B50446606800B905E040F2A4
:103C8000D312CAA1D0A005F0A1F84FF00000A060A7
:103C90004FF0FF3020804FF00000A0610DE0206960
:103CA00000680546206930B121690846FFF717FF13
:103CB00006460CF0B3FD256100BF20690028EED157
:103CC00070BD10B503460DE059680846FFF70EFFBA
:103CD000586800680446596818690860586818618F
:103CE0005C6000BF58680028EED110BD10B50446D6
:103CF0002046FFF7E6FF2046FFF7BCFF204610BD39
:103D00002DE9FF4105460E4633E030680446204663
:103D1000FFF7ECFEB5F90000A188C1F3C801401A15
:103D2000B5F91410884221DD206830606846218A88
:103D30000391618A0291A18A0191A188C1F3C8010E
:103D4000018000BFBDF90000BDF90810A0EB010023
:103D5000012803DD286920602C6109E044B1204678
:103D6000FFF7BDFE07460CF059FD01E0BDE8FF81FD
:103D700000BF30680028C8D100BFF7E710B504467F
:103D8000A068E060E0680068A060A06820B1A0685A
:103D900001462046FFF7B4FF10BD10B5044604F1FC
:103DA00004012046FFF7ACFF04F10400E060E06886
:103DB0000068A060A06820B1A06801462046FFF717
:103DC0009FFF10BD2DE9F04704460D462888C0F33B
:103DD000C800B4F90010884206D02888C0F3C80093
:103DE00020802046FFF7D9FF44E06888C0F309012E
:103DF000A0680089C0F30900814203DD2046FFF777
:103E0000BDFF37E0A888C0F30901A068C088C0F3EF
:103E10000900814200DA30E0A16808462946FFF730
:103E20008CFE17E0A068006807463868A168086043
:103E3000A16808463946FFF7DBFE2FB13846FFF789
:103E40004EFE82460CF0EAFCA06801462046FFF7D1
:103E500057FF00BFA068006848B1A888C0F30901F7
:103E6000A0680068C088C0F309008142DADA002047
:103E7000BDE8F087A0680028B7D100BF49462420DC
:103E80000CF0ECFC5FEA000804D04046FFF71AFE95
:103E9000804601E04FF00000064656B94E480078D3
:103EA00020B1A06901464DA00AF01CF94FF0FF3087
:103EB000DEE7A06900F10100A061A0683060E06861
:103EC0000660E66029463046FFF737FE0020CFE760
:103ED00002464FF00003184604E000F101031846C3
:103EE0000B6819460029F8D1704770B5054614468D
:103EF0001960216008461A460BE0066806B909E019
:103F00000668304616683246066806B902E006685A
:103F10003046F2E700BF16681E604FF000061660DC
:103F200070BDF0B50646059D2C46284664E054B3A6
:103F30000F6847B3C0B11768B7B117683F6AD1F8C7
:103F400000C0DCF820C067450EDD1768D3F800C05C
:103F5000CCF800701F683F681F601F683F681760DB
:103F6000A0F10107384647E00F68D3F800C0CCF84D
:103F700000701F683F681F601F683F680F60A4F1F2
:103F800001073C4638E098B317688FB31768D3F839
:103F900000C0CCF800701F683F681F601F683F6852
:103FA0001760A0F1010724E0880000202E2E5C2E6F
:103FB0002E5C636F6D6D6F6E5C7372635C626C6FB1
:103FC000622E63707000000021616374697665423F
:103FD0006C6F6273000000002C000020626C6F6246
:103FE000732025640A686561702066756C6C00003A
:103FF00001E0384600E0F0BD99E730B587B00446EF
:10400000206908B907B030BD2069014605AB06AA92
:104010002046FFF76AFF4FF00100054627E04FF00A
:1040200000000490039004A8029003A801900DE002
:1040300002AB05AA06A920460095FFF772FF01AB67
:1040400005AA06A920460095FFF76BFF06980028F1
:10405000EED105980028EBD101990860029908601B
:1040600004980690039805904FEA45000546059888
:104070000028D4D10698206100BFC3E770B506467A
:10408000306900B970BD35692C680EE0286A216A74
:10409000884200DB06E04FF4E672AFF2F00105A0C3
:1040A00004F094FE254628680446002CEED100BF9B
:1040B000E8E70000692D3E6D6F6D656E74732E61CB
:1040C000726561203E3D206A2D3E6D6F6D656E7498
:1040D000732E6172656100002DE9F04104460E46C1
:1040E00017463946204601F08DFE04464FF007037F
:1040F0004FF01C02FF4904F5D2700CF03FFCA0F514
:10410000D27004464FF0000004F51674A0774FF00B
:104110001400A0624FF0640020844FF0140060840B
:104120004FF00700A0854FF00000606344F8B86CC2
:104130004FF00800E0854FF0000084F830004FF4A5
:104140007A700CF06FFB20614FF00000A082A08419
:10415000E084A4F5167405460BE0C5EBC50204F532
:10416000D27101EB82010846FFF784FD05F10100E1
:104170000546072DF1DB2046BDE8F08110B5044669
:10418000D4F8681208460CF045FB07231C22DA49D4
:1041900004F5D27005F026F8204601F072FE0446C0
:1041A000204610BDF0B506460B4614464FF00007FA
:1041B0003D4639463A4638462FE033F8117047B944
:1041C00012B903EB41073A4600F10107BFB2384686
:1041D0001BE0CAB133F81170178001F1010733F801
:1041E0001770578001F1020733F81770978001F1BB
:1041F000030733F81770D78001F1040733F81770FD
:10420000178102F10A073A4600BF05F10107BFB264
:104210003D4601F10507BFB23946A542CDDBF0BDF1
:104220002DE9FE4F0C461546A188628811440846C8
:1042300001EBD0714FEA61010E462189E2881144F9
:10424000084601EBD0714FEA61010F46A9886A88E0
:104250001144084601EBD0714FEA61018846298973
:10426000EA881144084601EBD0714FEA61018946A2
:10427000A7EB090108460DF0C0FFA8EB060100906E
:1042800008460DF0BAFF0190DDE900010CF00CFFCB
:1042900083469A490DF0D8FF994902900DF096FF98
:1042A000824650460DF09BFF00B2BDE8FE8F2DE91F
:1042B000F0418AB006464FF0000738463C463D467E
:1042C00028E051F82080274604F1010C1FFA8CFCED
:1042D00064464DF8278000F101073B4614E051F891
:1042E00023703F8807F0070751F820C0BCF800C0D2
:1042F0000CF0070C674503D14FF001073D4600E085
:1043000006E003F101073B46B2F900709F42E6DC8C
:1043100000BF1846B2F90070874201DD0A2CD0DBDD
:1043200075B14FF00007384606E05DF8207041F89F
:10433000207000F101073846A042F6DB27B2178053
:104340000AB0BDE8F0812DE9F04106461C46A4B153
:104350008F88B1F802C067443D4607EBD5774FEA36
:104360006707B2F804C0B2F80280C44460460CEBA0
:10437000D07CA7EB6C073BB213E00F89B1F806C005
:1043800067443D4607EBD5774FEA6707B2F808C0A8
:10439000B2F80680C44460460CEBD07CA7EB6C07F7
:1043A0003BB2002B03DA584200B2BDE8F081184658
:1043B000FBE72DE9F04F85B082460D4616461F46B5
:1043C0004FF0000004460EE055F82400024639463E
:1043D00050460E9BFFF7B7FF80B22DF8140004F192
:1043E000010080B20446B44201DA0A2CECDB30E072
:1043F0004FF001000446834623E0601E3DF81000A4
:104400003DF81410884218DD3DF81480A4F1010035
:104410003DF810002DF81400A4F101002DF81080D3
:1044200055F8249055F8200045F82400A4F1010027
:1044300045F820904FF00000834604F1010080B25F
:104440000446B44201DA0A2CD7DBBBF1000F00D0DE
:1044500000E0CDE700BF05B0BDE8F08F2DE9F04FDB
:104460008CB014464FF0000A5046CDF828A0CDF885
:104470002CA06BE051F820A0BAF804A051F820B0AD
:10448000BBF802B0AAEB0B0A51F820B0BBF808B099
:1044900051F820E0BEF806E0ABEB0E0B0AFB0BF286
:1044A0004FF0640A02FB0AFA4FF4FA7BBAFBFBF7FF
:1044B0004FF4C87A02FB0AFA4FF0640BBAFBFBFA1E
:1044C0000AEB020C4FF000031E462EE0984200D18A
:1044D00028E051F823A0BAF804A051F823B0BBF8A3
:1044E00002B0AAEB0B0A51F823B0BBF808B051F8A0
:1044F00023E007E0F13A00108D3B00100000344348
:10450000560E4940BEF806E0ABEB0E0B0AFB0BF86B
:10451000474506D8E04504D806F1010A1FFA8AFA91
:10452000564600BF03F1010A5346B4F900A09A456C
:10453000CCDCDDF828A0564505DD0A9691464FF003
:10454000010ACDF82CA000F1010A5046B4F900A0F0
:1045500082458FDCDDF82CA0BAF1000F03D14FF0BB
:10456000000AA4F800A04FF0000A5046554638E073
:1045700051F820A0BAF804A051F820B0BBF802B05E
:10458000AAEB0B0A51F820B0BBF808B051F820E0B4
:10459000BEF806E0ABEB0E0B0AFB0BF24FF0640A21
:1045A00002FB0AFA4FF4FA7BBAFBFBF74FF4C87A26
:1045B00002FB0AFA4FF0640BBAFBFBFA0AEB020C9F
:1045C0004F450BD8E14509D851F820B0AA4605F16E
:1045D000010E1FFA8EFE75464DF82AB000F1010A51
:1045E0005046B4F900A0824501DD0A2DC0DB4FF032
:1045F000000A504606E05DF820A041F820A000F136
:10460000010A5046A842F6DB0FFA85FAA4F800A08A
:104610000CB0BDE8F08F70B503460C46D3F8685275
:1046200029464FF00005284616E000EB800531F8DA
:10463000155025F0070595420BD100EB800531F8A8
:10464000155005F0070545EA040500EB800621F842
:10465000165000F101052846B3F86C528542E4DC9F
:1046600070BD2DE9F04782460D461646688800B2B7
:104670000146A88800B20746E88800B202462889A9
:1046800000B28446708800B20346B08800B280460B
:10469000F08800B20446308900B2814699420EDBB0
:1046A000A24201DC644505DD4A4508DCE14501DD47
:1046B000944204DCA1EB080000B2BDE8F0878B4215
:1046C0000CDBA24201DC644505DD4A4506DCE14520
:1046D00001DD944202DCD81B00B2EEE7A2420DDB02
:1046E000994201DCBB4205DD414507DCB84501DDEF
:1046F0008B4203DCA2EB090000B2DEE794420DDB43
:10470000994201DCBB4205DD414507DCB84501DDCE
:104710008B4203DCA4EB0C0000B2CEE747F6FF703F
:10472000CBE770B504460D461646288828B1308878
:1047300018B128883188884201D1002070BD94F8D2
:104740008802022808D0288800F007000146204689
:1047500002F0BEF801280CD194F8880202280AD091
:10476000308800F007000146204602F0B1F8012829
:1047700001D00020E2E7324629462046FFF771FFCC
:10478000B4F88612884201DC0120D7E70020D5E783
:104790002DE9F04F99B007464FF000001690B7F89A
:1047A0006C1201EB8101D7F8680200EB41008246F0
:1047B000D7F86802044648E004F10A0006463FE0E4
:1047C000324621463846FFF7ACFF38B32088072829
:1047D00016DC3088072813DC169800F1010080B23F
:1047E000169016984FEAC0404FEA10408146208844
:1047F00040EA09002080308840EA090030801CE04F
:10480000208807280BDD3088072808DC208820F066
:1048100007008146308840EA090030800DE030888A
:1048200007280ADD2088072807DC308820F00700E9
:104830008146208840EA0900208006F10A000646E9
:104840005645BDD304F10A0004465445B4D3D7F805
:10485000680204462BE02088072800DC24E020883A
:1048600020F00700814604F10A00064619E030886E
:10487000072800DC12E0308820F007001790179816
:1048800081450AD0324621463846FFF74AFF20B11B
:1048900049463846179AFFF7BEFE00BF06F10A00E8
:1048A00006465645E3D300BF04F10A0004465445CA
:1048B000D1D3D7F8680200F577700B904FF0010B59
:1048C000D7F870824FF00000A7F874027CE14FEA3D
:1048D000CB404FEA104081464FF000001890D7F8C7
:1048E0006802044611E0208820F00700484509D1FD
:1048F000BDF9601088B200F1010000B2189001A863
:1049000040F8214004F10A000446544503D2BDF9A1
:1049100060000A28E7DB18AA01A93846FFF79EFDC8
:10492000BDF96000022800DA4AE14FF000000546B8
:104930000C900D90129013901490159049E001A9DD
:10494000159851F82000408851F825104988884270
:1049500000DD159501A9139851F82000C08851F881
:104960002510C988884200DD139501A9149851F8D3
:104970002000808851F825108988884200DA149533
:1049800001A9129851F82000008951F825100989D1
:10499000884200DA129501A850F82500808801A904
:1049A00051F825104988A0EB01010D9808440D909D
:1049B00001A850F82500008901A951F82510C988DF
:1049C000A0EB01010C9808440C9005F1010000B225
:1049D0000546BDF960008542B1DBBDF960100D9858
:1049E00090FBF1F00D90BDF960100C9890FBF1F088
:1049F0000C9001A9159851F820004088A8F80200F1
:104A0000149851F820008088A8F80400139851F8F1
:104A10002000C088A8F80600129851F820000089EC
:104A2000A8F80800149851F82000818801AA159868
:104A300052F820004088A1EB00004FF0640100FB19
:104A400001F00F900D990F9890FBF1F00F9001A9D4
:104A5000129851F820000189139852F82000C0885C
:104A6000A1EB00004FF0640100FB01F00E900C99E7
:104A70000E9890FBF1F00E90DDE90E1088420DDDEE
:104A8000012001A90090159851F820000346BDF8B7
:104A9000600082B23846FFF78CFC0CE0002001A9D0
:104AA0000090139851F820000346BDF8600082B2D0
:104AB0003846FFF77EFC18AA01A93846FFF7F7FB36
:104AC000BDF96000022800DA7AE0BDF9600005282F
:104AD00002DD4FF0050018904FF0000005461190E0
:104AE00013E011984FEAC0404FEA1040119001A81E
:104AF00050F82500008800F00700119940EA0100F5
:104B0000119005F1010000B20546BDF96000854233
:104B1000E7DBBDF86000A0F1010000B205464FF0F0
:104B20000000109019E010984FEAC0404FEA104082
:104B3000109001A850F82500008800F00700109997
:104B400040EA010010904FF0000001A951F8251033
:104B50000880A5F1010000B20546002DE3DADDE989
:104B60001010884211DA1198A8F80000BDF9600011
:104B7000401E01AB53F8200002460198014638461A
:104B8000FFF74EFBA8F80A0010E01098A8F8000004
:104B900001980246BDF96000401E01AB53F82000A9
:104BA00001463846FFF73CFBA8F80A0008F10C0064
:104BB0008046B7F8740200F10100A7F8740200BF44
:104BC0000BF1010000B283461698834503DC0B9875
:104BD0008045FFF47CAED7F8680204461FE097F8E2
:104BE0008802032806D12088072815DD4FF0000031
:104BF000208011E0208807280BDC97F88802022823
:104C000007D02088C0B20146384601F061FE012875
:104C100002D14FF00000208004F10A000446544500
:104C2000DDD319B0BDE8F08F2DE9FC4F96464FF06B
:104C3000000004460246009069E031F8120000B915
:104C40005DE002F1010031F8105002F1020031F88C
:104C5000106002F1030031F8107002F1040031F825
:104C600010C004F1010080B2019002F1050080B291
:104C7000034640E031F8130000B933E003F10100CE
:104C800031F8108003F1020031F8109003F10300B5
:104C900031F810A003F1040031F810B045450FDCE5
:104CA0004E450DDB57450BDCDC4509DB4FF00000C2
:104CB00021F81300009800F1010080B2009010E08C
:104CC000A8450EDCB1450CDBBA450ADCE34508DB40
:104CD0004FF0000021F81200009800F1010080B2AE
:104CE000009000BF019800F1010080B2019003F133
:104CF000050080B2034601987045BBDB00BF04F19C
:104D0000010080B2044602F1050080B202467445FB
:104D100093DB0098BDE8FC8F2DE9F74F83B0824606
:104D20004FF00000029003460090C2E031F81300FB
:104D300000B9B5E003F1010031F810C003F1020041
:104D400031F8108003F1030031F8109003F10400F2
:104D500031F810B0029800F1010080B2019003F127
:104D6000050080B2024694E031F8120000B987E0F5
:104D700002F1010031F8104002F1020031F8105048
:104D800002F1030031F8106002F1040031F81070F4
:104D900064451BDCACEB0500BAF884E2704515DC19
:104DA000B14501DC5E4503DDB9450FDC5F450DDC37
:104DB00003F1010021F810404FF0000021F812002B
:104DC000009800F1010080B2009058E045451BDBDF
:104DD000A4EB0800BAF884E2704515DCB14501DCAB
:104DE0005E4503DDB9450FDC5F450DDC03F10200D4
:104DF00021F810504FF0000021F81200009800F147
:104E0000010080B200903AE04E451BDCA9EB0700A0
:104E1000BAF884E2704515DCA44501DC444503DDA5
:104E2000AC450FDC45450DDC03F1030021F81060B3
:104E30004FF0000021F81200009800F1010080B24C
:104E400000901CE05F451ADBA6EB0B00BAF884E289
:104E5000704514DCA44501DC444503DDAC450EDCA3
:104E600045450CDC03F1040021F810704FF0000000
:104E700021F81200009800F1010080B2009000BFFC
:104E8000019800F1010080B2019002F1050080B2AA
:104E90000246DDF814E001987045FFF665AF00BFEB
:104EA000029800F1010080B2029003F1050080B287
:104EB0000346DDF814E002987045FFF637AF00981E
:104EC00006B0BDE8F08F70B505464FF0000004460F
:104ED00014E0C4EBC40205F5D27101EB820108466F
:104EE000FEF7EFFEC4EBC40205F5D27101EB8201BF
:104EF0000846FFF782F804F101000446072CE8DBBE
:104F000070BD2DE9FC4107460D4616461C46DDF8EE
:104F100020809DF8000065F302008DF80000BDF8C8
:104F2000000066F3CB00ADF80000ADF8024004EBE2
:104F3000080080B2ADF80400A5F10101C1EBC10287
:104F400007F5D27101EB820108466946FEF73AFF88
:104F5000BDE8FC812DE9F04F8BB006464FF0FF30E5
:104F600080464FF000000A90054606A84FF0000169
:104F70000180C1804180818000BF08460590FAE031
:104F800000BFD6F8A011084606A901F0BAFC002817
:104F9000F7D0BDF818004FF6FE71884200DBEBE059
:104FA0000598002800DAE6E0BDF8180050BB4FF67F
:104FB000FF7008904FF0000009908DB1AAEB070038
:104FC000401C80B20090781E80B203461FFA88F21F
:104FD000E9B23046FFF795FF05904FF00000054617
:104FE00008F1010080460A9800F101010A910528A4
:104FF00007D10121FE4800680AF01EFE4FF00000B4
:105000000A90B8E0BDF8180000F00704BDF91C00D4
:105010000490BDF91A00039004984FEAC030049040
:1050200003984FEAC0300390BDF81E00029002982A
:1050300010B94FF0010002900299049890FBF1F032
:105040000490DDE9021090FBF1F00390601E00EB8C
:10505000800106F1E00050F821100498814276DAD0
:10506000601E00EB800106F1E00000EB810041686A
:10507000049881426BDD601E00EB800106F1E000C8
:1050800000EB810081680398814260DA601E00EBCA
:10509000800106F1E00000EB8100C16803988142C5
:1050A00055DDD6F86C110298814250DCBDF818002D
:1050B0004FEAE000ADF81800BDF818900898A9EB89
:1050C0000000052805D80998A04202D14FF0010040
:1050D00001E04FF0000083462DB9BBF1000F02D074
:1050E0002546089F17E0B5B1A54202D1BBF1000FDC
:1050F00011D1AAEB0700401C80B20090781E80B24C
:1051000003461FFA88F2E9B23046FFF7FAFE05902F
:105110004FF00000054625B1BBF1000F01D0CA4693
:1051200010E07DB9BBF1000F0CD102200090A9F175
:10513000010080B203461FFA88F2E1B23046FFF761
:10514000E0FE05900994CDF8209013E0FFE78DB1C3
:10515000AAEB0700401C80B20090781E80B2034684
:105160001FFA88F2E9B23046FFF7CBFE05904FF008
:105170000000054600BF03E700BF3046FFF7A3FE6F
:10518000BDF81800A0F57F41FE3903D1481E0BB0D1
:10519000BDE8F08F0020FAE72DE9F04F87B0044614
:1051A0002046FFF7D7FE00281BDA4FF000050BE082
:1051B000C5EBC50204F5D27101EB82010846FEF78A
:1051C00059FD05F101000546072DF1D34FF0000010
:1051D000A4F86C02A4F874024FF0FF3007B0BDE8E9
:1051E000F08F4FF000094FF0010084F876024FF085
:1051F0000000C4F88C020546A4F86C02A4F87402FE
:10520000A7E094F88802022806D0681CC1B22046A4
:1052100001F05EFB012802D14FF0010001E04FF0E8
:1052200000008246B4F86C0200EB800006464FF0A6
:1052300000008346D4F8680200EB46000690B4F8FC
:105240006C020590C5EBC50104F5D27000EB81003E
:105250000069074656E0BAF1000F03D000BF386A74
:105260000A2808DBBAF1000F06D100BF386AD4F86B
:105270008012884200DA40E001A8398A0491798AD4
:105280000391B98A0291B988C1F3C801018000BFB6
:10529000BDF80400BDF80C10401A012800DC2CE019
:1052A00005F1010004F51A74216821F81600BDF813
:1052B000101006F10100226822F81010BDF8081045
:1052C00006F10200226822F81010BDF80C1006F159
:1052D0000300226822F81010BDF8041006F1040043
:1052E000226822F81010A08800F10100A080A4F527
:1052F0001A7406F10500064600BF386807460BF130
:10530000010083464FB1B4F86C02B4F878128842B9
:1053100003DAB4F87A0258459DD8BAF1000F15D1D6
:1053200012E0B4F86C120598081A80B202462046C2
:105330000699FFF7F1FC8046B8F1000F00D104E0B8
:1053400009EB080080B28146EBE700BF05F10100E0
:105350000546072DFFF455AFB4F86C020246D4F8A9
:10536000680201462046FFF75FFC484480B2814650
:1053700094F8880260B1B4F86C1201EB8101D4F8A2
:10538000680200EB4100C4F870022046FFF700FA03
:10539000B9F1000F02D194F8880278B1B4F86C0228
:1053A0000246D4F8680201462046FEF7FBFE80461E
:1053B000B4F86C02A0EB0800A4F86C024FF00000F7
:1053C000A4F87C02A4F87E0284F8760205460BE07D
:1053D000C5EBC50204F5D27101EB82010846FEF768
:1053E00049FC05F101000546072DF1D30020F5E643
:1053F000C80000202DE9F04703460F469446394681
:105400004FF008008046BCF1120F02D20020BDE828
:10541000F08793F8760228B9B3F87E02B3F8749255
:10542000484501DB0020F2E7B3F87C0260B9B3F82D
:105430007E0248B94AF65520088008F1010080B282
:10544000804601F1020001464AF65620088003F525
:105450001C73B3F80E9009EB4909186830F829005D
:10546000024614468A80B3F80E9009EB4909186881
:1054700000EB89008088B3F80EA00AEB4A0AD3F843
:10548000009009EB8A09B9F80290A0EB090085B2F7
:1054900004EB050080B204464D81B3F80E9009EB91
:1054A0004909186800EB89000089B3F80EA00AEBDF
:1054B0004A0AD3F8009009EB8A09B9F80690A0EBE4
:1054C000090086B204EB060080B204468E81B3F870
:1054D0000EA00AEB4A0AD3F8009009EB8A09B9F842
:1054E0000290284605EBD07A09EB6A091FFA89F980
:1054F0004A4604EB020080B20446CA80B3F80EA00C
:105500000AEB4A0AD3F8009009EB8A09B9F8069029
:10551000304606EBD07A09EB6A091FFA89F94A4648
:1055200004EB020080B204460A81B3F80E9009EB46
:105530004909186800EB8900408980B2024604EBF3
:10554000020080B20446CA814C80D88900F1010073
:10555000D881A3F51C734FEA48404FEA104056E744
:105560002DE9F74F81B004468B465D464FF00700AA
:105570000090B4F87C0200EB8000074603981028E6
:1055800003D2002004B0BDE8F08FB4F87C02B4F878
:105590006C12884208DB94F8880228B159462046EC
:1055A000039AFFF727FFEDE794F8760228B9B4F8DD
:1055B0007C02B4F86C12884201DB0020E2E7B4F808
:1055C0007C0250B94AF655202880009800F101006D
:1055D00080B2009005F1020005464AF65520288069
:1055E00004F51A74206830F817000646B046AE80FD
:1055F00007F10200216831F8101007F1010022685C
:1056000032F81000A1EB00001FFA80F908EB090046
:1056100080B28046A5F80A9007F10400216831F8AD
:10562000101007F10300226832F81000A1EB00000F
:105630001FFA80FA08EB0A0080B28046A5F80CA099
:1056400007F10101226832F81110484609EBD072C7
:1056500001EB620189B20E4608EB060080B280467B
:10566000EE8007F10301226832F8111050460AEB70
:10567000D07201EB620189B20E4608EB060080B2DF
:1056800080462E81A5F80280A08A00F10100A08248
:10569000A4F51A7400984FEA40404FEA104071E7B1
:1056A0002DE9F04F03460D46164693F8760218B1E1
:1056B0004FF0FF30BDE8F08F002D52D116B14FF002
:1056C00001003080D3F88C0210B1D3F88C02F1E7DE
:1056D0004FF0000189461AE001EB810AD3F8680215
:1056E00000EB4A029088B2F802A0A0EB0A00B2F8E0
:1056F00008A0B2F806B0AAEB0B0A00FB0AFCCC45E6
:1057000002D9E146C3F88C2201F101000146B3F849
:105710006C028842E0DC4FF0000001461AE001EB29
:10572000410AD3F8700200EB8A04A088B4F802A002
:10573000A0EB0A00B4F808A0B4F806B0AAEB0B0A74
:1057400000FB0AFCCC4502D9E146C3F88C4201F1CA
:1057500001000146B3F874028842E0DCD3F88C0201
:10576000A8E7072D1DDC4FF000010F46884613E027
:1057700001EB810AD3F8680200EB4A021088A842C4
:1057800007D1B8F1000F00D1904607F1010080B2B7
:10579000074601F101000146B3F86C028842E7DCDC
:1057A0001CE04FF000010F46884613E001EB410A70
:1057B000D3F8700200EB8A042088A84207D1B8F120
:1057C000000F00D1A04607F1010080B2074601F1A9
:1057D00001000146B3F874028842E7DC06B1378065
:1057E000404667E730B5039CD0F868520D60B0F8CA
:1057F0006C521560D0F870521D60B0F8745225607C
:1058000030BD30B50446039D642902DCA4F878124B
:1058100003E04FF06400A4F87802A4F87A22C4F8F8
:10582000803284F88852002030BD2DE9FF4F83B0CC
:105830000D4692461E46DDF840B04FF00000019044
:10584000804647F6FF7000904CE04FF000000446A1
:1058500042E04FF000008146029019E055F829001F
:1058600056F8241088420BD055F82900008800F023
:10587000070056F82410098801F00701884203D177
:105880004FF00100029005E009F1010000B28146ED
:10589000D145E3DB00BF029800B119E056F82400BF
:1058A000024655F8280001460398FEF7DAFE07463F
:1058B00000998F420BDA009755F828101198016073
:1058C00056F82410129801604FF00100019000BFBB
:1058D00004F1010000B204465C45BADB08F10100A6
:1058E00000B28046D045B0DB019807B0BDE8F08F2C
:1058F000704700002DE9F04704460D461646DDE9E5
:10590000098C089FAC4201DAA24600E0AA46D146C3
:10591000B14501DACA4600E0B246D146AC4201DDEB
:10592000A24600E0AA465046B04201DD824600E0B1
:10593000B246504688F80000A0EB090A0AF0FF01C1
:10594000322806DD4FEA012A9AFBF0FA87F800A018
:1059500003E04FF0000A87F800A000B149B94FF00A
:10596000000A87F800A083F800A08CF800A0BDE82A
:10597000F087844206D1A5EB060A4FEA0A2A9AFB71
:10598000F1F212E0854208D1A6EB040A4FEA0A2A96
:105990009AFBF1FA0AF5007207E0A4EB050A4FEA58
:1059A0000A2A9AFBF1FA0AF58062002A02DA02F565
:1059B000C06A52464FF0060A92FBFAFA52461A7033
:1059C0008CF8001000BFD2E70346FF2B02D94FF03E
:1059D000FF000346FF2902D94FF0FF000146FF2ACE
:1059E00002D94FF0FF000246180440EA012010439C
:1059F000704710B5C4B21C604FEA10242046C4B2F0
:105A000014604FEA10242046C4B20C6010BD3EB5AD
:105A100005460C466B4601AA02A92846FFF7E9FF96
:105A2000029820440290019820440190009820445C
:105A30000090DDE900210298FFF7C6FF3EBD2DE989
:105A4000FE4306466B4601AA02A93046FFF7D1FF86
:105A5000DDE90110884201D9029800E0019805466D
:105A60000098854201D9284600E00098054628465E
:105A70000CF0CAFB0746394617480CF0A7FB044652
:105A800002980CF0C1FB804621460CF0DDFB074676
:105A90000CF0ACFBC0B2029001980CF0B5FB804654
:105AA00021460CF0D1FB07460CF0A0FBC0B20190E0
:105AB00000980CF0A9FB804621460CF0C5FB074678
:105AC0000CF094FBC0B20090DDE900210298FFF7D2
:105AD0007BFFBDE8FE83000000007F43F8B504466D
