:020000041400E6
:10000000F07B0020D900001400F002F800F08AF81C
:100010000AA090E8000C82448344AAF10107DA4563
:1000200001D100F07FF8AFF2090EBAE80F0013F02B
:10003000010F18BFFB1A43F001031847F40000003A
:10004000240100000A444FF0000C10F8013B13F0AB
:10005000070408BF10F8014B1D1108BF10F8015B21
:10006000641E05D010F8016B641E01F8016BF9D114
:1000700013F0080F1EBF10F8014BAD1C0C1B09D16B
:100080006D1E58BF01F801CBFAD505E014F8016BDD
:1000900001F8016B6D1EF9D59142D6D3704700006F
:1000A000103A24BF78C878C1FAD8520724BF30C8A4
:1000B00030C144BF04680C60704700000023002476
:1000C00000250026103A28BF78C1FBD8520728BF68
:1000D00030C148BF0B607047DFF82C00016841F465
:1000E0007001016009480047FEE7FEE7FEE7FEE712
:1000F000FEE7FEE7FEE7FEE7FEE7FEE70448054908
:10010000054A064B7047000088ED00E00900001426
:10011000F00B0020F07B0020F0730020F073002033
:100120007046704740F2DF1CC1F2000C60470000CF
:10013000600100140000001000720100A000001413
:1001400060730114000000209801000044000014B6
:10015000B073011498010020587A0000BC0000140C
:10016000F07B0020D9000014E9000014EB0000141B
:10017000ED000014EF000014F10000145A5A5A5A0E
:10018000000000000000000000000000F300001468
:10019000F500001400000000F7000014F90000143E
:1001A000FB0000148DAD0010FB000014FB000014D8
:1001B000FB000014FB000014FB000014FB00001403
:1001C00045B50010FB000014FB000014FB000014F8
:1001D000FB000014FB000014FB000014FB000014E3
:1001E000FB000014FB0000143D1D0010FB00001478
:1001F000FB000014FB000014FB000014B3300010DF
:1002000051350010FB000014FB000014FB0000142B
:10021000FB000014FB000014FB000014FB000014A2
:10022000FB000014FB000014FB000014FB00001492
:10023000FB000014FB000014FB000014FB00001482
:10024000FB000014FB000014FB000014FB00001472
:1002500000000000FB000014FB000014FB00001471
:1002600000000000FB000014FB000014FB00001461
:10027000FB0000146E2909F0D180702909F030824A
:10028000662912F01280652912F00F80672912F09A
:100290000C806129AFF3008003681B0A28BF41F07E
:1002A0008001692908F08C84642908F08984752903
:1002B00008F086846F2909F0BB81782909F0FC8158
:1002C000E92909F05381E42909F05081F52909F061
:1002D0004D81EF2909F0B881F82909F0FB81036805
:1002E000DB0928BF41F08001632909F0D48073291C
:1002F00009F0D980E32909F0B584F32909F0BA841B
:10030000002070471FB511F0B2FF9DE8030008F010
:10031000AFFF09F017FD04000020002111F016FBCB
:10032000401C60600020002111F0FAFAE06008F043
:1003300057FF1FBD10B5002010F0DFFB10BD09F006
:10034000D3FC1146FFF7DEFF03F016FB09F0AEFD0C
:1003500003B4FFF7EFFF03BC09F0EEF94C494D4938
:1003600001604FF0010101714FF0000141717047D0
:1003700010B5082010F000FB0446FFF7EFFF04461D
:100380004548046010BD0171704710B504464FF038
:1003900002034FF0F0024FF003014FF0010011F0A3
:1003A000D5F84FF004003D4988624FF480603C4925
:1003B00008604FF008003B4948604FF0000010BD56
:1003C00010B504464FF00000364948604FF0050371
:1003D0004FF0F0024FF003014FF0010011F0B6F8BA
:1003E000002010BD70B506464FF0000211462E48A1
:1003F000006805F059F90446CCB3307990B1A18872
:100400006288A1EB0201084601EBD07102EB6101A9
:100410000D464FEA054005464FF4A070B5FBF0F0DD
:10042000054613E02189E288A1EB0201084601EBB1
:10043000D07102EB6101C1F1C8010D464FEA0540E0
:1004400005464FF0C800B5FBF0F005464FF6C0700A
:1004500005EA0000054613480560707910B964206C
:1004600010F0B4FF4FF480601049086006E0FFE729
:100470004FF000000D4908600A49086014B14FF0C0
:10048000010001E04FF000007071002070BD00001D
:1004900008510110485101100000002000101040C8
:1004A0001812104000100E401000002014121040CE
:1004B0002DE9FF4F85B01E46DDE90501884201D2D6
:1004C000059800E0069804460798844201D2204629
:1004D00000E007980446DDE90501884201D9059846
:1004E00000E0069807460798874201D9384600E0A1
:1004F000079807460599A1EB040101FB01F1069A53
:10050000A2EB0402069BA3EB040302FB0311079A70
:10051000A2EB0402079BA3EB040302FB031011F000
:1005200037FE8146484611F099F8804611F022FEC8
:1005300005461E2D02D94FF01E0005460A2D03D296
:100540004FF00000019012E0284611F021FE824693
:10055000304611F01DFE8346FE4911F039FE8146FA
:10056000514611F035FE804611F004FE01900198CD
:10057000B0F57A6F02D94FF47A60019001A80DF0BE
:10058000A3FB05A807C805F023FA814605F05BFA2E
:10059000804607AB06AA05A905F02FFA0598C0B258
:1005A00004900698C0B203900798C0B2029002AAC5
:1005B00003A904A80CF032FC09B0BDE8F08F38B5EF
:1005C00004464FF0000060702072009068460DF005
:1005D00005FE4FF00000207038BD10B504462046DF
:1005E000FFF7EDFF204610BD704738B505460C46B5
:1005F000684610F0FFFF00BF009810F035FFA042E2
:10060000FAD30EF0A1F838BDF8B504460D464FF008
:100610000000064619E04FF00000009068460DF01B
:10062000DDFD4EF660212046FFF7DFFF6178CA4A04
:1006300002EB810108460DF0D1FD4EF66021204607
:10064000FFF7D3FF06F101000646AE42E3DBF8BD3B
:100650007FB504464FF0000003904FF0A0000290D9
:100660004FF0640001904FF00000009001AB02AA2F
:1006700004F1010103A800F039FD0546002D00DA60
:100680007FBD0121B548006801F021FB042120460F
:10069000FFF7BAFF00BFF3E738B5044660780728D4
:1006A00000DD38BD4FF00000009068460DF096FD6B
:1006B0004EF660212046FFF798FF6178A64A02EBCC
:1006C000810108460DF08AFD00BFEAE7F0B593B05E
:1006D00007460FAC4FF000052846206005F11000DA
:1006E0006060606801469E4A4FF0040010F0F9F91E
:1006F000A06000BF0EA8294681704170017000BF44
:1007000012A84FF0A0014FF064020180428000BFA8
:1007100004460FAB224693499348006805F0CFFE8C
:10072000032000908D480422114603680FA800F0B2
:1007300078FC0FAA8B4901A805F039FA0AA901A88B
:1007400005F0F3FA06460BAB0CAA0DA9304605F0EE
:1007500054F9DDE90A32DDE90C10FFF7A9FE0FAC10
:10076000A168084610F0F8F800BF13B0F0BD30B52E
:1007700089B0044610F044FD0546207AF0B14FF0F0
:10078000210008904FF00000079006904FF4A070F1
:1007900005904FF0C80004904FF000006F490968C1
:1007A00004AACDE90021029005AB06AA07A908A872
:1007B0000DF0FAFB2046FFF789FF1DE02078D8B145
:1007C0004FF0210008904FF00000079006904FF482
:1007D000A07005904FF0C80004904FF001005F49F1
:1007E000096804AACDE90021029005AB06AA07A971
:1007F00008A80DF0D9FB00BF2078062871D2DFE8E9
:1008000000F0031838687CBD95B1201D10F0F2FE91
:1008100056480088089008A80DF056FA4FF00100DD
:1008200020704FF00000089008A80DF0D7FC00BF22
:10083000ADE01DB94FF00000207019E06168084676
:1008400010F012FE4A49884212D90CF0ADF918B1E5
:100850004FF00100607002E04FF000006070201D5A
:1008600010F0C8FE2046FFF717FF4FF0020020707F
:100870008DE0B5B903212046FFF7C6FE201D10F01C
:10088000B9FE607830B94FF00100089008A80CF06C
:10089000FDF902E04FF0010020724FF003002070DC
:1008A00016E06168084610F0DFFD324988420FD932
:1008B000201D10F09FFE607800F1010060706078EC
:1008C000082802D14FF0000060702046FFF7E4FED8
:1008D0005DE03DB1201D10F08DFE4FF00400207052
:1008E0000AE050E06168084610F0BEFD22498842E7
:1008F00002D92046FFF763FE49E09DB9607850B900
:100900004FF00000089008A80CF0C0F90421204620
:10091000FFF77AFE02E02046FFF79AFE2046FFF737
:100920004EFE15E06168084610F09EFD10498842B1
:100930000ED9607830B94FF00000089008A80CF08C
:10094000A5F900BF2046FFF73AFE4FF005002070E2
:100950001DE000008FC2753C10220110D400002061
:1009600047060110AC0000201000002014000020F9
:10097000D012130040420F000087930315B92046A0
:10098000FFF71DFE03E02046FFF719FE00BF00BF82
:10099000207810B1012009B030BD0020FBE72DE91F
:1009A000F04104460D461646012D02DC0020BDE84C
:1009B000F0815FE010F024FC07460DF0C5FE2078C2
:1009C00020B101280CD002284FD12AE0201D10F0C0
:1009D00011FE4FF0010020702046FFF75DFE48E059
:1009E00067B1201D10F006FE4FF000006070204639
:1009F000FFF752FE4FF00200207011E061680846D8
:100A000010F032FD1C4988420AD930786070042108
:100A10002046FFF7F9FD2046FFF7D1FD0020C6E78D
:100A200027E057B96078307004212046FFF7ECFDCD
:100A30002046FFF7C4FD0120B9E76168084610F0C1
:100A400013FD0E4988420FD9201D10F0D3FD6078A8
:100A500000F1010060706078A84202D14FF0000000
:100A600060702046FFF718FE03E02046FFF7A7FD61
:100A700000BF00BF9EE7000060E3160040420F0089
:100A80000146F94A086810604FF00000704730B521
:100A90008BB04FF00100044619E02246F3A102A8F2
:100AA00008F04EF8002301AA0AA902A80DF0D6FC0E
:100AB0000546002D02DA28460BB030BDE1B2EE4803
:100AC000019A006805F02EFE04F101000446072C8F
:100AD000E3DDE948006805F03EFEE848006805F0FF
:100AE0008BFF0020E8E770B504460D4620785328B8
:100AF0000CD1A07AA0F13000C0B2064628680246A8
:100B00003146DD48006805F0D3FE08E020784D2826
:100B100005D128680146D848006805F045F901F07C
:100B2000C3F828B1D448006805F015FE01F0C5F8F7
:100B300070BD38B504460D464FF000026946D0A09E
:100B40000DF08CFCCC480099006805F0BFFE38BD64
:100B500038B504460D464FF00002D049D0A00DF044
:100B60007DFCCE480088009068460DF0ADF838BD99
:100B700010B5B6B02DA80DF09DFF4FF00100044652
:100B800053E02246B9A125A807F0DAFF2246C8A102
:100B90000CA807F0D5FF00202DA920228123CDE944
:100BA000002102900CAA012125A80DF0C3FB2246CA
:100BB000C4A125A807F0C4FF2246C7490CA807F026
:100BC000BFFF002001460290C44814230CAACDE9BF
:100BD0000010811525A80DF0ADFB00220BA925A85A
:100BE0000DF03CFCE1B2A4480B9A006805F060FEF1
:100BF000AFF20D1125A80DF08DF92246B8A125A858
:100C000007F09EFF2246B44958310CA807F098FF20
:100C10000020B8A1A1230CAACDE90010014625A807
:100C20000DF088FB04F101000446072CA9DD00202B
:100C30004FF020410290B0481423A74AA032CDE9DA
:100C400000104FF48071ADA00DF074FBAFF269118C
:100C5000AAA00DF05FF900204FF040410290AB4890
:100C60001423AB4ACDE900100021AAA00DF062FBCD
:100C7000002001210B46A64A5C32CDE90010014656
:100C8000AAA00DF057FB00204FF4FA610423A04AFC
:100C9000D032CDE90010990179A00DF04BFBAFF2F5
:100CA0006D1177A00DF036F9002040F2EE210223FD
:100CB000A24ACDE90010D90179A00DF03BFBAFF2BB
:100CC0006F1177A00DF026F900204FF47A710223FE
:100CD0009A4AA432CDE90010014699A00DF02AFBF2
:100CE00000204FF47A710223944AEC32CDE90010CF
:100CF000014696A00DF01EFB0020142104239A4A01
:100D0000CDE90010014699A00DF014FB002209A9BD
:100D10008BA00DF0A3FB002208A98CA00DF09EFB78
:100D2000002207A991A00DF099FB00220AA97FA03B
:100D30000DF094FB002205A970A00DF08FFB00229E
:100D400004A974A00DF08AFB002206A94CA00DF0A6
:100D500085FB0022514952A00DF080FB9DF8280030
:100D60000090BDF82020BDF824104348079B006880
:100D700004F04BFD40480599006805F015F83E4821
:100D80000499006805F0A5FD3B480699006805F048
:100D90009DFD42480088359035A80CF095FFFFF77F
:100DA00076FE36B010BD70B506464FF004000FF069
:100DB000E3FD044605F09CFD0446304804604FF412
:100DC00024700FF0D9FD05466C4802462B48016897
:100DD000284603F085F905462748056068493046EE
:100DE0000EF02AFD002267A1694800680EF02AFF74
:100DF000684908800846B0F90000002802DA4FF080
:100E0000FF3070BDFFF7B4FE0020FAE72DE9F04F88
:100E100095B006460C4617469846DDE91FABDDF84F
:100E200078900BA83988B8F80020B9F80030BAF8E3
:100E300000C0018042808380A0F806C000BF2078F7
:100E4000012802DB2078072804DD4FF0FF3015B0C1
:100E5000BDE8F08F5048006828B950A00DF0A2F905
:100E60006FF00100F3E7A7E0040000207369676EEC
:100E70006174757265256400100000200C0000206C
:100E80005369676E6174757265207465616368206B
:100E90007468726573686F6C640000001400002051
:100EA0004C4544206272696768746E657373000014
:100EB000436F6C6F72207369676E61747572652021
:100EC000256400005369676E61747572652025643E
:100ED0002072616E6765000030220110000008403A
:100EE0005369676E6174757265206C6162656C2010
:100EF00025640000000000009999B93F4D696E20FB
:100F00006272696768746E6573730000CCCCFC3FD5
:100F100030230110436F6C6F7220636F6465206D26
:100F2000756C7469706C696572000000436F6C6F5A
:100F30007220636F6465206D6F6465008C240110FE
:100F40004D617820626C6F636B7300004D61782097
:100F5000626C6F636B7320706572207369676E617A
:100F60007475726500000000D82501104D696E206F
:100F7000626C6F636B206172656100000010091084
:100F800050210110676574524C534672616D6500C3
:100F9000D800002008000020AC0000204E6F207216
:100FA0006177206672616D6520696E206D656D6F79
:100FB0007279210A00000000207803460BAAFF493D
:100FC000FF48006805F013F920780146FC480068E6
:100FD00005F09DFB05463068E8610BAAF74902A8B9
:100FE00004F0C4FD002102A804F09FFEA86120784F
:100FF0000246AFF288110DA807F0A2FD00202B4693
:101000002022812100900DA80DF05DFAFFF73FFD31
:10101000ECA00DF0C7F80121584600F058FE002062
:1010200015E72DE9F04F8FB004460F4690461D4658
:10103000E848814615B90FB0BDE8F08F0020B22214
:10104000CDE90A020C900D9002200021CDE9061096
:10105000CDE90810CDE90210CDE904104120642348
:101060004FF49032CDE90010494628460FF02DFA92
:10107000064600BF20684FEA80008246A06883468B
:1010800009EB060108465246594607F09DFF00BF8E
:101090002068800040088246B2200221CDE90B0A78
:1010A000CDE909180846C8210222CDE90707CDE994
:1010B00005214FF4A07141231898CDE90130CDE905
:1010C0000321C54864234FF49032494600902846D6
:1010D0000FF0FBF900BF206806EB80008246524605
:1010E000494628460FF005FA00BFA4E72DE9F04F66
:1010F00097B007460C4690469946DDF880A00BADA8
:101100004FF0000B584628600BF1100068606868CB
:101110000146B24A4FF004000FF0E3FCA86000BFA4
:101120002078012802DB2078072807DD0BA810F0C3
:10113000C7FC4FF0FF3017B0BDE8F08F9F48006844
:1011400048B9AFF2A8100DF02DF80BA810F0B8FCBC
:101150006FF00100EFE716A8B8F8003019B2B9F83F
:1011600000301AB20180428000BF054620780BABE8
:101170002A46924900909248006805F097FA207834
:1011800001468F48006805F0C2FA06463868F061EB
:101190000BAA8A4902A804F00AFD002102A804F063
:1011A000C4FDB061032053460422114600900BA8F1
:1011B000FFF737FF20780246AFF250310EA807F054
:1011C000BFFC002033462022812100900EA80DF0A4
:1011D0007AF9FFF75CFC7BA00CF0E4FF012150469C
:1011E00000F075FD0BA810F06BFC0020A3E770B5B4
:1011F00092B004460D4602A80DF05CFC2078012850
:1012000002DB2078072803DD4FF0FF3012B070BDFD
:10121000202102A807F079FF20780246AFF2B4310E
:101220000AA807F08DFC002002AB2022812100904B
:101230000AA80DF048F90646FFF729FCFFF727FC3E
:101240000121284600F043FD3046DFE770B592B03B
:10125000064602A80DF02EFC202102A807F055FF3B
:101260004FF00100044617E02246AFF200410AA801
:1012700007F066FC002002AB2022812100900AA822
:101280000DF021F90546002D02DA284612B070BD96
:1012900004F10100C0B20446072CE5DDFFF7F7FBBF
:1012A0000121304600F013FD0020EFE770B5ACB02F
:1012B00004460E461546206818B149492068884200
:1012C00003D94FF0FF302CB070BD20680246AFF25A
:1012D000F03124A807F034FC2068024641490BA8ED
:1012E00007F02EFC314603A807F0D9FD002003A922
:1012F000A1230BAACDE90010014624A80DF01AF88D
:10130000002805DA002303AAA12124A80DF0DBF8A8
:101310000121284600F0DBFC0020D4E7F0B589B0BD
:1013200004460D4616464FF0FF3007904FF001007F
:10133000089008A80BF0CEFE071E02DA384609B066
:10134000F0BDA6B1002007AACDE9030205900690E2
:1013500004200346CDE9010500942348B0F900209C
:101360000021224800680EF03FFC0798E7E70020C4
:101370000422CDE902501346CDE9004204901A48F8
:10138000B0F900200121194800680EF02DFC002062
:10139000D5E72DE9F04F8BB082460F4614480A90EE
:1013A000144880460B488146A8EB000005464FF0E4
:1013B00000004FF0B102CDE906021DE0AC000020B4
:1013C000100000205369676E617475726520736543
:1013D00074210A0000000810424C543147060110E5
:1013E000DF2B01008822011008000020D800002017
:1013F0000010091000000910089009904FF0020039
:101400004FF00001CDE90210CDE904104FF041008A
:101410004FF064032A46CDE90010494650460FF0CC
:1014200054F80446AC48006805F0E6FA012240464C
:101430000A99FFF773FF8346A5EB040005464FEAC0
:10144000D500054609EB040001462A46A24800687B
:1014500005F089FA06464FF00101A04800680EF039
:101460008DFC0021F000B122C823CDE90632CDE980
:10147000080102204FF4A071CDE90270CDE90410FB
:101480004120974964232A46CDE900104946504639
:101490000FF01BF804EBC6000246494650460FF019
:1014A00028F858460BB0BDE8F08F10B504464FF051
:1014B00001012046FFF76DFF10BD30B504460B4615
:1014C000206805464FF00000014604E0505C685477
:1014D00001F10100014618688842F7D8186830BD4C
:1014E000F0B58BB007460C4615461E464FF000017E
:1014F00005EB850020F00040CDE908410A910790F6
:101500004FF082004FF0C8014FF042024FF4A07339
:10151000CDE90332CDE905104FF04101714BCDE922
:10152000016200914FF064024FF0000138460EF066
:10153000F8FC00200BB0F0BD2DE9F0438FB007465A
:101540000C4615461E46DDE916894FF0000108EBF2
:1015500048004FEA80004FEA5000CDE90B610D9141
:101560000A904FF0820105EB850020F00040CDE9A4
:1015700006104FF0C800CDE908414FF042014FF48A
:10158000A072CDE90212CDE904104FF04100564B94
:101590004FF064024FF00001CDE9000938460EF02B
:1015A000C0FC00200FB0BDE8F0832DE9F0410546F6
:1015B0004FEA052044F62061B0FBF1F0044614B96F
:1015C0000120BDE8F081204610F0E2FD8046404653
:1015D0000FF054FF0746454910F0FAFD064610F09B
:1015E000C9FD0446FF2C03D94FF0FF00044603E079
:1015F00014B94FF001000446E0B2E2E7F0B587B05D
:10160000002211463A48006804F04EF80446002CC7
:1016100058D0208807280CDC2088A0F1010000EBBE
:1016200080013348006800F1E00000EB81000669AA
:1016300001E030480668A0886188A0EB010021899C
:10164000E288A1EB020100FB01F73846FFF7ADFF8E
:10165000054604AB05AA06A9304604F0CEF9049865
:1016600030B1049868434FEA102000F1010001E016
:101670004FF000000490059830B1059868434FEA98
:10168000102000F1010001E04FF0000005900698E5
:1016900030B1069868434FEA102000F1010001E0E4
:1016A0004FF0000006900698C0B203900598C0B2B3
:1016B00002900498C0B2019001AA02A903A80BF0FD
:1016C000ADFB06E04FF00000039003A80CF086FD90
:1016D00000BF07B0F0BD00000C000020D8000020C3
:1016E0004343513243434231434342320000484274
:1016F000100000201022011010B5D2B0EAA112A8EB
:1017000007F0CDFB4FF00000044610E0F64850F81B
:101710002400006803462246F4A102A807F010FA4C
:1017200002A912A807F044FC04F101000446EE48A7
:1017300050F824000028E9D10090012312AA0146A4
:101740000190EDA00CF0F6FD002000900123EEA228
:1017500001460190FCA00CF0EDFD0022FC49FAA02E
:101760000CF07CFE52B010BD70B505464FF00C0079
:101770000FF002F90446FEF730FF0446F548046016
:10178000F54928460EF058F80022F4A1F448006804
:101790000EF058FAF34908800022F3A1F0480068DF
:1017A0000EF050FAF24908800022F2A1EC480068DD
:1017B0000EF048FAF1490880FFF79EFF002070BD47
:1017C00002460B4613B1C848026212E04FF0000116
:1017D00007E0092902DB4FF0FF30704701F10100FB
:1017E0000146C14850F821000028F2D1BE4840F817
:1017F00021200020F1E7E248007810B1E0480078AD
:101800007047E048007808B10220F9E70020F7E7C8
:101810004FF00000DC49087070474FF00100DA49D2
:101820000870D74908704FF00000704710B50346A4
:101830000C461878024634B150B2D44908704FF0C3
:101840000000D3490860D14890F90000002802DB6D
:10185000CE48007802464FF00000CE490870092AB1
:1018600003DAA14850F8220010B94FF0FF3010BD44
:10187000C64890F90000002804DBC5480068C64946
:10188000086003E04FF00000C3490860C1480270DF
:10189000FFF7C3FFEBE7F0B507460C4615462946B0
:1018A0003846FFF7C3FF0646002E01DA3046F0BD8A
:1018B00015B1B74920680860B44890F900000028C5
:1018C00004DBB3480068B449086002E0B24920680C
:1018D00008600020EBE710B54FF00000044610E070
:1018E000814850F82400406803467F4850F824009F
:1018F000006802462146A9A00CF054FC04F1010046
:101900000446794850F824000028E9D110BD10B5EC
:1019100086B00446A44903C9CDE9040154B10020AE
:1019200004AACDE900200623822201460290204627
:101930000EF0F7FA002006B010BD7FB504460D4644
:101940004FF0120006462088B04203DB4FF0FF3014
:1019500004B070BDA5B100212088944B03EBC000FA
:101960004068A123CDE901010093039120888F49AC
:1019700051F830000346A122002128460EF0D1FA8A
:101980000020E5E710B586B004464FF0000005AA38
:10199000CDE9010203904FF00103009404907148D7
:1019A000B0F900204FF000016D4800680EF01CF9FE
:1019B0007F480470059806B010BD1FB5002003AA2B
:1019C000CDE90020034602906C48B0F900200021C8
:1019D000634800680EF008F9039804B010BD1FB505
:1019E000002003AACDE90020034602906048B0F928
:1019F000002000215A4800680EF0F6F80398C0B2A3
:101A000004B010BD10B5FFF7B3F801F00CFB0BF0FC
:101A10004FFE0BF069FF00F0E8FEFFF76DFE10BD12
:101A200010B50CF091FE4B480068FEF7A0FE55493A
:101A300008700DF00BF808B1FFF7E4FF10BD10B50A
:101A400000225C492CA00CF009FD5A48007851494D
:101A500008704FF00000044603E004F10100C0B23A
:101A60000446214850F824000028F6D1494A21466E
:101A700038480068FEF793FF00214648FFF7D6FE7E
:101A800010BD4FF0000005460646FFF7D8FF0AE1FB
:101A9000494800680EF094FC0446FFF7C1FF052D8D
:101AA00000D28BE0F9E0000053656C65637473202D
:101AB0007468652070726F6772616D206E756D62FB
:101AC0006572207468617427732072756E2075705A
:101AD0006F6E20706F7765722D75702E20406320B9
:101AE00045787065727400009801002020407320D2
:101AF00025643D2573000000537461727475702075
:101B000070726F6772616D00406320457870657216
:101B1000742053657473207468652064656275670A
:101B2000206C6576656C20666F722074686520662F
:101B300069726D776172652E202864656661756CC7
:101B400074203029000000004465627567000000C1
:101B50002C000020380000204C26011072756E0009
:101B6000D80000202E00002072756E6E696E67002E
:101B70003000002073746F700000000032000020FD
:101B80001800002024000020190000201C00002064
:101B9000200000201A0000202800002025643A20A0
:101BA00025732C2025730A00B42701102427011067
:101BB000340000201B000020D4000020DFE805F0E6
:101BC0000315404753004A494A4A127851F82210F7
:101BD000896808468047002803DA4FF0030005466D
:101BE00002E04FF0010005465BE04348007828B171
:101BF000FFF7E3FE4FF00200054620E03F48007883
:101C000048B13B493B4A127851F82210C96808464E
:101C10008047002803DA4FF0030005460FE076B155
:101C20006CB90BF0C3FF4FF0FF00354908704FF05F
:101C300000013448FFF7FAFD4FF00000054630E0A0
:101C40002D48007810B94FF00000054629E04FF00C
:101C500000002A4908702C490870FFF7AEFE4FF0CB
:101C6000040005461DE02548007828B1FFF7D5FDA2
:101C70004FF0000005460FE014B12448007858B931
:101C80004FF0FF001E4908704FF000011D48FFF79C
:101C9000CDFD4FF00000054603E04FF00300054680
:101CA00000BF00BF2646F3E610B5FFF798FE0446D6
:101CB0000CB1FFF782FE204610BD10B51448006835
:101CC00004F09AFE13480078FFF75CFE10BD3EB5A5
:101CD00004460D4654B1002004210F4B6422CDE987
:101CE00000150290182120460EF01BF93EBD0000A1
:101CF000980100201A000020240000201900002074
:101D00001C0000201B00002018000020F300002011
:101D10000C0000203400002045565431F8B504462C
:101D2000A068406800F0F800074617F0070F73D16D
:101D3000F8100C3814286FD2DFE800F013A914A9AA
:101D40001D481E494A53A9549695A9A9A9A9A90AAB
:101D50004FF00400A16808604FF00800A168886196
:101D60009AE000BF4FF00400A16808604FF008003F
:101D7000A168886190E000BF04F10C05A06880684C
:101D8000C6B200BF28460FF0A3FE2968A1EB0000F1
:101D9000002800DC11E0E96801F10100E8606868F2
:101DA0004654286900F1010028612968E8688842E2
:101DB00002D14FF00000E86000BF4FF00400A168BE
:101DC00008604FF00800A168886165E000BF00BFAF
:101DD0004FF00400A16808604FF00800A168886116
:101DE0005AE000BF207938B1607928B14FF0000087
:101DF000A168886020712DE000BF206B80B9636A04
:101E00001946A36A1846636B1A4690472063206BF5
:101E100018B94FF0000010E039E04FF00000E06228
:101E2000E16A01F10100E062A06A405C0090206B71
:101E3000A0F1010020634FF0010020B19DF80000E7
:101E4000A168886006E04FF00000A16888604FF04C
:101E5000010020714FF00400A16808604FF00800F5
:101E6000A168886118E000BFA07938B104F12400AE
:101E70000FF063FE04F10C000FF030FE4FF0040091
:101E8000A16808604FF00800A168886104E04FF085
:101E90002C00A168886100BF00BFF8BD10B5904854
:101EA0000068FFF73BFF10BD38B504460D468DF8BE
:101EB00001504FF000008DF803008DF80000A1687C
:101EC0000846694608F090FF002038BD2DE9F0472C
:101ED00004460F4690461E4682498348206004F11E
:101EE0000C054FF02009C5F80090296808460EF04F
:101EF0003BFD686028460FF0F1FD00BFA5F10C0521
:101F00002C4604F12405C5F80090296808460EF017
:101F10002BFD68602E6128460FF00FFE00BFA5F173
:101F200024052C46A7604FF0010060714FF00000BF
:101F3000A071A16808466D4908F008FF4146204697
:101F4000FFF7B2FF4FF017004FF0000100280ADA48
:101F50004FEA01724FEA1262654B00F00F05A5F1DE
:101F600004055A5505E04FEA01724FEA1262614BCF
:101F70001A5400BF2046BDE8F08770B504464FF004
:101F800038000EF0F9FC0546234654225A49FFF763
:101F90009DFF05465248056070BD4FF038018268CC
:101FA00091614FF0440182681160704710B504469A
:101FB0004FF000034FF0F0024FF003014FF001002B
:101FC0000FF0C4FA0423F022012102200FF0BEFA20
:101FD0000423F022012102200FF0B8FA0023F0229E
:101FE000042101200FF0B2FA0423F0220021022084
:101FF0000FF0ACFA4FF000004049086020714FF03C
:1020000012004FF0010101FA00F14FEA50124FF0B7
:10201000E02303EB8202C2F8001100BF2046FFF765
:10202000BCFF002010BD10B501464FF012004FF06C
:10203000010202FA00F2324B4FEA501443F8242016
:1020400000BF4FF0000010BD2DE9F04707460E46D7
:1020500090464FF00000054625E007F10C0406EB22
:10206000050920460FF034FD002802DC4FF0000087
:1020700014E0A16801F10100A0606068405C89F88B
:102080000000606900F1010060612168A068884279
:1020900002D14FF00000A0604FF0010000B904E051
:1020A00005F1010005464545D7D300BF2846BDE8E8
:1020B000F08710B5044604F10C000FF009FD10BDC7
:1020C00000B503469868006810F0040F02D1184666
:1020D000FFF763FF002000BD81714271704700006F
:1020E0003C0000200851011054500110A08601004E
:1020F00018ED00E000E400E000100A401812104063
:1021000080E100E01CB54FF00100019001A80AF049
:10211000E1FF9548006804F01EFB9448006804F055
:102120006BFC0020FFF72EFC00BF00F0EFFD044623
:1021300000688068034601226946204698470028C7
:10214000F3D18B4908701CBD30B587B000F0DEFDBF
:1021500004464FF000000546AEE08548007820B107
:1021600001280BD002287ED127E04FF0FF008149E3
:1021700008704FF001007E49087098E02068806880
:102180000346012206A920469847A8B1794800785D
:102190004FEA002078490880084600889DF818100A
:1021A00040EA0100744908809DF8180071490870E0
:1021B0004FF002006E49087079E06F480088FF28F0
:1021C00027D12068C068014620468847042868DB7C
:1021D000206880680346022205A9204698472068A7
:1021E00080680346022204A9204698474FF0000069
:1021F00005A9039003A80AF011FF4FF0010004A9FC
:10220000039003A80AF00AFF4FF000005849087035
:1022100047E059480088FE280FD1206880680346AF
:10222000012206A920469847B0B306A80BF01CFD72
:102230004FF000004E49087033E04F480088FD28F9
:102240002BD12068C068014620468847032828DB38
:10225000206880680346012203A920469847206829
:102260008068034600E01DE0012202A9204698474D
:10227000206880680346012201A92046984701AAE8
:1022800002A903A80AF0CAFD4FF001003B490870FB
:102290004FF000003649087003E04FF00100344968
:1022A000087004E04FF000003149087000BF00BF23
:1022B00005F10100C0B205460A2DFFF64EAF07B08A
:1022C00030BD10B586B02848006802F069FF0028CC
:1022D0000FDA2B48007848B12A4802680068401C91
:1022E000284B1146186028A00BF05CFF002006B0B8
:1022F00010BD28480078062801D0FFF725FF02A866
:1023000004AB03AA05A900901748006803F06EFA11
:1023100001200299CDE900101F48DDE9032305994A
:102320000068FFF709F900F0F1FC04460068006955
:102330000146204688471148007808B9FFF75EF942
:1023400005E014480078062801D0FFF7FDFE074994
:102350000868016889880268D288A1EB0201002917
:10236000EFD04FF00000C2E7100000200C0000206A
:1023700041000020560000205400002040000020B2
:102380002C0000205800002064726F702025640A21
:10239000000000007C000020D400002001464FF027
:1023A00000021046002903DD01F11E02104604E080
:1023B000002902DAA1F11E02104600F5FA72104659
:1023C000B0F57A7F03DD4FF47A72104604E00028FE
:1023D00002DA4FF000021046704710B5D0E9003421
:1023E000A3EB04031A4603EBD2734FEA63030B60BB
:1023F000D0E9003423441A4603EBD2734FEA630357
:102400004B6010BD10B502461368B3F1004F18D0F1
:102410001368A1EB0303946803FB04F3546801FB06
:1024200004334FF47A7493FBF4F0B0F5FA7F03DDD4
:102430004FF4FA73184604E010F5FA7F01DA8E4B78
:102440001846116010BDF0B587B004460D46C4F1C2
:10245000A0000646C5F18200074639468748FFF7C7
:10246000D1FF039031468648FFF7CCFF049001A9C5
:1024700003A8FFF7B2FF01990846FFF78FFF80B26C
:1024800005904FF00000069005A906A80AF0C6FDC9
:1024900002990846FFF782FF80B205904FF00100D5
:1024A000069005A906A80AF0B9FD07B0F0BD416085
:1024B000826070471FB500204FF4FA71042371A2A7
:1024C000CDE9001001467EA00BF034FF00204FF450
:1024D000487104237FA2CDE9001001468CA00BF0C7
:1024E00029FF00204FF4FA7104238EA2CDE90010D9
:1024F00001469BA00BF01EFF00204FF448710423FF
:102500009BA2CDE900100146A7A00BF013FF00220B
:1025100003A96BA00BF0A2FF002202A97CA00BF084
:102520009DFF5648DDE90221FFF7C1FF002203A904
:102530008BA00BF093FF002202A99BA00BF08EFF53
:102540004F48DDE90221FFF7B2FF1FBD1CB54FF078
:102550000100019001A80AF0BDFDFFF7ABFF4FF0AD
:10256000000001904FF4FA700090694601A80AF04B
:1025700055FD4FF0010001904FF4FA70009069464C
:1025800001A80AF04BFD8C48006808B1FEF77FFAFD
:102590008A48006804F030FA0020FFF7F3F90020C1
:1025A0001CBD70B586B08648006802F0F9FD0022B7
:1025B00011468348006803F077F80446C4B1A18847
:1025C0006288A1EB0201084601EBD07102EB6101C8
:1025D0008DB22189E288A1EB0201084601EBD0719E
:1025E00002EB61018EB231462846FFF72CFF14E062
:1025F0004FF0000001904FF4FA700090694601A876
:102600000AF00CFD4FF0010001904FF4FA700090B9
:10261000694601A80AF002FD00BF02A804AB03AAA4
:1026200005A900906648006803F0E0F801200299CF
:10263000CDE900106348DDE9032305990068FEF742
:102640007BFFFEF7DBFF002006B070BD41608260BB
:102650004FF000430360704700B54FF448724FF4E9
:10266000FA710648FFF7F2FF4FF461724FF42F71D1
:102670000348FFF7EBFF00BD0CFEFFFFBC0100208D
:10268000C801002040632043686173655F64656D25
:102690006F207472616E6C6174696F6E616C207012
:1026A000726F706F7274696F6E616C206761696EB2
:1026B000202864656661756C74203530302900000F
:1026C0005472616E736C6174696F6E205020676123
:1026D000696E000040632043686173655F64656DE7
:1026E0006F207472616E736C6174696F6E616C20BF
:1026F00064657269766174697665206761696E20C8
:102700002864656661756C742038303029000000DB
:102710005472616E736C6174696F6E2044206761DE
:10272000696E000040632043686173655F64656D96
:102730006F20726F746174696F6E616C2070726F5C
:10274000706F7274696F6E616C206761696E2028AA
:1027500064656661756C74203530302900000000B6
:10276000526F746174696F6E2050206761696E00EA
:1027700040632043686173655F64656D6F20726FAD
:10278000746174696F6E616C2064657269766174DE
:10279000697665206761696E202864656661756C7D
:1027A0007420383030290000526F746174696F6E84
:1027B0002044206761696E00AC0000200C000020FE
:1027C00010000020D400002038B504464FF4FA7001
:1027D0002060206880B20090694604F108000AF089
:1027E0001DFC38BDC160026170471FB500204FF469
:1027F000AF7104237CA2CDE90010802189A00BF0E9
:1028000099FD00204FF41671042389A2CDE9001030
:10281000802195A00BF08EFD00204FF4FA71042367
:1028200094A2CDE900108021A1A00BF083FD00202F
:102830004FF42F710423A1A2CDE900108021AEA096
:102840000BF078FD002203A976A00BF007FE002212
:1028500002A985A00BF002FEAA48DDE90221FFF7DC
:10286000C1FF002203A992A00BF0F8FD002202A9EB
:10287000A1A00BF0F3FDA448DDE90221FFF7B2FFB0
:102880001FBD08B54FF00100009068460AF022FC19
:10289000FFF7ABFF9B48FFF797FF9B48FFF794FFBD
:1028A0009A48006808B1FEF7F2F89948006804F009
:1028B000A3F80020FFF766F8002008BDF8B504462D
:1028C0000D466068B0F1004F25D06068A5EB0000B0
:1028D000216900FB01F0E16805FB01004FF47A710A
:1028E00090FBF1F62068304420602068B0F57A7FD4
:1028F00002DD0846206005E02068002802DA4FF07B
:1029000000002060206880B20090694604F1080051
:102910000AF084FB00BF6560F8BD2DE9F04186B088
:102920007C48006802F03CFC0022114679480068AF
:1029300002F0BAFE044604B3A1886288A1EB02014A
:10294000084601EBD07102EB61018FB22189E28868
:10295000A1EB0201084601EBD07102EB61011FFA05
:1029600081F8C7F1A005A8F1640629466548FFF77C
:10297000A5FF31466448FFF7A1FF02A804AB03AAF4
:1029800005A900906348006802F030FF0120029919
:10299000CDE900106048DDE9032305990068FEF7E2
:1029A000CBFDFEF72BFE002006B0BDE8F08110B590
:1029B0004FF4FA7404600172C26003614FF0004486
:1029C000446010BD00B54FF448734FF4FA72002113
:1029D0004C48FFF7ECFF4FF461734FF42F72012165
:1029E0004948FFF7E4FF00BD40632050616E2F743B
:1029F000696C745F44656D6F2050616E2061786909
:102A0000732070726F706F7274696F6E616C206783
:102A100061696E202864656661756C742033353099
:102A20002900000050616E2050206761696E00002F
:102A300040632050616E2F74696C745F44656D6FE4
:102A40002050616E206178697320646572697661D7
:102A500074697665206761696E20286465666175B2
:102A60006C7420363030290050616E20442067613C
:102A7000696E000040632050616E2F74696C745F52
:102A800044656D6F2054696C74206178697320709F
:102A9000726F706F7274696F6E616C206761696EBE
:102AA000202864656661756C74203530302900001B
:102AB00054696C742050206761696E004063205037
:102AC000616E2F74696C745F44656D6F2054696C1E
:102AD00074206178697320646572697661746976BF
:102AE00065206761696E202864656661756C742075
:102AF000373030290000000054696C74204420678E
:102B000061696E00D4010020E8010020AC000020C3
:102B10000C00002010000020D4000020002070478E
:102B2000F0B58BB005467548064675480068012823
:102B300039D100204FF47A41B122C823CDE90632C1
:102B4000CDE9081002204FF4A071CDE90250CDE983
:102B5000041041206B4964234FF49032CDE90010FA
:102B60003146694800680DF0B0FC04464FF0C800DB
:102B70004FF4A0714FF00002CDE900210290C4F59E
:102B80009032114606EB040210464FF000034FF05E
:102B900021020AF0AFFB04F57A4231465A48006838
:102BA0000DF0A7FC7DE056480068642860DB5448BF
:102BB0000068C8285CDA524800684FF0640190FB56
:102BC000F1F201FB12004FF00A01B0FBF1F000F14D
:102BD000300045F6450141EA0041494800684FF0A0
:102BE0000A0290FBF2F302FB130000F1300041EA0D
:102BF00000674FF000004FF47A414FF0B1024FF000
:102C0000C803CDE90632CDE908104FF002004FF4B9
:102C1000A071CDE90250CDE904104FF041004FF012
:102C200064034FF490323146CDE9007036480068B5
:102C30000DF04BFC04464FF0C8004FF4A0714FF06C
:102C40000002CDE900210290C4F59032114606EB56
:102C5000040210464FF000034FF021020AF04AFB35
:102C600004F57A423146284800680DF042FC18E02D
:102C70004FF021000A904FF00000099008904FF4A7
:102C8000A07007904FF0C80006901F48006806A982
:102C9000CDE9001007AB08AA09A90AA80AF0C6FFE7
:102CA00000BF0BB0F0BD00B589B04FF00000089038
:102CB00008A80BF093FA12480068C0B94FF0210041
:102CC00007904FF00000069005904FF4A07004901C
:102CD0004FF0C80003900C48006803A9CDE900102C
:102CE00004AB05AA06A907A80AF0A0FF02E001208C
:102CF000FFF716FF002009B000BD0000000008101B
:102D000028000020434D5632D4000020F1480068CE
:102D100070472DE9FE4F04468A46FFF7F7FF8146CC
:102D2000D9F80000806803464FF0010202A9484626
:102D3000984710B90020BDE8FE8F9DF8080038B90B
:102D4000E5A006463146204606F0A9F80520F2E740
:102D50009DF80800082807D1E1A006463146204624
:102D600006F09DF80520E6E79DF80800102807D139
:102D7000DBA006463146204606F091F80520DAE74A
:102D80009DF8080051284BDB9DF80800572847DCC8
:102D90009DF80800503880B201466A46D248006863
:102DA00002F082FC064626B94FF000002060207138
:102DB00034E0701C05D1421E0521204606F07BF947
:102DC0002CE0B0887188A0EB01073089F188A0EB76
:102DD0000108BDF800002070708800EB570040F239
:102DE000333100FB01F04FEA902005466570F08812
:102DF00000EB580000FB01F04FEA90200546A5705B
:102E0000084607FB00F04FEA90200546E5700846AB
:102E100008FB00F04FEA90200546257105208AE75F
:102E20009DF80800582855D1D9F80000806803465D
:102E3000022201A948469847022801DA00207AE7D1
:102E40006A46BDF80410A848006802F02DFC06464A
:102E500026B94FF000002060A08039E0701C05D139
:102E6000421E0621204606F026F931E0B08871881E
:102E7000A0EB01073089F188A0EB0108BDF8000044
:102E80002070708800EB570040F2333100FB01F0F6
:102E90004FEA902005466570F08800EB5800054623
:102EA000A570084607FB00F04FEA90200546E57044
:102EB000084608FB00F04FEA90200546257170890E
:102EC0004FF05B0110FB01F04FEAE0100546657121
:102ED000062030E79DF8080042281CD10022114648
:102EE0008148006802F0E0FB06460EB1701C03D179
:102EF0004FF0000020700DE0B0887188A0EB010752
:102F0000708800EB570040F2333100FB01F04FEACC
:102F10009025257002E04FF00100207001200AE7A3
:102F200070B504460D4671480078062804D129463C
:102F30002046FFF7EEFE70BD2A4621466A4800682B
:102F400002F012FBF7E710B50446062C02DD4FF045
:102F5000FF3010BD5F48006838B15E480068006807
:102F6000406801465B480068884760480470072C49
:102F700043D2DFE804F043040E191E2832005C48F7
:102F800000685449086000215948006800F047F97A
:102F90003EE0584800684F4908600122002155482A
:102FA0000068FFF799F833E0534800684949086022
:102FB0002EE0012151480068FDF7E5F94F4800680F
:102FC0004449086024E000214C480068FDF7DBF923
:102FD0004A4800683F4908601AE0464800683D4991
:102FE0000860012143480068FEF75EFF00220121CE
:102FF00040480068FFF770F80AE000BF3C480068EE
:103000003449086001213A48006800F008F900BF1F
:1030100000BF304800680068006801462D4800681D
:103020008847002095E700B585B000200090012377
:10303000334A0146019033A00BF07CF90020542163
:1030400001232F4AC832CDE90010102131A00BF026
:1030500071F900204FF496410423314ACDE9001064
:10306000014630A00BF066F9002203A929A00BF05D
:10307000F5F99DF80C101F480068FEF715FF0022B7
:1030800002A928A00BF0EAF91B480299006800F099
:1030900045FC002204A91BA00BF0E0F99DF81000EC
:1030A000FFF751FF05B000BD10B5AFF28B10FEF772
:1030B00064FFAFF2931000F04AF9AFF29B1000F0FA
:1030C00085FBFDF755F9FFF7AEFF002010BD07485F
:1030D000007870478000002056302E31000000003C
:1030E0005069787900000000100000207C0000206A
:1030F000840000203C000020880000200000002008
:10310000BC27011044617461206F757420706F7268
:103110007400000049324320616464726573730077
:10312000DC2801105541525420626175647261744B
:103130006500000038B5044694F83D00002842D0F0
:103140004FF48040F94908604FF00000F849C1F899
:103150001402F84885684FF00400F64908620CE054
:10316000694604F11C000EF0EDFC10B94FF00000B0
:103170000090BDF80000EF498860EE48C06810F08C
:10318000020FEDD105F47F40B0F5B44F04D14FF0FC
:10319000010084F8300011E005F47F40B0F5B64F2F
:1031A00008D1A9B2201D0EF0A6FC4FF0010084F852
:1031B000300003E04FF0000084F83000606B00F155
:1031C0000100606324E0DB4885684FF00400D949C2
:1031D00008620AE0694604F11C000EF0B3FC00B975
:1031E00008E0BDF80000D3498860D248C06810F0FC
:1031F000020FEFD100BF05F47F40B0F5B64F07D105
:10320000A9B2201D0EF077FC4FF0010084F83000C9
:1032100038BD10B5C8480068FFF78CFF10BD80F8B6
:103220003D1090F83D2022B14FF48042C34B1A600C
:1032300003E04FF00002C14B1A6070472DE9F043E4
:1032400087B004460E46BE49BE48206004F104051E
:103250004FF01009C5F8009029684FEA410108466F
:103260000DF082FB686000BF4FF00000A860E860CE
:103270002861686100BF00BFA5F104052C4604F178
:103280001C05C5F8009029684FEA410108460DF079
:103290006BFB68602E6100BF4FF00000A860E86023
:1032A00000BF00BFA5F11C052C4602900390A64864
:1032B00006904FF00F0001904FF0040004904FF083
:1032C0000000059001A99B4807F03CFE4FF000006C
:1032D000074605E09748D0F8088007F10100074647
:1032E000082FF7D30121934807F020FE04219148CD
:1032F00007F01AFE012204218E4807F095FE4FF0D8
:1033000017004FF0000100280ADA4FEA01724FEA75
:1033100012628E4B00F00F05A5F104055A5505E029
:103320004FEA01724FEA1262894B1A5400BF4FF004
:10333000000084F830006063A06384F83C0001461C
:103340002046FFF76CFF204607B0BDE8F08370B55C
:1033500004464FF040000DF00FFB05462146FFF7F5
:103360006DFF05467448056070BD02464FF480400D
:103370006E4B18604FF00000014608E07548406948
:1033800010F0040F00D004E001F10100014696297D
:10339000F4D300BF962915D14FF00000634B18609D
:1033A000014608E06B48406910F0040F00D004E0CB
:1033B00001F1010001461029F4D300BF102901D109
:1033C000012070474FF00000584B186000BFF8E72D
:1033D00038B504464FF00000054694F83D0008B9A2
:1033E000002038BD00220421524807F01DFE684627
:1033F0000EF000F90EE02046FFF7B7FF18B14FF0CE
:103400000100054607E000980EF02EF85249884268
:1034100000D900E0EFE700BF01220421454807F092
:1034200003FE2846DDE710B504464FF0040040498E
:1034300088634FF005034FF0F0024FF003014FF0A7
:1034400001000EF083F80523F022042101200EF084
:103450007DF80123F022132118460EF077F84FF083
:1034600017004FF0010101FA00F14FEA50124FF03E
:10347000E02303EB8202C2F8001100BF2046FFF7F1
:10348000A7FF002010BD10B501464FF000002B4AE9
:1034900010604FF017004FF0010202FA00F22F4BBC
:1034A0004FEA501443F8242000BF4FF0000010BD35
:1034B0002DE9F84380460E4617464FF000000546BA
:1034C00026E008F1040420460EF00FFB002802DC81
:1034D0004FF0000014E0A16801F10100A0606068F5
:1034E00030F811000090606900F10100606121680E
:1034F000A068884202D14FF00000A0604FF00100A8
:1035000000B907E0BDF80000705505F1010005465F
:10351000BD42D6D300BF2846BDE8F88310B50446A7
:1035200004F104000EF0E1FA10BD00001412104086
:103530000010104000500C40840000201812104071
:10354000085101107050011000CB280C18ED00E05C
:1035500000E400E000610F4020A1070080E100E0EE
:1035600010B5044694F83D0050B3D4E90D01401A5B
:103570001BD094F8300098B914F83C0F00F101000A
:10358000207014F83C09052818D12046FFF720FFC9
:103590000CA00AF007FE4FF0000084F83C000DE09C
:1035A0004FF0000084F83C0008E04FF480400749E9
:1035B00008604FF000000649C1F81402606BA06378
:1035C000002010BD73796E630A00000014121040D1
:1035D000001010402DE9F84304464FF0000084F835
:1035E00034006068806800F00E000646042E23D187
:1035F00004F108056068006800F0FF0800BF284675
:103600000EF066FA2968A1EB0000002800DC12E049
:10361000E96801F10100E860686800F80180286944
:1036200000F1010028612968E868884202D14FF062
:103630000000E86000BF39E00C2E03D16068D0F8CC
:10364000009033E0022E31D14FF000072CE000BF94
:10365000E06A78B9236A1946636A1846236B1A46EA
:103660009047E062E06A10B94FF000000FE04FF0C1
:103670000000A062A16A01F10100A062606A405CE2
:103680000090E06AA0F10100E0624FF0010038B163
:103690004FF0010084F834009DF800006168086074
:1036A00007F10100C0B20746102FD0DBBDE8F88358
:1036B00010B5A0480068FFF78DFF10BD2DE9FF4150
:1036C00004460F4616469C499C48206004F10805B4
:1036D0004FF02008C5F80080296808460DF044F92D
:1036E000686000BF4FF00000A860E8602861686172
:1036F00000BF00BFA5F108052C4604F12005C5F860
:103700000080296808460DF02FF968602E6100BF1F
:103710004FF00000A860E86000BF00BFA5F12005E1
:103720002C46676084F834004FF4964000904FF0C8
:1037300003008DF805004FF000008DF804008DF8AF
:1037400006007F48029061680846694607F0FAFC67
:103750004FF000008DF80E008DF80F004FF00100C3
:103760008DF80C008DF80D006168084603A907F07C
:10377000A9FC61680846012107F064FE61680846FB
:103780000122002107F0A2FD6168084601221146CE
:1037900007F09CFD4FF018004FF0000100280ADAF6
:1037A0004FEA01724FEA1262664B00F00F05A5F175
:1037B00004055A5505E04FEA01724FEA1263624A66
:1037C000135400BF204604B0BDE8F08170B5044634
:1037D0004FF038000DF0D0F8054622465B49FFF760
:1037E0006DFF05465348056070BD10B504464FF0A7
:1037F00001034FF0F0024FF000014FF002000DF016
:10380000A5FE0123F022194602200DF09FFE0023A1
:10381000F022032101200DF099FE0023F022042163
:1038200001200DF093FE4FF018004FF0010101FA56
:1038300000F14FEA50124FF0E02303EB8202C2F88E
:10384000001100BF4FF0000010BD10B504464FF04E
:1038500004034FF0F0024FF000014FF002000DF0B2
:1038600075FE0423F022012102200DF06FFE4FF0BF
:1038700018004FF0010101FA00F1354A4FEA5013E8
:1038800042F8231000BF4FF0000010BD2DE9F047B3
:1038900007460E4690464FF00000054625E007F12A
:1038A000080406EB050920460EF012F9002802DC98
:1038B0004FF0000014E0A16801F10100A060606811
:1038C000405C89F80000606900F1010060612168D6
:1038D000A068884202D14FF00000A0604FF00100C4
:1038E00000B904E005F1010005464545D7D300BF06
:1038F0002846BDE8F08710B5044604F108000EF034
:10390000E7F810BD014691F8340028B94FF00000E7
:103910004A6810604A6810600020704770B504461D
:103920000D4661680846064A294607F0A9FD0020B1
:1039300070BD00008800002008510110B050011037
:1039400000CB280C18ED00E000E400E00010084077
:1039500080E100E030B58DB004460D462B4622468E
:1039600037A101A805F0ECF801AA4FF47F01E0B2FD
:103970000DF046FE0DB030BDF0B589B04FF000003F
:10398000074602E007F10100074633488742F9D3B2
:1039900041F2A862314932480AF0E4FE3148006839
:1039A000FDF701FAFFF780FB2E480068FDF7DCFE0B
:1039B00000212D48FDF704FFFEF717FF00212B48DB
:1039C000FDF7FEFE01212A48FDF7FAFE4FF0000444
:1039D00026461BE0002006AB07AA08A9009025A0F8
:1039E0000AF03CFD0546002D0DDBBDF82000022845
:1039F00009D1BDF81C0030B9BDF818000C2802D15F
:103A000006F10100064604F101000446192CE1DB31
:103A10000EB909F01DFA00200C210222CDE90202A4
:103A2000009213460192CDE9041014A2012111A0C5
:103A30000AF080FCFEF725F8002009B0F0BD000078
:103A40007265636569766564207369676E616C3A57
:103A50002025642025640A00A025260035290110B0
:103A600000800020D4000020440000205C000020E2
:103A70006C00002066777665720000000000000090
:103A800070B5044600BF4FF00000206200BF4FF049
:103A9000FF30A08247F6FF706082208240F2FF1064
:103AA000A18860F3CB01A180618960F3CB016181C2
:103AB00005E0A569A868A06128460CF051FFA0693F
:103AC0000028F6D104F11800E06170BD10B504467D
:103AD0004FF00000A06104F11800E0612046FFF7FC
:103AE000CFFF204610BD10B504462046FFF7C8FFA3
:103AF000204610BD4189C1F3C801A1F58072FF3A8B
:103B00000AD0D0F80A104160C189018140F2FF114A
:103B1000428961F3CB024281704710B5B0F9104081
:103B20008C4201DD0CB20482B0F91240944201DDF6
:103B300014B24482B0F914409C4201DA1CB284826F
:103B400010BDF8B504460D46A888C0F30900034629
:103B50002888C0F3C80002466888C0F309000146FF
:103B60002046FFF7DAFF6089C0F3C800A0F5807136
:103B7000FF3905D12868C4F80A00A888E08103E06D
:103B8000A888C0F30900E08100BF6A88C2F3090277
:103B9000A2F101021046AA88C2F309021146A1EB64
:103BA0000002009200BF694604F120000CF0CFFE35
:103BB000FF480078F0B139460C200CF0F1FE060009
:103BC0000AD0304629680160A98881804FF0000141
:103BD000816000BF064601E04FF00000E169086027
:103BE000E069006800B9F8BDE069006800F108000C
:103BF000E06100BF00BFF6E770B505460C4604F172
:103C0000200105F120000CF0A2FEB4F914000346D7
:103C1000B4F912000246B4F9100001462846FFF735
:103C20007CFF2089C0F309012889C0F30900814283
:103C300003DD2089C0F309002881DD48007850B1F8
:103C4000A069E9690860E069E8614FF00000A061DF
:103C500004F11800E06170BD4FF000010161816066
:103C6000416000F10401C1604FF0FF3101804FF06D
:103C7000010181824FF000018161704770B50446F7
:103C8000606800B905E040F2D312CAA1D0A005F0E7
:103C9000A1F84FF00000A0604FF0FF3020804FF0FF
:103CA0000000A0610DE0206900680546206930B180
:103CB00021690846FFF717FF06460CF051FE256103
:103CC00000BF20690028EED170BD10B503460DE09D
:103CD00059680846FFF70EFF58680068044659689F
:103CE00018690860586818615C6000BF586800284F
:103CF000EED110BD10B504462046FFF7E6FF204682
:103D0000FFF7BCFF204610BD2DE9FF4105460E46DA
:103D100033E0306804462046FFF7ECFEB5F90000BA
:103D2000A188C1F3C801401AB5F91410884221DDF9
:103D3000206830606846218A0391618A0291A18AD5
:103D40000191A188C1F3C801018000BFBDF9000045
:103D5000BDF90810A0EB0100012803DD28692060EF
:103D60002C6109E044B12046FFF7BDFE07460CF088
:103D7000F7FD01E0BDE8FF8100BF30680028C8D131
:103D800000BFF7E710B50446A068E060E06800688F
:103D9000A060A06820B1A06801462046FFF7B4FFEC
:103DA00010BD10B5044604F104012046FFF7ACFF36
:103DB00004F10400E060E0680068A060A06820B141
:103DC000A06801462046FFF79FFF10BD2DE9F04790
:103DD00004460D462888C0F3C800B4F90010884294
:103DE00006D02888C0F3C80020802046FFF7D9FFFE
:103DF00044E06888C0F30901A0680089C0F30900A5
:103E0000814203DD2046FFF7BDFF37E0A888C0F3FD
:103E10000901A068C088C0F30900814200DA30E0DF
:103E2000A16808462946FFF78CFE17E0A0680068E5
:103E300007463868A1680860A16808463946FFF758
:103E4000DBFE2FB13846FFF74EFE82460CF088FDB0
:103E5000A06801462046FFF757FF00BFA068006832
:103E600048B1A888C0F30901A0680068C088C0F301
:103E700009008142DADA0020BDE8F087A068002856
:103E8000B7D100BF494624200CF08AFD5FEA000844
:103E900004D04046FFF71AFE804601E04FF00000D4
:103EA000064656B94E48007820B1A06901464DA09B
:103EB0000AF078F94FF0FF30DEE7A06900F1010069
:103EC000A061A0683060E0680660E6602946304680
:103ED000FFF737FE0020CFE702464FF000031846F9
:103EE00004E000F1010318460B6819460029F8D1D7
:103EF000704770B5054614461960216008461A4699
:103F00000BE0066806B909E00668304616683246D6
:103F1000066806B902E006683046F2E700BF166898
:103F20001E604FF00006166070BDF0B50646059D98
:103F30002C46284664E054B30F6847B3C0B11768F5
:103F4000B7B117683F6AD1F800C0DCF820C06745F8
:103F50000EDD1768D3F800C0CCF800701F683F680A
:103F60001F601F683F681760A0F10107384647E0EF
:103F70000F68D3F800C0CCF800701F683F681F605E
:103F80001F683F680F60A4F101073C4638E098B312
:103F900017688FB31768D3F800C0CCF800701F689B
:103FA0003F681F601F683F681760A0F1010724E0A9
:103FB000940000202E2E5C2E2E5C636F6D6D6F6E54
:103FC0005C7372635C626C6F622E637070000000E1
:103FD00021616374697665426C6F62730000000052
:103FE0002C000020626C6F62732025640A68656192
:103FF000702066756C6C000001E0384600E0F0BD92
:1040000099E730B587B00446206908B907B030BDDC
:104010002069014605AB06AA2046FFF76AFF4FF06C
:104020000100054627E04FF000000490039004A82B
:10403000029003A801900DE002AB05AA06A9204654
:104040000095FFF772FF01AB05AA06A9204600956F
:10405000FFF76BFF06980028EED105980028EBD1FA
:1040600001990860029908600498069003980590E9
:104070004FEA4500054605980028D4D106982061EE
:1040800000BFC3E770B50646306900B970BD356939
:104090002C680EE0286A216A884200DB06E04FF4B3
:1040A000E672AFF2F00105A004F094FE2546286800
:1040B0000446002CEED100BFE8E70000692D3E6DFC
:1040C0006F6D656E74732E61726561203E3D206A6E
:1040D0002D3E6D6F6D656E74732E617265610000AB
:1040E0002DE9F04104460E4617463946204601F0B8
:1040F0008DFE04464FF007034FF01C02FF4904F504
:10410000D2700CF0DDFCA0F5D27004464FF0000038
:1041100004F51674A0774FF01400A0624FF064000D
:1041200020844FF0140060844FF00700A0854FF00A
:104130000000606344F8B86C4FF00800E0854FF071
:10414000000084F830004FF47A700CF00DFC206110
:104150004FF00000A082A084E084A4F51674054608
:104160000BE0C5EBC50204F5D27101EB82010846F4
:10417000FFF784FD05F101000546072DF1DB204620
:10418000BDE8F08110B50446D4F8681208460CF07A
:10419000E3FB07231C22DA4904F5D27005F032F85C
:1041A000204601F072FE0446204610BDF0B50646DA
:1041B0000B4614464FF000073D4639463A4638460E
:1041C0002FE033F8117047B912B903EB41073A46B3
:1041D00000F10107BFB238461BE0CAB133F81170D5
:1041E000178001F1010733F81770578001F10207BA
:1041F00033F81770978001F1030733F81770D780F1
:1042000001F1040733F81770178102F10A073A46E3
:1042100000BF05F10107BFB23D4601F10507BFB27E
:104220003946A542CDDBF0BD2DE9FE4F0C461546C3
:10423000A18862881144084601EBD0714FEA610100
:104240000E462189E2881144084601EBD0714FEAFD
:1042500061010F46A9886A881144084601EBD071B4
:104260004FEA610188462989EA881144084601EB32
:10427000D0714FEA61018946A7EB090108460DF0AC
:1042800080FFA8EB0601009008460DF07AFF019030
:10429000DDE900010CF0AAFF83469A490DF098FF72
:1042A000994902900DF056FF824650460DF05BFF93
:1042B00000B2BDE8FE8F2DE9F0418AB006464FF00E
:1042C000000738463C463D4628E051F82080274606
:1042D00004F1010C1FFA8CFC64464DF8278000F1B4
:1042E00001073B4614E051F823703F8807F00707A9
:1042F00051F820C0BCF800C00CF0070C674503D192
:104300004FF001073D4600E006E003F101073B46A0
:10431000B2F900709F42E6DC00BF1846B2F90070A7
:10432000874201DD0A2CD0DB75B14FF0000738461B
:1043300006E05DF8207041F8207000F10107384672
:10434000A042F6DB27B217800AB0BDE8F0812DE964
:10435000F04106461C46A4B18F88B1F802C06744FC
:104360003D4607EBD5774FEA6707B2F804C0B2F8CD
:104370000280C44460460CEBD07CA7EB6C073BB2D8
:1043800013E00F89B1F806C067443D4607EBD577C7
:104390004FEA6707B2F808C0B2F80680C444604626
:1043A0000CEBD07CA7EB6C073BB2002B03DA584236
:1043B00000B2BDE8F0811846FBE72DE9F04F85B06B
:1043C00082460D4616461F464FF0000004460EE09A
:1043D00055F824000246394650460E9BFFF7B7FFBA
:1043E00080B22DF8140004F1010080B20446B442FA
:1043F00001DA0A2CECDB30E04FF001000446834682
:1044000023E0601E3DF810003DF81410884218DDCE
:104410003DF81480A4F101003DF810002DF81400BF
:10442000A4F101002DF8108055F8249055F82000D3
:1044300045F82400A4F1010045F820904FF0000059
:10444000834604F1010080B20446B44201DA0A2C2A
:10445000D7DBBBF1000F00D000E0CDE700BF05B017
:10446000BDE8F08F2DE9F04F8CB014464FF0000AF4
:104470005046CDF828A0CDF82CA06BE051F820A034
:10448000BAF804A051F820B0BBF802B0AAEB0B0AAE
:1044900051F820B0BBF808B051F820E0BEF806E0B3
:1044A000ABEB0E0B0AFB0BF24FF0640A02FB0AFAAD
:1044B0004FF4FA7BBAFBFBF74FF4C87A02FB0AFA17
:1044C0004FF0640BBAFBFBFA0AEB020C4FF000034F
:1044D0001E462EE0984200D128E051F823A0BAF8F9
:1044E00004A051F823B0BBF802B0AAEB0B0A51F8B4
:1044F00023B0BBF808B051F823E007E0F93A001008
:10450000953B001000003443560E4940BEF806E0CB
:10451000ABEB0E0B0AFB0BF8474506D8E04504D879
:1045200006F1010A1FFA8AFA564600BF03F1010A92
:104530005346B4F900A09A45CCDCDDF828A05645D6
:1045400005DD0A9691464FF0010ACDF82CA000F146
:10455000010A5046B4F900A082458FDCDDF82CA09A
:10456000BAF1000F03D14FF0000AA4F800A04FF0F9
:10457000000A5046554638E051F820A0BAF804A089
:1045800051F820B0BBF802B0AAEB0B0A51F820B0EA
:10459000BBF808B051F820E0BEF806E0ABEB0E0B1C
:1045A0000AFB0BF24FF0640A02FB0AFA4FF4FA7BA3
:1045B000BAFBFBF74FF4C87A02FB0AFA4FF0640B20
:1045C000BAFBFBFA0AEB020C4F450BD8E14509D8C0
:1045D00051F820B0AA4605F1010E1FFA8EFE75466D
:1045E0004DF82AB000F1010A5046B4F900A0824506
:1045F00001DD0A2DC0DB4FF0000A504606E05DF8F1
:1046000020A041F820A000F1010A5046A842F6DBA4
:104610000FFA85FAA4F800A00CB0BDE8F08F70B5D1
:1046200003460C46D3F8685229464FF00005284649
:1046300016E000EB800531F8155025F0070595428E
:104640000BD100EB800531F8155005F0070545EA60
:10465000040500EB800621F8165000F101052846FC
:10466000B3F86C528542E4DC70BD2DE9F047824618
:104670000D461646688800B20146A88800B2074673
:10468000E88800B20246288900B28446708800B2E9
:104690000346B08800B28046F08800B204463089F4
:1046A00000B2814699420EDBA24201DC644505DD81
:1046B0004A4508DCE14501DD944204DCA1EB080039
:1046C00000B2BDE8F0878B420CDBA24201DC6445FE
:1046D00005DD4A4506DCE14501DD944202DCD81BDC
:1046E00000B2EEE7A2420DDB994201DCBB4205DDE0
:1046F000414507DCB84501DD8B4203DCA2EB090034
:1047000000B2DEE794420DDB994201DCBB4205DDDD
:10471000414507DCB84501DD8B4203DCA4EB0C000E
:1047200000B2CEE747F6FF70CBE770B504460D4602
:104730001646288828B1308818B1288831888842E0
:1047400001D1002070BD94F88802022808D0288882
:1047500000F007000146204602F0BEF801280CD107
:1047600094F8880202280AD0308800F00700014639
:10477000204602F0B1F8012801D00020E2E73246DD
:1047800029462046FFF771FFB4F88612884201DC03
:104790000120D7E70020D5E72DE9F04F99B0074673
:1047A0004FF000001690B7F86C1201EB8101D7F8BA
:1047B000680200EB41008246D7F86802044648E0F0
:1047C00004F10A0006463FE0324621463846FFF72C
:1047D000ACFF38B32088072816DC3088072813DCA4
:1047E000169800F1010080B2169016984FEAC0406A
:1047F0004FEA10408146208840EA09002080308836
:1048000040EA090030801CE0208807280BDD308852
:10481000072808DC208820F007008146308840EA1D
:10482000090030800DE0308807280ADD208807283D
:1048300007DC308820F007008146208840EA090024
:10484000208006F10A0006465645BDD304F10A0051
:1048500004465445B4D3D7F8680204462BE02088B8
:10486000072800DC24E0208820F00700814604F1BE
:104870000A00064619E03088072800DC12E030887C
:1048800020F007001790179881450AD0324621463C
:104890003846FFF74AFF20B149463846179AFFF7D6
:1048A000BEFE00BF06F10A0006465645E3D300BF30
:1048B00004F10A0004465445D1D3D7F8680200F544
:1048C00077700B904FF0010BD7F870824FF000001B
:1048D000A7F874027CE14FEACB404FEA10408146D2
:1048E0004FF000001890D7F86802044611E02088C5
:1048F00020F00700484509D1BDF9601088B200F1E9
:10490000010000B2189001A840F8214004F10A000B
:104910000446544503D2BDF960000A28E7DB18AA13
:1049200001A93846FFF79EFDBDF96000022800DAB4
:104930004AE14FF0000005460C900D901290139044
:104940001490159049E001A9159851F8200040886D
:1049500051F825104988884200DD159501A9139862
:1049600051F82000C08851F82510C988884200DD20
:10497000139501A9149851F82000808851F825104A
:104980008988884200DA149501A9129851F820000C
:10499000008951F825100989884200DA129501A88A
:1049A00050F82500808801A951F825104988A0EB0E
:1049B00001010D9808440D9001A850F825000089C8
:1049C00001A951F82510C988A0EB01010C980844F1
:1049D0000C9005F1010000B20546BDF9600085426A
:1049E000B1DBBDF960100D9890FBF1F00D90BDF9B1
:1049F00060100C9890FBF1F00C9001A9159851F8FB
:104A000020004088A8F80200149851F820008088FF
:104A1000A8F80400139851F82000C088A8F80600F0
:104A2000129851F820000089A8F80800149851F84D
:104A30002000818801AA159852F820004088A1EB37
:104A400000004FF0640100FB01F00F900D990F98EA
:104A500090FBF1F00F9001A9129851F82000018904
:104A6000139852F82000C088A1EB00004FF06401B9
:104A700000FB01F00E900C990E9890FBF1F00E9057
:104A8000DDE90E1088420DDD012001A90090159886
:104A900051F820000346BDF8600082B23846FFF7A7
:104AA0008CFC0CE0002001A90090139851F8200024
:104AB0000346BDF8600082B23846FFF77EFC18AAB4
:104AC00001A93846FFF7F7FBBDF96000022800DABC
:104AD0007AE0BDF96000052802DD4FF0050018906E
:104AE0004FF000000546119013E011984FEAC040C6
:104AF0004FEA1040119001A850F82500008800F0FE
:104B00000700119940EA0100119005F1010000B27F
:104B10000546BDF960008542E7DBBDF86000A0F105
:104B2000010000B205464FF00000109019E0109807
:104B30004FEAC0404FEA1040109001A850F82500FD
:104B4000008800F00700109940EA010010904FF033
:104B5000000001A951F825100880A5F1010000B25C
:104B60000546002DE3DADDE91010884211DA1198CC
:104B7000A8F80000BDF96000401E01AB53F820000A
:104B80000246019801463846FFF74EFBA8F80A0096
:104B900010E01098A8F8000001980246BDF96000E6
:104BA000401E01AB53F8200001463846FFF73CFB9E
:104BB000A8F80A0008F10C008046B7F8740200F16A
:104BC0000100A7F8740200BF0BF1010000B2834698
:104BD0001698834503DC0B988045FFF47CAED7F82C
:104BE000680204461FE097F88802032806D120884F
:104BF000072815DD4FF00000208011E020880728ED
:104C00000BDC97F88802022807D02088C0B2014642
:104C1000384601F061FE012802D14FF000002080EB
:104C200004F10A0004465445DDD319B0BDE8F08F05
:104C30002DE9FC4F96464FF00000044602460090D6
:104C400069E031F8120000B95DE002F1010031F8CD
:104C5000105002F1020031F8106002F1030031F847
:104C6000107002F1040031F810C004F1010080B2AC
:104C7000019002F1050080B2034640E031F81300D4
:104C800000B933E003F1010031F8108003F10200B4
:104C900031F8109003F1030031F810A003F1040083
:104CA00031F810B045450FDC4E450DDB57450BDCA8
:104CB000DC4509DB4FF0000021F81300009800F1FB
:104CC000010080B2009010E0A8450EDCB1450CDB7D
:104CD000BA450ADCE34508DB4FF0000021F812007A
:104CE000009800F1010080B2009000BF019800F12F
:104CF000010080B2019003F1050080B203460198E3
:104D00007045BBDB00BF04F1010080B2044602F134
:104D1000050080B20246744593DB0098BDE8FC8F25
:104D20002DE9F74F83B082464FF000000290034612
:104D30000090C2E031F8130000B9B5E003F10100C2
:104D400031F810C003F1020031F8108003F10300C4
:104D500031F8109003F1040031F810B0029800F11E
:104D6000010080B2019003F1050080B2024694E098
:104D700031F8120000B987E002F1010031F810406B
:104D800002F1020031F8105002F1030031F8106016
:104D900002F1040031F8107064451BDCACEB050037
:104DA000BAF884E2704515DCB14501DC5E4503DDEF
:104DB000B9450FDC5F450DDC03F1010021F810401F
:104DC0004FF0000021F81200009800F1010080B2BD
:104DD000009058E045451BDBA4EB0800BAF884E2DC
:104DE000704515DCB14501DC5E4503DDB9450FDCDE
:104DF0005F450DDC03F1020021F810504FF0000078
:104E000021F81200009800F1010080B200903AE011
:104E10004E451BDCA9EB0700BAF884E2704515DCAF
:104E2000A44501DC444503DDAC450FDC45450DDC04
:104E300003F1030021F810604FF0000021F8120088
:104E4000009800F1010080B200901CE05F451ADB81
:104E5000A6EB0B00BAF884E2704514DCA44501DC33
:104E6000444503DDAC450EDC45450CDC03F1040094
:104E700021F810704FF0000021F81200009800F1A6
:104E8000010080B2009000BF019800F1010080B2E3
:104E9000019002F1050080B20246DDF814E00198AD
:104EA0007045FFF665AF00BF029800F1010080B2C7
:104EB000029003F1050080B20346DDF814E0029889
:104EC0007045FFF637AF009806B0BDE8F08F70B5BB
:104ED00005464FF00000044614E0C4EBC40205F59B
:104EE000D27101EB82010846FEF7EFFEC4EBC4026B
:104EF00005F5D27101EB82010846FFF782F804F153
:104F000001000446072CE8DB70BD2DE9FC41074693
:104F10000D4616461C46DDF820809DF8000065F31E
:104F200002008DF80000BDF8000066F3CB00ADF87C
:104F30000000ADF8024004EB080080B2ADF80400B8
:104F4000A5F10101C1EBC10207F5D27101EB8201AC
:104F500008466946FEF73AFFBDE8FC812DE9F04FAF
:104F60008BB006464FF0FF3080464FF000000A90AD
:104F7000054606A84FF000010180C1804180818074
:104F800000BF08460590FAE000BFD6F8A011084619
:104F900006A901F0BAFC0028F7D0BDF818004FF6BA
:104FA000FE71884200DBEBE00598002800DAE6E0BD
:104FB000BDF8180050BB4FF6FF7008904FF000008E
:104FC00009908DB1AAEB0700401C80B20090781EBA
:104FD00080B203461FFA88F2E9B23046FFF795FF28
:104FE00005904FF00000054608F1010080460A9840
:104FF00000F101010A91052807D10121FE4800684E
:105000000AF0BCFE4FF000000A90B8E0BDF81800AE
:1050100000F00704BDF91C000490BDF91A000390CC
:1050200004984FEAC030049003984FEAC0300390D0
:10503000BDF81E000290029810B94FF001000290D6
:105040000299049890FBF1F00490DDE9021090FBC6
:10505000F1F00390601E00EB800106F1E00050F8D3
:1050600021100498814276DA601E00EB800106F17F
:10507000E00000EB81004168049881426BDD601E16
:1050800000EB800106F1E00000EB810081680398ED
:10509000814260DA601E00EB800106F1E00000EB67
:1050A0008100C1680398814255DDD6F86C110298E1
:1050B000814250DCBDF818004FEAE000ADF818005E
:1050C000BDF818900898A9EB0000052805D80998A4
:1050D000A04202D14FF0010001E04FF000008346F2
:1050E0002DB9BBF1000F02D02546089F17E0B5B1DE
:1050F000A54202D1BBF1000F11D1AAEB0700401C61
:1051000080B20090781E80B203461FFA88F2E9B29E
:105110003046FFF7FAFE05904FF00000054625B136
:10512000BBF1000F01D0CA4610E07DB9BBF1000F02
:105130000CD102200090A9F1010080B203461FFAB1
:1051400088F2E1B23046FFF7E0FE05900994CDF811
:10515000209013E0FFE78DB1AAEB0700401C80B25E
:105160000090781E80B203461FFA88F2E9B23046FA
:10517000FFF7CBFE05904FF00000054600BF03E7A8
:1051800000BF3046FFF7A3FEBDF81800A0F57F4131
:10519000FE3903D1481E0BB0BDE8F08F0020FAE7BE
:1051A0002DE9F04F87B004462046FFF7D7FE0028D0
:1051B0001BDA4FF000050BE0C5EBC50204F5D27118
:1051C00001EB82010846FEF759FD05F10100054695
:1051D000072DF1D34FF00000A4F86C02A4F874027C
:1051E0004FF0FF3007B0BDE8F08F4FF000094FF0EF
:1051F000010084F876024FF00000C4F88C020546E6
:10520000A4F86C02A4F87402A7E094F888020228BB
:1052100006D0681CC1B2204601F05EFB012802D115
:105220004FF0010001E04FF000008246B4F86C023C
:1052300000EB800006464FF000008346D4F8680279
:1052400000EB46000690B4F86C020590C5EBC50172
:1052500004F5D27000EB81000069074656E0BAF110
:10526000000F03D000BF386A0A2808DBBAF1000F2C
:1052700006D100BF386AD4F88012884200DA40E0D4
:1052800001A8398A0491798A0391B98A0291B9886F
:10529000C1F3C801018000BFBDF80400BDF80C10C7
:1052A000401A012800DC2CE005F1010004F51A7415
:1052B000216821F81600BDF8101006F101002268DF
:1052C00022F81010BDF8081006F10200226822F83A
:1052D0001010BDF80C1006F10300226822F810101F
:1052E000BDF8041006F10400226822F81010A0880E
:1052F00000F10100A080A4F51A7406F1050006462D
:1053000000BF386807460BF1010083464FB1B4F87F
:105310006C02B4F87812884203DAB4F87A0258457D
:105320009DD8BAF1000F15D112E0B4F86C120598AF
:10533000081A80B2024620460699FFF7F1FC804623
:10534000B8F1000F00D104E009EB080080B28146FB
:10535000EBE700BF05F101000546072DFFF455AF4F
:10536000B4F86C020246D4F8680201462046FFF702
:105370005FFC484480B2814694F8880260B1B4F87A
:105380006C1201EB8101D4F8680200EB4100C4F813
:1053900070022046FFF700FAB9F1000F02D194F82D
:1053A000880278B1B4F86C020246D4F8680201466B
:1053B0002046FEF7FBFE8046B4F86C02A0EB080026
:1053C000A4F86C024FF00000A4F87C02A4F87E025E
:1053D00084F8760205460BE0C5EBC50204F5D271F0
:1053E00001EB82010846FEF749FC05F10100054684
:1053F000072DF1D30020F5E6D40000202DE9F04779
:1054000003460F46944639464FF008008046BCF1EB
:10541000120F02D20020BDE8F08793F8760228B977
:10542000B3F87E02B3F87492484501DB0020F2E73E
:10543000B3F87C0260B9B3F87E0248B94AF6552049
:10544000088008F1010080B2804601F102000146A7
:105450004AF65620088003F51C73B3F80E9009EB4A
:105460004909186830F82900024614468A80B3F8C2
:105470000E9009EB4909186800EB89008088B3F8A1
:105480000EA00AEB4A0AD3F8009009EB8A09B9F892
:105490000290A0EB090085B204EB050080B204463F
:1054A0004D81B3F80E9009EB4909186800EB8900AB
:1054B0000089B3F80EA00AEB4A0AD3F8009009EB72
:1054C0008A09B9F80690A0EB090086B204EB060041
:1054D00080B204468E81B3F80EA00AEB4A0AD3F8D4
:1054E000009009EB8A09B9F80290284605EBD07ABA
:1054F00009EB6A091FFA89F94A4604EB020080B2F7
:105500000446CA80B3F80EA00AEB4A0AD3F800900A
:1055100009EB8A09B9F80690304606EBD07A09EB18
:105520006A091FFA89F94A4604EB020080B2044670
:105530000A81B3F80E9009EB4909186800EB89005D
:10554000408980B2024604EB020080B20446CA8160
:105550004C80D88900F10100D881A3F51C734FEA73
:1055600048404FEA104056E72DE9F74F81B0044616
:105570008B465D464FF007000090B4F87C0200EBCC
:10558000800007460398102803D2002004B0BDE82D
:10559000F08FB4F87C02B4F86C12884208DB94F8FF
:1055A000880228B159462046039AFFF727FFEDE706
:1055B00094F8760228B9B4F87C02B4F86C128842E8
:1055C00001DB0020E2E7B4F87C0250B94AF655202E
:1055D0002880009800F1010080B2009005F10200DF
:1055E00005464AF65520288004F51A74206830F8DC
:1055F00017000646B046AE8007F10200216831F878
:10560000101007F10100226832F81000A1EB000031
:105610001FFA80F908EB090080B28046A5F80A90CD
:1056200007F10400216831F8101007F10300226827
:1056300032F81000A1EB00001FFA80FA08EB0A0014
:1056400080B28046A5F80CA007F10101226832F86B
:105650001110484609EBD07201EB620189B20E4687
:1056600008EB060080B28046EE8007F10301226855
:1056700032F8111050460AEBD07201EB620189B288
:105680000E4608EB060080B280462E81A5F8028007
:10569000A08A00F10100A082A4F51A7400984FEAD4
:1056A00040404FEA104071E72DE9F04F03460D46A8
:1056B000164693F8760218B14FF0FF30BDE8F08F30
:1056C000002D52D116B14FF001003080D3F88C027A
:1056D00010B1D3F88C02F1E74FF0000189461AE0CF
:1056E00001EB810AD3F8680200EB4A029088B2F815
:1056F00002A0A0EB0A00B2F808A0B2F806B0AAEB2C
:105700000B0A00FB0AFCCC4502D9E146C3F88C2207
:1057100001F101000146B3F86C028842E0DC4FF071
:10572000000001461AE001EB410AD3F8700200EBD9
:105730008A04A088B4F802A0A0EB0A00B4F808A07C
:10574000B4F806B0AAEB0B0A00FB0AFCCC4502D960
:10575000E146C3F88C4201F101000146B3F874023E
:105760008842E0DCD3F88C02A8E7072D1DDC4FF05F
:1057700000010F46884613E001EB810AD3F8680266
:1057800000EB4A021088A84207D1B8F1000F00D1FF
:10579000904607F1010080B2074601F10100014681
:1057A000B3F86C028842E7DC1CE04FF000010F46C2
:1057B000884613E001EB410AD3F8700200EB8A043B
:1057C0002088A84207D1B8F1000F00D1A04607F108
:1057D000010080B2074601F101000146B3F87402EE
:1057E0008842E7DC06B13780404667E730B5039C66
:1057F000D0F868520D60B0F86C521560D0F8705255
:105800001D60B0F87452256030BD30B50446039D6C
:10581000642902DCA4F8781203E04FF06400A4F8D5
:105820007802A4F87A22C4F8803284F888520020E2
:1058300030BD2DE9FF4F83B00D4692461E46DDF880
:1058400040B04FF000000190804647F6FF70009096
:105850004CE04FF00000044642E04FF0000081466B
:10586000029019E055F8290056F8241088420BD010
:1058700055F82900008800F0070056F82410098820
:1058800001F00701884203D14FF00100029005E0CA
:1058900009F1010000B28146D145E3DB00BF029867
:1058A00000B119E056F82400024655F828000146D8
:1058B0000398FEF7DAFE074600998F420BDA00974D
:1058C00055F828101198016056F8241012980160BC
:1058D0004FF00100019000BF04F1010000B2044646
:1058E0005C45BADB08F1010000B28046D045B0DB70
:1058F000019807B0BDE8F08F704700002DE9F04730
:1059000004460D461646DDE9098C089FAC4201DAD3
:10591000A24600E0AA46D146B14501DACA4600E0F7
:10592000B246D146AC4201DDA24600E0AA4650464E
:10593000B04201DD824600E0B246504688F80000E1
:10594000A0EB090A0AF0FF01322806DD4FEA012A1E
:105950009AFBF0FA87F800A003E04FF0000A87F8FE
:1059600000A000B149B94FF0000A87F800A083F801
:1059700000A08CF800A0BDE8F087844206D1A5EB1A
:10598000060A4FEA0A2A9AFBF1F212E0854208D190
:10599000A6EB040A4FEA0A2A9AFBF1FA0AF500720A
:1059A00007E0A4EB050A4FEA0A2A9AFBF1FA0AF586
:1059B0008062002A02DA02F5C06A52464FF0060AF7
:1059C00092FBFAFA52461A708CF8001000BFD2E728
:1059D0000346FF2B02D94FF0FF000346FF2902D9EF
:1059E0004FF0FF000146FF2A02D94FF0FF000246A8
:1059F000180440EA01201043704710B5C4B21C607F
:105A00004FEA10242046C4B214604FEA1024204606
:105A1000C4B20C6010BD3EB505460C466B4601AAEB
:105A200002A92846FFF7E9FF029820440290019856
:105A300020440190009820440090DDE90021029864
:105A4000FFF7C6FF3EBD2DE9FE4306466B4601AAA1
:105A500002A93046FFF7D1FFDDE90110884201D9E4
:105A6000029800E0019805460098854201D9284631
:105A700000E00098054628460CF08AFB07463946A8
:105A800017480CF067FB044602980CF081FB804637
:105A900021460CF09DFB07460CF06CFBC0B2029057
:105AA00001980CF075FB804621460CF091FB0746EF
:105AB0000CF060FBC0B2019000980CF069FB8046CE
:105AC00021460CF085FB07460CF054FBC0B2009059
:105AD000DDE900210298FFF77BFFBDE8FE830000AF
