:020000041400E6
:1000000000800020BD010014850100148701001448
:10001000890100148B0100148D0100140000000000
:100020000000000000000000000000008F0100142C
:1000300091010014000000009301001495010014C8
:1000400097010014ED8E00109701001400000000CD
:1000500097010014970100149701001497010014F0
:10006000BD88001097010014970100149701001437
:1000700097010014970100149701001497010014D0
:1000800097010014970100147921001097010014C2
:1000900097010014970100149701001451150010E6
:1000A000AD16001097010014970100149701001479
:1000B0009701001497010014970100149701001490
:1000C0009701001497010014970100149701001480
:1000D0009701001497010014970100149701001470
:1000E0009701001497010014970100149701001460
:1000F00000000000970100149701001497010014FC
:1001000000000000970100149701001497010014EB
:10011000970100142C97011480720110140900003B
:10012000EC7401140000002000000000EC740114C5
:100130000000081000000000EC7401140080002092
:10014000402200002C97011400C000200000000095
:100150007002001400000010B46F01000080011054
:10016000D413000000000020000000000000081070
:100170000000000040A200200000000000C000209D
:1001800000000000FEE7FEE7FEE7FEE7FEE7FEE711
:10019000FEE7FEE7FEE7FEE710B50023934203D239
:1001A0001C585C500433F9E710BD00238B4203D286
:1001B00000221A500433F9E77047000010B572B6F8
:1001C000194B1A4A1A601A4A5A601A4A4FF0FF33FA
:1001D000136053609360D360136153619361D36183
:1001E00062B6154C154B9C4207D294E803000C34C0
:1001F00054F8042CFFF7D0FFF4E7114B9C4205D2D2
:1002000094E80300FFF7D1FF0834F6E7DFF83C007D
:10021000016841F4700101600A4B0B4A1A6000F05A
:100220001FF800F015F8FEE7003105400010DF1060
:10023000FFF7DF0180E200E0140100145C0100140C
:100240008401001408ED00E00000001488ED00E0D7
:1002500001B40248844601BC604700BF6111001030
:1002600001B40248844601BC604700BFB5C100101C
:10027000012884B03CD870B91E4B1A680092009ACD
:10028000D20117D5009AD24342F0807201921A4AE5
:1002900001981060F1E7194B1A680092009AD00497
:1002A00017D5009AD24342F480520192144A019821
:1002B0001060F1E7134A11601A680292029AD101A4
:1002C00016D4029AD24322F08072039203990A4A0A
:1002D000F1E70D4A11601A680292029AD20407D41B
:1002E000029AD24322F4805203920399044AF1E71E
:1002F00004B0704754310540043105405031054089
:100300000031054004340440083304400CF0B2B816
:100310000CF0B0B80CF0B6B80CF0B4B800207047D0
:10032000FEE7000010B5814234BF0C46044686B09B
:10033000944228BF14460390001B02914043091BBE
:1003400001FB0101141B04FB041006EE900AF8EEF9
:10035000666A009316EE900A01920BF09BFA11F078
:1003600071F80BF0FDFC1E28009B04D8092803D867
:100370000023059312E01E2007EE903A06EE900A45
:10038000B8EE677ADFED1A7A67EE277AB8EEE67A8A
:1003900067EE877AFCEEE77ACDED057A059BB3F53B
:1003A0007A6F88BF4FF47A6305A888BF059303F07E
:1003B000D5FA0299019A039806F0E2FA06F0F8FAE3
:1003C00003A902AA01AB06F0E9FA039B8DF81130EC
:1003D000029B8DF812300DF11100019B8DF8133046
:1003E0000DF112010DF1130203F08EFA06B010BDEB
:1003F0008FC2753C00B593B00023069340201023B4
:100400000793FFF785FF031D00F14401002223F845
:10041000022C23F8042C04338B42F7D1174B08909D
:1004200018681749A023ADF824306423ADF82630AE
:1004300009AA06AB04F059FF03230093114B0421D2
:100440001B680A4606A800F0D3FD06AA0C4909A8B5
:1004500004F0F6FA05A909A804F068FB02A903AAAA
:1004600004AB06F09BFA02A80FC8FFF75BFF0898E1
:1004700008B1FFF751FF13B05DF804FB00800110D5
:10048000C8800110E080011013B501A80C4605F0EA
:1004900071F8019805F074F8A042FAD304F0B4F8AA
:1004A00002B010BD13B5044602A8002240F8042D86
:1004B00003F03EFA20464EF66021FFF7E5FF607834
:1004C000034B03EB800003F033FA02B010BD00BF12
:1004D0003C3A011037B500240546047202A840F8E2
:1004E000044D03F025FA2C7003B030BD10B504465E
:1004F000FFF7F0FF204610BD73B504460E460025F9
:10050000B54217DA02A8002340F8043D03F010FAC0
:100510004EF660212046FFF7B7FF074B607803EBEC
:10052000800003F005FA20464EF66021FFF7ACFF8D
:100530000135E5E702B070BD3C3A01101FB5A022BD
:1005400000230446ADF8082064220393ADF80A2086
:10055000009303A8611C02AA0DF10A0300F0A8FD94
:10056000002808DB054B0121186801F085FE2046B4
:100570000421FFF7C1FF04B010BD00BFE0800110EF
:100580004378072B01D8FFF78DBF70470129F8B5D5
:1005900004460F4647DD04F0AFFF054604F034F88B
:1005A0002678012E09D002D3022E18D037E0201D64
:1005B00004F0E0FF012323702DE04DB1201D04F075
:1005C000D9FF66702046FFF76DFF02232370E2E734
:1005D000606804F0D5FF154B9842DCD901E04DB9B5
:1005E000657820460421FFF787FF2046FFF772FF5A
:1005F0002846F8BD606804F0C3FF0D4B9842CAD985
:10060000201D04F0B7FF63780133DBB27A1C9342FC
:1006100008BF012363702046FFF7B2FFBBE7204607
:10062000FFF758FFB7E70020F8BD00BF60E31600F2
:1006300040420F0030B5044689B004F05DFF237AD4
:1006400005460BB34FF4A072ADF81A20C822ADF8DE
:100650001C2007AA0092694A212312688DF81530E0
:100660000023ADF81630ADF81830019202930DF169
:1006700015000DF1160106AA0DF11A0303F0D2FCC4
:100680002046FFF7B7FE1FE02278EAB1ADF816303A
:10069000ADF818304FF4A073ADF81A30C823ADF898
:1006A0001C3007AB0093554B1B680193212201239B
:1006B0008DF8152002930DF115000DF1160106AA13
:1006C0000DF11A0303F0AEFC2378052B00F28D80A8
:1006D000DFE803F003193159678A002D00F08880A4
:1006E000201D04F047FF464B08AD1B8845F8043D2C
:1006F000284603F033F9012323702846002307938B
:1007000003F016F974E00DB9257071E0606804F02B
:1007100037FF3C4B98426BD903F03AFA10B10123F2
:10072000637000E06070201D04F024FF2046FFF796
:1007300027FF02232CE095B920460321FFF7DCFEBA
:10074000201D04F017FF627801232AB908A800F8D9
:10075000043D03F065FB00E02372032318E06068AA
:1007600004F00EFF284B984242D9201D04F002FFEE
:1007700063780133DBB2082B08BF00236370204687
:10078000FFF7FEFE34E02DB1201D04F0F3FE04233C
:1007900023702DE0606804F0F3FE1C4B984227D9CB
:1007A00023E07DB963784BB908A800F8045D03F035
:1007B00037FB20460421FFF79FFE16E02046FFF797
:1007C000BDFE12E0606804F0DBFE0E4B98420FD9CC
:1007D000637823B908A800F8043D03F021FB204604
:1007E000FFF778FE0523D3E715B92046FFF772FE21
:1007F0002078003018BF012009B030BDE080011022
:1008000008800110D012130040420F0000879303AC
:1008100010B5046800230868834203D2D05C1855E1
:100820000133F8E710BD000007B5002201A9054813
:1008300006F02CFC044B0199186804F054FC03B03A
:100840005DF804FB4C3201100080011013B5074C19
:1008500007482146002206F019FC02A8238840F828
:10086000043D03F07BF802B010BD00BF088001100A
:100870006632011008B50278532A0B4608D1817AF6
:100880000D4A303910681A68C9B204F024FC06E039
:100890004D2A04D1084A0968106804F027FC01F0C9
:1008A000D1FC38B1044B186804F0F4FABDE80840F4
:1008B00001F0D2BC08BD00BF0080011030B501249A
:1008C0008BB01049224602A80CF0AEF902A8694686
:1008D00001AA002306F0DAFB002810DB0A4D019A7A
:1008E0002868E1B2013404F0ABFA082CE9D1286899
:1008F00004F0D0FA054B186803F04CFD00200BB053
:1009000030BD00BF7532011000800110048001105D
:10091000F0B597B0074618881C9B1288ADF80C20DC
:100920000C4619881D9BADF80E001B88ADF81230DF
:100930002378ADF810105A1E062A37D81D4E32689B
:100940002AB91D4803F0D0FE6FF0010030E01B4DC6
:1009500003AA2868314604F04DFA2178286804F08B
:1009600067FA3B68C361054603AA31460DA804F047
:100970004EF800210DA804F0D9F8A861227810499A
:10098000002405A80CF050F9812120222B46009468
:1009900005A806F05FFBFFF791FF0A4803F0A4FEED
:1009A0001E98012101F068FC204601E04FF0FF3065
:1009B00017B0F0BDC8800110813201100080011015
:1009C000753201109A32011070B5037892B0013B74
:1009D0000024062B05460E4611940F940E940D9498
:1009E0000C940B940A941BD8214620220AA80CF0E0
:1009F000BBF80D492A7802A80CF016F981212022B3
:100A00000AAB009402A806F025FB0446FFF756FF48
:100A1000FFF754FF3046012101F02EFC204601E093
:100A20004FF0FF3012B070BD75320110F0B593B0C9
:100A300012AC002144F8201D0746202220461191C7
:100A40000F910E910D910C910B910CF08DF80125E9
:100A50000D492A4602A800260CF0E6F8009602A8E6
:100A600081212022234606F0F5FA002809DB013512
:100A7000082DEDD1FFF722FF3846012101F0FCFBE4
:100A8000304613B0F0BD00BF753201100000000009
:100A900070B5B6B0002314931293119310930F9373
:100AA0000E930D9301252A467749784E15A80CF030
:100AB000BBF82A4676491DA80CF0B6F8202300247E
:100AC00000930DAB0193012181231DAA029415A867
:100AD00006F005FB2A466F4915A80CF0A5F82A4632
:100AE0006D491DA80CF0A0F86C4902940020142355
:100AF000CDE900011DAA4FF4807115A806F0EFFAA8
:100B000007A9224615A806F0C1FAE9B23068079A8B
:100B100004F0E1FA013515A8614906F089FB082DBA
:100B2000C1D155A1D1E900015E4A0294CDE900018D
:100B300014234FF480715C4806F0D1FA58495A48A2
:100B400006F076FB4EA1D1E900010294CDE9000147
:100B5000564A57482146142306F0C1FA01238DE86E
:100B600018002146534A544806F0B9FA4FF4FA6384
:100B70008DE81800514A524804234FF4807106F062
:100B8000AEFA50494E4806F053FB40F2EE238DE892
:100B900018004D4A4D4802234FF4807106F09FFA29
:100BA0004FF47A754A49494806F042FB00952146C0
:100BB0000194484A4848022306F091FA00952146DC
:100BC0000194464A4648474D022306F088FA14230A
:100BD0008DE8180021460423434A444806F07FFA72
:100BE00006A922463C4806F051FA0DF11A012246A8
:100BF0003B4806F04BFA08A922463C4806F046FA64
:100C00000DF1170122462C4806F040FA0AA92246A7
:100C1000254806F03BFA0BA92246254806F036FA8D
:100C200009A92246264806F031FA294622462748D5
:100C300006F02CFA9DF81730BDF81A20BDF81810F0
:100C400000933068089B06F071FB30680A9904F045
:100C50004DFA30680B9904F05BFA0999306804F09A
:100C600042FA36A82B8840F8A83D02F077FEFFF73D
:100C700025FE36B070BD00BF000000A09999B93FB5
:100C8000000000C0CCCCFC3F753201100080011088
:100C9000AA320110BD320110D03201100000044010
:100CA000050600103633011027330110AB33011055
:100CB0009533011017340110073401107A340110F4
:100CC0004C320110B90500100435011066320110D4
:100CD000DD050010B1350110A635011011360110E7
:100CE000F8350110088001107F36011070360110B0
:100CF00070B506460420FFF709FB124C054603F0C9
:100D0000E1FA4FF424702560FFF700FB0E4A2168DA
:100D1000054606F0CDFA0D4B0D491D60304604F036
:100D200048FD0C4B0C491868002205F0D7FA0B4B14
:100D30000028188003DBFFF7ABFE002070BD4FF0EA
:100D4000FF3070BD048001100010091000800110F8
:100D5000A4310110E4800110F536011080720110F9
:100D6000F0B58BB005460AA801274FF0FF3300F815
:100D7000057D0E461446099303F090F800281ADB0F
:100D80000E4B0F48B3F900200095042301930296FF
:100D900054B1002109AC03910494059106910068B7
:100DA00005F08FFA099806E0039404940068394628
:100DB00005F087FA20460BB0F0BD00BF807201102D
:100DC000E48001102DE9F04F314EDFF8D8908FB05C
:100DD000002402254FF0410B4FF0B10A64230D911E
:100DE0004FF4803231468DE8100802940395049444
:100DF00005950694CDF81CA008940994804604F04B
:100E00007CFF0746D9F8000003F0C4FA21492248C4
:100E10000122FFF7A5FFC7F58033DB0807F18051FA
:100E200084461A46D9F80000CDF82CC001F50021FF
:100E30000C9303F076FA194A81460121106805F0F7
:100E40000DFB174A0C9B03958DE804080D9A02923E
:100E50004FF4A0724FEAC9090492C82206923146A3
:100E60001A4605956423CDF81CA0CDF8209009946E
:100E7000404604F042FF4046314609EB070204F0C9
:100E800003FCDDF82CC060460FB0BDE8F08F00BF5A
:100E9000000008100010091000000910E480011083
:100EA00043435132048001100121FFF78BBF000042
:100EB00030B58FB04FF4A075039541240A250094F6
:100EC0006A439DF84C40019455084224129A0294BA
:100ED00004940891C8240C2105944A438224069462
:100EE0000994520800240A920B9307950C940D94D0
:100EF00021466422024B04F0ADFD20460FB030BD08
:100F00004343423208B5000244F62063B0FBF3F0DD
:100F1000C0B107EE900AF8EEE77A17EE900A0AF0F1
:100F2000B9FC10F01DFA0022074B0AF007FD0AF089
:100F300017FFFF2803D8002808BF012000E0FF208A
:100F4000C0B208BD012008BD0000494030B5274CA3
:100F500085B02068002106F0E8FA034600283FD05B
:100F60000288072A07D82168013A142000FB0212E0
:100F7000D2F8F05001E06FF07F4599885A881889BF
:100F8000DB888A1AC01A5043FFF7BCFF03AB044644
:100F900001A9284602AA05F001FD039B13B1634392
:100FA0001B0A0133029A039312B16243120A0132FF
:100FB0000199029219B14C43240A013400E00C4615
:100FC0008DF802200DF101000DF102010DF1030277
:100FD00001948DF801408DF8033002F095FC03E098
:100FE000039003A802F0A4FC05B030BD00800110FE
:100FF0002DE9F04F91B006468A460F929DF868B0F1
:101000001F46002B4CD0022400254FF041094FF021
:10101000B2088DE8200202950495069508950A9578
:101020000C950D950394059407940994CDF82C80A4
:1010300018461D4964234FF4903204F05EFE326876
:10104000B168054600F18050A24000F500200BF089
:10105000F1FC164B03948DE8080A4FF4A073049337
:10106000C82306930F9B0A9333680594A3405B083B
:101070000C930794CDF820A00994CDF82C80384625
:1010800009494FF49032642304F037FE3268064970
:10109000384605EB820211B0BDE8F04F04F0F4BA17
:1010A00011B0BDE8F08F00BF00000810424C543171
:1010B0002DE9F04F97B09B46002302938146102301
:1010C000402003930E469246DDF88080FFF720F91A
:1010D000051D00F14403002425F8024C25F8044CBA
:1010E00004359D42F7D1317804904B1E062B48D829
:1010F000294F3B682BB9294803F0F6FA6FF0010439
:1011000041E0274DBBF80030BAF800202868ADF860
:101110003420ADF836300DAA02AB0091394604F008
:10112000B8F93178286803F083FED9F80030C3613C
:10113000054602AA39460DA803F082FC21460DA8F7
:1011400003F0F4FC04210323A8610A46009302A8DB
:101150004346FFF74DFF3278124905A80BF064FDB6
:10116000812120222B46009405A805F073FFFFF78C
:10117000A5FB0D4803F0B8FA4046012101F07CF8C8
:1011800001E04FF0FF34049808B1FFF7C5F820469E
:1011900017B0BDE8F08F00BFC88001108132011088
:1011A00000800110753201109A32011013B502ACA3
:1011B000012304F8013D204602F070FE0B4B186835
:1011C00003F068FE0A4B186803F0E4F8002000F012
:1011D0002DFF01F05DFA036821469B6801229847C4
:1011E0000028F6D1034B187002B010BD008001102A
:1011F000048001100A8001102DE9F34101F048FA42
:101200000A270446464D2E78012E07D002D3022E1F
:1012100017D07AE0434BFF221A7074E0236820460F
:101220009B68694632469847002870D03D4B9DF830
:10123000002018783C491A7042EA002008800223F6
:1012400064E0394B1B88FF2B26D123682046DB68DE
:10125000984703285BDD236832469B6801A9204636
:1012600098472368324602AE9B680DF106014FF0A5
:1012700000082046984706F8058D01A9304605F07C
:10128000F1F9012330460DF106018DF8033005F028
:10129000E9F985F800803AE0FE2B0BD1236820465F
:1012A0009B68694601229847002830D0684602F0C2
:1012B000EDFC2AE0FD2B26D123682046DB68984709
:1012C000022824DD23680DF101019B6801222046DC
:1012D000984723680DF102019B6801222046984738
:1012E00023680DF103019B680122204698470DF108
:1012F00003020DF101000DF1020102F005FB0B4BA1
:1013000001221A7001E0012300E000232B70013F4D
:1013100017F0FF077FF476AF02B0BDE8F08100BFA1
:101320000A8001100B8001109472011010800110CE
:1013300010B5204C86B0206806F0A4FF00280BDA18
:101340001D4B1B78002B32D01C4B1D4819684A1CC2
:101350001A6003F0C9F92AE0FFF74EFF05AB0093CE
:10136000206802A904AA03AB06F02AF9059B0093A2
:1013700001230193134B0299049A1868039BFFF70A
:1013800097FD01F085F903681B6998470E4B1B78A0
:101390000BB9FFF7DBFD0D4B1B681B689A88DB88D8
:1013A00092B29BB29A4202D1FFF726FFF3E70020E8
:1013B00006B010BD008001104D8001100C8001109E
:1013C0005C3A0110E08001101080011004800110CF
:1013D00010B50E4C03F026F92068FFF789FC01F0E8
:1013E00043F9206800F0D8FD0021094800F00EFE06
:1013F00000F044FC0021074800F008FE01210648E7
:1014000000F004FE00F09EFE002010BDE080011000
:1014100084720110A87201109872011000207047A8
:101420000020704742698069101A7047F0B5034682
:101430000020904212D09D695C69641B002C11DD74
:10144000DE689F680135741C37F816609D615D6821
:10145000DC60AC4203D10024DC6000E0F0BD0E543F
:101460000130E6E7F0BD0000044B0020C3F818028D
:10147000034B4FF40002C3F8802070470010104067
:1014800000E100E00C4A4FF48043C2F81432962386
:101490000A49086840070BD4013BF9D1C2F814325D
:1014A00010230868400703D4013BFAD1012070479C
:1014B0000020C2F8140270470010104014610F4061
:1014C00037B5044690F83D00D8B10F4804210022FA
:1014D00001F0BDF901A804F04DF82046FFF7D2FF56
:1014E000054638B9019804F04BF8084B9842F4D9F6
:1014F0002C4600E0012404480421012201F0A7F950
:10150000204603B030BD00BF00500C4020A10700B2
:1015100038B50F4B042405469C6301200321F022BB
:10152000052302F04FF921460120F022052302F0A5
:1015300049F9012013210346F02202F043F9054B3B
:101540004FF400021A602846FFF7BAFF002038BDAA
:101550000010104000E100E038B590F83D3004463E
:1015600023B3426B836B9A4216D090F830507DB90A
:1015700090F83C300133DBB2052B80F83C3013D1BE
:10158000FFF79EFF0A4803F0AFF884F83C500BE0E9
:10159000002380F83C3007E0064B4FF48042C3F84C
:1015A00014220022C3F81422636BA363002038BD09
:1015B000A83A01100010104080F83D10044B21B1F2
:1015C0004FF48042C3F818227047C3F818127047CE
:1015D00000101040F0B5244B03601026044689B07B
:1015E000466020200F46FEF793FE0025A060E560D0
:1015F00025616561A561E6612020FEF789FE1B4B30
:1016000007930F2320626562A5620293E7620423B9
:101610001748039502A904950695059301F0B8F8BB
:101620000825134E013DB3680193FAD130460121DC
:1016300001F004F93046042101F013F93046042189
:10164000012201F004F90B4B83F817530A4B84F87D
:10165000305020466563A56384F83C5084F83D50C3
:10166000C3F8185209B0F0BD903A011000CB280C15
:1016700000500C4000E100E00010104038B5054675
:101680004020FEF743FE29460446FFF7A3FF014B27
:101690001C6038BD1480011070B5C56804460E4644
:1016A00045B9016803694068490098474008E0600F
:1016B00058B1A560A3686268591C32F81330A16064
:1016C0003380E368013BE360012070BD70B542697F
:1016D00004690368A21A9A1A002A0CDDC5684668D4
:1016E0006A1C01349A42C26026F81510046104D1C4
:1016F0000023C36001E0002070BD012070BD000028
:1017000090F83D202C4B73B504469AB32B4A4FF406
:101710008041C2F814120021C2F8141204229D68FC
:101720001A62254BDB6813F002020DD004F11C0095
:101730000DF10601FFF7B0FF08B9ADF806001E4B2A
:10174000BDF806209A60ECE705F47F43B3F5B44F8B
:1017500006D0B3F5B64F07D1201DA9B2FFF7B6FFEB
:10176000012384F8303001E084F83020636B0133CA
:1017700063631EE004229D681A620F4EF3689B07A4
:1017800006D504F11C000DF10601FFF785FF60B9D5
:1017900005F47F43B3F5B64F0BD1201DA9B2FFF777
:1017A00095FF012384F8303003E0BDF80630B360C4
:1017B000E3E702B070BD00BF00500C4000101040C5
:1017C000014B1868FFF79CBF148001108269C06943
:1017D000101A704790F8343013B9426813601360E0
:1017E0000020704770B503460020904214D09D69D8
:1017F000DC692C1B002C12DD1C69DD68661C1E6177
:101800002C5D0C54DC691D690134DC619C68A542C7
:1018100003D100241C6100E070BD0130E5E770BD1C
:1018200008B502200021F022042301F0CBFF0220A2
:101830000121F022042301F0C5FF034B4FF0807219
:10184000C3F88020002008BD00E100E008B50220B8
:101850000021F022012301F0B5FF01210B460220F7
:10186000F02201F0AFFF01200321F022002301F05C
:10187000A9FF01200421F022002301F0A3FF034B64
:101880004FF080721A60002008BD00BF00E100E048
:1018900073B54268002180F83410936803F00E039A
:1018A000042B044616D11068E369A269D21AA36812
:1018B0009B1A8B42C0B22FDD6369E2685D1C6561D3
:1018C000D054A36962690133A361A3689A4223D10A
:1018D000616121E00C2B02D1136801931CE0022B03
:1018E0001AD11025E66A36B9236B606A216A9847D7
:1018F000E06268B1A662A36A626A591CA162D25C06
:10190000E36A013BE362012384F8343063681A60C0
:10191000013D15F0FF05E5D102B070BD014B18681F
:10192000FFF7B6BF188001102DE9FF412026264B96
:10193000036004468660304690460F46FEF7E8FC9A
:101940000025E060266225616561A561E56130469C
:10195000FEF7DEFC4FF496430193032360628DF89B
:1019600009303846194BA56201A9E562C4F83080F8
:10197000676084F83450039301268DF808508DF881
:101980000A5001F03BF860688DF8025069468DF806
:1019900003508DF800608DF8016001F003F9606874
:1019A000314601F01DF960682946324601F0D8F849
:1019B00060683146324601F0D3F8054B204683F883
:1019C000185304B0BDE8F081B83A011000CB280CE0
:1019D00000E100E008B5034A406800F065FF002020
:1019E00008BD00BF00CB280C38B505463820FEF7EF
:1019F0008DFC04492A460446FFF796FF024B1C6003
:101A000038BD00BF0010084018800110002070474A
:101A10002DE9F041434B444C1A68012A8EB01AD18B
:101A2000424A029041238DE80C0002230393059360
:101A3000B1234FF4A078C827079300264FF47A43C8
:101A40000893CDF8108006970996206838494FF41E
:101A50009032642330E0A2F16403632B43D80A255B
:101A600092FBF5F105FB1121642392FBF3F6303173
:101A700003FB16220906B2FBF5F541F4B041412201
:101A800041F0450130350192022241EA05410392BD
:101A90000592B122009102904FF4A078C8270792D6
:101AA00000264FF47A42206821490892CDF8108030
:101AB000069709964FF4903204F01FF9054600F19D
:101AC0008050C5F590318DE84001029721223346C0
:101AD00000F5002002F036FA2068154905F57A4233
:101AE00003F0D2FD1BE021238DF82F300023ADF849
:101AF0003030ADF832304FF4A073ADF83430C82335
:101B0000ADF836300DF136030093236801930DF1E3
:101B10002F000CA90DF132020DAB02F0CFFA0EB07E
:101B2000BDE8F08148800110E0800110434D56323D
:101B3000000008107FB5134B1B68E3B9ADF81030F7
:101B4000ADF812304FF4A073ADF81430C823ADF8DF
:101B500016300DF1160300930B4B21221B688DF8F4
:101B60000F2001930DF10F0004A90DF1120205AB36
:101B700002F0A4FA02E00120FFF74AFF002007B0BC
:101B80005DF804FB48800110E080011037B5426821
:101B9000B2F1004F04460D461BD00369C1680068CE
:101BA000AA1A534301FB05334FF47A7193FBF1F307
:101BB00003448B4201DD216003E0002BB8BF00230A
:101BC0002360204602A950F8083B21F8023D04F0AA
:101BD00049FD656003B030BD30B51D4C87B020684D
:101BE00006F050FB2068002105F09FFCC0B1C188C1
:101BF000058943886D1A022295FBF2F50D44818810
:101C00001448C91A91FBF2F2134499B2ADB2C1F172
:101C1000A001643DFFF7BAFF0F482946FFF7B6FF62
:101C200005AB0093206802A904AA03AB05F0C8FC29
:101C3000059B009301230193084B0299049A1868AD
:101C4000039BFFF735F9FFF781F9002007B030BD9E
:101C5000008001101C80011030800110E080011014
:101C600007B502A94FF4FA7340F8083B21F8023D8A
:101C700004F0F8FC03B05DF804FB00002DE9FF411F
:101C8000DFF8C080264F274A274E284D00244FF406
:101C9000AF738DE8180040468021042305F01FFA39
:101CA0004FF416738DE8180038468021204A04232B
:101CB00005F015FA4FF4FA738DE8180030468021CC
:101CC0001C4A042305F00BFA4FF42F738DE818001B
:101CD000284604238021184A05F001FA02A9224669
:101CE000404605F0D3F903A92246384605F0CEF95F
:101CF000124B029ADA60039A1A6102A92246304610
:101D000005F0C4F92246284603A905F0BFF90C4B9B
:101D1000029ADA60039A1A6104B0BDE8F08100BF4C
:101D2000423B0110083B0110853B0110CC3B0110E8
:101D30004D3B0110913B0110D83B01101C8001105C
:101D400030800110FD3A011007B502A8012300F808
:101D5000013D02F0A3F8FFF791FF0B48FFF780FF6A
:101D60000A48FFF77DFF0A4B1B680BB1FEF7A6FD83
:101D7000084B186802F00EFB002000F057F9002015
:101D800003B05DF804FB00BF1C800110308001101F
:101D9000C8800110048001100C4B002119724FF40F
:101DA00048714FF4FA7219614FF000411A60DA601D
:101DB0005960074B1A6001221A724FF42F72DA60D1
:101DC0004FF461721A615960704700BF1C800110A6
:101DD00030800110014B002018707047788001108E
:101DE000034A01231370034A00201370704700BF99
:101DF000788001104C80011037B500240C4D009400
:101E0000214601940B4A0C48012305F068F921464C
:101E1000009401942846094A012305F060F9084915
:101E20002846224603B0BDE8304005F02FB900BF78
:101E30007A3D0110243D0110143D0110803D011038
:101E40004D80011013B5037833B1082B2AD8013B1C
:101E5000164A52F823302BB3154B00221A6004782F
:101E6000B4B90DF107012246124805F00FF99DF8AB
:101E700007104A1ED3B2072B06D80C4951F822206E
:101E80004AB10D4A137006E00B48047019B1F4E72B
:101E9000094B013C1C70094A01231370084A0020B9
:101EA000137001E04FF0FF3002B010BD58800110F8
:101EB00048800110143D01105580011078800110F8
:101EC0004C80011010B50C46FFF7BCFF002803DB67
:101ED000024B22681A60002010BD00BF488001102C
:101EE00010B50024064B53F8243033B101340548B3
:101EF00021460CCB02F0F8FBF4E7184610BD00BFFA
:101F000058800110BD3D01107FB50B49034608689C
:101F10008988049004AAADF8141043B100210092FE
:101F20001846019102918222062303F093FD0020BE
:101F300007B05DF804FB00BF343C011030B50388E6
:101F4000112B85B012DCA1B10B4D05EBC3000024B1
:101F500040680190A1220846009202940394214611
:101F600055F8333003F076FD204603E04FF0FF30A4
:101F700000E0084605B030BD34460110044B187827
:101F800028B9044B1B78002B0CBF0020022070479F
:101F90004C8001105480011038B505460C20FEF726
:101FA000B5F90446FEF7A2FA0F4B10491C60104C1D
:101FB000284603F0FEFB20680E49002204F08EF94B
:101FC0000D4B0E4918800022206804F087F90C4B55
:101FD0000C4918800022206804F080F90A4B188010
:101FE000FFF70AFF002038BD508001103C3C011073
:101FF000E4800110C93D0110BC720110CD3D0110FB
:10200000B8720110D53D0110BA720110064B09B12A
:10201000D86107E053F821200AB10131FAE7024BF9
:1020200043F82100002070475880011010B50B4B79
:1020300088B0B3F90020009007AB00210293084B51
:1020400001910391049104461868012304F039F9C1
:10205000044B07981C7008B010BD00BFBC72011083
:10206000E4800110448001107FB5084BB3F90020D3
:1020700005AB00210093064B0191029118680B46B5
:1020800004F01FF9059807B05DF804FBBA7201105F
:10209000E48001107FB5094BB3F9002005AB0021A6
:1020A0000093074B0191029118680B4604F009F95F
:1020B0009DF8140007B05DF804FB00BFB872011072
:1020C000E480011007B50023D9B2094A52F8212053
:1020D0000133002AF8D1074B1868FEF757FA02AB14
:1020E00003F8010D1846FFF7ADFE03B05DF804FBE1
:1020F000588001105080011008B5FEF7C9FC00F0AF
:102100005FFA01F0E7FF04F06BFBFFF7B7FDBDE8F6
:102110000840FFF771BE000008B502F075FA074BE2
:102120001868FEF787FA064B187005F039F818B1F1
:10213000BDE80840FFF7E0BF08BD00BF50800110B8
:1021400054800110F7B5FFF7BDFF00263446354F28
:1021500007233B70344B186803F024FA0546FFF759
:10216000DBFF042C07D8DFE804F0091C2D333C000A
:102170002E4B1B78EBB903242E46E8E72C4B1B783B
:1021800023B902A840F8043D01F0D2FB3A78294B6C
:1021900053F822309B6898470028ACBF01240324E1
:1021A000EAE7254B1B78002BE2D0FFF75DFF022406
:1021B000E2E73A781F4B53F82230DB689847002853
:1021C00022DAD8E71C4B1B78002B08BF0024D3E78A
:1021D000164A00231370194A04241370FFF744FFB2
:1021E000CAE7124B1B781BB1FFF7FAFD0024C3E7C7
:1021F0001DB1134B1B78002BBED102A8002400F8A0
:10220000044DFFF71FFEB7E7002EB5D0002DB3D168
:1022100004F014FD02A82C4600F8045DFFF712FE3E
:10222000AAE700BF55800110E080011078800110FE
:102230001080011058800110548001104C80011052
:10224000488A011010B5FFF725FF044608B1FFF7D3
:102250000BFF204610BD000008B5054B186802F0C2
:1022600099F8044B1878BDE80840FFF7DFBE00BFBF
:1022700004800110448001101FB548B1042300936D
:1022800000230191029318216422034B03F0E2FB27
:1022900005B05DF804FB00BF45565431094B4FF4BF
:1022A000FA725A604FF448729A604FF000421A6016
:1022B000054B4FF42F7159604FF4617199601A60AA
:1022C000704700BF7C80011088800110C269006ADD
:1022D000101A704770B503460020904214D0DD6993
:1022E0001C6A2C1B002C12DD5C691D69661C5E617A
:1022F0002C5D0C541C6A5D6901341C62DC68A542CB
:1023000003D100245C6100E070BD0130E5E770BDE1
:10231000034B4FF48022C3F880200020704700BF99
:1023200000E100E038B583685A6802F0F802982AA4
:1023300004464DD00BD8802A18D003D8602A47D045
:10234000702A11E0882A43D0902A0FD044E0B82A9E
:1023500024D004D8A02A3BD0A82A1FD03CE0C82A09
:1023600036D0F82A34D0C02A36D131E09968E269F3
:10237000236AD21AE3689B1A002BC9B227DDA3692E
:102380002269581CA061D154E369A2690133E36159
:10239000E3689A421BD10023A36118E022791AB1A5
:1023A00000229A60227112E0256B35B9636BA06A36
:1023B000616A9847206390B1E562E36AA26A591C9A
:1023C000E162D25C236B013B2363A3689A60A3683C
:1023D00004221A60082200E02C229A6138BDA3680A
:1023E000986001232371F2E7014B1868FFF79ABF49
:1023F00094800110836838229A6144221A607047E1
:1024000038B503210546F0220120002301F0DAF956
:1024100002200121F022042301F0D4F9022001213D
:10242000F022042301F0CEF901200421F022002340
:1024300001F0C8F900210220F022042301F0C2F9C2
:10244000064B0024C3F81842054B2C714FF4802230
:1024500028461A60FFF7CEFF204638BD0010104016
:1024600000E100E008B583681B685B0701D4FFF753
:10247000C1FF002008BD13B58DF8051002A9002486
:1024800001F8044D80688DF8074000F005FC2046F7
:1024900002B010BD2DE9F84320269946134B036086
:1024A0000446C66030460F469046FDF731FF0025D2
:1024B00020616561A561E561256266623046FDF7D0
:1024C00027FFE562A06225633846C4F83490A76010
:1024D000074900F09FFB20464146FFF7CCFF054B24
:1024E00083F817532046BDE8F88300BFD04601109B
:1024F000A086010000E100E038B505463820FDF770
:1025000005FF2B46034954220446FFF7C3FF024B45
:102510001C6038BD00100A409480011008B50A46BE
:10252000034903460868194604F0A2FF08BD00BF2E
:1025300000800110052838B5054631D81A4C2068AE
:1025400010B103685B689847184B1D70013D042D5E
:102550001AD8DFE805F003080A0D1100144B1868BB
:102560002060002114E0134B00E0134B1B6809E0CE
:10257000124D0121286802E0104D2868002100F06A
:10258000F3F82B68236005E0094B186820600121EF
:10259000FFF712F8206803681B689847002038BDD1
:1025A0004FF0FF3038BD00BF988001109C800110B3
:1025B000148001109480011018800110A080011077
:1025C000F0B5214F214E224A224D85B000242146EC
:1025D000009401943846012304F081FD54238DE8D2
:1025E0001800304610211C4A012304F078FD4FF4F6
:1025F00096438DE81800214604232846174A04F024
:102600006EFD0DF10A012246384604F03FFD9DF8AB
:102610000A00FFF78FFF22460DF10B01304604F050
:1026200035FD0F4B9DF80B101868FFF724FF03A929
:102630002246284604F02AFD0A4B03991868FFF742
:10264000C9F905B0F0BD00BFE8460110954701107B
:10265000F6460110F6470110A14701100448011089
:10266000948001101880011010B5084C2046FFF727
:1026700043FF2046FFF702F82046FFF7B5F900F0C8
:1026800075F8FFF79DFF002010BD00BFAD220010C0
:10269000014B1868704700BF9880011008B50120F1
:1026A0000321F022022301F08DF8064B04229A62E6
:1026B0004FF48062C3F81822A3F5003308225A6051
:1026C000002008BD0010104010B5054B00245C60D0
:1026D00001200321F022052301F074F8204610BDEB
:1026E00000100E401D4B70B50021054618681C4EA9
:1026F00004F01BFF044638B32B7902214BB1438809
:102700008288D21A92FBF1F21A4412044FF4A0709C
:1027100009E0C3880289D21A92FBF1F2C2F1C80221
:10272000D21A1204C820B2FBF0F24FF6C073134065
:102730000C4A13606B7913B9642002F0D3FE4FF496
:102740008063C6F8143203E0064BC6F81402186022
:10275000003418BF01246C71002070BD008001108E
:102760000010104000100E400171704708B508209D
:10277000FDF7CCFD044B036001230371002343717B
:10278000024B186008BD00BF68480110A08001100E
:10279000284B98422DE9F04706460F4602D1092002
:1027A0001F2104E0244B984241D10920202100F050
:1027B0007BFF7B68BA681A433B691A433B68134343
:1027C0009BB23360FB6803F00F037360194B9E42AA
:1027D0000CBF1A201B2000F045FE0025D7F814A0DE
:1027E00004464FF0FF334FF000080227534513D93A
:1027F00008F10109002307FB09F22046294609F0E8
:102800003BFB50450346F1D9B9F1FF0F86BF0237B4
:102810004FF00008C846E9E73368DBB2336032683E
:102820004FEA08239BB21343FFB233603761BDE820
:10283000F08700BF0030084000500C404368012979
:102840000CBF43F0020303F00D034360704743697C
:10285000012A16BF03F00F03194323EA0101416166
:10286000704701627047F0B50024DAB14FF0FF33D2
:102870004569AD0602D4ABB1013BF9E793B101F173
:1028800010060B4613F8015B0560B34203EB040529
:1028900002F1FF32C1EB050501D0002AF2D1194641
:1028A0002C46E2E72046F0BD2DE9F04F514B98420F
:1028B0008DB004460D46164602D14AB9202004E0E8
:1028C0004D4B984204D11AB9212000F0CBFD0646A9
:1028D0003109320704920591DDE904010022002349
:1028E000CDE90223CDE9080100274FF0FF31AC46C6
:1028F0004FF001080791BA46E3464FF000095A46E7
:102900000023DDE90801CDF804C009F0B5FA002282
:10291000B0F1004F0B920A4688BF4A1C0A9102F19F
:10292000FF31034688BF4342B1F5803FDDF804C064
:102930000AD20798834207D210460021CDE902014E
:10294000EBB107934746CA4609F10109C145AB44BB
:10295000D5D3079971B1DDE90823DDE9040108F158
:102960000108121843EB0103B8F1100FAC44CDE994
:102970000823C1D1DDE90223134337D001E04746E4
:10298000CA46360906FB07F0029E07EB0A01A1FBC7
:102990000623039E01FB0633002109F06DFA8542F0
:1029A0008CBFC0EB0500C5EB000064235843B0FBAF
:1029B000F5F5022D1AD80399029DE36808062A0A44
:1029C000024343F080039DF80810E360D2B26260D6
:1029D0002160E3683F010AF00F0AFFB203F07F03B2
:1029E00047EA0A07E3600120A76200E000200DB07B
:1029F000BDE8F08F00100840002008403D4B984291
:102A000070B504460D4604D12121092000F04CFE8A
:102A100067E0394B98421E4663D10920222100F01D
:102A200043FE0723A3600023A3607269324BD007E3
:102A300001D51B68F9E780221A632F4B5A6991066A
:102A4000FBD500221A635A60DA601A621A61DA64EE
:102A50005A651A659A695B6914E00123E365636945
:102A60009B06FCD50023E3656360E3602362236477
:102A7000A364A365E3646365236562691F4A9442A6
:102A800008BF6362AA6829682046FFF70DFF6A79CC
:102A9000E368012A03F0C00305D009D3022A05D157
:102AA00043F0020304E043F0010301E043F00303B9
:102AB0002A797AB1032A08D0042A09D0022A14BF3D
:102AC00043F0080343F0180304E043F0280301E057
:102AD00043F03803AA79012A08BF43F00403E360F6
:102AE00070BD0723A3600023A3606369DA07B4D530
:102AF0002368FAE7001008400020084000200C403E
:102B00004FF4165303600323437100230371837151
:102B100083607047012BF0B505460E46144601D080
:102B2000002016E0BDE8F040FFF79DBE6B699B06F4
:102B300015D506F11001334613F8012B2A608B429C
:102B400003EB000204F1FF34C6EB020204D11E467F
:102B50001046002CEAD102E0002CEDD1F7E7F0BDE1
:102B6000062996BF0D4B002333F81130012A0C4A79
:102B700003D1426813434360704790426FEA0303F6
:102B800005D1426840F28F3111400B4004E04168AA
:102B900040F207320A4013404360704780480110FA
:102BA00000200840CB78022B9CBF0C4AD35C4A78AB
:102BB00088BFC123012A0A7808BF43F00403012A11
:102BC0008A7808BF43F00203012A08BF43F00803D4
:102BD00023F03003DBB28360704700BF8E480110E2
:102BE00001290B4B09D1984203D1036B43F08003B9
:102BF0000AE0C36D43F0010308E0984218BFC26DBC
:102C00004FF0000302D1026B03637047C365704746
:102C10000020084038B51B4B984204460D4614D19D
:102C200009201A2100F040FD174B9D42174B04D993
:102C300040F68C42C3F8842C17E040F60802B5F544
:102C40007A7FC3F8842C1CD30FE0114B984218D123
:102C500009201B2100F028FD0C4BC122C3F80C21D8
:102C6000C3F810210B4B9D420BD16C23A3611120A3
:102C700000F0F8FBB0FBF5F0430823612569401B29
:102C8000606138BD00100A403F420F0000600840FC
:102C900000000E40801A06008B784A7810B55C1E42
:102CA0006342634143EA42030A78DBB2032A1AD83B
:102CB000DFE802F002080E14C360CB7803F0FE03D5
:102CC000036310BD0362CB7803F0FE03436310BDC2
:102CD0004362CB7803F0FE03836310BD8362CB783D
:102CE00003F0FE03C36310BD084B01221A80084A9B
:102CF00000231370074A1370074A4FF00111116047
:102D0000064A1360064A1360704700BF5C8A0110D0
:102D10003C8A0110488A0110388A0110448A011047
:102D2000408A01100020014905F06EBE498A011059
:102D300010B5084CA28821688020402A28BF402274
:102D400005F0D2FE236803442360A388181AA080EC
:102D500010BD00BF548A011010B5064C0020216838
:102D600005F0ACFE236803442360A388181AA080F2
:102D700010BD00BF548A0110002180200A4605F0D2
:102D8000B3BE00000020014905F098BEF58901108E
:102D9000204A137803F01F03012B08D0022B17D011
:102DA000002B35D11C4B1D4A1A60012070471C496D
:102DB000087800282DD011791A4A127891424FF0E4
:102DC000000026D2184A1449107050700A60ECE7CF
:102DD000127911064BBF4FF48031012102F00F032D
:102DE00002F08F0301FA03F30D49087808B91207BE
:102DF0000FD10E4A106818400BD00D4A12681342CA
:102E0000094B0CBF002201221A80034A1360CCE751
:102E100000207047498A0110548A01105C8A011011
:102E2000488A0110518A0110F5890110388A011071
:102E3000448A011038B52B4A137813F01F0301465A
:102E4000154602D0022B1BD046E05488012C10D12D
:102E5000254D30B1204605F047FC2B8843F0020396
:102E600004E005F041FC2B8823F002032B8023466D
:102E700035E0022C33D15079BDE8384005F090BCE4
:102E80001279130602F08F0005D502F00F034FF4FC
:102E900080349C4001E001248440144B1B78F3B142
:102EA00012F00F031BD0124B1B68234017D06B8806
:102EB00093B929B105F036FD0E4B1A68144309E0A9
:102EC0000D4B1B681C4209D105F03EFD094B1A68E9
:102ED00022EA04041C6001E0002300E001231846FC
:102EE00038BD00BF498A01105C8A0110488A011070
:102EF000388A0110448A0110408A0110064B1A7862
:102F0000D20606D19A78054B62F07F021A70012032
:102F100070470020704700BF498A01103C8A0110A9
:102F20002C4A1378DB0651D1D378013B062B4DD8C0
:102F3000DFE803F0080D044C4C2931009078264B53
:102F4000002219E0254B264A1A60122038E0254B52
:102F500025491868254B002808BF0B4691780022A8
:102F60008A42187828D008B1588803440132F7E71C
:102F7000197801B10B4401328242F9D1187840B37B
:102F8000164A13601CE0174B186810B3134B184A0D
:102F90001A600A2014E0134B16491868164B0128D2
:102FA00008BF0B46917800228A42187804D008B1F5
:102FB000588803440132F7E758B1084A136058882B
:102FC000064B9A88824203D9988001E0002070471E
:102FD00001207047498A011088690110548A011044
:102FE000046A011088810110EC680110D069011099
:102FF000E06801105469011020690110054B1B782D
:10300000DB0604D1044B054A1A60012070470020FA
:10301000704700BF498A0110548A0110488A011084
:103020002DE9F843564E96F8008018F01F0840F03E
:10303000A480B378002B74D0524B534A1C68534B76
:10304000002C14BF14461C462378002B00F08D8002
:103050006378042B41D0052B42D0022B5ED16279DC
:10306000B378934237D14A4A13704A4B22791A7087
:10307000494B00221A700125484F01223B68AA40A3
:103080001A42B94602D0284605F002FC4FF48032BD
:103090003B68AA401A4203D045F0800005F0F8FBD7
:1030A0000135042DE8D14FF001133D4AC9F8003035
:1030B000002313603B4A0120136005F083FBE37992
:1030C00013F0400F384B1A8814BF42F0010222F06F
:1030D00001021A8022E0638821E094F803801DE059
:1030E000B8F1000F1AD1A3781A0603F08F0506D5A0
:1030F00003F00F034FF4803202FA03F301E00123DF
:10310000AB40264A116820460B43136005F05CFB78
:10311000284605F09BFB284605F0DEFB23781C447F
:1031200092E71B4A012413701C4D01222B68A24018
:103130001A422F4602D0204605F0AAFB4FF48032F7
:103140002B68A2401A4203D044F0800005F0A0FB97
:103150000134042CE8D14FF001133B60104B0020E8
:103160001860104B186005F02DFB094B1878B378E8
:10317000C31A58425841BDE8F8830020BDE8F883DF
:10318000498A011088810110D0690110EC68011092
:10319000488A0110518A0110F4890110388A0110FF
:1031A000448A0110408A01105C8A01100A4A107892
:1031B00000F01F0001280CD1084B1B784BB113798C
:1031C000074A12789A4204D9064A1344064A136001
:1031D00070470020704700BF498A0110488A0110DB
:1031E000518A0110F4890110548A01102DE9F74F1A
:1031F000464A137803F01F03012B40F08280444BB2
:10320000187800287ED0434B43491C68434B002666
:10321000002C14BF0C461C463746B2463546B14614
:103220002378002B6BD06378042B0AD0052B19D0A0
:10323000022B61D136486179037899425CD063886A
:103240005BE094F802901379E578994551D12F4BC2
:103250009B789D424DD1324B012613F809A003F80B
:10326000095046E01379994546D194F8028018F048
:10327000800F08F08F0B06D008F00F084FF4803154
:1032800001FA08F803E04FF0010808FA0BF891780A
:103290008D4216D12348016848EA010101602248A5
:1032A000016821EA080101602046019205F08CFACC
:1032B000584605F0CBFA584605F00EFB47EA0807DA
:1032C00015E0554518D118EA070F14D115490868BB
:1032D0006FEA080808EA000008601348016808EA75
:1032E000010101605846019205F0D2FAAA46019AFE
:1032F00002E0002700E0AA4623781C4490E730460D
:1033000000E0002003B0BDE8F08F00BF498A011043
:10331000488A011088810110D0690110EC68011001
:10332000F4890110388A0110448A0110013838B537
:10333000062800F28F80DFE800F0046677578D865C
:103340008800454CFFF7EEFC2078C00905F07CFAB8
:10335000A279E179414B42EA01229A80227812F067
:10336000600F1D4639D163780B2B36D8DFE803F0A8
:10337000060D351535171A1D23262F32FFF708FDC8
:1033800058B3BDE83840FFF7D3BC0020FFF752FD2B
:1033900018B3BDE83840FFF7EFBC0120F6E7FFF7B0
:1033A000ADFDF5E7FFF7BCFDEAE7002005F0BAFA4E
:1033B0000023AB8038BDFFF721FEE1E7FFF730FEC9
:1033C00058B1FFF7D9FCBDE8384005F027B8FFF742
:1033D000EDFED5E7FFF70AFFDAE7802005F0A2FA55
:1033E0001E4B00229A8038BD1B4B18781B4BC0091E
:1033F00002D119689A8802E0002019680246BDE8E7
:10340000384005F035BB144B1B78DB0908D1134C51
:10341000A388FBB1FFF7A0FCA388002BDDD038BD4B
:10342000BDE83840FFF7AEBC0B4B1B78DB09A8D1D9
:103430000B4B187802060DD500F07F001870BDE820
:10344000384005F053B9002000E08020BDE8384046
:1034500005F07ABA38BD00BF498A0110548A0110BC
:103460003C8A01100A231A4A1A495843131810B506
:103470001C792D2C12D031F9142002F1804202F572
:10348000A0221168C807C1F303621ED4DB88C3B150
:103490001149585810F0010013D110BD125C31F9D8
:1034A000122002F1804202F5A0221268D1070CD44A
:1034B0005B88C2F3036223B10749585810F001003A
:1034C00004D0064B53F8220010BD002010BD00BFF1
:1034D0008E4B0110144D011004000540C072011004
:1034E0001E4A536813F0020F1D4B05D05268120795
:1034F00002D44FF4004200E000221A60194A516CD5
:1035000088070DD4116CC9070AD5506C516CC0F3F3
:103510000362C1F3074153F8222001FB022200E0BD
:1035200000225A620C22104931F9121001F1804137
:1035300001F5A0210968880709D4C1F38700C1F308
:103540000361013053F82110B1FBF0F100E00021DC
:1035500043F822100132112AE5D1704700300440AF
:10356000C072011000000540144D01100A4B984232
:1035700004D80A4B9A6922F0040206E0084B9842EC
:1035800008D8064B9A6942F004029A61054B98618B
:103590000020704705207047BFE1E40000000540AF
:1035A0003F787D01C0720110A0F10C03042B12D8EA
:1035B0000A4B33F910305A1C0DD003F1804303F548
:1035C000A02301391A68C9B222F47F7242EA81024B
:1035D0001A60002070470220704700BF144D011090
:1035E00008B598B92D4A41B1516821F00C015160DC
:1035F000516841F00301516008BD536823F0030393
:103600005360536843F00803536044E0022804D138
:103610000C2000211022032305E0032806D10120FD
:1036200013211022002300F0CDF834E0021F012AFC
:1036300031D9062809D11A4B9A6911B942F0010211
:1036400001E022F001029A6125E0164A32F91020C9
:10365000531C1ED002F1804202F5A02221B913684A
:1036600043F00103136016E01168072821F00101FF
:10367000116004D10A4BDB69D907FBD50BE009289F
:1036800009D1074B1A6CD207FBD51B6CDB0702D4A0
:10369000FEE7022008BD002008BD00BF0030044046
:1036A00000000540144D0110102810B530D8CA1F75
:1036B000D2B21E2A2AD82D2303FB0013154CE35C3B
:1036C00033B3154C34F91030B3F1FF3F0AD0092A57
:1036D00008D803F1804303F5A023DB7803F00F0340
:1036E0008B4211D034F911305A1C0FD003F18043B2
:1036F00003F5A0231A6822F0706242EA006040F4E9
:1037000000601860002010BD012010BD022010BD17
:10371000032010BD91480110144D0110064B1A6A88
:1037200042F001021A62054A9A62054A5A62054A43
:103730001A620020704700BF000005406220200090
:10374000FA7F16041C000006194B1A4A596CC1F383
:10375000036170B552F821205C6C1749214059640F
:10376000164942438A4200F1FF301C460D4612D8EA
:1037700052000121002302FB01F6AE4202D80133C0
:103780004900F8E7626C42F0400242EA004040EA39
:103790000323636408E00A498A4207D85A6C42F05E
:1037A000C00242EA00405864002070BD042070BD91
:1037B00000000540C07201103DCC00FFFF5E4C09C7
:1037C000FFCF121301EB4011890001F1804101F597
:1037D000062113440B607047054BDFED067A93ED2D
:1037E000007A67EE277AFCEEE77A17EE900A7047C8
:1037F000BC80011000247449022822D84FF6FF73C0
:10380000994202B20AD1D20002F180420823C2F8E2
:1038100000354FF40043C2F804357047830003F1CC
:1038200080430430A3F80612A3F80611D30003F175
:1038300080430822C3F80025012202FA00F0C3F8F1
:103840000405704702282DE9F04106460F464AD884
:10385000DFF8B0801AB918F800308B4243D0234B00
:10386000D3ED007A07B307EE107AF8EEC76A9FED42
:10387000207A86EE877A27EE277A17EE100A08F06C
:1038800009F80DF0F1FC1B4B044618680D4608F0D2
:1038900001F802460B462046294608F079F908F05F
:1038A0007FFA07EE900A01E0DFED137A134B93EDF8
:1038B000007A134BC7EE877A33F81630304607EE9E
:1038C000103AB8EEC77A67EE877AFCEEE77A17EE21
:1038D000901AB1F5803F2CBF4FF6FF7189B2FFF708
:1038E0008BFF08F80670BDE8F08100BFB4800110BE
:1038F00000007F43B880011000000000BC80011070
:10390000C0800110A480011038B50D460178002058
:1039100014460246FFF796FF297801200022FFF7A0
:1039200091FF022021780022FFF78CFF002038BD94
:1039300010B504680020C4F307410246FFF782FF78
:10394000C4F3072101200022FFF77CFF0220E1B22F
:103950000022FFF777FF002010BD0000D0ED007AB5
:103960009FED2C7A2C4BF8EE677A70B5C7EE877A0C
:103970002A4D2B4E002495ED007AF4EEC77AF1EE35
:1039800010FAC8BFF0EE477A95ED017AF4EE477A67
:10399000F1EE10FAC8BFF0EE477A95ED027AF4EE38
:1039A000477AF1EE10FAC8BFF0EE477A93ED007A4D
:1039B000C6ED007A27EE877A17EE100A07F06AFF45
:1039C0000DF0CEFC08F0ECF9164B186005EB840303
:1039D00096ED007AD3ED007A134BC7EE277AE0B26A
:1039E0009FED127A67EE877AFCEEE77A17EE902A5F
:1039F000B2F5803F28BF4FF6FF7223F814200C4B1E
:103A00000122195D0134FFF71DFF032CDED10020D8
:103A100070BD00BF00247449B8800110A880011057
:103A2000BC800110B4800110C080011000FF7F47EE
:103A3000A480011070B52DED048B4FF08043082158
:103A40004FF40042C3F80015434CC3F8042582B07C
:103A5000C3F8081544F62060C3F80C25C3F8101508
:103A6000C3F8142501F03EFD002323606360A360CA
:103A70006426062001F05AFD07EE100ADFED378AB2
:103A80009FED378A9FED379A334DF8EE477A9FEDD9
:103A9000367AC7EEA87A012067EE887AC7EE877A71
:103AA00094ED007A77EE277AC4ED007A01F03EFDBE
:103AB00007EE100AF8EE477A94ED017AC7EEA87A7D
:103AC000022067EE887AC7EE897A77EE277AC4ED0E
:103AD000017A01F02BFD07EE100AF8EE477A013E5D
:103AE000C7EEA88AD4ED027A28EE888A88EE099A71
:103AF00039EE279A84ED029ABBD195ED007ADFED7D
:103B00001B7A1B4B87EE277A02ACFF2244F8046D28
:103B100020461A705A709A7085ED007A95ED017AF8
:103B200087EE277AC9EE277A85ED017AC5ED027A0C
:103B3000FFF7FEFE0F4B104A1A60204640F2EE23BC
:103B40000193FFF70BFF0D4B0D49186801F031FE93
:103B500002B0BDEC048B70BDA880011000C07F4492
:103B6000333353400000B642000016430000C84201
:103B7000A4800110B88001100050C347E0800110FC
:103B8000BC4F0110014B1878704700BF097301103A
:103B9000014B1878704700BF06730110014B18786D
:103BA000704700BF07730110014B1878704700BFC2
:103BB00008730110014B1878704700BFC6800110D0
:103BC00038B5094C0121206802F0ECFF0221050202
:103BD000206802F0E7FF284305020521206802F073
:103BE000E1FF284338BD00BFD880011038B5094C2B
:103BF0001621206802F0D6FF10210502206802F08D
:103C0000D1FF284305020021206802F0CBFF2843A2
:103C100038BD00BFD880011008B5034B0178186883
:103C200002F0C0FF08BD00BFD880011038B504689D
:103C3000094DE2B22868052102F09EFF2868C4F30E
:103C40000722022102F098FF28680121C4F30742ED
:103C500002F092FF002038BDD880011038B504680A
:103C6000094DE2B22868002102F086FF2868C4F3FB
:103C70000722102102F080FF28681621C4F30742B2
:103C800002F07AFF002038BDD880011038B5044614
:103C90000A4D22782868242102F06EFF22782868D5
:103CA000142A86BF143AD2B20022252102F064FF02
:103CB000034B22781A70002038BD00BFD880011055
:103CC000087301102DE9F341134E0546884630680C
:103CD0000921102202F050FF0024444510DA2F1968
:103CE000295D30687A7802F047FF295D306802F07C
:103CF00059FF7B7883421CBF002301930234ECE719
:103D000030680921002202F037FF0448FFF7BEFFA8
:103D100002B0BDE8F08100BFD88001100873011027
:103D20002DE9F041294C06461321206802F03AFFA4
:103D300003210546206802F035FF254A33781178C3
:103D400099420746904636D0A3B92068132105F062
:103D5000F70202F011FF2068032107F07F0202F052
:103D60000BFF20680E21402202F006FF206821216F
:103D700003221EE0012B15D12068132105F0F70264
:103D800002F0FAFE67F07F0220680321D2B202F04F
:103D9000F3FE20680E21482202F0EEFE2068212169
:103DA000332206E0022B0CD145F0080220681321D3
:103DB000D2B202F0E1FE337888F800300020BDE88E
:103DC000F0814FF0FF30BDE8F08100BFD8800110D6
:103DD000C680011038B50B4C05469721206802F0CB
:103DE000E1FE2B7802462BB140F00A0297212068B1
:103DF000D2B203E02068972102F0F50202F0BCFE87
:103E0000002038BDD880011008B503780A7803492E
:103E10000868194602F0B0FE002008BDD8800110E5
:103E200070B50F4E05783378AB4217D00D4C382162
:103E300020684DB92A4602F09FFE20689621E122B3
:103E400002F09AFE357009E0102202F095FE20681B
:103E50009621F12202F090FE01233370002070BD04
:103E600006730110D880011038B50A4C0578237804
:103E7000AB420DD0084B1321186825B9A02202F0DF
:103E80007BFE257004E0A52202F076FE012323705C
:103E9000002038BD07730110D880011038B50A4DD5
:103EA00004782B78A34209D00CB9084802E0012C11
:103EB00006D107481E21FFF705FF2C70002038BDF2
:103EC0004FF0FF3038BD00BF0973011034500110AE
:103ED0005250011038B50C461549054608F0CAFE87
:103EE00020B92046BDE83840FFF7D0BE284611492A
:103EF00008F0C0FE50B923781BB9FFF777FE0E4BD0
:103F000018602046BDE83840FFF7AEBF28460B4991
:103F100008F0B0FE50B923781BB9FFF751FE084BEB
:103F200018602046BDE83840FFF77ABF38BD00BFB3
:103F30007050011082500110D48001109B5001106C
:103F4000D08001102DE9F04393B09846BDF86C5035
:103F5000BDF87040BDF8687004FB05F381468B42E4
:103F60004FF0FF30164611904DD8131108D108EBD1
:103F70000503B3F5A06F4BDC3B19B3F5487F13E0A5
:103F8000012B08D108EB0503B3F5207F40DC3B197A
:103F9000B3F5C87F08E0022B38D108EB0503B3F571
:103FA000A07F35DC3B19C82B32DC12A806F00F03CA
:103FB00000F8053DFFF772FF002829DB164BB3F927
:103FC0000020009604230193022303930593079393
:103FD000099311AB00210C93104BCDF80890CDF84C
:103FE0001080069708950A940B910D910E91186810
:103FF000012302F066F9119850B9094BC3F80090FB
:104000009D80DC8004E06FF0010001E06FF00200B1
:1040100013B0BDE8F08300BF04730110E480011009
:10402000C88001102DE9F04F8BB08346149C2148C5
:10403000159FDFF884801D468A461B8891464121E2
:10404000228804938DE803009DF858100291534391
:104050000221039105910893B12100230692079153
:104060000993414638464FF49032642301F045FEEF
:10407000B9F80010009129880191064621889BF823
:104080000020BAF80030029100F18050C6F590315E
:1040900000F50020FFF756FF2B8822888146414615
:1040A000384602FB036201F0EFFA48460BB0BDE868
:1040B000F08F00BF42413831000008101FB5069C48
:1040C0000094079C019401240294FFF7ABFF04B015
:1040D00010BD000030B5502387B000248DE81800D3
:1040E000474A484801234FF48071012502F0F7FF49
:1040F0004549444803F09CF8444A01942B4640F259
:1041000002210095424802F0EAFF3F49404803F08F
:104110008FF80094019429463E4A3F48042302F058
:10412000DEFF3E4A00942B46019440F202213C48B7
:1041300002F0D5FF34493A4803F07AF8394A01943D
:104140002B4640F202210095374802F0C8FF2E4965
:10415000354803F06DF804230094019429462D4A54
:10416000324802F0BCFF224603A9264802F08EFF27
:1041700022460DF10D01264802F088FF22460DF17E
:104180000E01274802F082FF22460DF10F0126485A
:1041900002F07CFF03A8FFF779FD0DF10D00FFF79A
:1041A00063FE9DF80D407CB9214D1B482A682AB159
:1041B0000421234602F04EFF2C6005E004A902F022
:1041C00065FF04A8FFF74AFD0DF10E00FFF728FE7A
:1041D0009DF80E3093B99DF80F407CB9154D1348EA
:1041E0002A682AB10421234602F034FF2C6005E03E
:1041F00005A902F04BFF05A8FFF718FD07B030BD79
:10420000AE50011070500110653C00101F5101109C
:104210008250011078650110665101107051011033
:104220009B50011000520110E15101108252011007
:10423000D4800110D080011013B50420FCF766F87B
:104240006021044602F052FC134B2046A0211C6062
:1042500002F0A8FC28211148FFF734FD02A8002431
:1042600000F8014DFFF71AFE0D4B0E49186801F0DA
:10427000A0FA0D4B0D491868224602F02FF80C4B9E
:10428000A042188003DBFFF725FF204601E04FF036
:10429000FF3002B010BD00BFD88001105C5C01107F
:1042A000E0800110945A0110E48001105C58011064
:1042B00004730110024B00221A60DA809A80704762
:1042C000C880011010B50446034820600021102268
:1042D00008F04AFC204610BD00C000200368988802
:1042E000DA8880B292B2904217D0188880B201303A
:1042F00082B203EBC0001A8002680A6042684A601A
:10430000DA88013292B2DA80198840F27F7289B27B
:10431000914204D100221A8001E000207047012060
:1043200070470368F0B59D88D8881E882D1AADB2F5
:10433000B6B20024A0B2A84210D3DA8815FA82F2ED
:1043400092B2DA801A8815FA82F5ADB21D8019880A
:1043500040F27E7289B2914216D8F0BD9442ECD2FE
:104360000136B7B203EBC60601EBC40C306841F866
:1043700034007068CCF8040040F27F760134B74214
:1043800014BF3E460026D5E71A88A2F27F7292B289
:104390001A80F0BD03689988DA888A1AD98892B29F
:1043A00012FA81F189B2D980198812FA81F292B297
:1043B0001A80198840F27E7289B2914204D91A8813
:1043C000A2F27F7292B21A807047000010B5064CBC
:1043D000064920460A2204F0DBFE20460121002285
:1043E000BDE8104004F003BF00300E40400D030054
:1043F0004FF0804300219A8892B242F004029A80E2
:104400009A8822F4FF521204120C9A809A8892B26F
:1044100042F4CB529A8001221A811965196821F061
:104420000101196044F62061A3F80011A3F80012FD
:104430004FF48051C3F8041341F20101C3F80C1387
:1044400041F20201C3F80023C3F80823C3F8141390
:10445000C3F81023D98889B241F00401D980D988E2
:1044600021F4FF510904090CD980D98889B241F49B
:104470009071D980082159814FF6FF71A3F802117C
:10448000A3F8021241F21001C3F81C1341F211010A
:10449000C3F81823C3F8241341F21201C3F82023F0
:1044A000C3F82C1341F21301C3F82823C3F83413C3
:1044B000C3F830239A8822F004021204120C9A8066
:1044C000DA8822F004021204120CDA80704700002D
:1044D0001149124A00230B6042F284010720535015
:1044E0000F49086042F2040182B0535002F50452B1
:1044F0001360116841F00401116001930199094BA7
:10450000994202D8019B0133F7E7136823F00403B3
:10451000136002B0704700BF80600F4000400F4042
:1045200000600F407F969800074B42F294010022F2
:104530005A5042F214112020585042F288015A5029
:1045400042F208015A50704700400F40064B0022CB
:1045500001211A605960DA6003F578331A60CB22C2
:104560005960DA60704700BF0050084008B504F099
:1045700095FDFFF7EBFFFFF7D7FF03F051FF04486E
:1045800004F0B0FB0348BDE8084004F093BB00BF53
:1045900000CB280C845C011037B5174C237800251C
:1045A000022B8DF8065025D014480DF106012A463D
:1045B00002F06CFD9DF80630E3B1237853B9104842
:1045C00000F0D8FF02A8012500F8015DFFF728FCE4
:1045D00025700FE0012B0DD1094B186800F0D0FFBA
:1045E000084B984206D902A800F8015DFFF718FCB5
:1045F0000223237003B030BDDC800110E1510110B3
:10460000E8800110C0C62D0008B5054B01211868CF
:1046100001F024FF0028F8D1BDE80840FFF7BCBF37
:10462000E08001102DE9F341FFF7A0FF002404F022
:104630007FFD0DF107010DF1060001268DF8064002
:104640008DF8074002F058F80DF107010DF1060052
:104650008DF806608DF8074002F04EF8FFF7B6FEC1
:10466000FFF7C6FEFFF734FF1020FBF74FFE804632
:1046700000F0F8F819492046FBF7FAFD1020FBF787
:1046800045FE054600F08CF93C20FBF73FFE224634
:104690002B4607462146124D01F0A8FE384640F64B
:1046A000B8312F6001F096F83C20FBF72FFE214631
:1046B00032464346074601F099FE0A4B1F60FFF75A
:1046C000B9F9286802F0FCFA00F050F8FFF7B4FDE1
:1046D00002F008F902B0BDE8F08100BF00800020C0
:1046E000E0800110E48001100FB400B5A5B026AA47
:1046F00004A852F8041B039209F0F4FE002300936F
:10470000054B18211868E12204AB01F0A3F925B08C
:104710005DF804EB04B07047E080011042F214131E
:10472000024AD058C0F30020704700BF00400F403D
:1047300008B5042000F0FAFE4FF425535843800AD0
:1047400000F5A57008BD08B5032000F0EFFE41F2AA
:10475000AD435843800A08BD08B5052000F0E6FEC9
:1047600041F2AD435843800A08BD000010B542F243
:1047700014030D4CE25842F48072E250FFF7D8FF68
:1047800041F61E13984242F214130849E2588CBFB6
:1047900022F4807242F48072E250054BBDE8104072
:1047A000186801F006B800BF00400F40905C01108F
:1047B000E080011009B940687047002070478068A8
:1047C00070476FF0630070470A494B430A4910B5C0
:1047D0008C680A49488880B2012807D1064989684F
:1047E000091B9942F5D94FF0FF3010BD01234B80D2
:1047F000104610BDE01C03000050084000FC0020E3
:104800000A494B430A4910B58C680A49088880B2A6
:10481000012807D006498968091B9942F5D94FF04C
:10482000FF3010BD00230B80104610BDE01C0300BC
:104830000050084000FC00200C3000F09BBEC06817
:1048400000F09EBE012909D0022902D021B940689A
:1048500070474FF47F7070470020704700487047E2
:1048600004FC0020044A0549016000230321836001
:10487000416053801380704700FC0020305E0110BF
:10488000F8B5114E114C0F4615465E4303F0EAFD94
:1048900018B920704FF0FF30F8BD3846294603F0B4
:1048A0005FFE0B4B0B4A1B689268D31AB34202D8C7
:1048B0002378002BF5D023780BB12846F8BD03F000
:1048C0007EFE6FF06500F8BDE01C0300548101100E
:1048D00058810110005008400C3000F04BBEC068F9
:1048E00000F04EBE2DE9F041274E884614465E4347
:1048F00003F0B8FD38B9254A1060254A10704FF012
:10490000FF30BDE8F081CEB9402C32D81F4F3D6852
:1049100015B1A54206D02CE01E483C60214603F0AC
:1049200035FE22E01A4B1B78FBB1404619492A4656
:1049300008F080F83E602846BDE8F081134B1B6804
:104940000BB103F039FE4046214603F01FFE124B27
:10495000124A1B689268D31AB3420D4B0DD81A78CD
:10496000002AF4D009E003F027FE6FF06400BDE8F0
:10497000F0816FF06300BDE8F0811B78002BF2D06E
:104980002046BDE8F08100BFE01C03002C8101102F
:104990006C810110EC800110608101100050084012
:1049A00000228260024A026002224260704700BF19
:1049B000585E011010B509B100230362C26982B1CB
:1049C000036A1168994220DD926802EB830132F894
:1049D0002320498802810133042241818281C281DE
:1049E000036244890189B0F90420002344F00104E2
:1049F00041F0010143610361A4B2036889B202FB83
:104A0000041213448361012010BD002010BD38B58D
:104A100000230360C3808380C38183810446438174
:104A2000038103C984E803001068516804F1080594
:104A300003C5E36120460121FFF7BCFF204638BDD6
:104A4000002310B50360C38083800446C381838143
:104A50004381038103C9E26184E803002046012108
:104A6000FFF7A8FF204610BD2DE9F04184890369B6
:104A7000A3420AD3002303614369B0F9044002331F
:104A80004361836903EB44038361C4894369A3429F
:104A900032D285690369EE18EC5C16F8017CB0F936
:104AA00004609B1BEE5C2B4413F8013C22B1BD1942
:104AB0006D101470557093700569C1B104EB07084F
:104AC0009844B8F1250F02DC02350561CEE704EB0E
:104AD000060C9C44BCF1250FF6DDE41B9B1BE40394
:104AE000DB0394FBF8F493FBFCF30C604B600235A2
:104AF00005610120BDE8F0810020BDE8F081C369B7
:104B000070B504460E46154653B1FFF7ADFF01469A
:104B100050B92046FFF74EFF38B1204631462A46AD
:104B2000BDE87040FFF7A0BF012070BD2DE9F7433D
:104B300000248846012181468DF806408DF8054005
:104B40008DF80440FFF736FF25462646274648469F
:104B5000002101AAFFF7D3FF50B19DF804301F4494
:104B60009DF805301E449DF8063001341D44EEE7E3
:104B7000B7FBF4F7B6FBF4F6B5FBF4F5B8F1000FAC
:104B800001D0C8F80040360246EA0740284303B087
:104B9000BDE8F0832DE9F04F87B0002708468B462B
:104BA0000024012100259946904605970497FFF7B8
:104BB00001FFCDE90245BA463B46BC463E46584653
:104BC00004A900220193CDF800C0FFF798FF019BD4
:104BD000DDF800C028B3DDF810E0D8F80020D8F8E0
:104BE0000C009645D8F80420C8BF0CF1010C96457E
:104BF000059AB8BF01338242D8F81000C8BF0AF145
:104C0000010A8242DDE90201B8BF013710EB0E0054
:104C100041EBEE71A418CDE9020145EBE2750136D6
:104C2000CDE706EE906AF8EE667A06EE90CAB8EE28
:104C3000667A06EE903A87EE277A3246DDE902017F
:104C400089ED007AB8EE667A06EE90AA87EE277AAA
:104C500089ED017AB8EE667A06EE907A87EE277AC9
:104C600000273B4689ED027AB8EE667AC7EE277ACE
:104C7000C9ED037A07F0E4F82946C8F8080032467F
:104C800020463B4607F0DCF8C8F8140007B0BDE842
:104C9000F08F2DE9FF410023074688461446136133
:104CA000D360536013601F264FF080456B46384633
:104CB00041462246FFF76EFFD7ED5E7A9DED007A02
:104CC0002368B4EEE77AF1EE10FA9DED017ACCBFDD
:104CD0005B19C5EB0303B4EEE77A236063689DEDCF
:104CE000027AF1EE10FACCBFC5EB03035B19B4EE08
:104CF000E77A6360E3689DED037AF1EE10FACCBFCA
:104D00005B19C5EB0303E360B4EEE77A2369F1EEC8
:104D100010FACCBFC5EB03035B19013E23614FEAD8
:104D20006505C3D104B0BDE8F081013970B5CCB2DE
:104D3000062C5ED86301C2180344D269012A04F12B
:104D4000600200EB82024FEA441114BFD2ED017AF7
:104D500092ED017A9A6808BFD0ED607A00EB010508
:104D6000415806EE102AC2EB010108BF67EE277A10
:104D7000B8EEC67A06EE101AF8EEC66AB0EE476ACA
:104D8000A6EEA76A142606FB04049869FDEEC66A1F
:104D9000C4ED386A69688A1A06EE102AF8EEC66A07
:104DA0005A69D968A6EEA77A891A06EE902ABDEE4E
:104DB000C77A06EE101A84ED397AB8EEE67AF8EE84
:104DC000C66AB0EE476AA6EEA76A19698A1AFDEEAE
:104DD000C66A06EE102AC4ED3A6AF8EEC66AA6EE76
:104DE000A77ABDEEC77A84ED3B7A01F0E1FDC4F805
:104DF000F00070BDF0B55E1E1D46F3B2062B8BB001
:104E0000044611D804EB461601A8FFF700FE002760
:104E1000204601A93246FFF73CFF2046F7612946AC
:104E2000FFF783FF384601E04FF0FF300BB0F0BDD5
:104E30000139CBB2062B94BF00EB41100020704724
:104E4000F8B54C1EE3B2062B07460E460ED81546A3
:104E500000EB44140FCD0FC495E80F0084E80F0059
:104E600038463146FFF761FF0020F8BD4FF0FF30B4
:104E7000F8BD10B50023D0F8702109B9D15404E071
:104E8000D45C8C4204BF0024D4540133B3F5805F5A
:104E9000F1D110BD2DE9F74F00210446FFF7E9FFDE
:104EA0000125E9B220460135FFF73FFF082DF8D173
:104EB00000210023C3EB010A4FEACA32CAF3C50A34
:104EC00000924FEA8A120192002003EB010CD4F801
:104ED0006C218444944504DA0430B0F5807FF4D129
:104EE00039E0009ADDF804B0C3EB000992FBFCF84E
:104EF0004FEAC932C9F3C50992FBFCFCCB442646F4
:104F00002246012537680FB97768E7B1D2F8E0701B
:104F1000474518DAD2F8E470B84514DAD2F8E870E8
:104F2000674510DAD2F8EC70BC450CDAD4F8707131
:104F300017F80BC0BCF1000F01D0AC4501DD07F83C
:104F40000B50CC46D0460135082D06F1200602F163
:104F50001402D7D1C0E70433B3F5807FAAD104315E
:104F6000B1F5807FA5D1002003B0BDE8F08F00002F
:104F700038B500F58072044600F12003002543F89F
:104F8000045C43F80C5C43F8105C43F8145C43F891
:104F9000185C43F81C5C43F8205C20339342EDD14D
:104FA000C4F87011E0222946204607F0DDFD2946AD
:104FB0008C2204F1E00007F0D7FD20462946FFF7D8
:104FC00058FF4C23C4F86C314FF07A53C4F87C314D
:104FD0004FF4FA63C4F87431074BC4F878314FF0DA
:104FE0007F53C4F8803163190435044AC3F884211F
:104FF0001C2DF8D1204638BD6666663F0000204073
:1050000043B90A88032A28D9043A0A808A880432D4
:105010008A8024E0012B06D14A88032A1DD9043A4C
:105020004A80CB8816E0022B0AD18B880888B2F917
:1050300004201844033090420FDA04338B800EE0D2
:10504000032B0CD1CB884888B2F9062018440330D2
:10505000904202DA0433CB8001E001207047002047
:1050600070472DE9F0470C468CB04FF00008114610
:1050700003A822469A46CDF80880CDF80480FFF7B1
:10508000C6FC0024002526462F4603A801A90022BD
:10509000FFF735FD50B1019BF61847EBE377029B14
:1050A000E41845EBE37508F10108EEE74FF000095D
:1050B00042464B463046394606F0C2FE2946CAF8FB
:1050C0000000424620464B4606F0BAFECAF80400ED
:1050D0000CB0BDE8F0874B1E062B9CBF00EB810196
:1050E000C1F880217047C0F874117047DFED077A6E
:1050F00007EE101A67EE277AFCEEE77A17EE903A81
:1051000003B90123C0F86C31704700BF00403F4431
:10511000C0F8801170470139CBB2062B9ABF00EB63
:105120004111C86900207047F8B5066843689E427F
:1051300004460F462ED11036B6F1FE5F85681A4937
:1051400094BFB0004FF0FF300BF01AF9024630B9AF
:10515000A260002382B9A5604FF0FF30F8BD701E39
:105160001346411C03F10403F2D0002123F8021C72
:1051700023F8041C0138F4E721688B4205DA55F85E
:10518000231042F823100133F6E7666015B1284674
:10519000FBF7C2F82368A268591C2160396842F8FD
:1051A00023100020F8BD00BFFC6C01102DE9F04F6A
:1051B0002DED028B89B01E460423ADF81C30ADF8EE
:1051C0001E300B88ADF818304B88ADF81A30934676
:1051D0008B88CA8893424FF0000794BF4FF00009B4
:1051E0004FF00109B94518BF1A4608EE102A824649
:1051F00005970497B84618EE103A984562D25A4679
:10520000504606A904ABFFF72CFF049B3068716879
:10521000C01A059BC91A494300FB001007EE900A0B
:10522000F8EEE77A17EE900A06F034FB0CF00AF974
:1052300006F0B6FD07EE900AFCEEE77ADAF8743174
:1052400017EE900A98422CD2149B0498D3F800C011
:105250003368CDF804C00CF10104E517C117CCFB8D
:10526000030122462B4606F0EBFD3060059873687B
:10527000DDF804C0C117CCFB030122462B4606F023
:10528000DFFDBDF81A307060BDF818201498ADF835
:105290000C2003A9ADF80E30FFF746FF002811DB04
:1052A0000137B9F1000F05D0BDF818300433ADF85F
:1052B000183004E0BDF81A300433ADF81A3008F1A4
:1052C000040898E707EE907AB8EE677AF1EE007A74
:1052D00067EE277AB8EEC88A87EE888A18EE100A39
:1052E00009B0BDEC028BBDE8F08F2DE9F04F994677
:1052F00013888BB000241546032B5288ADF8164056
:1053000006460F46ADF81440ADF81E40ADF81C40FF
:10531000ADF81A40ADF8184009940894ADF8103073
:10532000ADF812200FD90421043B9BB2ADF8141044
:10533000484603A9ADF81030ADF80C30ADF80E209A
:10534000FFF7F2FE00E00124BDF81230032B40F21B
:105350009780BDF81620043B04329BB2ADF81620AE
:105360004846BDF81020ADF8123003A9ADF80C2066
:10537000ADF80E30FFF7D8FE0DF1100A3046514659
:105380003A460223FFF73CFE10B144F004040AE061
:10539000BDF812302A88ADF80C20484603A9ADF8B4
:1053A0000E30FFF7C1FEBDF81630BDF81210B7F988
:1053B000062019440331914265DA043348462946F0
:1053C000ADF81630FFF7B0FE304651463A4608AB0E
:1053D000FFF747FE0F2C59D000259AE8030044FA46
:1053E00005F30DF1180B13F001035FFA85F88BE854
:1053F000030041D1B8F1000F02D1ADF81C8018E0D4
:10540000B8F1010F13D0B8F1020F09D1BDF81C108B
:10541000BDF81820ADF81C300A44ADF8182008E09B
:10542000BDF81A20BDF81E100A44ADF81A20ADF8D8
:105430001E30304659463A464346FFF7E1FD80B9F3
:10544000CDF80090304659463A4608ABFFF7AEFE1D
:10545000D6ED5F7A07EE100AB4EEE77AF1EE10FAB5
:1054600004D50123AB401C43E4B205E0304651466D
:105470003A464346FFF7C4FD0135042DADD1A9E7F7
:1054800044F0020478E744F008049DE70BB0BDE85F
:10549000F08F2DE9F0418AB004469DF840506E1E11
:1054A0005FFA86FCBCF1060F88461F4615D8FFF749
:1054B0001CFF04EB46163A46414601A8FFF7C0FA26
:1054C0000027204601A93246FFF7E3FB2046F7619B
:1054D0002946FFF72AFC384601E04FF0FF300AB0BA
:1054E000BDE8F081034B99689A68521A8242FBD357
:1054F000704700BF00300C4070B50A4D0A4B42F2B5
:1055000014141A68285900F0800090421E4606D0F4
:105510004FF4FA60FFF7E6FF285900F08000306092
:1055200070BD00BF00400F403081011038B5C4B2DB
:1055300021460F48012203F067FE4FF4FA70FFF78F
:10554000D1FF0B48012103F049FE09482146012201
:1055500003F06EFE0028F8D02146054803F062FEF5
:10556000214605460022024803F04EFE284638BD7B
:1055700000300E40014B9B680360704700300C40C8
:10558000014B9B68181A704700300C407047002090
:10559000704710B50023934203DACC5CC454013346
:1055A000F9E710BD90F83B007047836813B1436082
:1055B000002383607047F0B5002351F82340026850
:1055C0009D004F19002C33D0092B31DC14F8016CED
:1055D000141D0460146814B96FF00200F0BD16F0D9
:1055E000800F13D106F00F06012E03D14A5912780D
:1055F00022701BE0022E03D14A591288228015E046
:10560000042EE9D14A59126822600FE0A12E4D59AB
:1056100001D125600AE02D68256002F108040460CC
:1056200052680133002AD7D07C6814600133C4E784
:10563000131D036010680028CED1F0BDF8B590F8B6
:105640003B3004460E4617460BB98A0619D5E0686A
:1056500008B9330617D54FF0FF30002594F83930DC
:105660009D4208DA23682046DB6831463A4698476F
:1056700048B10135F2E7002805DA002384F83B3011
:10568000F8BD6FF00500F8BD38B504468068636862
:1056900010B9A360616001E099420FD1236AD31A67
:1056A00094F83A20E36062B918212046FFF7C6FF5C
:1056B00005462046FFF779FF284638BD6FF0040005
:1056C00038BD002038BD0000F8B5858E0E49403544
:1056D0002F01044638460AF053FE064688B10021E1
:1056E0003A4607F041FAA28E216B3046120107F0CC
:1056F000A1F9206B08B1FAF70FFE2663A5860020FA
:10570000F8BD6FF00400F8BDFC6C0110F8B505465B
:105710000F460024A6B2AA8E33B2934208DA1B01C8
:105720002A6BD05840B1394607F0A4FA20B901E0FD
:105730004FF6FF7630B2F8BD0134EBE7F8B504461A
:1057400016460D4609B320462946FFF7DFFF00281D
:1057500014DAA28E002188B203B2934205DB934291
:105760000CD12046FFF7B0FFEDE74FEA031C276B93
:1057700057F80C700131002FEDD1F0E7216B03B227
:105780001B01CA18CD50566001E04FF6FF7000B201
:10579000F8BD38B504461D46FFF7D0FF002805DBED
:1057A000236B03EB0010C560002038BD4FF0FF30C5
:1057B00038BD38B5054601F1080454F8081C39B164
:1057C00054F8042C23462846FFF7E3FF1834F4E787
:1057D000084638BD4185704738B504461546FFF781
:1057E00095FF236B2A8803EB00131A8138BD000054
:1057F000437E70B5044613B16FF0040070BD11B95B
:105800004569803501E001F18005284608490AF024
:10581000B7FD06460028EFD06168626907F00AF913
:10582000606808B1FAF778FD66606561002070BDB8
:10583000FC6C01102DE9F04F8A4685B01F460546E5
:1058400040B190F83A30016A13B101F1040802E066
:10585000884600E080460123C8EB020902933B68BA
:1058600093F800B01A1D3A60BBF1000F00F0DD8024
:105870000BF0BF02012A08F101040AEB08000AF844
:1058800008B008D13A68111D1268396008F10206A3
:105890000AF80420AFE0022A12D13A68E60748BFAE
:1058A00024F0010402F1040148BF023439600AEB1C
:1058B0000401128801F801BCA61C2AF804209AE011
:1058C000042A02D0BBF1640F11D13A68A00718BFB7
:1058D00024F0030402F1040118BF043439600AEB18
:1058E0000401126801F801BC4AF8042016E0142AE9
:1058F00016D13A68073222F0070202F10801396036
:10590000D2E9000106F04CFAA1071CBF24F0030401
:1059100004340AEB040202F801BC1060261D6AE0A0
:10592000A12A23D13A68111D3960126803921046EA
:1059300007F00CFB421C1619A9F108018E420FD981
:1059400015B96FF0040074E0284631460192FFF764
:105950004FFF0028019A6CDBD5F804A0D5F814900D
:105960000AEB0400039907F065F844E012065ED5DF
:1059700039680E1D3E600BF03006302E0BF00F0222
:10598000096805D10BF08F0B002380F800B002935B
:10599000A3071CBF24F0030404340AEB0400261DF3
:1059A00000F801BC501E06424AF8041002D05042D2
:1059B00006401644029BF3B101FB02F3F418A9F16F
:1059C000080294420DD9002DBBD0284621460193F0
:1059D000FFF70EFF0028019B2BDBD5F804A0D5F8BC
:1059E00014903A68111D39600AEB060011681A46D6
:1059F00007F020F826462DB1AA7E1AB91BF0400FF9
:105A000018BF4646A9F108039E4201D8B04626E7D2
:105A1000002D96D028463146FFF7EAFE002808DB25
:105A2000D5F804A0D5F81490F0E7404601E06FF0F7
:105A3000020005B0BDE8F08F10B50B464269416821
:105A40000446FFF7F7FE002803DB236AC01AE06074
:105A5000002010BD0EB4F3B59DF81C5090F83A60CC
:105A6000C768182D08BF002302A908BF80F83A3084
:105A700008AB41F8043D0446FFF7DEFF182D03D0C4
:105A800094F83A3033B928B9204618210022FFF79C
:105A9000D5FDE76084F83A6002B0BDE8F04003B09D
:105AA00070472DE9F3410E880368003618BF0126C0
:105AB0000D46044631461B68904698472B8884F86B
:105AC0003B60E38698F80030003318BF01230021C3
:105AD0000746A3760091E37E019120460122FFF75D
