:1000000000800020BD010014850100148701001448
:10001000890100148B0100148D0100149676FF678E
:100020000000000000000000000000008F0100142C
:1000300091010014000000009301001495010014C8
:100040009701001461900010970100140000000057
:1000500097010014970100149701001497010014F0
:1000600021860010970100149701001497010014D5
:1000700097010014970100149701001497010014D0
:1000800097010014970100141D1600109701001429
:10009000970100149701001497010014D522001055
:1000A00031240010970100149701001497010014E7
:1000B0009701001497010014970100149701001490
:1000C0009701001497010014970100149701001480
:1000D0009701001497010014970100149701001470
:1000E0009701001497010014970100149701001460
:1000F00000000000970100149701001497010014FC
:1001000000000000970100149701001497010014EB
:100110009701001424970114787201100C09000053
:10012000E47401140000002000000000E4740114D5
:100130000000081000000000E4740114008000209A
:10014000402200002497011400C00020000000009D
:100150007002001400000010AC6F0100008001105C
:1001600054130000000000200000000000000810F0
:100170000000000040A200200000000000C000209D
:1001800000000000FEE7FEE7FEE7FEE7FEE7FEE711
:10019000FEE7FEE7FEE7FEE710B50023934203D239
:1001A0001C585C500433F9E710BD00238B4203D286
:1001B00000221A500433F9E77047000010B572B6F8
:1001C000194B1A4A1A601A4A5A601A4A4FF0FF33FA
:1001D000136053609360D360136153619361D36183
:1001E00062B6154C154B9C4207D294E803000C34C0
:1001F00054F8042CFFF7D0FFF4E7114B9C4205D2D2
:1002000094E80300FFF7D1FF0834F6E7DFF83C007D
:10021000016841F4700101600A4B0B4A1A6000F05A
:1002200017F800F01DF8FEE7003105400010DF1060
:10023000FFF7DF0180E200E0140100145C0100140C
:100240008401001408ED00E00000001488ED00E0D7
:1002500001B40248844601BC604700BFB1C1001030
:1002600001B40248844601BC604700BF511700102A
:10027000002070470020704708B501200321F022BC
:10028000022305F073FF064B04229A624FF480624A
:10029000C3F81822A3F5003308225A60002008BDD5
:1002A0000010104010B5054B00245C6001200321B4
:1002B000F022052305F05AFF204610BD00100E4025
:1002C0001D4B70B50021054618681C4E02F09DFBC1
:1002D000044638B32B7902214BB143888288D21A65
:1002E00092FBF1F21A4412044FF4A07009E0C388A3
:1002F0000289D21A92FBF1F2C2F1C802D21A120498
:10030000C820B2FBF0F24FF6C07313400C4A1360E2
:100310006B7913B9642006F075F94FF48063C6F861
:10032000143203E0064BC6F814021860003418BFFC
:1003300001246C71002070BD048001100010104079
:1003400000100E400171704708B5082000F052FF00
:10035000044B03600123037100234371024B1860B7
:1003600008BD00BFA83101100080011010B5814206
:1003700034BF0C46044686B0944228BF144603900E
:10038000001B02914043091B01FB0101141B04FBEC
:10039000041006EE900AF8EE666A009316EE900AD4
:1003A00001920BF075FA11F049F80BF0D7FC1E28FA
:1003B000009B04D8092803D80023059312E01E20CF
:1003C00007EE903A06EE900AB8EE677ADFED1A7AF9
:1003D00067EE277AB8EEE67A67EE877AFCEEE77A80
:1003E000CDED057A059BB3F57A6F88BF4FF47A633C
:1003F00005A888BF059305F03BFD0299019A039873
:1004000003F079FA03F090FA03A902AA01AB03F012
:1004100080FA039B8DF81130029B8DF812300DF19C
:100420001100019B8DF813300DF112010DF1130233
:1004300005F0F4FC06B010BD8FC2753C00B593B05A
:100440000023069340201023079300F0D5FE031DE0
:1004500000F14401002223F8022C23F8042C043379
:100460008B42F7D1174B089018681749A023ADF8B5
:1004700024306423ADF8263009AA06AB05F039FB19
:1004800003230093114B04211B680A4606A800F0C1
:10049000D3FD06AA0C4909A804F0D7FE05A909A8AE
:1004A00004F049FF02A903AA04AB03F032FA02A840
:1004B0000FC8FFF75BFF089808B100F0A1FE13B06A
:1004C0005DF804FB04800110A8800110F480011085
:1004D00013B501A80C4606F0DDF8019806F0E0F827
:1004E000A042FAD306F042FD02B010BD13B5044697
:1004F00002A8002240F8042D05F0A4FC20464EF688
:100500006021FFF7E5FF6078034B03EB800005F007
:1005100099FC02B010BD00BF583A011037B5002455
:100520000546047202A840F8044D05F08BFC2C70BF
:1005300003B030BD10B50446FFF7F0FF204610BDF4
:1005400073B504460E460025B54217DA02A800230B
:1005500040F8043D05F076FC4EF660212046FFF79A
:10056000B7FF074B607803EB800005F06BFC20467B
:100570004EF66021FFF7ACFF0135E5E702B070BD34
:10058000583A01101FB5A02200230446ADF80820F8
:1005900064220393ADF80A20009303A8611C02AA09
:1005A0000DF10A0300F0A8FD002808DB054B01212E
:1005B000186801F0CBF820460421FFF7C1FF04B012
:1005C00010BD00BFF48001104378072B01D8FFF75E
:1005D0008DBF70470129F8B504460F4647DD06F088
:1005E0001BF8054606F0C2FC2678012E09D002D37E
:1005F000022E18D037E0201D06F04CF8012323709E
:100600002DE04DB1201D06F045F866702046FFF73D
:100610006DFF02232370E2E7606806F041F8154B96
:100620009842DCD901E04DB9657820460421FFF7F6
:1006300087FF2046FFF772FF2846F8BD606806F086
:100640002FF80D4B9842CAD9201D06F023F8637885
:100650000133DBB27A1C934208BF0123637020464A
:10066000FFF7B2FFBBE72046FFF758FFB7E70020D0
:10067000F8BD00BF60E3160040420F0030B50446ED
:1006800089B005F0C9FF237A05460BB34FF4A07279
:10069000ADF81A20C822ADF81C2007AA0092694ABA
:1006A000212312688DF815300023ADF81630ADF80F
:1006B0001830019202930DF115000DF1160106AAF2
:1006C0000DF11A0303F0C0FB2046FFF7B7FE1FE051
:1006D0002278EAB1ADF81630ADF818304FF4A073B7
:1006E000ADF81A30C823ADF81C3007AB0093554B5A
:1006F0001B680193212201238DF8152002930DF12F
:1007000015000DF1160106AA0DF11A0303F09CFB6A
:100710002378052B00F28D80DFE803F003193159AF
:10072000678A002D00F08880201D05F0B3FF464B3E
:1007300008AD1B8845F8043D284605F099FB0123C8
:10074000237028460023079305F07CFB74E00DB965
:10075000257071E0606805F0A3FF3C4B98426BD9AF
:1007600003F028F910B10123637000E06070201DD0
:1007700005F090FF2046FFF727FF02232CE095B9F4
:1007800020460321FFF7DCFE201D05F083FF627881
:1007900001232AB908A800F8043D03F053FA00E049
:1007A0002372032318E0606805F07AFF284B984213
:1007B00042D9201D05F06EFF63780133DBB2082BB0
:1007C00008BF002363702046FFF7FEFE34E02DB122
:1007D000201D05F05FFF042323702DE0606805F005
:1007E0005FFF1C4B984227D923E07DB963784BB952
:1007F00008A800F8045D03F025FA20460421FFF75D
:100800009FFE16E02046FFF7BDFE12E0606805F08F
:1008100047FF0E4B98420FD9637823B908A800F818
:10082000043D03F00FFA2046FFF778FE0523D3E7D7
:1008300015B92046FFF772FE2078003018BF01205E
:1008400009B030BDF48001100C800110D0121300EB
:1008500040420F000087930310B504680023086826
:10086000834203D2D05C18550133F8E710BD000075
:1008700007B5002201A9054806F048F9044B019983
:10088000186805F034F803B05DF804FB6832011015
:100890000480011013B5074C07482146002206F0DA
:1008A00035F902A8238840F8043D05F0E1FA02B0CA
:1008B00010BD00BF0C8001108232011008B5027813
:1008C000532A0B4608D1817A0D4A303910681A68CC
:1008D000C9B205F004F806E04D2A04D1084A0968B7
:1008E000106805F007F800F017FF38B1044B1868DE
:1008F00004F0D5FEBDE8084000F018BF08BD00BFF9
:100900000480011030B501248BB01049224602A8A2
:100910000CF088F902A8694601AA002306F0F6F84F
:10092000002810DB0A4D019A2868E1B2013404F076
:100930008CFE082CE9D1286804F0B1FE054B18683C
:1009400006F024FE00200BB030BD00BF9132011034
:100950000480011008800110F0B597B00746188890
:100960001C9B1288ADF80C200C4619881D9BADF815
:100970000E001B88ADF812302378ADF810105A1E07
:10098000062A37D81D4E32682AB91D4806F05EFB8C
:100990006FF0010030E01B4D03AA2868314604F0D7
:1009A0002EFE2178286804F048FE3B68C3610546A6
:1009B00003AA31460DA804F02FFC00210DA804F075
:1009C000BAFCA86122781049002405A80CF02AF985
:1009D000812120222B46009405A806F07BF8FFF722
:1009E00091FF0A4806F032FB1E98012100F0AEFE8E
:1009F000204601E04FF0FF3017B0F0BDA880011095
:100A00009D3201100480011091320110B6320110A4
:100A100070B5037892B0013B0024062B05460E46C4
:100A200011940F940E940D940C940B940A941BD86B
:100A3000214620220AA80CF095F80D492A7802A830
:100A40000CF0F0F8812120220AAB009402A806F0F5
:100A500041F80446FFF756FFFFF754FF30460121E7
:100A600000F074FE204601E04FF0FF3012B070BD80
:100A700091320110F0B593B012AC002144F8201D62
:100A800007462022204611910F910E910D910C9155
:100A90000B910CF067F801250D492A4602A80026A3
:100AA0000CF0C0F8009602A881212022234606F00F
:100AB00011F8002809DB0135082DEDD1FFF722FFE1
:100AC0003846012100F042FE304613B0F0BD00BFB1
:100AD000913201100000000070B5B6B000231493ED
:100AE0001293119310930F930E930D9301252A46A1
:100AF0007749784E15A80CF095F82A4676491DA836
:100B00000CF090F82023002400930DAB01930121F9
:100B100081231DAA029415A806F021F82A466F49E0
:100B200015A80CF07FF82A466D491DA80CF07AF83C
:100B30006C49029400201423CDE900011DAA4FF452
:100B4000807115A806F00BF807A9224615A805F034
:100B5000DDFFE9B23068079A04F0C1FE013515A83F
:100B6000614906F0A5F8082DC1D155A1D1E90001D0
:100B70005E4A0294CDE9000114234FF480715C4871
:100B800005F0EDFF58495A4806F092F84EA1D1E918
:100B900000010294CDE90001564A5748214614232A
:100BA00005F0DDFF01238DE818002146534A544823
:100BB00005F0D5FF4FF4FA638DE81800514A52480A
:100BC00004234FF4807105F0CAFF50494E4806F0E7
:100BD0006FF840F2EE238DE818004D4A4D4802238D
:100BE0004FF4807105F0BBFF4FF47A754A494948CC
:100BF00006F05EF8009521460194484A48480223D1
:100C000005F0ADFF009521460194464A4648474D00
:100C1000022305F0A4FF14238DE8180021460423C5
:100C2000434A444805F09BFF06A922463C4805F08C
:100C30006DFF0DF11A0122463B4805F067FF08A938
:100C400022463C4805F062FF0DF1170122462C4870
:100C500005F05CFF0AA92246254805F057FF0BA9BD
:100C60002246254805F052FF09A92246264805F0EC
:100C70004DFF29462246274805F048FF9DF81730CA
:100C8000BDF81A20BDF8181000933068089B01F0D9
:100C9000BDFD30680A9904F02DFE30680B9904F010
:100CA0003BFE0999306804F022FE36A82B8840F8F4
:100CB000A83D05F0DDF8FFF725FE36B070BD00BF9A
:100CC000000000A09999B93F000000C0CCCCFC3FC7
:100CD0009132011004800110C6320110D932011086
:100CE000EC320110000004404D0600105233011098
:100CF00043330110C7330110B133011033340110F5
:100D000023340110963401106832011001060010DE
:100D1000203501108232011025060010CD3501105A
:100D2000C23501102D360110143601100C8001104F
:100D30009B3601108C36011070B50646042000F079
:100D400059FA124C054606F0B9FB4FF424702560A1
:100D500000F050FA0E4A2168054601F019FD0D4BCE
:100D60000D491D60304603F0D2FA0C4B0C4918684F
:100D7000002204F061F80B4B0028188003DBFFF71A
:100D8000ABFE002070BD4FF0FF3070BD0880011039
:100D90000010091004800110C0310110F88001100A
:100DA0001137011078720110F0B58BB005460AA812
:100DB00001274FF0FF3300F8057D0E4614460993D6
:100DC00002F07EFF00281ADB0E4B0F48B3F900201B
:100DD000009504230193029654B1002109AC0391BC
:100DE000049405910691006804F019F8099806E04A
:100DF000039404940068394604F011F820460BB0BF
:100E0000F0BD00BF78720110F88001102DE9F04F9D
:100E1000314EDFF8D8908FB0002402254FF0410BFF
:100E20004FF0B10A64230D914FF4803231468DE8C2
:100E3000100802940395049405950694CDF81CA01F
:100E400008940994804603F006FD0746D9F800008F
:100E500006F09CFB214922480122FFF7A5FFC7F5B8
:100E60008033DB0807F1805184461A46D9F8000028
:100E7000CDF82CC001F500210C9306F04EFB194A69
:100E800081460121106804F097F8174A0C9B0395DE
:100E90008DE804080D9A02924FF4A0724FEAC90936
:100EA0000492C822069231461A4605956423CDF86D
:100EB0001CA0CDF820900994404603F0CCFC40469D
:100EC000314609EB070203F08DF9DDF82CC06046CE
:100ED0000FB0BDE8F08F00BF00000810001009102F
:100EE00000000910F88001104343513208800110BE
:100EF0000121FFF78BBF000030B58FB04FF4A07514
:100F0000039541240A2500946A439DF84C400194BE
:100F100055084224129A029404940891C8240C2182
:100F200005944A43822406940994520800240A92A4
:100F30000B9307950C940D9421466422024B03F009
:100F400037FB20460FB030BD4343423208B50002A4
:100F500044F62063B0FBF3F0C0B107EE900AF8EE60
:100F6000E77A17EE900A0AF093FC10F0F5F90022E8
:100F7000074B0AF0E1FC0AF0F1FEFF2803D8002835
:100F800008BF012000E0FF20C0B208BD012008BD5D
:100F90000000494030B5274C85B02068002101F0A1
:100FA00034FD034600283FD00288072A07D821686D
:100FB000013A142000FB0212D2F8F05001E06FF069
:100FC0007F4599885A881889DB888A1AC01A504345
:100FD000FFF7BCFF03AB044601A9284602AA02F0B2
:100FE00098FC039B13B163431B0A0133029A0393DA
:100FF00012B16243120A01320199029219B14C43B3
:10100000240A013400E00C468DF802200DF10100A5
:101010000DF102010DF1030201948DF801408DF8EC
:10102000033004F0FBFE03E0039003A804F00AFF82
:1010300005B030BD048001102DE9F04F91B0064697
:101040008A460F929DF868B01F46002B4CD00224B0
:1010500000254FF041094FF0B2088DE820020295BB
:101060000495069508950A950C950D95039405949D
:1010700007940994CDF82C8018461D4964234FF439
:10108000903203F0E8FB3268B168054600F1805009
:10109000A24000F500200BF0CBFC164B03948DE82A
:1010A000080A4FF4A0730493C82306930F9B0A9376
:1010B00033680594A3405B080C930794CDF820A0F7
:1010C0000994CDF82C80384609494FF490326423B6
:1010D00003F0C1FB32680649384605EB820211B0C5
:1010E000BDE8F04F03F07EB811B0BDE8F08F00BF4F
:1010F00000000810424C54312DE9F04F97B09B4648
:101100000023029381461023402003930E4692460B
:10111000DDF8808000F070F8051D00F14403002424
:1011200025F8024C25F8044C04359D42F7D131785E
:1011300004904B1E062B48D8294F3B682BB92948F1
:1011400005F084FF6FF0010441E0274DBBF800304B
:10115000BAF800202868ADF83420ADF836300DAA72
:1011600002AB0091394604F098FD3178286804F00C
:1011700064FAD9F80030C361054602AA39460DA8C1
:1011800004F063F821460DA804F0D5F804210323E8
:10119000A8610A46009302A84346FFF74DFF327844
:1011A000124905A80BF03EFD812120222B46009418
:1011B00005A805F08FFCFFF7A5FB0D4805F046FFDD
:1011C0004046012100F0C2FA01E04FF0FF340498DC
:1011D00008B100F015F8204617B0BDE8F08F00BF49
:1011E000A88001109D32011004800110913201107D
:1011F000B63201100BF03CB90BF03AB90BF040B924
:101200000BF03EB900207047FEE70000012884B0D3
:101210003CD870B91E4B1A680092009AD20117D5BB
:10122000009AD24342F0807201921A4A01981060EB
:10123000F1E7194B1A680092009AD00417D5009A6A
:10124000D24342F480520192144A01981060F1E7AF
:10125000134A11601A680292029AD10116D4029AB6
:10126000D24322F08072039203990A4AF1E70D4AB1
:1012700011601A680292029AD20407D4029AD243E9
:1012800022F4805203920399044AF1E704B07047B4
:1012900054310540043105405031054000310540CE
:1012A0000434044008330440014B00201870704798
:1012B00040800110034A01231370034A0020137079
:1012C000704700BF408001101480011037B5002422
:1012D0000C4D0094214601940B4A0C48012305F063
:1012E0003EFC2146009401942846094A012305F05A
:1012F00036FC08492846224603B0BDE8304005F0D8
:1013000005BC00BFBE3B0110683B0110583B0110FB
:10131000C43B01101580011013B5037833B1082BBD
:101320002AD8013B164A52F823302BB3154B002222
:101330001A600478B4B90DF107012246124805F08D
:10134000E5FB9DF807104A1ED3B2072B06D80C49BF
:1013500051F822204AB10D4A137006E00B48047080
:1013600019B1F4E7094B013C1C70094A01231370C1
:10137000084A0020137001E04FF0FF3002B010BDAA
:101380002080011010800110583B01101D800110B9
:10139000408001101480011010B50C46FFF7BCFF0F
:1013A000002803DB024B22681A60002010BD00BF3A
:1013B0001080011010B50024064B53F8243033B1CF
:1013C0000134054821460CCB05F040FEF4E71846F1
:1013D00010BD00BF20800110013C01107FB50B49FA
:1013E000034608688988049004AAADF8141043B134
:1013F000002100921846019102918222062303F0F7
:10140000D7F8002007B05DF804FB00BF783A011060
:1014100030B50388112B85B012DCA1B10B4D05EB63
:10142000C300002440680190A12208460092029463
:101430000394214655F8333003F0BAF8204603E010
:101440004FF0FF3000E0084605B030BD7844011091
:10145000044B187828B9044B1B78002B0CBF0020D4
:1014600002207047148001101C80011038B5054619
:101470000C20FFF7BFFE0446FFF75CF80F4B104946
:101480001C60104C284602F042FF20680E490022E2
:1014900003F0D2FC0D4B0E4918800022206803F0A7
:1014A000CBFC0C4B0C4918800022206803F0C4FCD4
:1014B0000A4B1880FFF70AFF002038BD1880011082
:1014C000803A0110F88001100D3C01107E7201106D
:1014D000113C01107A720110193C01107C7201104C
:1014E000064B09B1D86107E053F821200AB1013158
:1014F000FAE7024B43F821000020704720800110DA
:1015000010B50B4B88B0B3F90020009007AB002159
:101510000293084B0191039104910446186801233A
:1015200003F07DFC044B07981C7008B010BD00BF91
:101530007E720110F88001100E8001107FB5084BFB
:10154000B3F9002005AB00210093064B01910291F5
:1015500018680B4603F063FC059807B05DF804FBC0
:101560007C720110F88001107FB5094BB3F900209F
:1015700005AB00210093074B0191029118680B46BF
:1015800003F04DFC9DF8140007B05DF804FB00BFAC
:101590007A720110F880011007B50023D9B2094A08
:1015A00052F821200133002AF8D1074B1868FFF7C1
:1015B00011F802AB03F8010D1846FFF7ADFE03B0BA
:1015C0005DF804FB208001101880011008B5FFF7BA
:1015D00083FA00F07BFD02F08FFC06F0B1F800F01A
:1015E000B7FBBDE80840FFF771BE000008B505F085
:1015F000BDFC074B1868FFF741F8064B187005F063
:101600000FFB18B1BDE80840FFF7E0BF08BD00BF01
:10161000188001101C800110F7B5FFF7BDFF0026F0
:101620003446354F07233B70344B186802F068FD91
:101630000546FFF7DBFF042C07D8DFE804F0091CA0
:101640002D333C002E4B1B78EBB903242E46E8E7E4
:101650002C4B1B7823B902A840F8043D04F0F2FBA0
:101660003A78294B53F822309B6898470028ACBF42
:1016700001240324EAE7254B1B78002BE2D0FFF777
:101680005DFF0224E2E73A781F4B53F82230DB6813
:101690009847002822DAD8E71C4B1B78002B08BF9C
:1016A0000024D3E7164A00231370194A0424137048
:1016B000FFF744FFCAE7124B1B781BB1FFF7FAFD97
:1016C0000024C3E71DB1134B1B78002BBED102A829
:1016D000002400F8044DFFF71FFEB7E7002EB5D039
:1016E000002DB3D104F0EAFF02A82C4600F8045DF7
:1016F000FFF712FEAAE700BF1D800110F480011061
:101700004080011050800110208001101C800110C9
:1017100014800110C88A011010B5FFF725FF044698
:1017200008B1FFF70BFF204610BD000008B5054BC0
:10173000186805F02BFF044B1878BDE80840FFF748
:10174000DFBE00BF088001100E8001101FB548B138
:101750000423009300230191029318216422034B78
:1017600002F026FF05B05DF804FB00BF455654317A
:10177000C269006A101A704770B503460020904293
:1017800014D0DD691C6A2C1B002C12DD5C691D69FC
:10179000661C5E612C5D0C541C6A5D6901341C6220
:1017A000DC68A54203D100245C6100E070BD01301B
:1017B000E5E770BD034B4FF48022C3F88020002082
:1017C000704700BF00E100E038B583685A6802F056
:1017D000F802982A04464DD00BD8802A18D003D896
:1017E000602A47D0702A11E0882A43D0902A0FD06F
:1017F00044E0B82A24D004D8A02A3BD0A82A1FD07D
:101800003CE0C82A36D0F82A34D0C02A36D131E09C
:101810009968E269236AD21AE3689B1A002BC9B25D
:1018200027DDA3692269581CA061D154E369A2692C
:101830000133E361E3689A421BD10023A36118E0FE
:1018400022791AB100229A60227112E0256B35B913
:10185000636BA06A616A9847206390B1E562E36AAE
:10186000A26A591CE162D25C236B013B2363A3682B
:101870009A60A36804221A60082200E02C229A6170
:1018800038BDA368986001232371F2E7014B186803
:10189000FFF79ABF44800110836838229A6144227E
:1018A0001A60704738B503210546F0220120002355
:1018B00004F05CFC02200121F022042304F056FC19
:1018C00002200121F022042304F050FC0120042115
:1018D000F022002304F04AFC00210220F02204231D
:1018E00004F044FC064B0024C3F81842054B2C714D
:1018F0004FF4802228461A60FFF7CEFF204638BDFD
:101900000010104000E100E008B583681B685B0729
:1019100001D4FFF7C1FF002008BD13B58DF80510F5
:1019200002A9002401F8044D80688DF8074004F0F6
:10193000F5FB204602B010BD2DE9F843202699465C
:10194000134B03600446C66030460F469046FFF7CF
:1019500053FC002520616561A561E5612562666231
:101960003046FFF749FCE562A06225633846C4F8BB
:101970003490A760074904F08FFB20464146FFF7EB
:10198000CCFF054B83F817532046BDE8F88300BF12
:1019900010450110A086010000E100E038B50546C1
:1019A0003820FFF727FC2B46034954220446FFF753
:1019B000C3FF024B1C6038BD00100A404480011078
:1019C00010B50E4C05F0E0FA2068FFF7B5F900F00D
:1019D000D1FB2068FFF74AFD00210948FFF780FD91
:1019E00000F0B6F900210748FFF77AFD012106480B
:1019F000FFF776FDFFF710FE002010BDF480011008
:101A00008072011094720110A472011013B502AC1F
:101A1000012304F8013D204602F052F90B4B1868EF
:101A200003F03DFE0A4B186805F0B0FD0020FFF7FB
:101A300067FD00F0B3FB036821469B6801229847CD
:101A40000028F6D1034B187002B010BD04800110BD
:101A500008800110488001102DE9F34100F09EFB41
:101A60000A270446464D2E78012E07D002D3022EB7
:101A700017D07AE0434BFF221A7074E023682046A7
:101A80009B68694632469847002870D03D4B9DF8C8
:101A9000002018783C491A7042EA0020088002238E
:101AA00064E0394B1B88FF2B26D123682046DB6876
:101AB000984703285BDD236832469B6801A92046CE
:101AC00098472368324602AE9B680DF106014FF03D
:101AD00000082046984706F8058D01A9304605F014
:101AE00071FD012330460DF106018DF8033005F03C
:101AF00069FD85F800803AE0FE2B0BD12368204673
:101B00009B68694601229847002830D0684601F05A
:101B1000CFFF2AE0FD2B26D123682046DB689847BB
:101B2000022824DD23680DF101019B680122204673
:101B3000984723680DF102019B68012220469847CF
:101B400023680DF103019B680122204698470DF19F
:101B500003020DF101000DF1020104F05FF90B4BDE
:101B600001221A7001E0012300E000232B70013FE5
:101B700017F0FF077FF476AF02B0BDE8F08100BF39
:101B800048800110498001109072011050800110AE
:101B900010B5204C86B0206801F0E4FD00280BDA77
:101BA0001D4B1B78002B32D01C4B1D4819684A1C5A
:101BB0001A6005F04BFA2AE0FFF74EFF05AB0093E1
:101BC000206802A904AA03AB00F06AFF059B0093FA
:101BD00001230193134B0299049A1868039BFFF7A2
:101BE0008BF900F0DBFA03681B6998470E4B1B78F2
:101BF0000BB9FFF7CFF90D4B1B681B689A88DB8880
:101C000092B29BB29A4202D1FFF726FFF3E700207F
:101C100006B010BD04800110158001104C80011029
:101C200028450110F4800110508001100880011037
:101C3000094B4FF4FA725A604FF448729A604FF0B1
:101C400000421A60054B4FF42F7159604FF46171D7
:101C500099601A60704700BF5480011060800110C5
:101C600037B54268B2F1004F04460D461BD00369F8
:101C7000C1680068AA1A534301FB05334FF47A7117
:101C800093FBF1F303448B4201DD216003E0002B61
:101C9000B8BF00232360204602A950F8083B21F872
:101CA000023D05F08FFC656003B030BD30B51D4CC2
:101CB00087B0206801F056FD2068002100F0A5FEE5
:101CC000C0B1C188058943886D1A022295FBF2F5DF
:101CD0000D4481881448C91A91FBF2F2134499B259
:101CE000ADB2C1F1A001643DFFF7BAFF0F4829462C
:101CF000FFF7B6FF05AB0093206802A904AA03AB67
:101D000000F0CEFE059B009301230193084B02993E
:101D1000049A1868039BFFF7EFF8FFF73BF90020E0
:101D200007B030BD048001106C800110808001106C
:101D3000F480011007B502A94FF4FA7340F8083B8C
:101D400021F8023D05F03EFC03B05DF804FB000005
:101D50002DE9FF41DFF8C080264F274A274E284D46
:101D600000244FF4AF738DE818004046802104230F
:101D700004F0F5FE4FF416738DE818003846802104
:101D8000204A042304F0EBFE4FF4FA738DE81800A8
:101D9000304680211C4A042304F0E1FE4FF42F73E7
:101DA0008DE81800284604238021184A04F0D7FE45
:101DB00002A92246404604F0A9FE03A9224638465D
:101DC00004F0A4FE124B029ADA60039A1A6102A987
:101DD0002246304604F09AFE2246284603A904F023
:101DE00095FE0C4B029ADA60039A1A6104B0BDE8C2
:101DF000F08100BF984501105E450110DB450110E0
:101E000022460110A3450110E74501102E4601109E
:101E10006C800110808001105345011007B502A8A5
:101E2000012300F8013D01F04BFFFFF791FF0B4844
:101E3000FFF780FF0A48FFF77DFF0A4B1B680BB1D5
:101E4000FEF760FD084B186805F0A0FB0020FFF7C7
:101E500057FB002003B05DF804FB00BF6C8001104D
:101E600080800110A8800110088001100C4B002117
:101E700019724FF448714FF4FA7219614FF0004132
:101E80001A60DA605960074B1A6001221A724FF427
:101E90002F72DA604FF461721A615960704700BFA7
:101EA0006C80011080800110002070472DE9F04106
:101EB000434B444C1A68012A8EB01AD1424A029010
:101EC00041238DE80C00022303930593B1234FF4C3
:101ED000A078C827079300264FF47A430893CDF8DB
:101EE000108006970996206838494FF49032642391
:101EF00030E0A2F16403632B43D80A2592FBF5F18D
:101F000005FB1121642392FBF3F6303103FB16220B
:101F10000906B2FBF5F541F4B041412241F045011B
:101F200030350192022241EA054103920592B12225
:101F3000009102904FF4A078C827079200264FF432
:101F40007A42206821490892CDF8108006970996B8
:101F50004FF4903202F07FFC054600F18050C5F549
:101F600090318DE8400102972122334600F5002090
:101F700001F0FAFE2068154905F57A4202F032F9BF
:101F80001BE021238DF82F300023ADF83030ADF861
:101F900032304FF4A073ADF83430C823ADF836308A
:101FA0000DF136030093236801930DF12F000CA966
:101FB0000DF132020DAB01F093FF0EB0BDE8F081E0
:101FC00010800110F4800110434D563200000810BB
:101FD0007FB5134B1B68E3B9ADF81030ADF8123084
:101FE0004FF4A073ADF81430C823ADF816300DF1DE
:101FF000160300930B4B21221B688DF80F200193D1
:102000000DF10F0004A90DF1120205AB01F068FFFC
:1020100002E00120FFF74AFF002007B05DF804FB53
:1020200010800110F480011008B50A4603490346E8
:102030000868194600F08CFC08BD00BF0480011040
:10204000052838B5054631D81A4C206810B1036808
:102050005B689847184B1D70013D042D1AD8DFE8C6
:1020600005F003080A0D1100144B186820600021C8
:1020700014E0134B00E0134B1B6809E0124D0121E3
:10208000286802E0104D28680021FEF75BF92B68F4
:10209000236005E0094B18682060012100F04EF92B
:1020A000206803681B689847002038BD4FF0FF3058
:1020B00038BD00BF94800110988001109C800110F1
:1020C00044800110A080011000800110F0B5214F64
:1020D000214E224A224D85B00024214600940194CD
:1020E0003846012304F03BFD54238DE818003046A8
:1020F00010211C4A012304F032FD4FF496438DE871
:102100001800214604232846174A04F028FD0DF143
:102110000A012246384604F0F9FC9DF80A00FFF750
:102120008FFF22460DF10B01304604F0EFFC0F4B00
:102130009DF80B101868FFF7F0FB03A9224628460C
:1021400004F0E4FC0A4B0399186800F005FB05B0A5
:10215000F0BD00BFB646011063470110C446011030
:10216000C44701106F470110D2470110448001108D
:10217000A080011010B5084C2046FFF70FFC204648
:1021800000F03EF9204600F0F1FAFEF7DDF8FFF727
:102190009DFF002010BD00BFB91D0010014B186845
:1021A000704700BF9480011042698069101A70471F
:1021B000F0B503460020904212D09D695C69641B13
:1021C000002C11DDDE689F680135741C37F816603D
:1021D0009D615D68DC60AC4203D10024DC6000E0FE
:1021E000F0BD0E540130E6E7F0BD0000044B0020C6
:1021F000C3F81802034B4FF40002C3F88020704765
:102200000010104000E100E00C4A4FF48043C2F897
:10221000143296230A49086840070BD4013BF9D1D0
:10222000C2F8143210230868400703D4013BFAD1E6
:10223000012070470020C2F81402704700101040BF
:1022400014610F4037B5044690F83D00D8B10F48EF
:102250000421002203F0F3FF01A804F01BFA20463A
:10226000FFF7D2FF054638B9019804F019FA084B78
:102270009842F4D92C4600E00124044804210122AC
:1022800003F0DDFF204603B030BD00BF00500C401E
:1022900020A1070038B50F4B042405469C6301209C
:1022A0000321F022052303F061FF21460120F022E3
:1022B000052303F05BFF012013210346F02203F006
:1022C00055FF054B4FF400021A602846FFF7BAFF8E
:1022D000002038BD0010104000E100E038B590F853
:1022E0003D30044623B3426B836B9A4216D090F87C
:1022F00030507DB990F83C300133DBB2052B80F8CB
:102300003C3013D1FFF79EFF0A4804F09FFE84F88B
:102310003C500BE0002380F83C3007E0064B4FF4C4
:102320008042C3F814220022C3F81422636BA36313
:10233000002038BD504801100010104080F83D10BA
:10234000044B21B14FF48042C3F818227047C3F800
:102350001812704700101040F0B5244B036010268F
:10236000044689B0466020200F46FEF745FF002551
:10237000A060E56025616561A561E6612020FEF74A
:102380003BFF1B4B07930F2320626562A5620293FC
:10239000E76204231748039502A90495069505935F
:1023A00003F0EEFE0825134E013DB3680193FAD108
:1023B0003046012103F03AFF3046042103F049FF83
:1023C00030460421012203F03AFF0B4B83F81753E8
:1023D0000A4B84F8305020466563A56384F83C506E
:1023E00084F83D50C3F8185209B0F0BD38480110C8
:1023F00000CB280C00500C4000E100E00010104021
:1024000038B505464020FEF7F5FE29460446FFF79D
:10241000A3FF014B1C6038BD9C80011070B5C568DE
:1024200004460E4645B9016803694068490098476B
:102430004008E06058B1A560A3686268591C32F892
:102440001330A1603380E368013BE360012070BD7D
:1024500070B5426904690368A21A9A1A002A0CDD51
:10246000C56846686A1C01349A42C26026F8151095
:10247000046104D10023C36001E0002070BD01208D
:1024800070BD000090F83D202C4B73B504469AB304
:102490002B4A4FF48041C2F814120021C2F81412E2
:1024A00004229D681A62254BDB6813F002020DD0EE
:1024B00004F11C000DF10601FFF7B0FF08B9ADF8FB
:1024C00006001E4BBDF806209A60ECE705F47F433A
:1024D000B3F5B44F06D0B3F5B64F07D1201DA9B25E
:1024E000FFF7B6FF012384F8303001E084F8302094
:1024F000636B013363631EE004229D681A620F4E12
:10250000F3689B0706D504F11C000DF10601FFF7E7
:1025100085FF60B905F47F43B3F5B64F0BD1201D9D
:10252000A9B2FFF795FF012384F8303003E0BDF82E
:102530000630B360E3E702B070BD00BF00500C404E
:1025400000101040014B1868FFF79CBF9C800110E1
:102550008269C069101A704790F8343013B9426824
:10256000136013600020704770B50346002090424E
:1025700014D09D69DC692C1B002C12DD1C69DD6800
:10258000661C1E612C5D0C54DC691D690134DC6124
:102590009C68A54203D100241C6100E070BD01309D
:1025A000E5E770BD08B502200021F022042303F006
:1025B000DDFD02200121F022042303F0D7FD034BAF
:1025C0004FF08072C3F88020002008BD00E100E0D9
:1025D00008B502200021F022012303F0C7FD0121EC
:1025E0000B460220F02203F0C1FD01200321F0225E
:1025F000002303F0BBFD01200421F022002303F09F
:10260000B5FD034B4FF080721A60002008BD00BF7B
:1026100000E100E073B54268002180F8341093684F
:1026200003F00E03042B044616D11068E369A26977
:10263000D21AA3689B1A8B42C0B22FDD6369E2688D
:102640005D1C6561D054A36962690133A361A3680D
:102650009A4223D1616121E00C2B02D113680193CE
:102660001CE0022B1AD11025E66A36B9236B606A8A
:10267000216A9847E06268B1A662A36A626A591C3F
:10268000A162D25CE36A013BE362012384F8343047
:1026900063681A60013D15F0FF05E5D102B070BD19
:1026A000014B1868FFF7B6BFA08001102DE9FF416C
:1026B0002026264B036004468660304690460F462F
:1026C000FEF79AFD0025E060266225616561A5613F
:1026D000E5613046FEF790FD4FF4964301930323E6
:1026E00060628DF809303846194BA56201A9E56290
:1026F000C4F83080676084F83450039301268DF865
:1027000008508DF80A5003F071FE60688DF8025091
:1027100069468DF803508DF800608DF8016003F074
:1027200039FF6068314603F053FF6068294632463E
:1027300003F00EFF60683146324603F009FF054B97
:10274000204683F8185304B0BDE8F08160480110BA
:1027500000CB280C00E100E008B5034A406803F014
:102760009BFD002008BD00BF00CB280C38B50546F6
:102770003820FEF73FFD04492A460446FFF796FF3E
:10278000024B1C6038BD00BF00100840A080011043
:102790002DE9F0410F461146044602F0EDFF04F525
:1027A000D27504F51A782E4628461C3506F04CFBE7
:1027B0004545F9D11423C4F88032A4F87A320523B0
:1027C00000256422A4F88432062384F87652A4F803
:1027D0007822C4F88C52C4F8A071A4F8863284F828
:1027E00088524FF47A70FEF707FDA4F86C52C4F8D3
:1027F0006802A4F87C52A4F87E5270191C3506F0C9
:10280000B2FBC42DF9D12046BDE8F0816429C0F89F
:10281000803288BF64219DF80030A0F87812A0F8BB
:102820007A2280F888320020704713B59DF8004066
:1028300061F302048DF80040BDF8004062F3CB0460
:10284000BDF80220ADF8004063F30902ADF80220A4
:10285000BDF810201344BDF80420013963F30902C8
:102860001C2303FB010000F5D2706946ADF804207B
:1028700006F0CAFB02B010BD112A2DE9F04361D960
:1028800090F87632002B5DD1B0F87E42B0F8742219
:1028900094425AD2D0F87C322BB94AF6552321F80B
:1028A000023B092600E008264AF656230B80B0F8C2
:1028B0007E42D0F870320C22544333F80480A1F8E1
:1028C0000480B0F87E7202FB07377C88BD882D1B20
:1028D000ADB24D81B0F87E7202FB0737B7F808C081
:1028E000FC88C4EB0C04A4B28C81B0F87E7202FBAD
:1028F0000737B7F802C00CEB550C1FFA8CFCA1F897
:1029000006C0B0F87E7202FB0737FF8807EB54075A
:10291000BFB20F81B0F87E9202FB09332C445B8971
:10292000CB8118FA84F813FA88F81CFA88FC17FA95
:102930008CF74F80B0F87E320133A0F87E32700001
:10294000BDE8F0830020BDE8F0831846BDE8F083C1
:102950000F2A2DE9F0410B460446B0F87C5251D9BC
:10296000B0F86C62B54206D390F888721FB1BDE82A
:10297000F041FFF781BF94F87602002842D1B542BA
:1029800041D22DB94AF6552223F8022B082000E047
:1029900007204AF655221A8005EB8505D4F86822EF
:1029A00032F815C0A3F804C002356F00BE1E32F81D
:1029B0001580955BC5EB08059119ADB202375D81B5
:1029C000B1F80680D15BC1EB080189B29981965BB1
:1029D00005EB010806EB5505ADB2DD80D25B1CFAB4
:1029E00088FC02EB510115FA8CFC89B2198111FAAD
:1029F0008CF15980B4F87C320133A4F87C32400069
:102A0000BDE8F0810020BDE8F081F0B5034619B1C2
:102A1000B0F86C6200223FE0D0F88C0200283ED172
:102A2000B3F86C520146A94212DAD3F868220A249C
:102A300004FB01220131548896881789361BD488FB
:102A40003C1B7443844284BFC3F88C222046EAE7CF
:102A5000B3F874520021A94212DAD3F870220C2480
:102A600004FB01220131548896881789361BD488CB
:102A70003C1B7443844284BFC3F88C222046EAE79F
:102A8000D3F88C02F0BD0A245443D3F868522819B5
:102A90002C5B8C4203D00132B242F4DB0020F0BD4B
:102AA00010B5D0F868420C60B0F86C121160D0F824
:102AB00070221A60029BB0F874221A6010BD0020C8
:102AC00070B50346044604EB84069442B6B218D0AF
:102AD00001EB460531F816602EB9013080B2002BAB
:102AE00008BF2B460AE04BB11E806E885E80AE8820
:102AF0009E80EE88DE802D891D810A330134A4B2C8
:102B0000E1E770BD2DE9F04F02EB820285B092B291
:102B1000002001920346DDF804C0634548D031F837
:102B2000132001EB4304002A3FD0628825890292DA
:102B300000955A1D019DA688E788039592B2039DD2
:102B4000AA4232D031F812804FEA420B01EB0B055A
:102B5000B8F1000F26D0B5F802A0DDF808C0B5F82E
:102B60000490B5F806802D89D4450BD84E4509D37D
:102B7000474507D8DDF800C0AC4503D3002521F850
:102B80000B500DE0DDF808C0E2450BD8B14509D384
:102B9000B84507D8DDF800C0654503D3002525807A
:102BA000013080B2053292B2C9E705339BB2B2E779
:102BB00005B0BDE8F08F2DE9F04F8BB002EB82023B
:102BC000039092B2002004928146049B994500F044
:102BD000958031F819204FEA4903002A00F08980D6
:102BE0009A1C8C188A5A00921A1D8D188F5A0594B7
:102BF0009A1D08338E1831F802C031F8038006950B
:102C0000CA1809F105039BB20193049B0796089229
:102C10000993019E099A96426BD0019C019D640024
:102C200031F81520029423460B44002A5CD05C88BE
:102C3000009E9A88DD881B89B44211D8C2EB060B2E
:102C4000039EB6F884A2D3450ADCAC4501D84545BD
:102C500003D99C4504D8434502D8059A14803EE028
:102C6000BA4211D3039EB6F884A2C7EB040BD34536
:102C70000ADCAC4501D8454503D99C4504D84345F9
:102C800002D8069B1A802AE0654513D8039EB6F841
:102C900084A2C3EB0C0BD3450CDC009EA64201D8EA
:102CA000BC4204D9009E964204D8BA4202D8079A80
:102CB000158014E0434517D3039EB6F884A2C8EBF1
:102CC0000505554510DC009DA54201D8BC4204D93C
:102CD000009E964208D8BA4206D8089A1380029CF1
:102CE000002301300B5380B2019D6B1D9BB20193F9
:102CF0008FE709F105031FFA83F966E70BB0BDE81A
:102D0000F08F2DE9F04FB2F802C0B1F80290CB88F5
:102D1000B2F80680968812898F88098985B01FFAD3
:102D200089F41FFA8CF000939DB2CDF808801FFA49
:102D300088F303921FFA82F80FFA84FA02B29245DE
:102D4000019189B21DDB2AB20FFA83FA524503DCE6
:102D50000FFA81FBDA450BDD0FFA88FA52450BDCDE
:102D60000FFA81FBDA4503DD0FFA83FA924503DCA3
:102D7000C6EB0906B0B24CE00FFA80F922B29145D9
:102D800016DB2AB20FFA83F94A4503DC0FFA81FAFF
:102D9000D14509DD0FFA88F8424509DC09B28845BA
:102DA00002DD19B2914203DCC7EB0C07B8B230E088
:102DB0002DB21BB29D42BFB2B6B224B200B212DB3A
:102DC000844202DC3AB2904207DD32B2944208DC1F
:102DD00039B28A4201DDA04203DC009A039BD01A7B
:102DE00013E0AB4213DB844202DC3BB2984207DDC6
:102DF00036B2B4420BDC3FB2BE4201DDA04206DC7B
:102E0000DDF80880019AC2EB080080B201E047F6C5
:102E1000FF7000B205B0BDE8F08F70B50E460988AE
:102E200004461546E1B11288E2B1914228D090F8EB
:102E30008822022A04D194F88832022B07D113E0A9
:102E400001F0070102F06BFD012819D1F3E72978A1
:102E5000204601F0070102F062FD012810D103E0D5
:102E6000084670BD104670BD204631462A46FFF721
:102E700048FFB4F886329842CCBF0020012070BDD4
:102E8000002070BD10B502243BB1538890881844CF
:102E900090FBF4F44B88888806E0D38810891844A6
:102EA00090FBF4F4CB8808891844C4EB500080B23E
:102EB000030444BF404280B200B210BD00000000D5
:102EC000F8B50889CB88174618441289FB88134443
:102ED0005B10C3EB500007EE900AF8EEE77A0E465F
:102EE00017EE900A08F0D4FC7B88B2880446B888B4
:102EF0001844738813445B10C3EB500007EE900A2C
:102F0000F8EEE77A0D4617EE900A08F0C1FC02468B
:102F10000B46204629460EF0A1F900220A4B08F084
:102F20000BFD07A3D3E9002308F030FE08F036FFBD
:102F300007EE900AFDEEE77A17EE900A00B2F8BDB0
:102F4000000000C0CA21094000806640AFF3008045
:102F50002DE9F04387B007469DF838900D46164698
:102F600098460024A3B2B3420DD20A2C0BD055F8D8
:102F700024204B4638464146FFF784FF01AB23F837
:102F800014000134EEE701210B46B3421DD2092B98
:102F90001BD806A85A1E00EB420200EB430432F88D
:102FA000147C34F8140C87420CD924F8147C22F8D1
:102FB000140C9A00043A55F82300A95845F8231038
:102FC000A850002101339BB2DFE70029DBD007B016
:102FD000BDE8F0832DE9F04F0024B2F900908DB0E8
:102FE000A046204648453FDA51F820305D889E884B
:102FF000761B1D89DB88ED1A7543642303FB05F7F7
:103000004FF4FA76B7FBF6F600964FF4C8766E43A7
:10301000B6FBF3F32B44019300231E46B04216D0B7
:1030200051F82670B7F804B0B7F802A0CAEB0B0A43
:10303000B7F808B0FF88C7EB0B0B009F0BFB0AFB30
:103040005F4504D8019FBB459CBF01339BB201364D
:103050004E45E3DBA3429ABF654623464FF0010885
:103060000130AC461C46BDE7B8F1000F01D1A2F813
:1030700000800023B2F900701C46BC4201DB002036
:1030800027E0092BFBD851F8240045888688B0F842
:103090000880761BC588C5EB08057543642606FBCA
:1030A00005F94FF4FA78B9FBF8F8E0450FD84FF47A
:1030B000C87808FB05F8B8FBF6F63544AC4506D8E9
:1030C0000CAE5D1C06EB830343F8280CABB2013455
:1030D000D3E7984206DA02AF57F8204041F8204083
:1030E0000130F6E713800DB0BDE8F08F2DE9F04117
:1030F0000023B2F900608AB01D461846B0429CB267
:103100001BDA0A2B18D051F820404DF8234001EB70
:1031100080070130B0420DDA57F804CFB4F80080D0
:10312000BCF800C088EA0C0C1CF0070F02D101307B
:103130000125EFE70133E1E71C464DB10023A3422F
:1031400005DA5DF8230041F823000133F7E7148026
:103150000AB0BDE8F081F0B5D0F86842B0F86C6212
:103160000023B3420CDA0A205843255A25F00707FA
:10317000974203D105F007050D4325520133F0E7CF
:10318000F0BD2DE9F04FB0F86C32D0F8687297B00E
:103190000A264FF00008044606FB0376CDF810809F
:1031A000B74237D207F10A0807F11405A5F10A0260
:1031B000B2422DD220463946FFF72FFE30B338F801
:1031C0000A3C35F80A2C072B0DD8072A13D8049986
:1031D0004A1C92B20492D20092B2134328F80A3CDD
:1031E00035F80A3C03E0072A05D823F007031A4301
:1031F00025F80A2C0AE035F80A2C072A06D9072BED
:1032000004D822F00702134328F80A3C0A35CDE718
:103210004746C5E7D4F86872B74223D2B84638F8B3
:103220000A9BB9F1070F1BD929F007091FFA89F981
:103230004546B54214D2B5F800A0BAF1070F0DD932
:103240002AF0070A1FFA8AFAD14507D020463946E4
:103250002A46FFF7E2FD002840F067810A35E8E7DB
:103260004746D9E7D4F86832D4F8705203F577733B
:1032700009930023A4F874320123DDF810801AB2F8
:103280004245D4F8682200F33381099FBD4280F0A3
:103290002F819BB2D8000893002380B2ADF82E3066
:1032A000B24218D320460CA90DF12E02ADF82E30F3
:1032B000FFF790FEBDF82E80CDF814800FFA88F34A
:1032C000012B40F311810023079306939C46029340
:1032D00018461F4610E019B20929E3DC178827F0C9
:1032E0000707874206D116AF07EB8101013341F88A
:1032F000282C9BB20A32D3E70CA90FFA87F851F8B1
:1033000023E0039116A901EB8808029958F8288C4C
:10331000BEF80290B8F802800FFA81FA16A901EB04
:103320008A0A9AB25AF828AC0299BAF806A0C84597
:1033300088BF1746BEF80680C24588BF11460FFAFF
:1033400080FB029116A901EB8B0BBEF804A05BF881
:1033500028BCBEF808E0BBF804B0D34538BF10461F
:103360000FFA8CFB01EB8B0B06995BF828BCBBF8C2
:1033700008B0C9EB0A09F34528BF62464944C8EBC7
:103380000E08DDF81CE006910599C6440133CDF81E
:103390001CE00FFA83FC0FFA81FEF44501DA944633
:1033A000AAE716AB3FB203EB8707DDF8088057F8B2
:1033B000283C0FFA88F116AF0DF1580800B212B28E
:1033C00007EB800007EB810108EB820250F8280C24
:1033D00051F8287C52F8282CB3F802C08088F9886C
:1033E0001289A8804FF06408CCEB0000E980511AE4
:1033F00008FB00F008FB01F12A81DDF81C80069A29
:10340000A5F802C092FBFEFC98FBFEFE91FBFEF1CC
:1034100090FBFCF0884205990DF130088AB204DD7A
:10342000012100912046414604E0002300932046FC
:1034300041463B46FFF78CFD204641460DF12E02EA
:10344000FFF754FEBDF92E30012B4DDD052BC4BF17
:103450000523ADF82E30BDF82E0000231A461FB20A
:1034600001B28F4209DA58F82310098801F00701E8
:1034700041EAC20292B20133F1E7013880B200237F
:1034800007B2002F13DB0DF1580808EB870701384E
:1034900057F8287CB7F800E00EF0070E4EEAC30399
:1034A0004FF0000E9BB2A7F800E080B2E8E79A4226
:1034B00009D20DF1580E0EEB81032A8020460C999B
:1034C00053F82C2C07E016AA02EB81010C9A51F854
:1034D0002C1C2B802046FFF7F3FCB4F87432688173
:1034E00001330C35A4F87432089F7B1C9BB2C4E6F0
:1034F00002F10A05A5F10A039E4220D994F8883208
:10350000032B04D135F80A3C072B0CD913E035F80E
:103510000A1C07290FD8022B0DD02046C9B202F091
:10352000FEF9012807D00A35E4E72046494652460D
:10353000FFF711FE92E6002325F80A3CF3E717B0E7
:10354000BDE8F08F70B50646002406F5D275254417
:10355000284605F087FC1C34284605F0CDFCC42C19
:10356000F3D170BD2DE9F04F8BB000230546ADF8C7
:103570002030ADF82630ADF82230ADF824301A46B0
:103580009A464FF0FF37D5F8A001059208A9049399
:1035900003F0A0FF059A049B0028F4D0BDF820900A
:1035A0004FF6FD71894500F2BF80002BEBDBB9F1CE
:1035B000000F28D172B1069C1FFA8BF1601C4B1EC4
:1035C000411A89B200919BB211462846BAB2FFF760
:1035D0002CF90346BAF1050F07F101070AF10102C0
:1035E00004D092464FF6FF7600227AE05C4A012131
:1035F0001068049301F0E0FC00224FF6FF7690463D
:103600009246049BBFE7BDF82610BDF92400BDF823
:1036100022C0CDF81CC000294FEAC03008BF0121EC
:1036200009F0070490FBF1FC4FF0140E601E0EFB36
:10363000005E0EF1E0000390DEF8E00060455EDA27
:103640000398406884455ADADDF81CC00FFA8CF004
:10365000C0030EF1E80CDEF8E8E090FBF1F08645DF
:103660004DDADCF804E0704549DAD5F86C018142A6
:1036700045DB4FEAE909C6EB09011FFA89FC052978
:10368000ADF820C05FD8B8EB0401D1F1000858EBC9
:1036900001081AB9B8F1000F1FD124E0A24202D1EB
:1036A000B8F1000F56D1069ECDF814C01FFA8BF169
:1036B000701C4B1E411A89B200919BB211462846DC
:1036C000BAB2FFF7B2F8DDF814C00346B8F1000F44
:1036D00009D04E46A046002255E7002C38D1B3460B
:1036E0004E4690464FE70CF1FF33022200929BB208
:1036F00028462146BAB2FFF798F80346E9E7002AC0
:103700003FF441AFDDF818C01FFA8BF10CF1010056
:103710004B1E411A89B200919BB211462846BAB29B
:10372000FFF783F80346D6E72846FFF70BFFBDF8FF
:1037300020004FF6FE73984214BF00206FF0000087
:103740000BB0BDE8F08F002ACDD04FF00008AAE7FB
:103750002246B346CDF818904E46A04613E700BF68
:10376000F48001102DE9F74F0446FFF7FBFE002817
:103770004FF000070FDA04F5D27038441C3705F01B
:10378000F2FBC42FF7D10023A4F86C32A4F87432F2
:103790004FF0FF30ACE0012584F87652C4F88C720B
:1037A000A4F86C72A4F8747294F88832022B07D0D3
:1037B0002046E9B202F0B3F8431E5842584100E0F7
:1037C00001201C23B4F86C82D4F8681203FB054373
:1037D00008EB880CD3F8983162464FF0000EE3B343
:1037E000B4F86C92B4F87862B14536D2B4F87A6223
:1037F000B64532D2D3F8209018B1B9F1090F28DDBF
:1038000003E0D4F88062B14523DBB3F804A09E8ABC
:10381000B3F812900196CAF3C80A1FFA8AF6C9EBE8
:103820000606012EB3F810B013DD01EB420621F8B5
:103830001250A6F802B0DDF804B0A6F804B0A6F85D
:103840000690A6F808A0B4F86C620136A4F86C6281
:1038500005321B680EF1010EC1E770B901EB4C0691
:10386000B4F86C22C8EB02022046314692B2FFF750
:10387000A2F910B10744BFB2F2E70135082D93D188
:103880002046D4F86812B4F86C22FFF73BF994F89C
:103890008832384487B25BB1B4F86C22D4F868320D
:1038A0000A2101FB0233C4F870322046FFF769FC9D
:1038B00017B994F888325BB12046D4F86812B4F88E
:1038C0006C22FFF7FCF8B4F86C32181AA4F86C02FA
:1038D0000025A4F87C52A4F87E5284F8765204F5B0
:1038E000D27028441C3505F03EFBC42DF7D10020D2
:1038F00003B0BDE8F08FFF2928BFFF21FF2A28BFB2
:10390000FF2242EA0121FF2828BFFF2041EA0040B0
:10391000704710B5C4B21C60C0F30723C0F3074062
:103920001360086010BD00001FB501A902AA03AB17
:10393000FFF7EFFF019A029B9FED1A7ADDED016A16
:10394000934238BF1346039A934228BF1A4607EEA4
:10395000902AF8EE677AC7EE277AB8EE667ADDED40
:10396000026A27EE877ABCEEC77A17EE100AB8EE25
:10397000667ADDED036A27EE877AC0B2BCEEC77ABD
:1039800017EE101AB8EE667AC9B267EE877AFCEEC7
:10399000E77A17EE902AD2B205B05DF804EBFFF794
:1039A000AABF00BF00007F43014B1878704700BFDB
:1039B000B9720110014B1878704700BFB672011040
:1039C000014B1878704700BFB7720110014B18788F
:1039D000704700BFB8720110014B1878704700BFE4
:1039E000A480011038B5094C0121206804F032F898
:1039F00002210502206804F02DF828430502052164
:103A0000206804F027F8284338BD00BFB8800110B3
:103A100038B5094C1621206804F01CF81021050265
:103A2000206804F017F8284305020021206804F0FC
:103A300011F8284338BD00BFB880011008B5034B0A
:103A40000178186804F006F808BD00BFB8800110BE
:103A500038B50468094DE2B22868052103F0E4FF97
:103A60002868C4F30722022103F0DEFF2868012141
:103A7000C4F3074203F0D8FF002038BDB88001101E
:103A800038B50468094DE2B22868002103F0CCFF84
:103A90002868C4F30722102103F0C6FF2868162106
:103AA000C4F3074203F0C0FF002038BDB880011006
:103AB00038B504460A4D22782868242103F0B4FF63
:103AC00022782868142A86BF143AD2B2002225210F
:103AD00003F0AAFF034B22781A70002038BD00BF04
:103AE000B8800110B87201102DE9F341134E05465C
:103AF000884630680921102203F096FF00244445CF
:103B000010DA2F19295D30687A7803F08DFF295D6E
:103B1000306803F09FFF7B7883421CBF0023019332
:103B20000234ECE730680921002203F07DFF0448ED
:103B3000FFF7BEFF02B0BDE8F08100BFB880011002
:103B4000B87201102DE9F041294C06461321206876
:103B500003F080FF03210546206803F07BFF254A20
:103B60003378117899420746904636D0A3B9206839
:103B7000132105F0F70203F057FF2068032107F037
:103B80007F0203F051FF20680E21402203F04CFF1A
:103B90002068212103221EE0012B15D1206813216A
:103BA00005F0F70203F040FF67F07F022068032171
:103BB000D2B203F039FF20680E21482203F034FF0F
:103BC00020682121332206E0022B0CD145F00802A7
:103BD00020681321D2B203F027FF337888F8003031
:103BE0000020BDE8F0814FF0FF30BDE8F08100BF5C
:103BF000B8800110A480011038B50B4C0546972100
:103C0000206803F027FF2B7802462BB140F00A0210
:103C100097212068D2B203E02068972102F0F502D4
:103C200003F002FF002038BDB880011008B503780A
:103C30000A7803490868194603F0F6FE002008BD1B
:103C4000B880011070B50F4E05783378AB4217D0AD
:103C50000D4C382120684DB92A4603F0E5FE206856
:103C60009621E12203F0E0FE357009E0102203F016
:103C7000DBFE20689621F12203F0D6FE012333708B
:103C8000002070BDB6720110B880011038B50A4C22
:103C900005782378AB420DD0084B1321186825B95D
:103CA000A02203F0C1FE257004E0A52203F0BCFEB3
:103CB00001232370002038BDB7720110B8800110B5
:103CC00038B50A4D04782B78A34209D00CB90848BE
:103CD00002E0012C06D107481E21FFF705FF2C70DA
:103CE000002038BD4FF0FF3038BD00BFB972011061
:103CF000784801109648011038B50C46154905461C
:103D000008F0B6FF20B92046BDE83840FFF7D0BE26
:103D10002846114908F0ACFF50B923781BB9FFF7CA
:103D200077FE0E4B18602046BDE83840FFF7AEBF67
:103D300028460B4908F09CFF50B923781BB9FFF7C0
:103D400051FE084B18602046BDE83840FFF77ABFA7
:103D500038BD00BFB4480110C6480110B48001103E
:103D6000DF480110B08001102DE9F04393B0984670
:103D7000BDF86C50BDF87040BDF8687004FB05F3E9
:103D800081468B424FF0FF30164611904DD81311EB
:103D900008D108EB0503B3F5A06F4BDC3B19B3F575
:103DA000487F13E0012B08D108EB0503B3F5207F12
:103DB00040DC3B19B3F5C87F08E0022B38D108EB93
:103DC0000503B3F5A07F35DC3B19C82B32DC12A804
:103DD00006F00F0300F8053DFFF772FF002829DB0E
:103DE000164BB3F90020009604230193022303939A
:103DF00005930793099311AB00210C93104BCDF859
:103E00000890CDF81080069708950A940B910D91B3
:103E10000E911868012301F002F8119850B9094B6E
:103E2000C3F800909D80DC8004E06FF0010001E0A9
:103E30006FF0020013B0BDE8F08300BFB472011050
:103E4000F8800110A88001102DE9F04F8BB0834657
:103E5000149C2148159FDFF884801D468A461B88E4
:103E600091464121228804938DE803009DF8581063
:103E7000029153430221039105910893B12100233C
:103E8000069207910993414638464FF490326423D5
:103E900000F0E1FCB9F80010009129880191064674
:103EA00021889BF80020BAF80030029100F1805080
:103EB000C6F5903100F50020FFF756FF2B882288C9
:103EC00081464146384602FB036200F08BF94846C2
:103ED0000BB0BDE8F08F00BF424138310000081040
:103EE0001FB5069C0094079C019401240294FFF7DF
:103EF000ABFF04B010BD000030B5502387B00024E4
:103F00008DE81800474A484801234FF48071012585
:103F100002F025FE4549444802F0CAFE444A019495
:103F20002B4640F202210095424802F018FE3F491C
:103F3000404802F0BDFE0094019429463E4A3F48A5
:103F4000042302F00CFE3E4A00942B46019440F2FA
:103F500002213C4802F003FE34493A4802F0A8FE30
:103F6000394A01942B4640F202210095374802F06D
:103F7000F6FD2E49354802F09BFE0423009401947F
:103F800029462D4A324802F0EAFD224603A9264876
:103F900002F0BCFD22460DF10D01264802F0B6FDEF
:103FA00022460DF10E01274802F0B0FD22460DF128
:103FB0000F01264802F0AAFD03A8FFF779FD0DF1D5
:103FC0000D00FFF763FE9DF80D407CB9214D1B48A5
:103FD0002A682AB10421234602F07CFD2C6005E00A
:103FE00004A902F093FD04A8FFF74AFD0DF10E00AD
:103FF000FFF728FE9DF80E3093B99DF80F407CB96D
:10400000154D13482A682AB10421234602F062FDA7
:104010002C6005E005A902F079FD05A8FFF718FD61
:1040200007B030BDF2480110B4480110893A0010C1
:1040300063490110C6480110D0580110AA49011067
:10404000B4490110DF480110444A0110254A01100B
:10405000C64A0110B4800110B080011013B50420CD
:10406000FDF7C8F86021044603F098FC134B204686
:10407000A0211C6003F0EEFC28211148FFF734FD5D
:1040800002A8002400F8014DFFF71AFE0D4B0E495F
:10409000186800F03CF90D4B0D491868224600F0F5
:1040A000CBFE0C4BA042188003DBFFF725FF204618
:1040B00001E04FF0FF3002B010BD00BFB88001102A
:1040C000A0540110F4800110D8520110F8800110A2
:1040D000A0500110B4720110024B00221A60DA8065
:1040E0009A807047A880011070470020704710B573
:1040F0000023934203DACC5CC4540133F9E710BDCA
:1041000090F83B007047836813B1436000238360DD
:104110007047F0B5002351F8234002689D004F1905
:10412000002C33D0092B31DC14F8016C141D046011
:10413000146814B96FF00200F0BD16F0800F13D1AF
:1041400006F00F06012E03D14A59127822701BE0A7
:10415000022E03D14A591288228015E0042EE9D19B
:104160004A59126822600FE0A12E4D5901D12560F5
:104170000AE02D68256002F10804046052680133EA
:10418000002AD7D07C6814600133C4E7131D036094
:1041900010680028CED1F0BDF8B590F83B30044649
:1041A0000E4617460BB98A0619D5E06808B93306DA
:1041B00017D54FF0FF30002594F839309D4208DACA
:1041C00023682046DB6831463A46984748B10135B6
:1041D000F2E7002805DA002384F83B30F8BD6FF0E1
:1041E0000500F8BD38B504468068636810B9A3605F
:1041F000616001E099420FD1236AD31A94F83A2002
:10420000E36062B918212046FFF7C6FF0546204645
:10421000FFF779FF284638BD6FF0040038BD002055
:1042200038BD0000F8B5858E0E4940352F01044693
:1042300038460CF0A1F8064688B100213A4608F04D
:1042400091FCA28E216B3046120108F0F1FB206B2D
:1042500008B1FCF7D5FF2663A5860020F8BD6FF0F6
:104260000400F8BDF46C0110F8B505460F460024B3
:10427000A6B2AA8E33B2934208DA1B012A6BD05839
:1042800040B1394608F0F4FC20B901E04FF6FF7662
:1042900030B2F8BD0134EBE7F8B5044616460D46DA
:1042A00009B320462946FFF7DFFF002814DAA28E63
:1042B000002188B203B2934205DB93420CD1204621
:1042C000FFF7B0FFEDE74FEA031C276B57F80C70C0
:1042D0000131002FEDD1F0E7216B03B21B01CA18A9
:1042E000CD50566001E04FF6FF7000B2F8BD38B512
:1042F00004461D46FFF7D0FF002805DB236B03EBC8
:104300000010C560002038BD4FF0FF3038BD38B513
:10431000054601F1080454F8081C39B154F8042C7E
:1043200023462846FFF7E3FF1834F4E7084638BD74
:104330004185704738B504461546FFF795FF236B56
:104340002A8803EB00131A8138BD0000437E70B544
:10435000044613B16FF0040070BD11B94569803592
:1043600001E001F18005284608490CF005F80646F1
:104370000028EFD06168626908F05AFB606808B1F4
:10438000FCF73EFF66606561002070BDF46C0110B3
:104390002DE9F04F8A4685B01F46054640B190F89A
:1043A0003A30016A13B101F1040802E0884600E0E6
:1043B00080460123C8EB020902933B6893F800B0E2
:1043C0001A1D3A60BBF1000F00F0DD800BF0BF0258
:1043D000012A08F101040AEB08000AF808B008D124
:1043E0003A68111D1268396008F102060AF80420C3
:1043F000AFE0022A12D13A68E60748BF24F0010470
:1044000002F1040148BF023439600AEB040112884A
:1044100001F801BCA61C2AF804209AE0042A02D064
:10442000BBF1640F11D13A68A00718BF24F0030450
:1044300002F1040118BF043439600AEB0401126868
:1044400001F801BC4AF8042016E0142A16D13A6893
:10445000073222F0070202F108013960D2E90001B7
:1044600007F09CFCA1071CBF24F0030404340AEBF2
:10447000040202F801BC1060261D6AE0A12A23D1C3
:104480003A68111D396012680392104608F05CFD0D
:10449000421C1619A9F108018E420FD915B96FF007
:1044A000040074E0284631460192FFF74FFF0028D0
:1044B000019A6CDBD5F804A0D5F814900AEB04003F
:1044C000039908F0B5FA44E012065ED539680E1D6E
:1044D0003E600BF03006302E0BF00F02096805D15C
:1044E0000BF08F0B002380F800B00293A3071CBFD2
:1044F00024F0030404340AEB0400261D00F801BC78
:10450000501E06424AF8041002D05042064016449B
:10451000029BF3B101FB02F3F418A9F108029442E3
:104520000DD9002DBBD0284621460193FFF70EFF81
:104530000028019B2BDBD5F804A0D5F814903A682D
:10454000111D39600AEB060011681A4608F070FA6E
:1045500026462DB1AA7E1AB91BF0400F18BF464659
:10456000A9F108039E4201D8B04626E7002D96D057
:1045700028463146FFF7EAFE002808DBD5F804A0FC
:10458000D5F81490F0E7404601E06FF0020005B066
:10459000BDE8F08F10B50B46426941680446FFF74D
:1045A000F7FE002803DB236AC01AE060002010BD7C
:1045B0000EB4F3B59DF81C5090F83A60C768182DFA
:1045C00008BF002302A908BF80F83A3008AB41F8C1
:1045D000043D0446FFF7DEFF182D03D094F83A306F
:1045E00033B928B9204618210022FFF7D5FDE7602E
:1045F00084F83A6002B0BDE8F04003B070472DE99E
:10460000F3410E880368003618BF01260D460446A4
:1046100031461B68904698472B8884F83B60E386B8
:1046200098F80030003318BF012300210746A37615
:104630000091E37E019120460122FFF7B9FF384641
:1046400002B0BDE8F08170B5B1F90020838E056B32
:1046500088B000249A4206468DF81F4012DA1301F2
:10466000E918EB5873B1C96861B1A12200920191B8
:104670000292C9680391049405942146FFF798FFBC
:10468000204610E00DF11F0300211401A122009229
:104690000193029203930491059130462B59FFF741
:1046A00087FF4FF0FF3008B070BD2DE9F041904614
:1046B0000422C26001F0200288B004460F4602F0D6
:1046C000FF06BAB10122A02980F83A2004D193E86C
:1046D0000600FFF72FFE9CE0A12904D193E8060015
:1046E000FFF78DFF95E0A22940F091801968FFF750
:1046F000AAFF8EE0182905D10268194692689047F2
:104700003046A5E0828E904580F29E80B8F1000F81
:10471000C0F29A80026B02EB08125568002D00F07F
:1047200093803046C6B2013053F82620002AF9D1D2
:10473000012284F83A2016B92046A84769E0012EE4
:1047400003D118682146A84763E0022E04D193E8FC
:1047500003002246A8475CE0032E04D193E807003B
:104760002346A84755E0042E03D100940FCBA84759
:104770004FE0052E05D11A698DE814000FCBA8472C
:1047800047E0062E07D11A6900925A6901920294F5
:104790000FCBA8473DE0072E09D11A6900925A694C
:1047A00001929A69029203940FCBA84731E0082E38
:1047B0000BD11A6900925A6901929A690292DA69D8
:1047C000039204940FCBA84723E0092E0DD11A6958
:1047D00000925A6901929A690292DA6903921A6AFE
:1047E000049205940FCBA84713E00A2E0FD11A6943
:1047F00000925A6901929A690292DA6903921A6ADE
:1048000004925A6A059206940FCBA84701E04FF034
:10481000FF300023FFB284F83A303B0617D56268B8
:10482000236AD050236B03EB081307F03F0141F0DC
:104830004001B3F908202046FFF7AEFC05462046AC
:10484000FFF761FC284603E04FF0FF3000E0002056
:1048500008B0BDE8F0810CB413B504AC02AB54F859
:10486000042B43F8044DFFF793FD02B0BDE8104060
:1048700002B070472DE9F047002680468A469146EF
:1048800035465545F3B230D20A2E33D018F80570AC
:1048900009F806703A0605F1010007F00F0408D484
:1048A000621E024203D0624202EA0003181905198F
:1048B00019E007F0BF07A12F05D1404408F044FBE1
:1048C000023505440FE083071CBF20F00303181DC9
:1048D000031D621E134258F8005002D0624213407A
:1048E000234404FB05350136CBE7002009F803001B
:1048F000BDE8F0874FF0FF30BDE8F0872DE9F843C1
:10490000002407468946904626464C453BD20A2E4F
:104910003FD0385D10F0800F04F1010300F00F0567
:1049200032B20AD1691E194202D069420B402B44AF
:10493000F91848F822105C1922E000F0BF00A12805
:1049400007D1F81848F8220008F0FEFA02340444AF
:1049500016E099071CBF23F003030433F918FC5831
:1049600048F8221004336A1E01361342F6B202D010
:104970006A4213402B44FA1848F8262005FB0434F9
:104980000136F6B2C1E736B2002048F82600BDE88D
:10499000F8834FF0FF30BDE8F88310B58CB01446B3
:1049A00001AAFFF7ABFF002803DB204601A9FFF7B0
:1049B000B0FB0CB010BD10B5002213468B4204D0E2
:1049C000C45C224492B20133F8E7D01880B210BD23
:1049D00038B5436804461971104818606168E06A88
:1049E000E3688B600368CA801D68638D4022A84716
:1049F000002812DB226AE3681A44402A0CD9637E3D
:104A000053B9E06A6168036840311D68638D403ABC
:104A1000A84700EAE07038BD002038BD5555AAAA65
:104A200013B5034609B1592200E09522D86A8DF8E2
:104A3000072002685B8D14680DF107010122A04771
:104A40000028B4BF6FF06500002002B010BD000068
:104A50002DE9F3410446C06A174602688846556846
:104A600003B1A38C0DF105010122A847051E62DBED
:104A700018BF00260AD14FF0FF355CE055680DF1F4
:104A800005010122A847051E55DBF4D09DF805302D
:104A9000E06A1B0643EA1626294B02689E42238DD4
:104AA000ECD156686168226AB047002841DB236A6E
:104AB0009D42E0DB63681B7888F800306568266AF1
:104AC0006B883B806F68E76031462846FFF773FFCD
:104AD0008046E06AC6F140060368BE4228BF3E46F3
:104AE000B71CD3F804C0238D29463A46E047051E7B
:104AF00021DBBD42BFDB61680DF1060031440222BB
:104B0000FFF7F5FA60683146FFF755FFBDF806304C
:104B10004044834206D1266120460121FFF780FFF1
:104B2000002508E020460021FFF77AFF6FF001051D
:104B300001E06FF06405284602B0BDE8F08100BFD7
:104B40005555AAAA2DE9F8430446894690461F46C2
:104B5000E06A616803685D680FB1A38C00E03B46C2
:104B60004022A847061E1CDB042E3546F0D363689E
:104B70001A491A688A42EBD11B7989F800306368B8
:104B8000216ADA889B68A8F800201944E360636909
:104B9000994209D92046FFF7D9FB002804DABDE87D
:104BA000F8833046BDE8F883276AE3681F44B742BC
:104BB00001D9637E6BB10020BDE8F883E06A6168CB
:104BC000036829445E68238D7A1BB047002803DB05
:104BD0000544BD42F2D3EEE7BDE8F8835555AAAAD5
:104BE0002DE9F74F036AC1681944436903319942BB
:104BF000044606D9FFF7AAFBB0F1000801DA4046E7
:104C000052E000252F462369E668B34242D2E28E85
:104C1000E06A6168F61AB24238BF16460268194463
:104C2000D2F804C0E38CF21CE047002834DBB31C4C
:104C3000434534DA2169636831440DF1060013F805
:104C400001A0013119440222FFF751FAD4F8109063
:104C50006068BDF806B04844711CFFF7ACFE8345A0
:104C60000BD1574503D14E4401372661FFB2204690
:104C70000121FFF7D5FE0025C5E720460021FFF7FB
:104C8000CFFE6B1C94F83820DBB29A420AD9023569
:104C9000EDB2B8E7002007E06FF0640004E04FF0E9
:104CA000FF3001E06FF0030003B0BDE8F08F2DE9A5
:104CB000F84304460D46174699469DF82080FFF7B5
:104CC00022FA267E3EB1204629463A464346FFF761
:104CD00039FF16E001364346204629463A46FFF79B
:104CE000B7FE831C07D194F838309E42F2D36FF0A0
:104CF0000300BDE8F88308B1BDE8F8832046FFF75C
:104D00006FFFD8B92B78206A13F0400F0ED063687C
:104D10001844042300F8043C6168226A0A4402F83B
:104D2000013CE368206A04330438E3606368E168A7
:104D300018444A46BDE8F843FFF7E0BDBDE8F883F4
:104D40002DE9F0414FB290B0002F04460D46904639
:104D5000049303DB90F83B30002B5BD00026204609
:104D6000E660FFF7D0F9204604A9FFF713FC0028FE
:104D700052DBB742AABF80238DF80D508DF80D305D
:104D800020469DF80D104246B8BF3546FFF704FA9D
:104D9000002841D1E9073BD4E06A03689B68984743
:104DA000012305AE009320460DF10D010DF10E0219
:104DB0003346FFF77CFF00282ED19DF80D104A06E0
:104DC00010D42368BDF90E205F6820463346B847EB
:104DD000E06A0368DB689847A38C9842E0D96FF0DB
:104DE000640019E0AB070DD5049B1A1D04921B68E3
:104DF000002BF9D0002256F8221043F8221039B1C6
:104E00000132F8E704A83146FFF783F9002803DBF5
:104E1000002001E06FF0050010B0BDE8F0810CB497
:104E200007B504AB33F9042B0193FFF789FF03B0F7
:104E30005DF804EB02B0704730B5054689B00C460A
:104E400012B1FFF729FA01E04FF6FF7003B2022218
:104E500001920293002207AB0493009403920592FF
:104E60002846A021A123FFF7DAFF0028ACBFBDF838
:104E70001C004FF6FF7000B209B030BD30B50446DB
:104E80008BB00D4609B1C38E00E00B4600930123A1
:104E90000193E37E029309AB002204930DF12303F7
:104EA0000593039206922046A1210223FFF7B7FF44
:104EB000002808DB9DF82330099884F83B50003324
:104EC00018BF0123A3760BB030BD00000B6810B5EE
:104ED000C16204461B69084600219847C0F34000A0
:104EE0002076E06A036800211B69984700F0010002
:104EF0006076E06A03685B699847237EE0860BB1C1
:104F00000C2300E008232362637E63B1E06A036838
:104F100001211B6998476060E06A036802211B69F0
:104F20009847606105E08020606106490BF024FA33
:104F30006060207F28B120460121BDE81040FFF7C6
:104F40009DBF10BDF46C011070B51E46184B036078
:104F50000446032380F8383080F8393000254FF4B8
:104F60007A738384C56205764576456085604FF423
:104F7000FA7063854023E0842085E17622770D492D
:104F800084F83A5084F83B50A576A3864FF48060AD
:104F90000BF0F2F9A28E20632946120107F0E2FD20
:104FA0001EB120463146FFF791FF204670BD00BF7D
:104FB000D0540110F46C0110F0B505468FB00E46C8
:104FC00000240023009328460DF109010DF10A0287
:104FD00003ABFFF76CFE58B92B689DF809105F68AA
:104FE000BDF90A20284603ABB8470EB10134E8E703
:104FF00020460FB0F0BD37B5C06A0C4601681346B5
:105000004D6801220DF10701A84700280ADB0CD0EA
:105010009DF80730592B4FF0000006BF0123237085
:10502000207004E06FF0640001E04FF0FF3003B047
:1050300030BD0000F7B50446C06A638D05680F46B1
:1050400002A91646284A41F8042D2D680422A847D3
:10505000002846DB63681F706168E06AE3684B60A4
:1050600003684E801D68226A638DA847002838DBDC
:105070006668216A3046FFF79EFCADF80200E06AE0
:10508000E5680368402D28BF40251F68638D3146C1
:105090002A46B847002802DA6FF0650021E0606810
:1050A0002946FFF788FCBDF8023002A9184421F810
:1050B000060DE06A036802221E68638DB04700286F
:1050C000EADB20460DF10101A28CFFF794FF0028D6
:1050D00007DB9DF8013013B12561002001E06FF07E
:1050E000010003B0F0BD00BF5555AAAA73B5002357
:1050F00004468DF804302369E568AB4244D2E28E61
:10510000E06A6168ED1AAA4238BF15460268194480
:105110001668638D2A46B047002802DA6FF06500F2
:1051200033E0E06A036801A91E68638D0122B0477D
:105130000028F3DB2369606829461844FFF73BFC2D
:105140000121064601A8FFF736FC02A9304421F8E8
:10515000020DE06A036802221E68638DB0470028D2
:10516000DCDB20460DF10501E28CFFF744FF00284F
:105170000BDB9DF80530002BBDD023691D449DF845
:10518000043025610133B4E7002002B070BD037E16
:1051900070B504460E4615461BB1BDE87040FFF7DA
:1051A00017BC2A4620463146FFF744FF821CF8D040
:1051B00020B92046BDE87040FFF798BF70BD10B51C
:1051C00009B100230362C26982B1036A116899427E
:1051D00020DD926802EB830132F8232049880281A6
:1051E0000133042241818281C281036244890189A1
:1051F000B0F90420002344F0010441F001014361AF
:105200000361A4B2036889B202FB041213448361F0
:10521000012010BD002010BD38B500230360C380FD
:105220008380C381838104464381038103C984E869
:1052300003001068516804F1080503C5E3612046C6
:105240000121FFF7BCFF204638BD002310B50360E5
:10525000C38083800446C38183814381038103C962
:10526000E26184E8030020460121FFF7A8FF204601
:1052700010BD2DE9F04184890369A3420AD30023BC
:1052800003614369B0F9044002334361836903EB6E
:1052900044038361C4894369A34232D285690369A7
:1052A000EE18EC5C16F8017CB0F904609B1BEE5C18
:1052B0002B4413F8013C22B1BD196D1014705570C8
:1052C00093700569C1B104EB07089844B8F1250F44
:1052D00002DC02350561CEE704EB060C9C44BCF110
:1052E000250FF6DDE41B9B1BE403DB0394FBF8F4C2
:1052F00093FBFCF30C604B60023505610120BDE8B7
:10530000F0810020BDE8F081C36970B504460E4607
:10531000154653B1FFF7ADFF014650B92046FFF7E0
:105320004EFF38B1204631462A46BDE87040FFF7AF
:10533000A0BF012070BD2DE9F7430024884601215C
:1053400081468DF806408DF805408DF80440FFF742
:1053500036FF2546264627464846002101AAFFF784
:10536000D3FF50B19DF804301F449DF805301E4412
:105370009DF8063001341D44EEE7B7FBF4F7B6FBA9
:10538000F4F6B5FBF4F5B8F1000F01D0C8F8004011
:10539000360246EA0740284303B0BDE8F0832DE912
:1053A000F04F87B0002708468B46002401210025D6
:1053B0009946904605970497FFF701FFCDE902450E
:1053C000BA463B46BC463E46584604A900220193D5
:1053D000CDF800C0FFF798FF019BDDF800C028B3AF
:1053E000DDF810E0D8F80020D8F80C009645D8F881
:1053F0000420C8BF0CF1010C9645059AB8BF0133D3
:105400008242D8F81000C8BF0AF1010A8242DDE9E1
:105410000201B8BF013710EB0E0041EBEE71A4188A
:10542000CDE9020145EBE2750136CDE706EE906A63
:10543000F8EE667A06EE90CAB8EE667A06EE903A14
:1054400087EE277A3246DDE9020189ED007AB8EE6F
:10545000667A06EE90AA87EE277A89ED017AB8EE91
:10546000667A06EE907A87EE277A00273B4689ED2A
:10547000027AB8EE667AC7EE277AC9ED037A06F0AB
:10548000DDFC2946C8F80800324620463B4606F0B7
:10549000D5FCC8F8140007B0BDE8F08F2DE9FF4136
:1054A00000230746884614461361D3605360136097
:1054B0001F264FF080456B46384641462246FFF78F
:1054C0006EFFD7ED5E7A9DED007A2368B4EEE77A41
:1054D000F1EE10FA9DED017ACCBF5B19C5EB030329
:1054E000B4EEE77A236063689DED027AF1EE10FA7C
:1054F000CCBFC5EB03035B19B4EEE77A6360E368E6
:105500009DED037AF1EE10FACCBF5B19C5EB0303F6
:10551000E360B4EEE77A2369F1EE10FACCBFC5EB95
:1055200003035B19013E23614FEA6505C3D104B053
:10553000BDE8F081013970B5CCB2062C5ED86301AC
:10554000C2180344D269012A04F1600200EB82020E
:105550004FEA441114BFD2ED017A92ED017A9A68B4
:1055600008BFD0ED607A00EB0105415806EE102A25
:10557000C2EB010108BF67EE277AB8EEC67A06EEE5
:10558000101AF8EEC66AB0EE476AA6EEA76A1426AD
:1055900006FB04049869FDEEC66AC4ED386A6968C2
:1055A0008A1A06EE102AF8EEC66A5A69D968A6EE7B
:1055B000A77A891A06EE902ABDEEC77A06EE101A6F
:1055C00084ED397AB8EEE67AF8EEC66AB0EE476A4C
:1055D000A6EEA76A19698A1AFDEEC66A06EE102AB7
:1055E000C4ED3A6AF8EEC66AA6EEA77ABDEEC77AAF
:1055F00084ED3B7AFEF798F9C4F8F00070BDF0B581
:105600005E1E1D46F3B2062B8BB0044611D804EB88
:10561000461601A8FFF700FE0027204601A93246E2
:10562000FFF73CFF2046F7612946FFF783FF384626
:1056300001E04FF0FF300BB0F0BD0139CBB2062BCB
:1056400094BF00EB411000207047F8B54C1EE3B248
:10565000062B07460E460ED8154600EB44140FCD18
:105660000FC495E80F0084E80F0038463146FFF775
:1056700061FF0020F8BD4FF0FF30F8BD10B50023EA
:10568000D0F8702109B9D15404E0D45C8C4204BF35
:105690000024D4540133B3F5805FF1D110BD2DE95E
:1056A000F74F00210446FFF7E9FF0125E9B2204644
:1056B0000135FFF73FFF082DF8D100210023C3EB90
:1056C000010A4FEACA32CAF3C50A00924FEA8A12A7
:1056D0000192002003EB010CD4F86C218444944522
:1056E00004DA0430B0F5807FF4D139E0009ADDF8B7
:1056F00004B0C3EB000992FBFCF84FEAC932C9F3CE
:10570000C50992FBFCFCCB4426462246012537689E
:105710000FB97768E7B1D2F8E070474518DAD2F8E8
:10572000E470B84514DAD2F8E870674510DAD2F8B8
:10573000EC70BC450CDAD4F8707117F80BC0BCF1F2
:10574000000F01D0AC4501DD07F80B50CC46D04628
:105750000135082D06F1200602F11402D7D1C0E769
:105760000433B3F5807FAAD10431B1F5807FA5D190
:10577000002003B0BDE8F08F38B500F58072044614
:1057800000F12003002543F8045C43F80C5C43F867
:10579000105C43F8145C43F8185C43F81C5C43F855
:1057A000205C20339342EDD1C4F87011E0222946E9
:1057B000204607F0D7F929468C2204F1E00007F0D3
:1057C000D1F920462946FFF759FF4C23C4F86C3124
:1057D0004FF07A53C4F87C314FF4FA63C4F8743153
:1057E000074BC4F878314FF07F53C4F88031631908
:1057F0000435044AC3F884211C2DF8D1204638BD55
:105800006666663F0000204043B90A88032A28D90B
:10581000043A0A808A8804328A8024E0012B06D167
:105820004A88032A1DD9043A4A80CB8816E0022B05
:105830000AD18B880888B2F90420184403309042BA
:105840000FDA04338B800EE0032B0CD1CB88488811
:10585000B2F9062018440330904202DA0433CB80B8
:1058600001E001207047002070472DE9F0470C4609
:105870008CB04FF00008114603A822469A46CDF896
:105880000880CDF80480FFF7C7FC002400252646D9
:105890002F4603A801A90022FFF736FD50B1019B56
:1058A000F61847EBE377029BE41845EBE37508F144
:1058B0000108EEE74FF0000942464B4630463946B4
:1058C00006F0BCFA2946CAF80000424620464B467C
:1058D00006F0B4FACAF804000CB0BDE8F0874B1E1D
:1058E000062B9CBF00EB8101C1F880217047C0F8F6
:1058F00074117047DFED077A07EE101A67EE277A0A
:10590000FCEEE77A17EE903A03B90123C0F86C3148
:10591000704700BF00403F44C0F880117047013914
:10592000CBB2062B9ABF00EB4111C869002070472B
:10593000F8B5066843689E4204460F462ED11036DD
:10594000B6F1FE5F85681A4994BFB0004FF0FF3092
:105950000AF012FD024630B9A260002382B9A560A8
:105960004FF0FF30F8BD701E1346411C03F10403D5
:10597000F2D0002123F8021C23F8041C0138F4E7BC
:1059800021688B4205DA55F8231042F823100133C1
:10599000F6E7666015B12846FBF732FC2368A2687B
:1059A000591C2160396842F823100020F8BD00BF5F
:1059B000F46C01102DE9F04F2DED028B89B01E46DD
:1059C0000423ADF81C30ADF81E300B88ADF818304C
:1059D0004B88ADF81A3093468B88CA8893424FF0B3
:1059E000000794BF4FF000094FF00109B94518BFF7
:1059F0001A4608EE102A824605970497B84618EE14
:105A0000103A984562D25A46504606A904ABFFF7B1
:105A10002CFF049B30687168C01A059BC91A494362
:105A200000FB001007EE900AF8EEE77A17EE900AF6
:105A300005F02EFF0BF002FD06F0B0F907EE900A1C
:105A4000FCEEE77ADAF8743117EE900A98422CD21D
:105A5000149B0498D3F800C03368CDF804C00CF14F
:105A60000104E517C117CCFB030122462B4606F0C3
:105A7000E5F9306005987368DDF804C0C117CCFB08
:105A8000030122462B4606F0D9F9BDF81A307060A2
:105A9000BDF818201498ADF80C2003A9ADF80E300D
:105AA000FFF746FF002811DB0137B9F1000F05D0E1
:105AB000BDF818300433ADF8183004E0BDF81A30E2
:105AC0000433ADF81A3008F1040898E707EE907A2D
:105AD000B8EE677AF1EE007A67EE277AB8EEC88AF8
