:020000041400E6
:10000000F0790020D900001400F002F800F08AF81E
:100010000AA090E8000C82448344AAF10107DA4563
:1000200001D100F07FF8AFF2090EBAE80F0013F02B
:10003000010F18BFFB1A43F001031847F40000003A
:10004000240100000A444FF0000C10F8013B13F0AB
:10005000070408BF10F8014B1D1108BF10F8015B21
:10006000641E05D010F8016B641E01F8016BF9D114
:1000700013F0080F1EBF10F8014BAD1C0C1B09D16B
:100080006D1E58BF01F801CBFAD505E014F8016BDD
:1000900001F8016B6D1EF9D59142D6D3704700006F
:1000A000103A24BF78C878C1FAD8520724BF30C8A4
:1000B00030C144BF04680C60704700000023002476
:1000C00000250026103A28BF78C1FBD8520728BF68
:1000D00030C148BF0B607047DFF82C00016841F465
:1000E0007001016009480047FEE7FEE7FEE7FEE712
:1000F000FEE7FEE7FEE7FEE7FEE7FEE70448054908
:10010000054A064B7047000088ED00E00900001426
:10011000F00B0020F0790020F0730020F073002035
:100120007046704740F2DF1CC1F2000C60470000CF
:10013000600100140000001078700100A00000149D
:10014000D871011400000020B40100004400001424
:1001500024720114B40100203C780000BC0000149B
:10016000F0790020D9000014E9000014EB0000141D
:10017000ED000014EF000014F10000145A5A5A5A0E
:10018000000000000000000000000000F300001468
:10019000F500001400000000F7000014F90000143E
:1001A000FB00001461A80010FB000014FB00001409
:1001B000FB000014FB000014FB000014FB00001403
:1001C00071B40010FB000014FB000014FB000014CD
:1001D000FB000014FB000014FB000014FB000014E3
:1001E000FB000014FB000014B11B0010FB00001406
:1001F000FB000014FB000014FB0000149B2C0010FB
:1002000035310010FB000014FB000014FB0000144B
:10021000FB000014FB000014FB000014FB000014A2
:10022000FB000014FB000014FB000014FB00001492
:10023000FB000014FB000014FB000014FB00001482
:10024000FB000014FB000014FB000014FB00001472
:1002500000000000FB000014FB000014FB00001471
:1002600000000000FB000014FB000014FB00001461
:10027000FB0000146E2908F03C86702908F0848782
:10028000662911F0E487652911F0E187672911F0EB
:10029000DE876129AFF3008003681B0A28BF41F0A5
:1002A0008001692908F02882642908F025827529CF
:1002B00008F022826F2908F00F87782908F050870C
:1002C000E92908F0A786E42908F0A486F52908F0B2
:1002D000A186EF2908F00C87F82908F04F870368FA
:1002E000DB0928BF41F08001632909F00F827329DF
:1002F00009F01482E32909F01F82F32909F024820E
:10030000002070471FB511F084FF9DE8030008F03E
:10031000F1FC09F081FA04000020002111F0F4FA48
:10032000401C60600020002111F0D8FAE06008F065
:1003300099FC1FBD10B5002010F073FB10BD09F033
:100340003DFA1146FFF7DEFF03F004F909F018FB50
:1003500003B4FFF7EFFF03BC08F042FF4B494C49E1
:1003600001604FF0010101714FF0000141717047D0
:1003700010B5082010F094FA0446FFF7EFFF04468A
:100380004448046010BD0171704710B504464FF039
:1003900002034FF0F0024FF003014FF0010011F0A3
:1003A000B3F84FF004003C4988624FF480603B4949
:1003B00008604FF008003A4948604FF0000010BD57
:1003C00010B504464FF00000354948604FF0050372
:1003D0004FF0F0024FF003014FF0010011F094F8DC
:1003E000002010BD70B506464FF000012D48006892
:1003F00004F03CFF0446CCB3307990B1A188628808
:10040000A1EB0201084601EBD07102EB61010D4640
:100410004FEA054005464FF4A070B5FBF0F00546E5
:1004200013E02189E288A1EB0201084601EBD071BB
:1004300002EB6101C1F1C8010D464FEA05400546D6
:100440004FF0C800B5FBF0F005464FF6C07005EA66
:100450000000054612480560707910B9642010F05C
:100460008FFF4FF480601049086006E0FFE74FF00F
:1004700000000D4908600A49086014B14FF00100FE
:1004800001E04FF000007071002070BD4450011079
:10049000845001100000002000101040181210407D
:1004A00000100E4010000020141210402DE9FF4FE4
:1004B00085B01E46DDE90501884201D2059800E0BD
:1004C000069804460798844201D2204600E0079827
:1004D0000446DDE90501884201D9059800E0069847
:1004E00007460798874201D9384600E00798074633
:1004F0000599A1EB040101FB01F1069AA2EB0402AC
:10050000069BA3EB040302FB0311079AA2EB040270
:10051000079BA3EB040302FB031011F00BFE8146C3
:10052000484611F079F8804611F0F6FD05461E2D7B
:1005300002D94FF01E0005460A2D03D24FF00000ED
:10054000019012E0284611F0F5FD8246304611F088
:10055000F1FD8346FD4911F00DFE8146514611F033
:1005600009FE804611F0D8FD01900198B0F57A6F30
:1005700002D94FF47A60019001A80DF017FB05A88D
:1005800007C804F0D5FF814605F00DF8804607AB9B
:1005900006AA05A904F0E1FF0598C0B204900698E8
:1005A000C0B203900798C0B2029002AA03A904A89F
:1005B0000CF0CAFB09B0BDE8F08F38B504464FF027
:1005C00000002072009068460DF07AFD4FF00000A8
:1005D000207038BD10B504462046FFF7EEFF2046D8
:1005E00010BD704738B505460C46684610F0E0FF70
:1005F00000BF009810F012FFA042FAD30EF016F8D8
:1006000038BDF8B504460D464FF00000064619E027
:100610004FF00000009068460DF052FD4EF660214C
:100620002046FFF7DFFF6178C94A02EB81010846E7
:100630000DF046FD4EF660212046FFF7D3FF06F190
:1006400001000646AE42E3DBF8BD7FB504464FF03D
:10065000000003904FF0A00002904FF06400019062
:100660004FF00000009001AB02AA04F1010103A8C1
:1006700000F014FD0546002D00DA7FBD0121B548CC
:10068000006801F06EFA04212046FFF7BAFF00BFB0
:10069000F3E738B504466078072800DD38BD4FF031
:1006A0000000009068460DF00BFD4EF660212046DC
:1006B000FFF798FF6178A64A02EB810108460DF02A
:1006C000FFFC00BFEAE7F0B593B007460FAC4FF070
:1006D00000052846206005F1100060606068014652
:1006E0009D4A4FF0040010F090F9A06000BF0EA8E2
:1006F000294681704170017000BF12A84FF0A0011F
:100700004FF064020180428000BF04460FAB2246D6
:1007100092499348006805F099FC032000908D48A9
:100720000422114603680FA800F053FC0FAA8B495E
:1007300001A804F0ECFF0AA901A805F0A6F80646F6
:100740000BAB0CAA0DA9304604F007FFDDE90A3215
:10075000DDE90C10FFF7AAFE0FACA168084610F007
:100760008FF800BF13B0F0BD30B589B0044610F06B
:10077000DBFC0546207AF0B14FF0210008904FF0E5
:100780000000079006904FF4A07005904FF0C8004D
:1007900004904FF000006F49096804AACDE90021D8
:1007A000029005AB06AA07A908A80DF06FFB20462A
:1007B000FFF789FF1DE02078D8B14FF021000890A5
:1007C0004FF00000079006904FF4A07005904FF096
:1007D000C80004904FF001005E49096804AACDE901
:1007E0000021029005AB06AA07A908A80DF04EFB50
:1007F00000BF2078062871D2DFE800F003183868BF
:100800007CBC95B1201D10F0D3FE5648008808909E
:1008100008A80DF0CBF94FF0010020704FF0000058
:10082000089008A80DF04CFC00BFACE01DB94FF0DB
:100830000000207019E06168084610F0EFFD4A4999
:10084000884212D90CF046F918B14FF001006070DF
:1008500002E04FF000006070201D10F0A9FE20465D
:10086000FFF717FF4FF0020020708CE0B5B90321AD
:100870002046FFF7C6FE201D10F09AFE607830B9C2
:100880004FF00100089008A80CF096F902E04FF034
:10089000010020724FF00300207016E061680846E6
:1008A00010F0BCFD314988420FD9201D10F080FEA8
:1008B000607800F1010060706078082802D14FF084
:1008C000000060702046FFF7E4FE5CE03DB1201DB3
:1008D00010F06EFE4FF0040020700AE04FE06168F7
:1008E000084610F09BFD2249884202D92046FFF7B6
:1008F00064FE48E09DB9607850B94FF00000089060
:1009000008A80CF059F904212046FFF77AFE02E00E
:100910002046FFF79AFE2046FFF74FFE15E061687C
:10092000084610F07BFD104988420ED9607830B936
:100930004FF00000089008A80CF03EF900BF2046D8
:10094000FFF73BFE4FF0050020701CE08FC2753CA6
:100950009C210110C80000206F050110A00000209C
:100960001000002014000020D012130040420F009D
:100970000087930315B92046FFF71FFE03E02046CA
:10098000FFF71BFE00BF00BF207810B1012009B0A7
:1009900030BD0020FBE72DE9F04104460D46012D56
:1009A00002DC0020BDE8F0815EE010F0BDFB0646F1
:1009B0000DF03CFE207820B101280CD002284ED149
:1009C00028E0201D10F0F4FD4FF0010020702046BB
:1009D000FFF75FFE47E066B1201D10F0E9FD4FF024
:1009E000010060702046FFF754FE4FF002002070B7
:1009F0000FE06168084610F011FD1C49884208D9D3
:100A000004212046FFF7FDFD2046FFF7D6FD00201C
:100A1000C8E728E04EB9677804212046FFF7F1FDCA
:100A20002046FFF7CAFD3846BCE76168084610F06B
:100A3000F5FC0F49884211D9201D10F0B9FD6078EE
:100A400000F101006070617805F10100814202D17E
:100A50004FF0010060702046FFF71BFE03E02046C8
:100A6000FFF7ABFD00BF00BF9FE7000060E316008B
:100A700040420F000146FF4A086810604FF0000036
:100A8000704730B58BB04FF00100044619E02246A4
:100A9000F9A102A807F01AFE002301AA0AA902A8D8
:100AA0000DF04EFC0546002D02DA28460BB030BD95
:100AB000E1B2F448019A006805F0FBFB04F1010083
:100AC0000446072CE3DDEF48006805F00BFCEE4818
:100AD000006805F058FD0020E8E770B504460D46B3
:100AE000207853280CD1A07AA0F13000C0B206467D
:100AF000286802463146E348006805F0A0FC08E09B
:100B000020784D2805D128680146DE48006804F0A9
:100B1000FBFE01F013F828B1DA48006805F0E2FBAB
:100B200001F015F870BD38B504460D464FF00002CF
:100B30006946D6A00DF004FCD2480099006805F083
:100B40008CFC38BD38B504460D464FF00002D6493E
:100B5000D6A00DF0F5FBD4480088009068460DF053
:100B600025F838BD10B5B6B02DA80DF039FF4FF0FF
:100B7000010004463EE02246BFA125A807F0A6FDDD
:100B80002246CEA10CA807F0A1FD00202DA920220D
:100B90008123CDE9002102900CAA012125A80DF0A6
:100BA0003BFB2246CAA125A807F090FD2246CD496D
:100BB0000CA807F08BFD002001460290CA481423C0
:100BC0000CAACDE90010811525A80DF025FB002207
:100BD0000BA925A80DF0B4FBE1B2AA480B9A006856
:100BE00005F02DFCAFF20D1125A80DF005F904F16B
:100BF00001000446072CBEDD00204FF0204102908A
:100C0000BA481423B74A5832CDE900104FF4807126
:100C1000B7A00DF001FBAFF23D11B5A00DF0ECF85F
:100C200000204FF040410290B5481423AD4AB8323D
:100C3000CDE900100021B3A00DF0EEFA0020012153
:100C40000B46B64ACDE900100146B5A00DF0E4FA16
:100C500000204FF4FA610423B04A6432CDE9001059
:100C600099018AA00DF0D8FAAFF2451187A00DF0D6
:100C7000C3F8002040F2EE210223A84AF032CDE969
:100C80000010D90189A00DF0C7FAAFF2471187A073
:100C90000DF0B2F800204FF47A710223A44ACDE996
:100CA00000100146A3A00DF0B7FA00204FF47A71AE
:100CB00002239F4A4832CDE900100146A0A00DF062
:100CC000ABFA002014210423994AA832CDE9001080
:100CD0000146A2A00DF0A0FA002209A995A00DF0EE
:100CE0002FFB002208A996A00DF02AFB002207A9DD
:100CF0009AA00DF025FB00220AA989A00DF020FB87
:100D0000002205A97AA00DF01BFB002204A97DA0FA
:100D10000DF016FB002206A95CA00DF011FB0022CD
:100D2000614962A00DF00CFB9DF828000090BDF811
:100D30002020BDF824105348079B006804F016FBE0
:100D400050480599006804F0DFFD4E48049900689A
:100D500005F086FB4B480699006805F07EFB52487B
:100D60000088359035A80CF021FFFFF78AFE36B0D9
:100D700010BD70B506464FF004000FF091FD04461B
:100D800005F07EFB0446404804604FF424700FF0E9
:100D900087FD0546754802463B480168284602F033
:100DA00081FF054637480560714930460EF0DAFC90
:100DB000002270A1724800680EF0D8FE71490880C8
:100DC0000846B0F90000002802DA4FF0FF3070BD8D
:100DD000FFF7C8FE0020FAE72DE9F04F95B0064670
:100DE0000C4617469846DDE91FABDDF878900BA856
:100DF0003988B8F80020B9F80030BAF800C001808E
:100E000042808380A0F806C000BF2078012802DB62
:100E10002078072804DD4FF0FF3015B0BDE8F08FD3
:100E20005948006828B959A00DF02EF96FF001005B
:100E3000F3E7207803460BAA53491248006804F0F0
:100E40009DFF207801460F48006805F027FA054607
:100E50003068E8610BAA4C4902A804F037FC002175
:100E600002A804F012FDA8612078024602A10DA894
:100E70009AE00000040000207369676E6174757267
:100E800065256400100000200C0000205369676E87
:100E90006174757265207465616368207468726539
:100EA00073686F6C64000000140000204C454420FF
:100EB0006272696768746E6573730000436F6C6F6C
:100EC00072207369676E6174757265202564000015
:100ED0005369676E61747572652025642072616E56
:100EE00067650000BC210110000004409999B93FDA
:100EF0004D696E206272696768746E657373000075
:100F0000CCCCFC3F436F6C6F7220636F6465206DC7
:100F1000756C7469706C696572000000D0220110F4
:100F2000436F6C6F7220636F6465206D6F64650042
:100F3000642401104D617820626C6F636B73000054
:100F40004D617820626C6F636B73207065722073E3
:100F500069676E6174757265000000004D696E20EE
:100F6000626C6F636B206172656100000010091094
:100F7000F4200110676574524C534672616D650030
:100F8000CC00002008000020A00000204E6F20723E
:100F90006177206672616D6520696E206D656D6F89
:100FA0007279210A0000000007F090FB00202B4618
:100FB0002022812100900DA80DF0F7F9FFF761FDC7
:100FC000FAA00DF061F80121584600F0CAFD00209A
:100FD00023E72DE9F04F8FB004460F4690461D469B
:100FE000F648814615B90FB0BDE8F08F0020B22257
:100FF000CDE90A020C900D9002200021CDE90610E7
:10100000CDE90810CDE90210CDE904104120642398
:101010004FF49032CDE90010494628460FF0E9F927
:10102000064600BF20684FEA80008246A0688346DB
:1010300009EB060108465246594607F00FFD00BF6E
:101040002068800040088246B2200221CDE90B0AC8
:10105000CDE909180846C8210222CDE90707CDE9E4
:1010600005214FF4A07141231898CDE90130CDE955
:101070000321D34864234FF4903249460090284618
:101080000FF0B7F900BF206806EB80008246524699
:10109000494628460FF0C1F900BFA4E72DE9F04FFB
:1010A00097B007460C4690469946DDF880A00BADF8
:1010B0004FF0000B584628600BF11000686068681C
:1010C0000146C04A4FF004000FF09FFCA86000BF2B
:1010D0002078012802DB2078072807DD0BA810F014
:1010E000CDFC4FF0FF3017B0BDE8F08FB648006878
:1010F00048B9AFF268100CF0C7FF0BA810F0BEFCA7
:101100006FF00100EFE716A8B8F8003019B2B9F88F
:1011100000301AB20180428000BF054620780BAB38
:101120002A46A9490090A948006805F086F8207869
:101130000146A648006805F0B1F806463868F06137
:101140000BAAA14902A804F0E2FA002102A804F0C7
:101150009CFBB061032053460422114600900BA86B
:10116000FFF737FF20780246AFF2F4210EA807F010
:10117000ADFA002033462022812100900EA80DF008
:1011800014F9FFF77EFC89A00CF07EFF0121504688
:1011900000F0E7FC0BA810F071FC0020A3E770B58D
:1011A00092B004460D4602A80DF01AFC20780128E2
:1011B00002DB2078072803DD4FF0FF3012B070BD4E
:1011C000202102A807F0E3FC20780246AFF2583154
:1011D0000AA807F07BFA002002AB202281210090B0
:1011E0000AA80DF0E2F80646FFF74BFCFFF749FCB2
:1011F0000121284600F0B5FC3046DFE770B592B01B
:10120000064602A80DF0ECFB202102A807F0BFFC67
:101210004FF00100044617E02246AFF2A4310AA8BD
:1012200007F054FA002002AB2022812100900AA886
:101230000DF0BBF80546002D02DA284612B070BD4D
:1012400004F10100C0B20446072CE5DDFFF719FCEC
:101250000121304600F085FC0020EFE7F0B589B0B1
:1012600004460D4616464FF0FF3007904FF0010040
:10127000089008A80BF0C4FE071E02DA384609B031
:10128000F0BDA6B1002007AACDE9030205900690A3
:1012900004200346CDE9010500944D48B0F9002033
:1012A00000214C4800680EF033FC0798E7E7002067
:1012B0000422CDE902501346CDE90042049044488F
:1012C000B0F900200121434800680EF021FC002005
:1012D000D5E72DE9F04F8BB082460F463E480A9085
:1012E0003E48804635488146A8EB000005464FF051
:1012F00000004FF0B102CDE90602089009904FF0CE
:1013000002004FF00001CDE90210CDE904104FF0CA
:1013100041004FF064032A46CDE90010494650468B
:101320000FF067F804462E48006805F02CF90122FA
:1013300040460A99FFF792FF8346A5EB0400054655
:101340004FEAD500054609EB040001462A46244829
:10135000006805F0CFF806464FF001011D4800680F
:101360000EF0A0FC0021F000B122C823CDE9063226
:10137000CDE9080102204FF4A071CDE90270CDE95A
:1013800004104120174964232A46CDE9001049463C
:1013900050460FF02EF804EBC60002464946504670
:1013A0000FF03BF858460BB0BDE8F08F5369676EFD
:1013B000617475726520736574210A00000008105D
:1013C000424C54316F050110A00000201000002095
:1013D00008000020CC0000200010091000000910B7
:1013E0000C0000204343513210B504464FF0010178
:1013F0002046FFF76EFF10BD30B504460B4620684F
:1014000005464FF00000014604E0505C685401F1CD
:101410000100014618688842F7D8186830BDF0B559
:101420008BB007460C4615461E464FF0000105EBF3
:10143000850020F00040CDE908410A9107904FF067
:1014400082004FF0C8014FF042024FF4A073CDE983
:101450000332CDE905104FF041016E4BCDE9016239
:1014600000914FF064024FF0000138460EF0EDFCA1
:1014700000200BB0F0BD2DE9F0438FB007460C46BD
:1014800015461E46DDE916894FF0000108EB4800BD
:101490004FEA80004FEA5000CDE90B610D910A90B0
:1014A0004FF0820105EB850020F00040CDE90610E9
:1014B0004FF0C800CDE908414FF042014FF4A0724F
:1014C000CDE90212CDE904104FF04100524B4FF02C
:1014D00064024FF00001CDE9000938460EF0B5FC7A
:1014E00000200FB0BDE8F0832DE9F04105464FEA3A
:1014F000052044F62061B0FBF1F0044614B9012048
:10150000BDE8F081204610F015FE804640460FF001
:101510008FFF0746414910F02DFE064610F0FCFDF6
:101520000446FF2C03D94FF0FF00044603E014B932
:101530004FF001000446E0B2E2E7F0B587B00021C9
:101540003748006803F092FE0446002C58D02088EB
:1015500007280CDC2088A0F1010000EB8001304856
:10156000006800F1E00000EB8100066901E02D4811
:101570000668A0886188A0EB01002189E288A1EBC0
:10158000020100FB01F73846FFF7AEFF054604AB4A
:1015900005AA06A9304603F0E0FF049830B104988C
:1015A00068434FEA102000F1010001E04FF0000015
:1015B0000490059830B1059868434FEA102000F177
:1015C000010001E04FF000000590069830B1069848
:1015D00068434FEA102000F1010001E04FF00000E5
:1015E00006900698C0B203900598C0B20290049885
:1015F000C0B2019001AA02A903A80BF0A5FB06E066
:101600004FF00000039003A80CF05AFD00BF07B094
:10161000F0BD0000434342314343423200004842A0
:10162000100000209C2101101CB500200090012317
:10163000E94A01460190E9A00CF0EEFD002000907F
:101640000123EAA201460190F8A00CF0E5FD00227A
:10165000F849F6A00CF074FE1CBD70B505464FF0BD
:101660000C000FF01DF90446FEF7B4FF0446F248E3
:101670000460F24928460EF075F80022F0A1F14806
:1016800000680EF073FAF04908800022EFA1ED48DF
:1016900000680EF06BFAEF4908800022EEA1E948DD
:1016A00000680EF063FAEE490880FFF7BDFF0020E6
:1016B00070BD02460B4613B1EA48C26112E04FF01A
:1016C000000107E0082902DB4FF0FF30704701F10D
:1016D00001000146E34850F821000028F2D1E1481A
:1016E00040F821200020F1E7DF48007810B1DE4803
:1016F00000787047DD48007808B10220F9E7002043
:10170000F7E74FF00000DA49087070474FF001002A
:10171000D7490870D44908704FF00000704738B5B9
:101720000446207858B12078082805DC2078401E2F
:10173000CC4951F8200010B94FF0FF3038BD4FF0C0
:101740000000CC490860207808BB00226946A3A0AD
:101750000CF0F6FD9DF8000018B19DF80000082877
:1017600003DD4FF00000C44908709DF80000002818
:101770000CDD9DF80000401EBA4951F8200028B148
:101780009DF80000A0F10100BB49087004E020783A
:10179000A0F10100B8490870FFF7B8FFCEE770B5B7
:1017A00006460C463046FFF7BAFF0546002D01DA23
:1017B000284670BDAF49206808600020F9E710B5E1
:1017C0004FF00000044610E0A64850F8240040689E
:1017D0000346A44850F8240000680246611CA7A0F4
:1017E0000CF052FC04F1010004469E4850F824001D
:1017F0000028E9D110BD10B586B004467649A1F1A4
:10180000080103C9CDE9040154B1002004AACDE9BF
:101810000020062382220146029020460EF015FB8E
:10182000002006B010BD7FB504460D464FF01200F3
:1018300006462088B04203DB4FF0FF3004B070BD95
:10184000A5B100212088904B03EBC0004068A12384
:10185000CDE901010093039120888B4951F83000B4
:101860000346A122002128460EF0EFFA0020E5E70A
:1018700010B586B004464FF0000005AACDE901027C
:1018800003904FF00103009404906F48B0F90020DA
:101890004FF000016B4800680EF03AF97B48047085
:1018A000059806B010BD1FB5002003AACDE90020A1
:1018B000034602906A48B0F90020002161480068A0
:1018C0000EF026F9039804B010BD1FB5002003AA3E
:1018D000CDE90020034602905E48B0F900200021C7
:1018E000584800680EF014F90398C0B204B010BD57
:1018F00010B5FFF737F901F090F90BF04BFE0BF044
:1019000065FF00F09CFEFFF78FFE10BD10B50CF0D8
:101910008DFE49480068FEF727FF544908700DF016
:101920002BF808B1FFF7E4FF10BD38B54FF0000009
:10193000044603E004F10100C0B20446494850F8EF
:1019400024000028F6D121463B480068FFF723F821
:10195000C0B200906846FFF7E2FE38BD08B54FF010
:10196000000005460646FFF7E0FFE6E0484800684D
:101970000EF0BAFC0446FFF7C9FF052D2AD2DFE8B6
:1019800005F0031FABB2BE004248007830B94FF0FB
:101990000000009068460CF093FB00BF3149364AC6
:1019A000127851F82210896808468047002803DA27
:1019B0004FF00300054602E04FF001000546BAE093
:1019C0002A48007828B1FFF76EFF4FF00200054665
:1019D00081E061E0ABE00000F02601104465666143
:1019E000756C742070726F6772616D004063204582
:1019F0007870657274205365747320746865206410
:101A000065627567206C6576656C20666F72207400
:101A10006865206669726D776172652E202864653D
:101A20006661756C742030290000000044656275A1
:101A300067000000200000202C00002080250110FD
:101A400072756E00CC0000202200002072756E6E50
:101A5000696E67002400002073746F70000000003E
:101A600026000020B4010020180000201B000020E8
:101A7000190000201C0000201A00002025643A20D4
:101A800025732C2025730A005826011028000020F9
:101A9000C8000020340000203A48007848B13A4994
:101AA0003A4A127851F82210C9680846804700283F
:101AB00003DA4FF0030005460DE066B15CB90BF0A8
:101AC000E7FF4FF0000000906846FFF728FE4FF058
:101AD0000000054600BF2EE02D48007810B94FF0F9
:101AE0000000054627E04FF000002649087029490C
:101AF0000870FFF7D8FE4FF0040005461BE02148B0
:101B0000007828B1FFF702FE4FF0000005460DE017
:101B100014B12148007848B94FF0000000906846A1
:101B2000FFF7FDFD4FF00000054600BF03E04FF05A
:101B30000300054600BF00BF264617E710B5FFF7B4
:101B4000C4FE04460CB1FFF7AEFE204610BD10B532
:101B50001248006804F017FD11480078FFF788FE6E
:101B600010BD3EB504460D4654B1002004210D4B76
:101B70006422CDE900150290182120460EF065F987
:101B80003EBD000019000020B40100201A00002012
:101B90001B00002018000020E70000200C0000209F
:101BA0002800002045565431F8B50446A068406826
:101BB00000F0F800074617F0070F71D1F8100C3845
:101BC00014286DD2DFE800F0139D149D1D481E49B6
:101BD0004A539D5494939D9D9D9D9D0A4FF00400F2
:101BE000A16808604FF00800A16888618EE000BF1E
:101BF0004FF00400A16808604FF00800A1688861F8
:101C000084E000BF04F10C05A0688068C6B200BF84
:101C100028460FF03BFF2968A1EB0000002800DCFC
:101C200011E0E96801F10100E8606868465428693C
:101C300000F1010028612968E868884202D14FF06C
:101C40000000E86000BF4FF00400A16808604FF09A
:101C50000800A168886159E000BF00BF4FF0040090
:101C6000A16808604FF00800A16888614EE000BFDD
:101C7000207928B14FF00000A168886020712DE024
:101C800000BF206B80B9636A1946A36A1846636B6C
:101C90001A4690472063206B18B94FF0000010E0FF
:101CA0002FE04FF00000E062E16A01F10100E06224
:101CB000A06A405C0090206BA0F1010020634FF00F
:101CC000010020B19DF80000A168886006E04FF097
:101CD0000000A16888604FF0010020714FF00400FF
:101CE000A16808604FF00800A16888610EE000BF9D
:101CF0004FF00400A16808604FF00800A1688861F7
:101D000004E04FF02C00A168886100BF00BFF8BD5F
:101D100010B58D480068FFF747FF10BD38B5044681
:101D20000D468DF801504FF000008DF803008DF83E
:101D30000000A1680846694608F0C0FD002038BDD3
:101D40002DE9F04705460F4690461E467F498048DC
:101D5000286005F10C044FF02009C4F800902168B8
:101D600008460EF095FD60604FF00000A060E06056
:101D70002061606100BFA4F10C04254605F1240434
:101D8000C4F80090216808460EF082FD60604FF0B4
:101D90000000A060E060266100BFA4F12404254695
:101DA000AF60A96808466B4908F03AFD41462846ED
:101DB000FFF7B4FF4FF017004FF0000100280ADAD8
:101DC0004FEA01724FEA1262634B00F00F04A4F174
:101DD00004041A5505E04FEA01724FEA12625F4BA4
:101DE0001A5400BF2846BDE8F08770B504464FF08E
:101DF00038000EF055FD0546234654225849FFF79A
:101E00009FFF05465048056070BD4FF0380182685D
:101E100091614FF0440182681160704710B504462B
:101E20004FF000034FF0F0024FF003014FF00100BC
:101E30000FF06AFB0423F022012102200FF064FB63
:101E40000423F022012102200FF05EFB0023F02288
:101E5000042101200FF058FB0423F022002102206E
:101E60000FF052FB4FF000003E49086020714FF028
:101E700012004FF0010101FA00F14FEA50124FF049
:101E8000E02303EB8202C2F8001100BF2046FFF7F7
:101E9000BCFF002010BD10B501464FF012004FF0FE
:101EA000010202FA00F2304B4FEA501443F82420AA
:101EB00000BF4FF0000010BD2DE9F04707460E4669
:101EC00090464FF00000054625E007F10C0406EBB4
:101ED000050920460FF0DAFD002802DC4FF0000073
:101EE00014E0A16801F10100A0606068405C89F81D
:101EF0000000606900F1010060612168A06888420B
:101F000002D14FF00000A0604FF0010000B904E0E2
:101F100005F1010005464545D7D300BF2846BDE879
:101F2000F08710B5044604F10C000FF0AFFD10BDB2
:101F300000B503469868006810F0040F02D11846F7
:101F4000FFF763FF002000BD300000204450011067
:101F5000904F0110A086010018ED00E000E400E0C1
:101F600000100A401812104080E100E01CB54FF04C
:101F70000100019001A80BF043F89148006804F0BB
:101F8000B1F99048006804F0FEFA0020FFF770FCF9
:101F900000BF00F09AFE04460068806803460122F4
:101FA0006946204698470028F3D1874908701CBD30
:101FB00030B587B000F089FE04464FF000000546BA
:101FC000AEE08148007820B101280BD002287ED1F4
:101FD00027E04FF0FF007D4908704FF001007A497B
:101FE000087098E0206880680346012206A9204610
:101FF0009847A8B1754800784FEA002074490880D6
:10200000084600889DF8181040EA010070490880D1
:102010009DF818006D4908704FF002006A49087079
:1020200079E06B480088FF2827D12068C068014606
:1020300020468847042868DB20688068034602221F
:1020400005A920469847206880680346022204A913
:10205000204698474FF0000005A9039003A80AF016
:1020600073FF4FF0010004A9039003A80AF06CFF6E
:102070004FF000005449087047E055480088FE289A
:102080000FD1206880680346012206A920469847A0
:10209000B0B306A80BF05AFD4FF000004A49087093
:1020A00033E04B480088FD282BD12068C0680146EA
:1020B00020468847032828DB2068806803460122E1
:1020C00003A92046984720688068034600E01DE089
:1020D000012202A920469847206880680346012211
:1020E00001A92046984701AA02A903A80AF02CFEDC
:1020F0004FF00100374908704FF000003249087076
:1021000003E04FF001003049087004E04FF0000098
:102110002D49087000BF00BF05F10100C0B205469F
:102120000A2DFFF64EAF07B030BD10B586B024487B
:10213000006802F017FE00280FDA2748007848B13F
:10214000264802680068401C244B1146186024A0F1
:102150000BF09AFF002006B010BDFFF729FF02A880
:1021600004AB03AA05A900901548006803F0EFF836
:1021700001200299CDE900101C48DDE903230599EF
:102180000068FFF778F900F0A0FD044600680069D8
:102190000146204688470F48007808B9FFF7CDF977
:1021A00001E0FFF705FF07490868016889880268B0
:1021B000D288A1EB02010029F3D04FF00000CAE75A
:1021C000100000200C000020350000204A000020F4
:1021D0004800002034000020200000204C00002097
:1021E00064726F702025640A00000000C80000209F
:1021F00001464FF000021046002903DD01F11E02E6
:10220000104604E0002902DAA1F11E02104600F592
:10221000FA721046B0F57A7F03DD4FF47A721046F9
:1022200004E0002802DA4FF000021046704710B5B3
:10223000D0E90034A3EB04031A4603EBD2734FEA50
:1022400063030B60D0E9003423441A4603EBD273D6
:102250004FEA63034B6010BD10B502461368B3F13B
:10226000004F18D01368A1EB0303946803FB04F339
:10227000546801FB04334FF47A7493FBF4F0B0F527
:10228000FA7F03DD4FF4FA73184604E010F5FA7F85
:1022900001DA8E4B1846116010BDF0B587B00446C8
:1022A0000D46C4F1A0000646C5F182000746394636
:1022B0008748FFF7D1FF039031468648FFF7CCFFF0
:1022C000049001A903A8FFF7B2FF01990846FFF7A0
:1022D0008FFF80B205904FF00000069005A906A878
:1022E0000AF032FE02990846FFF782FF80B205909D
:1022F0004FF00100069005A906A80AF025FE07B0D8
:10230000F0BD4160826070471FB500204FF4FA7144
:10231000042371A2CDE9001001467EA00BF07CFFE2
:1023200000204FF4487104237FA2CDE9001001463C
:102330008CA00BF071FF00204FF4FA7104238EA2E1
:10234000CDE9001001469BA00BF066FF00204FF482
:10235000487104239BA2CDE900100146A7A00BF011
:102360005BFF002203A96BA00BF0EAFF002202A989
:102370007CA00BF0E5FF5648DDE90221FFF7C1FF25
:10238000002203A98BA00BF0DBFF002202A99BA077
:102390000BF0D6FF4F48DDE90221FFF7B2FF1FBD6A
:1023A0001CB54FF00100019001A80AF029FEFFF7CB
:1023B000ABFF4FF0000001904FF4FA7000906946B7
:1023C00001A80AF0C1FD4FF0010001904FF4FA702E
:1023D0000090694601A80AF0B7FD8C48006808B172
:1023E000FEF74FFB8A48006804F0CDF80020FFF7A5
:1023F0003FFA00201CBD70B586B08648006802F028
:10240000B1FC00218348006802F030FF0446C4B1EB
:10241000A1886288A1EB0201084601EBD07102EBB2
:1024200061018DB22189E288A1EB0201084601EB2E
:10243000D07102EB61018EB231462846FFF72DFFC5
:1024400014E04FF0000001904FF4FA7000906946DC
:1024500001A80AF079FD4FF0010001904FF4FA70E5
:102460000090694601A80AF06FFD00BF02A804AB06
:1024700003AA05A900906748006802F068FF0120E0
:102480000299CDE900106448DDE90323059900684D
:10249000FEF7F1FFFFF751F8002006B070BD416074
:1024A00082604FF000430360704700B54FF44872FC
:1024B0004FF4FA710648FFF7F2FF4FF461724FF4E0
:1024C0002F710448FFF7EBFF00BD00000CFEFFFF7B
:1024D000D4010020E001002040632043686173655F
:1024E0005F64656D6F207472616E6C6174696F6E8C
:1024F000616C2070726F706F7274696F6E616C20A6
:102500006761696E202864656661756C742035307A
:10251000302900005472616E736C6174696F6E20B3
:1025200050206761696E00004063204368617365F5
:102530005F64656D6F207472616E736C6174696F36
:102540006E616C2064657269766174697665206776
:1025500061696E202864656661756C74203830305E
:10256000290000005472616E736C6174696F6E2093
:1025700044206761696E00004063204368617365B1
:102580005F64656D6F20726F746174696F6E616CEA
:102590002070726F706F7274696F6E616C2067610A
:1025A000696E202864656661756C74203530302949
:1025B00000000000526F746174696F6E20502067D4
:1025C00061696E0040632043686173655F64656D97
:1025D0006F20726F746174696F6E616C20646572D4
:1025E00069766174697665206761696E2028646523
:1025F0006661756C7420383030290000526F746148
:1026000074696F6E2044206761696E00A00000202D
:102610000C00002010000020C800002038B504463F
:102620004FF4FA702060206880B20090694604F18F
:1026300008000AF089FC38BDC160026170471FB50F
:1026400000204FF4AF7104237CA2CDE9001080215B
:1026500089A00BF0E1FD00204FF41671042389A23C
:10266000CDE90010802195A00BF0D6FD00204FF49D
:10267000FA71042394A2CDE900108021A1A00BF0EF
:10268000CBFD00204FF42F710423A1A2CDE900104F
:102690008021AEA00BF0C0FD002203A976A00BF0B4
:1026A0004FFE002202A985A00BF04AFEAA48DDE9F0
:1026B0000221FFF7C1FF002203A992A00BF040FE08
:1026C000002202A9A1A00BF03BFEA448DDE90221F3
:1026D000FFF7B2FF1FBD08B54FF00100009068463C
:1026E0000AF08EFCFFF7ABFF9B48FFF797FF9B4874
:1026F000FFF794FF9A48006808B1FEF7C2F99948BD
:10270000006803F040FF0020FFF7B2F8002008BD8A
:10271000F8B504460D466068B0F1004F25D06068FA
:10272000A5EB0000216900FB01F0E16805FB010059
:102730004FF47A7190FBF1F62068304420602068F5
:10274000B0F57A7F02DD0846206005E020680028A9
:1027500002DA4FF000002060206880B200906946E5
:1027600004F108000AF0F0FB00BF6560F8BD2DE938
:10277000F04186B07C48006802F0F4FA00217A4803
:10278000006802F073FD044604B3A1886288A1EBDF
:102790000201084601EBD07102EB61018FB2218981
:1027A000E288A1EB0201084601EBD07102EB610166
:1027B0001FFA81F8C7F1A005A8F16406294666480A
:1027C000FFF7A6FF31466548FFF7A2FF02A804AB5A
:1027D00003AA05A900906448006802F0B8FD012032
:1027E0000299CDE900106148DDE9032305990068ED
:1027F000FEF741FEFEF7A1FE002006B0BDE8F08125
:1028000010B54FF4FA7404600172C26003614FF0B6
:102810000044446010BD00B54FF448734FF4FA72A1
:1028200000214D48FFF7ECFF4FF461734FF42F7216
:1028300001214A48FFF7E4FF00BD0000406320503B
:10284000616E2F74696C745F44656D6F2050616EAA
:1028500020617869732070726F706F7274696F6E27
:10286000616C206761696E202864656661756C74AF
:10287000203335302900000050616E205020676100
:10288000696E000040632050616E2F74696C745F44
:1028900044656D6F2050616E2061786973206465B6
:1028A0007269766174697665206761696E20286453
:1028B000656661756C7420363030290050616E2079
:1028C00044206761696E000040632050616E2F7480
:1028D000696C745F44656D6F2054696C7420617815
:1028E00069732070726F706F7274696F6E616C20A3
:1028F0006761696E202864656661756C7420353087
:102900003029000054696C742050206761696E00A2
:1029100040632050616E2F74696C745F44656D6F05
:102920002054696C742061786973206465726976DB
:102930006174697665206761696E202864656661E7
:10294000756C7420373030290000000054696C74B5
:102950002044206761696E00EC0100200002002025
:10296000A00000200C00002010000020C800002063
:1029700000207047F0B58BB0054672480646724895
:102980000068012839D100204FF47A41B122C823D0
:10299000CDE90632CDE9081002204FF4A071CDE94F
:1029A0000250CDE904104120684964234FF490326D
:1029B000CDE900103146664800680DF01AFD044666
:1029C0004FF0C8004FF4A0714FF00002CDE9002194
:1029D0000290C4F59032114606EB040210464FF007
:1029E00000034FF021020AF01BFC04F57A42314645
:1029F000574800680DF011FD7DE0534800686428D9
:102A000060DB51480068C8285CDA4F4800684FF026
:102A1000640190FBF1F201FB12004FF00A01B0FBE0
:102A2000F1F000F1300045F6450141EA0041464829
:102A300000684FF00A0290FBF2F302FB130000F172
:102A4000300041EA00674FF000004FF47A414FF048
:102A5000B1024FF0C803CDE90632CDE908104FF0BE
:102A600002004FF4A071CDE90250CDE904104FF0FF
:102A700041004FF064034FF490323146CDE90070CD
:102A8000334800680DF0B5FC04464FF0C8004FF421
:102A9000A0714FF00002CDE900210290C4F5903200
:102AA000114606EB040210464FF000034FF02102DE
:102AB0000AF0B6FB04F57A423146254800680DF06D
:102AC000ACFC18E04FF021000A904FF00000099094
:102AD00008904FF4A07007904FF0C80006901C4873
:102AE000006806A9CDE9001007AB08AA09A90AA841
:102AF0000BF00EF800BF0BB0F0BD00B587B0124868
:102B00000068C0B94FF0210006904FF0000005901A
:102B100004904FF4A07003904FF0C80002900C484E
:102B2000006802A9CDE9001003AB04AA05A906A814
:102B30000AF0EEFF02E00120FFF71CFF002007B0C3
:102B400000BD0000000008101C000020434D56325C
:102B5000C800002070B504460D462A4621465C4850
:102B6000006802F0E3FA70BD10B50446052C02DDE2
:102B70004FF0FF3010BD5748006838B15548006825
:102B8000006840680146534800688847524804700E
:102B9000062C2CD2DFE804F02C030D1217214F482D
:102BA00000684C49086000214C48006800F02BF98F
:102BB00028E04B4800684749086023E0494800681E
:102BC000444908601EE0012147480068FDF7DBFB2F
:102BD000454800683F49086014E000214248006809
:102BE000FDF7D1FB404800683A4908600AE000BFA1
:102BF0003A4800683749086001213848006800F009
:102C000002F900BF00BF3348006800680068014651
:102C10003048006888470020ACE700B585B0002048
:102C200000900123314A0146019031A00BF0F4FAE3
:102C30000020542101232D4AA032CDE9001010219B
:102C40002FA00BF0E9FA00204FF496410423274A05
:102C5000F832CDE9001001462CA00BF0DDFA00227D
:102C600004A923A00BF06CFB9DF81000FFF77CFF7C
:102C7000002203A922A00BF063FB9DF80C1018485A
:102C80000068FFF74BF8002202A920A00BF058FBC8
:102C900014480299006800F02FFC05B000BD10B583
:102CA000AFF24F10FFF7A1F8AFF2571000F03FF965
:102CB000AFF25F1000F078FBFDF75AFBFFF7ADFFB6
:102CC000002010BD04480078704702480068704733
:102CD0001000002074000020700000207800002008
:102CE000300000207C000020000000204827011058
:102CF00044617461206F757420706F7274000000FD
:102D000049324320616464726573730055415254C3
:102D100020626175647261746500000038B5044614
:102D200094F83D00002842D04FF48040FF490860ED
:102D30004FF00000FE49C1F81402FE4885684FF0CC
:102D40000400FC4908620CE0694604F11C000EF026
:102D5000CBFE10B94FF000000090BDF80000F5491F
:102D60008860F448C06810F0020FEDD105F47F4090
:102D7000B0F5B44F04D14FF0010084F8300011E0F9
:102D800005F47F40B0F5B64F08D1A9B2201D0EF072
:102D900089FE4FF0010084F8300003E04FF000009E
:102DA00084F83000606B00F10100606324E0E148CA
:102DB00085684FF00400DF4908620AE0694604F1C3
:102DC0001C000EF091FE00B908E0BDF80000D949E2
:102DD0008860D848C06810F0020FEFD100BF05F43A
:102DE0007F40B0F5B64F07D1A9B2201D0EF05AFEB4
:102DF0004FF0010084F8300038BD10B5CE480068AF
:102E0000FFF78CFF10BD80F83D1090F83D2022B1F7
:102E10004FF48042C94B1A6003E04FF00002C74BE9
:102E20001A6070472DE9F04387B004460E46C44946
:102E3000C448206004F104054FF01009C5F8009063
:102E400029684FEA410108460DF022FD68604FF005
:102E50000000A860E8602861686100BFA5F1040572
:102E60002C4604F11C05C5F8009029684FEA410181
:102E700008460DF00DFD68604FF00000A860E860A6
:102E80002E6100BFA5F11C052C4602900390AE48B0
:102E900006904FF00F0001904FF0040004904FF0A7
:102EA0000000059001A9A34807F0B6FD4FF000000F
:102EB000074605E09F48D0F8088007F10100074663
:102EC000082FF7D301219B4807F09AFD0421994868
:102ED00007F094FD01220421964807F00FFE4FF001
:102EE00017004FF0000100280ADA4FEA01724FEA9A
:102EF0001262964B00F00F05A5F104055A5505E046
:102F00004FEA01724FEA1262914B1A5400BF4FF020
:102F1000000084F830006063A06384F83C00014640
:102F20002046FFF770FF204607B0BDE8F08370B57C
:102F300004464FF040000DF0B3FC05462146FFF774
:102F400071FF05467C48056070BD02464FF4804025
:102F5000764B18604FF00000014608E07D4840695C
:102F600010F0040F00D004E001F1010001469629A1
:102F7000F4D300BF962915D14FF000006B4B1860B9
:102F8000014608E07348406910F0040F00D004E0E7
:102F900001F1010001461029F4D300BF102901D12D
:102FA000012070474FF00000604B186000BFF8E749
:102FB00038B504464FF00000054694F83D0008B9C6
:102FC000002038BD002204215A4807F097FD6846CA
:102FD0000EF0EEFA0EE02046FFF7B7FF18B14FF003
:102FE0000100054607E000980EF018FA5A49884299
:102FF00000D900E0EFE700BF012204214D4807F0AF
:103000007DFD2846DDE710B504464FF00400484931
:1030100088634FF005034FF0F0024FF003014FF0CB
:1030200001000EF071FA0523F022042101200EF0B8
:103030006BFA0123F022132118460EF065FA4FF0C7
:1030400017004FF0010101FA00F14FEA50124FF062
:10305000E02303EB8202C2F8001100BF2046FFF715
:10306000A7FF002010BD10B501464FF00000334A05
:1030700010604FF017004FF0010202FA00F2374BD8
:103080004FEA501443F8242000BF4FF0000010BD59
:103090002DE9F84380460E4617464FF000000546DE
:1030A00026E008F1040420460EF0F6FC002802DCBD
:1030B0004FF0000014E0A16801F10100A060606819
:1030C00030F811000090606900F101006061216832
:1030D000A068884202D14FF00000A0604FF00100CC
:1030E00000B907E0BDF80000705505F10100054684
:1030F000BD42D6D300BF2846BDE8F88310B50446CC
:1031000004F104000EF0C8FC10BD10B5044694F89C
:103110003D00A8B3D4E90D01401A38D094F830002E
:1031200078BB14F83C0F00F1010019E014121040B4
:103130000010104000500C40780000201812104081
:1031400044500110AC4F011000CB280C18ED00E0EA
:1031500000E400E000610F4020A1070080E100E0F2
:10316000207014F83C0905281AD12046FFF720FFEB
:103170000DA00AF089FF4FF0000084F83C000FE03A
:1031800010E0FFE74FF0000084F83C0008E04FF447
:103190008040074908604FF000000649C1F814025A
:1031A000606BA063002010BD73796E630A0000009D
:1031B00014121040001010402DE9F84304464FF05F
:1031C000000084F834006068806800F00E00064655
:1031D000042E23D104F108056068006800F0FF08A0
:1031E00000BF28460EF052FC2968A1EB0000002821
:1031F00000DC12E0E96801F10100E860686800F8AD
:103200000180286900F1010028612968E868884286
:1032100002D14FF00000E86000BF39E00C2E03D16E
:103220006068D0F8009033E0022E31D14FF00007F3
:103230002CE000BFE06A78B9236A1946636A184631
:10324000236B1A469047E062E06A10B94FF0000025
:103250000FE04FF00000A062A16A01F10100A0623E
:10326000606A405C0090E06AA0F10100E0624FF00B
:10327000010038B14FF0010084F834009DF80000DF
:103280006168086007F10100C0B20746102FD0DB6B
:10329000BDE8F88310B59E480068FFF78DFF10BDAC
:1032A0002DE9FF4104460F4616469A499A48206088
:1032B00004F108054FF02008C5F800802968084689
:1032C0000DF0E6FA68604FF00000A860E860286141
:1032D000686100BFA5F108052C4604F12005C5F87A
:1032E0000080296808460DF0D3FA68604FF00000AE
:1032F000A860E8602E6100BFA5F120052C4667603C
:1033000084F834004FF4964000904FF003008DF89D
:1033100005004FF000008DF804008DF806007F488E
:10332000029061680846694607F04CFE4FF00000C5
:103330008DF80E008DF80F004FF001008DF80C0095
:103340008DF80D006168084603A907F0FBFD616870
:103350000846012108F00CF86168084601220021A6
:1033600007F0F4FE616808460122114607F0EEFE00
:103370004FF018004FF0000100280ADA4FEA0172FE
:103380004FEA1262664B00F00F05A5F104055A558D
:1033900005E04FEA01724FEA1263624A135400BF1C
:1033A000204604B0BDE8F08170B504464FF0380007
:1033B0000DF076FA054622465B49FFF771FF054698
:1033C0005348056070BD10B504464FF001034FF03F
:1033D000F0024FF000014FF002000EF095F80123CB
:1033E000F022194602200EF08FF80023F02203216C
:1033F00001200EF089F80023F022042101200EF0B4
:1034000083F84FF018004FF0010101FA00F14FEA84
:1034100050124FF0E02303EB8202C2F8001100BF0C
:103420004FF0000010BD10B504464FF004034FF0FC
:10343000F0024FF000014FF002000EF065F8042397
:10344000F022012102200EF05FF84FF018004FF03B
:10345000010101FA00F1354A4FEA501342F82310F6
:1034600000BF4FF0000010BD2DE9F04707460E46A3
:1034700090464FF00000054625E007F1080406EBF2
:10348000050920460EF002FB002802DC4FF0000088
:1034900014E0A16801F10100A0606068405C89F857
:1034A0000000606900F1010060612168A068884245
:1034B00002D14FF00000A0604FF0010000B904E01D
:1034C00005F1010005464545D7D300BF2846BDE8B4
:1034D000F08710B5044604F108000EF0D7FA10BDCD
:1034E000014691F8340028B94FF000004A68106096
:1034F0004A6810600020704770B504460D46616848
:103500000846064A294607F051FF002070BD00001A
:103510007C00002044500110EC4F011000CB280C1F
:1035200018ED00E000E400E00010084080E100E059
:1035300030B58DB004460D462B46224632A101A877
:1035400005F0C4F801AA4FF47F01E0B20EF036F89E
:103550000DB030BD70B58AB041F2D4623049314807
:103560000BF090F830480068FDF703FCFFF797FB7D
:103570002D480068FEF771F800212C48FEF799F8F5
:10358000FFF75DF800212A48FEF793F8012129484A
:10359000FEF78FF84FF00000054606461BE00020BE
:1035A00007AB08AA09A9009023A00AF0C9FE0446A7
:1035B000002C0DDBBDF82400022809D1BDF8200045
:1035C00030B9BDF81C000A2802D106F101000646F8
:1035D00005F101000546192DE1DB0EB909F0CEFB1E
:1035E00000200A210222CDE9020200921346019234
:1035F000CDE9041012A201210FA00AF00DFEFEF782
:10360000ADF900200AB070BD7265636569766564C6
:10361000207369676E616C3A2025642025640A0076
:103620009928011000800020C800002038000020E8
:103630005000002060000020667776657200000070
:103640000000000070B5044600BF4FF0000020628B
:1036500000BF4FF0FF30A08247F6FF7060822082EB
:1036600040F2FF10A18860F3CB01A180618960F373
:10367000CB01618105E0A569A868A06128460DF02D
:1036800003F9A0690028F6D104F11800E06170BDCB
:1036900010B504464FF00000A06104F11800E0618D
:1036A0002046FFF7CFFF204610BD10B50446204648
:1036B000FFF7C8FF204610BD4189C1F3C801A1F53D
:1036C0008072FF3A0AD0D0F80A104160C1890181A6
:1036D00040F2FF11428961F3CB024281704710B57D
:1036E000B0F910408C4201DD0CB20482B0F91240F6
:1036F000944201DD14B24482B0F914409C4201DAD4
:103700001CB2848210BDF8B504460D46A888C0F3EB
:10371000090003462888C0F3C80002466888C0F341
:10372000090001462046FFF7DAFF6089C0F3C800B0
:10373000A0F58071FF3905D12868C4F80A00A8886F
:10374000E08103E0A888C0F30900E08100BF6A8837
:10375000C2F30902A2F101021046AA88C2F30902CB
:103760001146A1EB0002009200BF694604F120005F
:103770000DF081F8FF480078F0B139460C200DF0CB
:10378000A3F806000AD0304629680160A988818024
:103790004FF00001816000BF064601E04FF00000DD
:1037A000E1690860E069006800B9F8BDE069006897
:1037B00000F10800E06100BF00BFF6E770B5054604
:1037C0000C4604F1200105F120000DF054F8B4F985
:1037D00014000346B4F912000246B4F91000014681
:1037E0002846FFF77CFF2089C0F309012889C0F330
:1037F0000900814203DD2089C0F309002881DD48EA
:10380000007850B1A069E9690860E069E8614FF0AB
:103810000000A06104F11800E06170BD4FF00001EC
:1038200001618160416000F10401C1604FF0FF312E
:1038300001804FF0010181824FF0000181617047EA
:1038400070B50446606800B905E04FF4EA72CAA199
:10385000D0A005F05BF84FF00000A0604FF0FF3003
:1038600020804FF00000A0610DE02069006805464F
:10387000206930B121690846FFF717FF06460DF0B1
:1038800003F8256100BF20690028EED170BD10B596
:1038900003460DE059680846FFF70EFF58680068B8
:1038A0000446596818690860586818615C6000BF70
:1038B00058680028EED110BD10B504462046FFF729
:1038C000E6FF2046FFF7BCFF204610BD2DE9FF4173
:1038D00005460E4633E0306804462046FFF7ECFE0E
:1038E000B5F90000A188C1F3C801401AB5F9141058
:1038F000884221DD206830606846218A0391618A10
:103900000291A18A0191A188C1F3C801018000BF81
:10391000BDF90000BDF90810A0EB0100012803DD8E
:10392000286920602C6109E044B12046FFF7BDFE04
:1039300007460CF0A9FF01E0BDE8FF8100BF306839
:103940000028C8D100BFF7E710B50446A068E060C2
:10395000E0680068A060A06820B1A0680146204629
:10396000FFF7B4FF10BD10B5044604F10401204672
:10397000FFF7ACFF04F10400E060E0680068A060BD
:10398000A06820B1A06801462046FFF79FFF10BD48
:103990002DE9F04704460D462888C0F3C800B4F965
:1039A0000010884206D02888C0F3C8002080204636
:1039B000FFF7D9FF44E06888C0F30901A0680089D7
:1039C000C0F30900814203DD2046FFF7BDFF37E069
:1039D000A888C0F30901A068C088C0F3090081422B
:1039E00000DA30E0A16808462946FFF78CFE17E0B0
:1039F000A068006807463868A1680860A1680846A2
:103A00003946FFF7DBFE2FB13846FFF74EFE824600
:103A10000CF03AFFA06801462046FFF757FF00BFB1
:103A2000A068006848B1A888C0F30901A0680068D0
:103A3000C088C0F309008142DADA0020BDE8F087CF
:103A4000A0680028B7D100BF494624200CF03CFFF5
:103A50005FEA000804D04046FFF71AFE804601E006
:103A60004FF00000064656B94E48007820B1A069D4
:103A700001464DA00AF008FB4FF0FF30DEE7A069D9
:103A800000F10100A061A0683060E0680660E660B7
:103A900029463046FFF737FE0020CFE702464FF0B9
:103AA0000003184604E000F1010318460B681946AC
:103AB0000029F8D1704770B5054614461960216099
:103AC00008461A460BE0066806B909E00668304663
:103AD00016683246066806B902E006683046F2E724
:103AE00000BF16681E604FF00006166070BDF0B58E
:103AF0000646059D2C46284664E054B30F6847B33C
:103B0000C0B11768B7B117683F6AD1F800C0DCF8D8
:103B100020C067450EDD1768D3F800C0CCF80070F0
:103B20001F683F681F601F683F681760A0F10107AA
:103B3000384647E00F68D3F800C0CCF800701F6823
:103B40003F681F601F683F680F60A4F101073C4693
:103B500038E098B317688FB31768D3F800C0CCF873
:103B600000701F683F681F601F683F681760A0F102
:103B7000010724E0880000202E2E5C2E2E5C636F4F
:103B80006D6D6F6E5C7372635C626C6F622E6370DE
:103B90007000000021616374697665426C6F627326
:103BA0000000000020000020626C6F62732025641A
:103BB0000A686561702066756C6C000001E038462B
:103BC00000E0F0BD99E730B587B00446206908B938
:103BD00007B030BD2069014605AB06AA2046FFF7B5
:103BE0006AFF4FF00100054627E04FF00000049007
:103BF000039004A8029003A801900DE002AB05AA6F
:103C000006A920460095FFF772FF01AB05AA06A999
:103C100020460095FFF76BFF06980028EED1059827
:103C20000028EBD101990860029908600498069079
:103C3000039805904FEA4500054605980028D4D121
:103C40000698206100BFC3E770B50646306900B929
:103C500070BD35692C680EE0286A216A884200DB55
:103C600006E040F2CD12AFF2F00105A004F04EFEE6
:103C7000254628680446002CEED100BFE8E7000086
:103C8000692D3E6D6F6D656E74732E617265612076
:103C90003E3D206A2D3E6D6F6D656E74732E6172B0
:103CA000656100002DE9F04104460E46174639468D
:103CB000204601F05BFE04464FF007034FF01C0264
:103CC000FF4904F5D2700CF08FFEA0F5D2700446C7
:103CD0004FF0000004F51674A0774FF01400A062B6
:103CE0004FF0640020844FF0140060844FF0050012
:103CF000A0854FF00000606344F8B86C4FF00600F8
:103D0000E0854FF0000084F830004FF47A700CF03A
:103D1000BFFD20614FF00000A082A084E084A4F5E4
:103D2000167405460BE0C5EBC50204F5D27101EB34
:103D300082010846FFF784FD05F101000546072DC5
:103D4000F1DB2046BDE8F08110B50446D4F86812D6
:103D500008460CF095FD07231C22DA4904F5D270C1
:103D600004F092FF204601F040FE0446204610BDBC
:103D7000F0B506460B4614464FF000073D4639465F
:103D80003A4638462FE033F8117047B912B903EBC1
:103D900041073A4600F10107BFB238461BE0CAB1FD
:103DA00033F81170178001F1010733F8177057804D
:103DB00001F1020733F81770978001F1030733F818
:103DC0001770D78001F1040733F81770178102F1DB
:103DD0000A073A4600BF05F10107BFB23D4601F1AF
:103DE0000507BFB23946A542CDDBF0BD2DE9FE4F38
:103DF0000C461546A18862881144084601EBD07133
:103E00004FEA61010E462189E2881144084601EB20
:103E1000D0714FEA61010F46A9886A8811440846AB
:103E200001EBD0714FEA610188462989EA88114483
:103E3000084601EBD0714FEA61018946A7EB090101
:103E400008460EF070F9A8EB0601009008460EF047
:103E50006AF90190DDE900010DF05CF983469A49A9
:103E60000EF088F9994902900EF046F982465046C4
:103E70000EF04BF900B2BDE8FE8F2DE9F0418AB09B
:103E800006464FF0000738463C463D4628E051F8CC
:103E90002080274604F1010C1FFA8CFC64464DF883
:103EA000278000F101073B4614E051F823703F885A
:103EB00007F0070751F820C0BCF800C00CF0070C51
:103EC000674503D14FF001073D4600E006E003F1EE
:103ED00001073B46B2F900709F42E6DC00BF18467E
:103EE000B2F90070874201DD0A2CD0DB75B14FF0CA
:103EF0000007384606E05DF8207041F8207000F1B8
:103F000001073846A042F6DB27B217800AB0BDE8A9
:103F1000F0812DE9F04106461C46A4B18F88B1F826
:103F200002C067443D4607EBD5774FEA6707B2F812
:103F300004C0B2F80280C44460460CEBD07CA7EB0E
:103F40006C073BB213E00F89B1F806C067443D46E9
:103F500007EBD5774FEA6707B2F808C0B2F80680DA
:103F6000C44460460CEBD07CA7EB6C073BB2002B43
:103F700003DA584200B2BDE8F0811846FBE72DE9AC
:103F8000F04F85B082460D4616461F464FF00000A2
:103F900004460EE055F824000246394650460E9B72
:103FA000FFF7B7FF80B22DF8140004F1010080B2D2
:103FB0000446B44201DA0A2CECDB30E04FF0010099
:103FC0000446834623E0601E3DF810003DF81410BF
:103FD000884218DD3DF81480A4F101003DF810007E
:103FE0002DF81400A4F101002DF8108055F824904C
:103FF00055F8200045F82400A4F1010045F8209070
:104000004FF00000834604F1010080B20446B44240
:1040100001DA0A2CD7DBBBF1000F00D000E0CDE7BE
:1040200000BF05B0BDE8F08F2DE9F04F8CB014460D
:104030004FF0000A5046CDF828A0CDF82CA06BE038
:1040400051F820A0BAF804A051F820B0BBF802B093
:10405000AAEB0B0A51F820B0BBF808B051F820E0E9
:10406000BEF806E0ABEB0E0B0AFB0BF24FF0640A56
:1040700002FB0AFA4FF4FA7BBAFBFBF74FF4C87A5B
:1040800002FB0AFA4FF0640BBAFBFBFA0AEB020CD4
:104090004FF000031E462EE0984200D128E051F870
:1040A00023A0BAF804A051F823B0BBF802B0AAEBE1
:1040B0000B0A51F823B0BBF808B051F823E007E031
:1040C000BD3600105937001000003443560E4940E9
:1040D000BEF806E0ABEB0E0B0AFB0BF8474506D823
:1040E000E04504D806F1010A1FFA8AFA564600BFD5
:1040F00003F1010A5346B4F900A09A45CCDCDDF87F
:1041000028A0564505DD0A9691464FF0010ACDF8E4
:104110002CA000F1010A5046B4F900A082458FDCC2
:10412000DDF82CA0BAF1000F03D14FF0000AA4F87B
:1041300000A04FF0000A5046554638E051F820A044
:10414000BAF804A051F820B0BBF802B0AAEB0B0AF1
:1041500051F820B0BBF808B051F820E0BEF806E0F6
:10416000ABEB0E0B0AFB0BF24FF0640A02FB0AFAF0
:104170004FF4FA7BBAFBFBF74FF4C87A02FB0AFA5A
:104180004FF0640BBAFBFBFA0AEB020C4F450BD85D
:10419000E14509D851F820B0AA4605F1010E1FFAF1
:1041A0008EFE75464DF82AB000F1010A5046B4F96A
:1041B00000A0824501DD0A2DC0DB4FF0000A504609
:1041C00006E05DF820A041F820A000F1010A504669
:1041D000A842F6DB0FFA85FAA4F800A00CB0BDE8FF
:1041E000F08F70B503460C46D3F8685229464FF05D
:1041F0000005284616E000EB800531F8155025F043
:10420000070595420BD100EB800531F8155005F0FC
:10421000070545EA040500EB800621F8165000F179
:1042200001052846B3F86C528542E4DC70BD2DE9E7
:10423000F04782460D461646688800B20146A888B7
:1042400000B20746E88800B20246288900B28446D8
:10425000708800B20346B08800B28046F08800B291
:104260000446308900B2814699420EDBA24201DC4D
:10427000644505DD4A4508DCE14501DD944204DC86
:10428000A1EB080000B2BDE8F0878B420CDBA24234
:1042900001DC644505DD4A4506DCE14501DD94426B
:1042A00002DCD81B00B2EEE7A2420DDB994201DC32
:1042B000BB4205DD414507DCB84501DD8B4203DC2F
:1042C000A2EB090000B2DEE794420DDB994201DC6B
:1042D000BB4205DD414507DCB84501DD8B4203DC0F
:1042E000A4EB0C0000B2CEE747F6FF70CBE770B549
:1042F00004460D461646288828B1308818B128880B
:104300003188884201D1002070BD94F888020228CB
:1043100008D0288800F007000146204602F0A3F8E4
:1043200001280CD194F8880202280AD0308800F0C5
:1043300007000146204602F096F8012801D000202F
:10434000E2E7324629462046FFF771FFB4F88612AD
:10435000884201DC0120D7E70020D5E72DE9F04FA6
:1043600099B007464FF000001690B7F86C1201EBB9
:104370008101D7F8680200EB41008246D7F8680255
:10438000044648E004F10A0006463FE03246214672
:104390003846FFF7ACFF38B32088072816DC308892
:1043A000072813DC169800F1010080B216901698C9
:1043B0004FEAC0404FEA10408146208840EA090099
:1043C0002080308840EA090030801CE020880728DF
:1043D0000BDD3088072808DC208820F007008146A4
:1043E000308840EA090030800DE0308807280ADD77
:1043F0002088072807DC308820F0070081462088C5
:1044000040EA0900208006F10A0006465645BDD361
:1044100004F10A0004465445B4D3D7F868020446B0
:104420002BE02088072800DC24E0208820F007000B
:10443000814604F10A00064619E03088072800DCAE
:1044400012E0308820F007001790179881450AD0B5
:10445000324621463846FFF74AFF20B149463846E2
:10446000179AFFF7BEFE00BF06F10A000646564542
:10447000E3D300BF04F10A0004465445D1D3D7F872
:10448000680200F577700B904FF0010BD7F870823F
:104490004FF00000A7F874027CE14FEACB404FEAEE
:1044A000104081464FF000001890D7F8680204468B
:1044B00011E0208820F00700484509D1BDF96010BF
:1044C00088B200F1010000B2189001A840F8214024
:1044D00004F10A000446544503D2BDF960000A28DD
:1044E000E7DB18AA01A93846FFF79EFDBDF9600079
:1044F000022800DA4AE14FF0000005460C900D90CA
:10450000129013901490159049E001A9159851F854
:104510002000408851F825104988884200DD159513
:1045200001A9139851F82000C08851F82510C988B6
:10453000884200DD139501A9149851F82000808865
:1045400051F825108988884200DA149501A912983B
:1045500051F82000008951F825100989884200DAB5
:10456000129501A850F82500808801A951F825105E
:104570004988A0EB01010D9808440D9001A850F85E
:104580002500008901A951F82510C988A0EB010177
:104590000C9808440C9005F1010000B20546BDF9E5
:1045A00060008542B1DBBDF960100D9890FBF1F021
:1045B0000D90BDF960100C9890FBF1F00C9001A9E2
:1045C000159851F820004088A8F80200149851F876
:1045D00020008088A8F80400139851F82000C088B3
:1045E000A8F80600129851F820000089A8F80800E1
:1045F000149851F82000818801AA159852F82000DB
:104600004088A1EB00004FF0640100FB01F00F9027
:104610000D990F9890FBF1F00F9001A9129851F8A5
:1046200020000189139852F82000C088A1EB0000F7
:104630004FF0640100FB01F00E900C990E9890FB76
:10464000F1F00E90DDE90E1088420DDD012001A988
:104650000090159851F820000346BDF8600082B222
:104660003846FFF78CFC0CE0002001A9009013985D
:1046700051F820000346BDF8600082B23846FFF7CB
:104680007EFC18AA01A93846FFF7F7FBBDF96000C8
:10469000022800DA7AE0BDF96000052802DD4FF05B
:1046A000050018904FF000000546119013E0119896
:1046B0004FEAC0404FEA1040119001A850F8250081
:1046C000008800F00700119940EA0100119005F1FF
:1046D000010000B20546BDF960008542E7DBBDF888
:1046E0006000A0F1010000B205464FF000001090FC
:1046F00019E010984FEAC0404FEA1040109001A80E
:1047000050F82500008800F00700109940EA0100E9
:1047100010904FF0000001A951F825100880A5F174
:10472000010000B20546002DE3DADDE910108842F1
:1047300011DA1198A8F80000BDF96000401E01AB25
:1047400053F820000246019801463846FFF74EFB19
:10475000A8F80A0010E01098A8F800000198024696
:10476000BDF96000401E01AB53F8200001463846F9
:10477000FFF73CFBA8F80A0008F10C008046B7F8E8
:10478000740200F10100A7F8740200BF0BF10100F0
:1047900000B283461698834503DC0B988045FFF4EE
:1047A0007CAED7F8680204461FE097F88802032819
:1047B00006D12088072815DD4FF00000208011E089
:1047C000208807280BDC97F88802022807D0208869
:1047D000C0B20146384601F046FE012802D14FF032
:1047E0000000208004F10A0004465445DDD319B0CE
:1047F000BDE8F08F2DE9FC4F96464FF000000446CF
:104800000246009069E031F8120000B95DE002F163
:10481000010031F8105002F1020031F8106002F18D
:10482000030031F8107002F1040031F810C004F1F7
:10483000010080B2019002F1050080B2034640E021
:1048400031F8130000B933E003F1010031F81080B2
:1048500003F1020031F8109003F1030031F810A0C9
:1048600003F1040031F810B045450FDC4E450DDB77
:1048700057450BDCDC4509DB4FF0000021F8130045
:10488000009800F1010080B2009010E0A8450EDC15
:10489000B1450CDBBA450ADCE34508DB4FF000000C
:1048A00021F81200009800F1010080B2009000BFD2
:1048B000019800F1010080B2019003F1050080B27F
:1048C000034601987045BBDB00BF04F1010080B2D4
:1048D000044602F1050080B20246744593DB00985D
:1048E000BDE8FC8F2DE9F74F83B082464FF0000002
:1048F000029003460090C2E031F8130000B9B5E021
:1049000003F1010031F810C003F1020031F810800A
:1049100003F1030031F8109003F1040031F810B0F6
:10492000029800F1010080B2019003F1050080B20D
:10493000024694E031F8120000B987E002F101006C
:1049400031F8104002F1020031F8105002F103007A
:1049500031F8106002F1040031F8107064451BDC7E
:10496000ACEB0500BAF884E2704515DCB14501DC1A
:104970005E4503DDB9450FDC5F450DDC03F1010049
:1049800021F810404FF0000021F81200009800F1CB
:10499000010080B2009058E045451BDBA4EB080005
:1049A000BAF884E2704515DCB14501DC5E4503DDF3
:1049B000B9450FDC5F450DDC03F1020021F8105012
:1049C0004FF0000021F81200009800F1010080B2C1
:1049D00000903AE04E451BDCA9EB0700BAF884E2F0
:1049E000704515DCA44501DC444503DDAC450FDC16
:1049F00045450DDC03F1030021F810604FF0000085
:104A000021F81200009800F1010080B200901CE033
:104A10005F451ADBA6EB0B00BAF884E2704514DCA4
:104A2000A44501DC444503DDAC450EDC45450CDC0A
:104A300003F1040021F810704FF0000021F812007B
:104A4000009800F1010080B2009000BF019800F1D1
:104A5000010080B2019002F1050080B20246DDF84B
:104A600014E001987045FFF665AF00BF029800F1B1
:104A7000010080B2029003F1050080B20346DDF828
:104A800014E002987045FFF637AF009806B0BDE815
:104A9000F08F70B505464FF00000044614E0C4EBFB
:104AA000C40205F5D27101EB82010846FEF7EFFE64
:104AB000C4EBC40205F5D27101EB82010846FFF791
:104AC00082F804F101000446072CE8DB70BD2DE9F3
:104AD000FC4107460D4616461C46DDF820809DF831
:104AE000000065F302008DF80000BDF8000066F3D9
:104AF000CB00ADF80000ADF8024004EB080080B236
:104B0000ADF80400A5F10101C1EBC10207F5D271B6
:104B100001EB820108466946FEF73AFFBDE8FC81D9
:104B20002DE9F04F8BB006464FF0FF3080464FF036
:104B300000000A90054606A84FF000010180C180E0
:104B40004180818000BF08460590FAE000BFD6F89A
:104B5000A011084606A901F0A0FC0028F7D0BDF876
:104B600018004FF6FE71884200DBEBE00598002844
:104B700000DAE6E0BDF8180050BB4FF6FF70089071
:104B80004FF0000009908DB1AAEB0700401C80B2E5
:104B90000090781E80B203461FFA88F2E9B23046D0
:104BA000FFF795FF05904FF00000054608F1010062
:104BB00080460A9800F101010A91052807D10121D8
:104BC000FE4800680BF06EF84FF000000A90B8E065
:104BD000BDF8180000F00704BDF91C000490BDF9F1
:104BE0001A00039004984FEAC030049003984FEAEB
:104BF000C0300390BDF81E000290029810B94FF02B
:104C0000010002900299049890FBF1F00490DDE914
:104C1000021090FBF1F00390601E00EB800106F1A2
:104C2000E00050F821100498814276DA601E00EB13
:104C3000800106F1E00000EB8100416804988142A8
:104C40006BDD601E00EB800106F1E00000EB8100EF
:104C500081680398814260DA601E00EB800106F1F2
:104C6000E00000EB8100C1680398814255DDD6F871
:104C70006C110298814250DCBDF818004FEAE00048
:104C8000ADF81800BDF818900898A9EB00000528A9
:104C900005D80998A04202D14FF0010001E04FF081
:104CA000000083462DB9BBF1000F02D02546089FB6
:104CB00017E0B5B1A54202D1BBF1000F11D1AAEBAB
:104CC0000700401C80B20090781E80B203461FFA95
:104CD00088F2E9B23046FFF7FAFE05904FF0000087
:104CE000054625B1BBF1000F01D0CA4610E07DB9E1
:104CF000BBF1000F0CD102200090A9F1010080B29D
:104D000003461FFA88F2E1B23046FFF7E0FE059055
:104D10000994CDF8209013E0FFE78DB1AAEB0700CE
:104D2000401C80B20090781E80B203461FFA88F2C1
:104D3000E9B23046FFF7CBFE05904FF00000054684
:104D400000BF03E700BF3046FFF7A3FEBDF8180021
:104D5000A0F57F41FE3903D1481E0BB0BDE8F08FAE
:104D60000020FAE72DE9F04F87B004462046FFF710
:104D7000D7FE00281BDA4FF000050BE0C5EBC5029B
:104D800004F5D27101EB82010846FEF759FD05F1E9
:104D900001000546072DF1D34FF00000A4F86C0286
:104DA000A4F874024FF0FF3007B0BDE8F08F4FF069
:104DB00000094FF0010084F876024FF00000C4F8BB
:104DC0008C020546A4F86C02A4F87402A7E094F8DB
:104DD0008802022806D0681CC1B2204601F043FBBD
:104DE000012802D14FF0010001E04FF0000082469F
:104DF000B4F86C0200EB800006464FF000008346DA
:104E0000D4F8680200EB46000690B4F86C020590F6
:104E1000C5EBC50104F5D27000EB810000690746BF
:104E200056E0BAF1000F03D000BF386A0A2808DB49
:104E3000BAF1000F06D100BF386AD4F88012884258
:104E400000DA40E001A8398A0491798A0391B98A8D
:104E50000291B988C1F3C801018000BFBDF8040008
:104E6000BDF80C10401A012800DC2CE005F101000F
:104E700004F51A74216821F81600BDF8101006F127
:104E80000100226822F81010BDF8081006F1020097
:104E9000226822F81010BDF80C1006F103002268F9
:104EA00022F81010BDF8041006F10400226822F860
:104EB0001010A08800F10100A080A4F51A7406F17A
:104EC0000500064600BF386807460BF1010083461F
:104ED0004FB1B4F86C02B4F87812884203DAB4F82F
:104EE0007A0258459DD8BAF1000F15D112E0B4F8F6
:104EF0006C120598081A80B2024620460699FFF700
:104F0000F1FC8046B8F1000F00D104E009EB080085
:104F100080B28146EBE700BF05F101000546072D91
:104F2000FFF455AFB4F86C020246D4F868020146AB
:104F30002046FFF75FFC484480B2814694F888021F
:104F400060B1B4F86C1201EB8101D4F8680200EB97
:104F50004100C4F870022046FFF700FAB9F1000FD3
:104F600002D194F8880278B1B4F86C020246D4F801
:104F7000680201462046FEF7FBFE8046B4F86C024C
:104F8000A0EB0800A4F86C024FF00000A4F87C022B
:104F9000A4F87E0284F8760205460BE0C5EBC50254
:104FA00004F5D27101EB82010846FEF749FC05F1D8
:104FB00001000546072DF1D30020F5E6C8000020CA
:104FC0002DE9F04703460F46944639464FF0080056
:104FD0008046BCF1120F02D20020BDE8F08793F8A2
:104FE000760228B9B3F87E02B3F87492484501DB23
:104FF0000020F2E7B3F87C0260B9B3F87E0248B94A
:105000004AF65520088008F1010080B2804601F17F
:10501000020001464AF65620088003F51C73B3F8D7
:105020000E9009EB4909186830F829000246144629
:105030008A80B3F80E9009EB4909186800EB8900E3
:105040008088B3F80EA00AEB4A0AD3F8009009EB67
:105050008A09B9F80290A0EB090085B204EB0500BB
:1050600080B204464D81B3F80E9009EB49091868E7
:1050700000EB89000089B3F80EA00AEB4A0AD3F8C6
:10508000009009EB8A09B9F80690A0EB090086B2F6
:1050900004EB060080B204468E81B3F80EA00AEB42
:1050A0004A0AD3F8009009EB8A09B9F80290284619
:1050B00005EBD07A09EB6A091FFA89F94A4604EB35
:1050C000020080B20446CA80B3F80EA00AEB4A0A76
:1050D000D3F8009009EB8A09B9F80690304606EB40
:1050E000D07A09EB6A091FFA89F94A4604EB0200F3
:1050F00080B204460A81B3F80E9009EB490918689A
:1051000000EB8900408980B2024604EB020080B2C5
:105110000446CA814C80D88900F10100D881A3F5EA
:105120001C734FEA48404FEA104056E72DE9F74F0D
:1051300081B004468B465D464FF007000090B4F8FE
:105140007C0200EB800007460398102803D2002061
:1051500004B0BDE8F08FB4F87C02B4F86C12884259
:1051600008DB94F8880228B159462046039AFFF7D5
:1051700027FFEDE794F8760228B9B4F87C02B4F87A
:105180006C12884201DB0020E2E7B4F87C0250B9DF
:105190004AF655202880009800F1010080B2009066
:1051A00005F1020005464AF65520288004F51A74D8
:1051B000206830F817000646B046AE8007F10200BE
:1051C000216831F8101007F10100226832F8100050
:1051D000A1EB00001FFA80F908EB090080B28046BD
:1051E000A5F80A9007F10400216831F8101007F1C2
:1051F0000300226832F81000A1EB00001FFA80FAC9
:1052000008EB0A0080B28046A5F80CA007F1010166
:10521000226832F81110484609EBD07201EB6201A6
:1052200089B20E4608EB060080B28046EE8007F198
:105230000301226832F8111050460AEBD07201EBDC
:10524000620189B20E4608EB060080B280462E81CC
:10525000A5F80280A08A00F10100A082A4F51A74CA
:1052600000984FEA40404FEA104071E72DE9F043C3
:1052700002460F46002F4FD1D2F88C0218B1D2F857
:105280008C02BDE8F0834FF000018C461AE001EB80
:105290008108D2F8680200EB48039888B3F80280CE
:1052A000A0EB0800B3F80880B3F80690A8EB090853
:1052B00000FB08F6664502D9B446C2F88C3201F10B
:1052C00001000146B2F86C028842E0DC4FF00000B9
:1052D00001461AE001EB4108D2F8700200EB8804A5
:1052E000A088B4F80280A0EB0800B4F80880B4F8F5
:1052F0000690A8EB090800FB08F6664502D9B446FB
:10530000C2F88C4201F101000146B2F874028842F1
:10531000E0DCD2F88C02B4E74FF000010D4610E05B
:10532000D2F8680230F81500B84204D1D2F8680209
:1053300000EB4500A5E701F10100014605F105007C
:105340000546B2F86C028842EADC002099E730B5E5
:10535000039CD0F868520D60B0F86C521560D0F81C
:1053600070521D60B0F87452256030BD30B50446EF
:10537000039D642902DCA4F8781203E04FF0640076
:10538000A4F87802A4F87A22C4F8803284F888520B
:10539000002030BD2DE9FF4F83B00D4692461E46DA
:1053A000DDF840B04FF000000190804647F6FF70F6
:1053B00000904CE04FF00000044642E04FF0000047
:1053C0008146029019E055F8290056F824108842C9
:1053D0000BD055F82900008800F0070056F824107B
:1053E000098801F00701884203D14FF001000290C3
:1053F00005E009F1010000B28146D145E3DB00BFC1
:10540000029800B119E056F82400024655F8280029
:1054100001460398FEF70BFF074600998F420BDA0F
:10542000009755F828101198016056F8241012982A
:1054300001604FF00100019000BF04F1010000B2D3
:1054400004465C45BADB08F1010000B28046D04555
:10545000B0DB019807B0BDE8F08F70472DE9F04749
:1054600004460D461646DDE9098C089FAC4201DA78
:10547000A24600E0AA46D146B14501DACA4600E09C
:10548000B246D146AC4201DDA24600E0AA465046F3
:10549000B04201DD824600E0B246504688F8000086
:1054A000A0EB090A0AF0FF01322806DD4FEA012AC3
:1054B0009AFBF0FA87F800A003E04FF0000A87F8A3
:1054C00000A000B149B94FF0000A87F800A083F8A6
:1054D00000A08CF800A0BDE8F087844206D1A5EBBF
:1054E000060A4FEA0A2A9AFBF1F212E0854208D135
:1054F000A6EB040A4FEA0A2A9AFBF1FA0AF50072AF
:1055000007E0A4EB050A4FEA0A2A9AFBF1FA0AF52A
:105510008062002A02DA02F5C06A52464FF0060A9B
:1055200092FBFAFA52461A708CF8001000BFD2E7CC
:105530000346FF2B02D94FF0FF000346FF2902D993
:105540004FF0FF000146FF2A02D94FF0FF0002464C
:10555000180440EA01201043704710B5C4B21C6023
:105560004FEA10242046C4B214604FEA10242046AB
:10557000C4B20C6010BD3EB505460C466B4601AA90
:1055800002A92846FFF7E9FF0298204402900198FB
:1055900020440190009820440090DDE90021029809
:1055A000FFF7C6FF3EBD2DE9FE4306466B4601AA46
:1055B00002A93046FFF7D1FFDDE90110884201D989
:1055C000029800E0019805460098854201D92846D6
:1055D00000E00098054628460CF0ACFD0746394629
:1055E00017480CF089FD044602980CF0A3FD804694
:1055F00021460CF0BFFD07460CF08EFDC0B20290B4
:1056000001980CF097FD804621460CF0B3FD07464B
:105610000CF082FDC0B2019000980CF08BFD80462A
:1056200021460CF0A7FD07460CF076FDC0B20090B5
:10563000DDE900210298FFF77BFFBDE8FE83000053
:1056400000007F43F8B504460D4615B14FF0000049
:105650002062E06918B3E0690168206A81421FDDB9
:10566000226A1146E26910460CF064FA408880B262
:105670000646226A1146E26910460CF05BFA008881
:1056800080B207460420034632463946009004F1B2
:1056900008000AF06BFF206A00F10100206201E0BF
:1056A0000020F8BD4FF0000060612061608940F08B
:1056B0000100B4F90420216800FB0210218941F0A7
:1056C00001010844A0614FF00100EAE770B504460B
:1056D0000D46164620460AF057FF044604F108001E
:1056E0000AF04BFFA0F108000446D5E90001C4E927
:1056F00000013068A0607068E0604FF00000E06179
:105700004FF001012046FFF79DFF204670BD70B5A8
:1057100004460D46164620460AF036FF044604F1BC
:1057200008000AF02AFFA0F108000446D5E90001AC
:10573000C4E90001E6614FF001012046FFF782FF56
:10574000204670BD2DE9F04F03460D464FF0260070
:10575000824678E09889D3F810B083450DD34FF096
:1057600000001861586900F102005861B3F90400A3
:10577000D3F818B00BEB40009861D889D3F814B077
:10578000834502D30020BDE8F08FD3F810B09869AC
:1057900010F80B101869A0F10100D3F818B01BF82D
:1057A0000060B3F90400C0F10000D3F810B0584411
:1057B000D3F818B01BF80070B3F90400C0F1000072
:1057C000D3F810B05844A0F10100D3F818B01BF87A
:1057D000004052B1117006EB070B58460BEBD07B23
:1057E000CBF3470B82F801B094702DB301EB0600A8
:1057F00020448446D44504DA186900F10200186197
:1058000021E0A1EB06004FEAC03090FBFCF801EB71
:10581000070020448446D44504DA186900F10200E8
:10582000186110E0A4EB07004FEAC03090FBFCF9D0
:10583000C5F80080C5F80490186900F102001861ED
:105840004FF001009FE785E770B504460D46164608
:10585000E069A0B1324629462046FFF773FF08B140
:10586000012070BD00212046FFF7ECFE28B1324632
:1058700029462046FFF766FFF3E70020F1E73246AE
:1058800029462046FFF75EFFEBE72DE9F843814606
:105890000D4668464FF0000181704170017000BFF5
:1058A0004FF001014846FFF7CDFE4FF000000446DF
:1058B0008046074606460EE09DF800003044064646
:1058C0009DF80100384407469DF802004044804698
:1058D00004F1010004466A4600214846FFF7B4FF80
:1058E0000028E9D1B6FBF4F00646B7FBF4F0074612
:1058F000B8FBF4F0804605B12C60300440EA072084
:1059000040EA0800BDE8F88370B504460D46294614
:10591000FF480CF02FFC06460CF0FEFBC4F86C01AF
:10592000D4F86C0118B94FF00100C4F86C0170BDD7
:1059300010B502464FF00003184613E029B94FF0A6
:105940000003D2F87041235409E0D2F870311B5C97
:105950008B4204D14FF00003D2F87041235400F180
:1059600001031846B0F5805FE8DB10BD70B5044652
:105970000E464FF007034FF02002E64920460BF099
:1059800033F80446C4F870614FF0E001204603F09C
:10599000FEF88C2104F1E00003F0F9F80021204624
:1059A000FFF7C6FFDC492046FFF7AEFF4FF07A5005
:1059B000C4F87C014FF4FA60C4F87401D748C4F805
:1059C00078014FF07F50C4F880014FF00000054689
:1059D00007E0D34904F5C27040F8251005F1010035
:1059E0000546072DF5DB204670BD70472DE9F047D1
:1059F00005460C46012C01DB072C01DDBDE8F087D4
:105A0000A4F10100C0B2044605EB4410C0690128AE
:105A10000BD1D5F88021114605F5C27252F8242029
:105A200010460CF0A7FB064603E005F5C27050F8DF
:105A3000246005EB4411096805EB44129268891A49
:105A400008460CF070FB824631460CF093FB804612
:105A500005EB4411896808460CF065FB8146414618
:105A60000CF035FB07460CF050FB04EB840205F10B
:105A7000E00141F8220005EB4411496805EB4412AE
:105A80009268A1EB020108460CF04DFB82463146BC
:105A90000CF070FB804605EB4411896808460CF059
:105AA00042FB814641460CF012FB07460CF02DFBF1
:105AB00004EB840205F1E00101EB8201486005EB93
:105AC0004411C96805EB44125269A1EB0201084672
:105AD0000CF029FB824631460CF04CFB804605EB6E
