:020000041400E6
:10000000F0790020D900001400F002F800F08AF81E
:100010000AA090E8000C82448344AAF10107DA4563
:1000200001D100F07FF8AFF2090EBAE80F0013F02B
:10003000010F18BFFB1A43F001031847F40000003A
:10004000240100000A444FF0000C10F8013B13F0AB
:10005000070408BF10F8014B1D1108BF10F8015B21
:10006000641E05D010F8016B641E01F8016BF9D114
:1000700013F0080F1EBF10F8014BAD1C0C1B09D16B
:100080006D1E58BF01F801CBFAD505E014F8016BDD
:1000900001F8016B6D1EF9D59142D6D3704700006F
:1000A000103A24BF78C878C1FAD8520724BF30C8A4
:1000B00030C144BF04680C60704700000023002476
:1000C00000250026103A28BF78C1FBD8520728BF68
:1000D00030C148BF0B607047DFF82C00016841F465
:1000E0007001016009480047FEE7FEE7FEE7FEE712
:1000F000FEE7FEE7FEE7FEE7FEE7FEE70448054908
:10010000054A064B7047000088ED00E00900001426
:10011000F00B0020F0790020F0730020F073002035
:100120007046704740F2DF1CC1F2000C60470000CF
:100130006001001400000010487A0100A0000014C3
:10014000A87B011400000020B80100004400001446
:10015000F47B0114B801002038780000BC000014C2
:10016000F0790020D9000014E9000014EB0000141D
:10017000ED000014EF000014F10000145A5A5A5A0E
:10018000000000000000000000000000F300001468
:10019000F500001400000000F7000014F90000143E
:1001A000FB0000147DB10010FB000014FB000014E4
:1001B000FB000014FB000014FB000014FB00001403
:1001C0008DBD0010FB000014FB000014FB000014A8
:1001D000FB000014FB000014FB000014FB000014E3
:1001E000FB000014FB000014E15A0010FB00001497
:1001F000FB000014FB000014FB0000143161001030
:10020000CD650010FB000014FB000014FB0000147F
:10021000FB000014FB000014FB000014FB000014A2
:10022000FB000014FB000014FB000014FB00001492
:10023000FB000014FB000014FB000014FB00001482
:10024000FB000014FB000014FB000014FB00001472
:1002500000000000FB000014FB000014FB00001471
:1002600000000000FB000014FB000014FB00001461
:10027000FB0000146E2909F04683702909F08E8472
:10028000662912F0C884652912F0C584672912F026
:10029000C2846129AFF3008003681B0A28BF41F0C4
:1002A0008001692908F03287642908F02F877529B1
:1002B00008F02C876F2909F01984782909F05A84ED
:1002C000E92909F0B183E42909F0AE83F52909F0A1
:1002D000AB83EF2909F01684F82909F059840368E3
:1002E000DB0928BF41F08001632909F019877329D0
:1002F00009F01E87E32909F02987F32909F02E87E1
:10030000002070471FB512F068FC9DE8030009F05B
:10031000FBF909F08BFF04000020002111F0D8FF49
:10032000401C60600020002111F0BCFFE06009F07B
:10033000A3F91FBD10B5002011F057F810BD09F04A
:1003400047FF1146FFF7DEFF00F01AF80AF022F827
:1003500003B4FFF7EFFF03BC09F04CFC30B58DB0E0
:1003600004460D462B46224618A101A808F0B8FE07
:1003700001AA4FF47F01E0B211F004FE0DB030BDD0
:1003800010B540F684434FF4B752164916480EF0A4
:100390003DFE1648006800F0B0F905F024FE134851
:1003A000006800F01EFE0021114800F046FE01F03A
:1003B0000EFB00210F4800F040FE01210E4800F026
:1003C0003CFE00F08BFF002010BD000072656365ED
:1003D00069766564207369676E616C3A20256420D4
:1003E00025640A00BA2A011000800020F8000020CD
:1003F0003000002058000020480000200146FF4A3D
:10040000086810604FF00000704730B58BB04FF0B7
:100410000100044619E02246F9A102A808F060FE96
:10042000002301AA0AA902A80EF04EFC0546002DE1
:1004300002DA28460BB030BDE1B2F448019A0068F8
:1004400004F07DFC04F101000446072CE3DDEF48D5
:10045000006804F08DFCEE48006804F0D8FD002030
:10046000E8E770B504460D46207853280CD1A07AF1
:10047000A0F13000C0B20646286802463146E34883
:10048000006804F021FD08E020784D2805D1286897
:100490000146DE48006803F07DFF01F013F828B143
:1004A000DA48006804F064FC01F015F870BD38B556
:1004B00004460D464FF000026946D6A00EF004FC3B
:1004C000D2480099006804F00DFD38BD38B50446E7
:1004D0000D464FF00002D649D6A00EF0F5FBD448E9
:1004E0000088009068460EF01FF838BD10B5B6B011
:1004F0002DA80EF059FF4FF0010004463EE02246C1
:10050000BFA125A808F0ECFD2246CEA10CA808F05A
:10051000E7FD00202DA920228123CDE900210290B2
:100520000CAA012125A80EF035FB2246CAA125A858
:1005300008F0D6FD2246CD490CA808F0D1FD0020D8
:1005400001460290CA4814230CAACDE90010811577
:1005500025A80EF01FFB00220BA925A80EF0B4FB66
:10056000E1B2AA480B9A006804F0AEFCAFF20D119C
:1005700025A80EF0FFF804F101000446072CBEDDAB
:1005800000204FF020410290BA481423B74A583255
:10059000CDE900104FF48071B7A00EF0FBFAAFF276
:1005A0003D11B5A00EF0E6F800204FF0404102905A
:1005B000B5481423AD4AB832CDE900100021B3A0EC
:1005C0000EF0E8FA002001210B46B64ACDE90010F2
:1005D0000146B5A00EF0DEFA002040F6C411042357
:1005E000B04A6432CDE9001099018AA00EF0D2FA27
:1005F000AFF2451187A00EF0BDF8002040F2EE21C9
:100600000223A84AF032CDE90010D90189A00EF0EA
:10061000C1FAAFF2471187A00EF0ACF800204FF4FA
:100620007A710223A44ACDE900100146A3A00EF07E
:10063000B1FA00204FF47A7102239F4A4832CDE983
:1006400000100146A0A00EF0A5FA002014210423FA
:10065000994AA832CDE900100146A2A00EF09AFAFC
:10066000002209A995A00EF02FFB002208A996A050
:100670000EF02AFB002207A99AA00EF025FB00220B
:100680000AA989A00EF020FB002205A97AA00EF08D
:100690001BFB002204A97DA00EF016FB002206A978
:1006A0005CA00EF011FB0022614962A00EF00CFB71
:1006B0009DF828000090BDF82020BDF82410534874
:1006C000079B006803F08BFC50480599006803F015
:1006D00061FE4E480499006804F007FC4B480699F7
:1006E000006804F0FFFB52480088359035A80DF0F3
:1006F0001BFFFFF78AFE36B010BD70B506464FF0FF
:10070000040010F0B1FD044604F0FEFB044640482E
:1007100004604FF4247010F0A7FD054675480246AA
:100720003B480168284602F0FDF805463748056059
:10073000714930460FF0FAFC002270A1724800683F
:100740000FF0F8FE714908800846B0F90000002853
:1007500002DA4FF0FF3070BDFFF7C8FE0020FAE765
:100760002DE9F04F95B006460C4617469846DDE950
:100770001FABDDF878900BA83988B8F80020B9F8DD
:100780000030BAF800C0018042808380A0F806C023
:1007900000BF2078012802DB2078072804DD4FF015
:1007A000FF3015B0BDE8F08F5948006828B959A04E
:1007B0000EF028F96FF00100F3E7207803460BAA4A
:1007C00053491248006804F01FF8207801460F488A
:1007D000006804F0A9FA05463068E8610BAA4C49A4
:1007E00002A803F0B9FC002102A803F094FDA8615F
:1007F0002078024602A10DA89AE000000000002027
:100800007369676E61747572652564000C00002061
:10081000080000205369676E617475726520746505
:10082000616368207468726573686F6C64000000AF
:10083000100000204C4544206272696768746E6540
:1008400073730000436F6C6F72207369676E61741D
:1008500075726520256400005369676E6174757256
:10086000652025642072616E676500006442011096
:10087000000004409999B93F4D696E206272696722
:1008800068746E6573730000CCCCFC3F436F6C6F73
:100890007220636F6465206D756C7469706C696536
:1008A0007200000078430110436F6C6F7220636F19
:1008B0006465206D6F6465000C4501104D61782002
:1008C000626C6F636B7300004D617820626C6F63C4
:1008D0006B7320706572207369676E6174757265E1
:1008E000000000004D696E20626C6F636B206172C6
:1008F00065610000001009109C4101106765745289
:100900004C534672616D6500FC000020040000201D
:100910001C0100204E6F20726177206672616D6548
:1009200020696E206D656D6F7279210A00000000EC
:1009300008F0D6FB00202B462022812100900DA834
:100940000EF0F7F9FFF761FDFAA00EF05BF8012158
:10095000584600F0CAFD002023E72DE9F04F8FB084
:1009600004460F4690461D46F648814615B90FB01D
:10097000BDE8F08F0020B222CDE90A020C900D9064
:1009800002200021CDE90610CDE90810CDE90210C2
:10099000CDE90410412064234FF49032CDE90010DA
:1009A0004946284610F00BFA064600BF20684FEA79
:1009B00080008246A068834609EB0601084652463D
:1009C000594608F055FD00BF206880004008824667
:1009D000B2200221CDE90B0ACDE909180846C82149
:1009E0000222CDE90707CDE905214FF4A07141238B
:1009F0001898CDE90130CDE90321D34864234FF4A1
:100A0000903249460090284610F0D9F900BF20687E
:100A100006EB8000824652464946284610F0E3F92C
:100A200000BFA4E72DE9F04F97B007460C4690466B
:100A30009946DDF880A00BAD4FF0000B58462860BA
:100A40000BF11000686068680146C04A4FF004006E
:100A500010F0BFFCA86000BF2078012802DB2078DE
:100A6000072807DD0BA811F0EDFC4FF0FF3017B0A1
:100A7000BDE8F08FB648006848B9AFF268100DF0D5
:100A8000C1FF0BA811F0DEFC6FF00100EFE716A824
:100A9000B8F8003019B2B9F800301AB201804280BB
:100AA00000BF054620780BAB2A46A9490090A9480B
:100AB000006804F008F920780146A648006804F0B0
:100AC00033F906463868F0610BAAA14902A803F081
:100AD00064FB002102A803F01EFCB0610320534612
:100AE0000422114600900BA8FFF737FF207802463A
:100AF000AFF2F4210EA808F0F3FA002033462022CA
:100B0000812100900EA80EF014F9FFF77EFC89A059
:100B10000DF078FF0121504600F0E7FC0BA811F022
:100B200091FC0020A3E770B592B004460D4602A8E0
:100B30000EF03AFC2078012802DB2078072803DD3C
:100B40004FF0FF3012B070BD202102A808F029FD3F
:100B500020780246AFF258310AA808F0C1FA002006
:100B600002AB2022812100900AA80EF0E2F806468E
:100B7000FFF74BFCFFF749FC0121284600F0B5FCCC
:100B80003046DFE770B592B0064602A80EF00CFCC6
:100B9000202102A808F005FD4FF00100044617E0EF
:100BA0002246AFF2A4310AA808F09AFA002002AB5C
:100BB0002022812100900AA80EF0BBF80546002DE6
:100BC00002DA284612B070BD04F10100C0B204463A
:100BD000072CE5DDFFF719FC0121304600F085FC0C
:100BE0000020EFE7F0B589B004460D4616464FF0F9
:100BF000FF3007904FF00100089008A80CF090FE1D
:100C0000071E02DA384609B0F0BDA6B1002007AAD7
:100C1000CDE903020590069004200346CDE90105C5
:100C200000944D48B0F9002000214C4800680FF0B6
:100C300053FC0798E7E700200422CDE90250134651
:100C4000CDE9004204904448B0F900200121434816
:100C500000680FF041FC0020D5E72DE9F04F8BB084
:100C600082460F463E480A903E48804635488146B7
:100C7000A8EB000005464FF000004FF0B102CDE9AF
:100C80000602089009904FF002004FF00001CDE9F4
:100C90000210CDE904104FF041004FF064032A46E2
:100CA000CDE900104946504610F089F804462E4818
:100CB000006804F0ACF9012240460A99FFF792FF60
:100CC0008346A5EB040005464FEAD500054609EB2F
:100CD000040001462A462448006804F04FF90646FD
:100CE0004FF001011D4800680FF0C0FC0021F0002A
:100CF000B122C823CDE90632CDE9080102204FF424
:100D0000A071CDE90270CDE9041041201749642398
:100D10002A46CDE900104946504610F050F804EB41
:100D2000C60002464946504610F05DF858460BB0E2
:100D3000BDE8F08F5369676E6174757265207365E5
:100D400074210A0000000810424C54313B0F01107E
:100D50001C0100200C00002004000020FC000020EA
:100D60000010091000000910080000204343513210
:100D700010B504464FF001012046FFF76EFF10BD8D
:100D800030B504460B46206805464FF0000001468A
:100D900004E0505C685401F1010001461868884283
:100DA000F7D8186830BDF0B58BB007460C4615462D
:100DB0001E464FF0000105EB850020F00040CDE914
:100DC00008410A9107904FF082004FF0C8014FF0A0
:100DD00042024FF4A073CDE90332CDE905104FF084
:100DE00041016E4BCDE9016200914FF064024FF07A
:100DF000000138460FF00DFD00200BB0F0BD2DE9CD
:100E0000F0438FB007460C4615461E46DDE91689AD
:100E10004FF0000108EB48004FEA80004FEA500015
:100E2000CDE90B610D910A904FF0820105EB850031
:100E300020F00040CDE906104FF0C800CDE9084190
:100E40004FF042014FF4A072CDE90212CDE9041037
:100E50004FF04100524B4FF064024FF00001CDE9DA
:100E6000000938460FF0D5FC00200FB0BDE8F08334
:100E70002DE9F04105464FEA052044F62061B0FB1C
:100E8000F1F0044614B90120BDE8F081204611F0CC
:100E900035FE8046404610F0AFFF0746414911F04D
:100EA0004DFE064611F01CFE0446FF2C03D94FF000
:100EB000FF00044603E014B94FF001000446E0B21D
:100EC000E2E7F0B587B000213748006803F007F883
:100ED0000446002C58D0208807280CDC2088A0F17C
:100EE000010000EB80013048006800F1E00000EBF9
:100EF0008100066901E02D480668A0886188A0EBA2
:100F000001002189E288A1EB020100FB01F73846CC
:100F1000FFF7AEFF054604AB05AA06A9304605F06B
:100F2000E8FF049830B1049868434FEA102000F1BC
:100F3000010001E04FF000000490059830B10598E1
:100F400068434FEA102000F1010001E04FF000007B
:100F50000590069830B1069868434FEA102000F1DA
:100F6000010001E04FF0000006900698C0B2039027
:100F70000598C0B202900498C0B2019001AA02A9DB
:100F800003A80CF071FB06E04FF00000039003A8EB
:100F90000DF054FD00BF07B0F0BD000043434231E7
:100FA00043434232000048420C00002044420110FA
:100FB0001CB5002000900123E94A01460190E9A0F8
:100FC0000DF0E8FD002000900123EAA20146019007
:100FD000F8A00DF0DFFD0022F849F6A00DF074FE38
:100FE0001CBD70B505464FF00C0010F03DF90446ED
:100FF00000F01AFF0446F2480460F24928460FF058
:1010000095F80022F0A1F14800680FF093FAF0493A
:1010100008800022EFA1ED4800680FF08BFAEF493D
:1010200008800022EEA1E94800680FF083FAEE493B
:101030000880FFF7BDFF002070BD02460B4613B1CC
:10104000EA48C26112E04FF0000107E0082902DB24
:101050004FF0FF30704701F101000146E34850F8BE
:1010600021000028F2D1E14840F821200020F1E7DA
:10107000DF48007810B1DE4800787047DD4800781E
:1010800008B10220F9E70020F7E74FF00000DA4945
:10109000087070474FF00100D7490870D4490870B4
:1010A0004FF00000704738B50446207858B12078DA
:1010B000082805DC2078401ECC4951F8200010B9E2
:1010C0004FF0FF3038BD4FF00000CC490860207869
:1010D000E8B900226946A3A00DF0F6FD9DF80000D6
:1010E00018B19DF80000082803DD4FF00000C44946
:1010F00008709DF80000401EBC4951F8200028B13E
:101100009DF80000A0F10100BD49087004E02078BE
:10111000A0F10100BA490870FFF7BCFFD2E770B533
:1011200006460C463046FFF7BEFF0546002D01DAA5
:10113000284670BDB149206808600020F9E710B565
:101140004FF00000044610E0A84850F82400406822
:101150000346A64850F8240000680246611CA9A076
:101160000DF050FC04F101000446A04850F82400A2
:101170000028E9D110BD10B586B004467849A1F128
:10118000080103C9CDE9040154B1002004AACDE946
:101190000020062382220146029020460FF039FBF0
:1011A000002006B010BD7FB504460D464FF012007A
:1011B00006462088B04203DB4FF0FF3004B070BD1C
:1011C000A5B100212088924B03EBC0004068A12309
:1011D000CDE901010093039120888D4951F8300039
:1011E0000346A122002128460FF013FB0020E5E76B
:1011F00010B586B004464FF0000005AACDE9010203
:1012000003904FF00103009404907148B0F900205E
:101210004FF000016D4800680FF05EF97D480470E2
:10122000059806B010BD1FB5002003AACDE9002027
:10123000034602906C48B0F9002000216348006822
:101240000FF04AF9039804B010BD1FB5002003AA9F
:10125000CDE90020034602906048B0F9002000214B
:101260005A4800680FF038F90398C0B204B010BDB6
:1012700010B5FFF73BF904F074FE0CF03DFE0CF0E6
:1012800057FF00F0A4FBFFF793FE10BD10B50DF063
:1012900091FE4B48006800F091FE564908700EF030
:1012A0004FF808B1FFF7E4FF10BD38B54FF000006C
:1012B000044603E004F10100C0B204464B4850F874
:1012C00024000028F6D121463D48006800F08DFF3B
:1012D000C0B200906846FFF7E6FE38BD08B54FF093
:1012E0000000054606460EF02BF808B10CF0D6F9C2
:1012F000FFF7DBFFE5E0484800680FF0DBFC044641
:10130000FFF7C4FF052D2AD2DFE805F0031FAAB1BD
:10131000BD004248007830B94FF0000000906846A8
:101320000DF08CFB00BF3149354A127851F822107C
:10133000896808468047002803DA4FF00300054615
:1013400002E04FF001000546B9E02A48007828B1D4
:10135000FFF769FF4FF00200054680E060E0AAE079
:101360009847011044656661756C742070726F67F0
:1013700072616D004063204578706572742053651A
:10138000747320746865206465627567206C657687
:10139000656C20666F7220746865206669726D776F
:1013A0006172652E202864656661756C7420302931
:1013B0000000000044656275670000001C0000200A
:1013C000280000202846011072756E00FC000020E5
:1013D0001E00002072756E6E696E6700200000208E
:1013E00073746F700000000022000020B80100201C
:1013F0001400002017000020150000201800002015
:101400001600002025643A2025732C2025730A003D
:101410000047011024000020F80000202C000020CC
:101420003A48007848B13A493A4A127851F82210BD
:10143000C96808468047002803DA4FF003000546D4
:101440000DE066B15CB90CF0D5FF4FF000000090E4
:101450006846FFF728FE4FF00000054600BF2EE06B
:101460002D48007810B94FF00000054627E04FF0F6
:1014700000002649087029490870FFF7D4FE4FF094
:10148000040005461BE02148007828B1FFF702FE62
:101490004FF0000005460DE014B12148007848B92E
:1014A0004FF0000000906846FFF7FDFD4FF0000090
:1014B000054600BF03E04FF00300054600BF00BF34
:1014C000264618E710B5FFF7C0FE04460CB1FFF73B
:1014D000AAFE204610BD10B51248006803F097FD23
:1014E00011480078FFF784FE10BD3EB504460D4656
:1014F00054B1002004210D4B6422CDE90015029067
:10150000182120460FF085F93EBD0000150000208F
:10151000B801002016000020170000201400002051
:10152000D700002008000020240000204556543138
:101530001CB54FF00100019001A80CF0F1F997489B
:10154000006803F015FC9648006803F060FD002079
:10155000FFF74EFE00BF04F05CFD044600688068A3
:10156000034601226946204698470028F3D11CBD56
:1015700030B587B004F04DFD04464FF0000005463D
:10158000BCE08848007820B101281AD002287ED11A
:101590002CE0206880680346012206A9204698476F
:1015A00070B19DF8180080490880084600884FEA0D
:1015B00000604FEA104008804FF001007949087040
:1015C00097E0206880680346012206A920469847D4
:1015D00068B1754800889DF8181040EA010072490A
:1015E00008804FF002006F49087000E000BF6E48AD
:1015F0000088FF2827D12068C06801462046884718
:10160000042870DB206880680346022205A9204672
:101610009847206880680346022204A9204698471C
:101620004FF0000005A9039003A80CF01DF94FF03E
:10163000010004A9039003A80CF016F94FF0000074
:10164000584908704FE058480088FE280FD120689C
:1016500080680346012206A920469847B0B306A831
:101660000CF032FF4FF000004E4908703BE04E484E
:101670000088FD282BD12068C06801462046884795
:10168000032830DB206880680346012200E02BE05D
:1016900003A920469847206880680346012202A9D2
:1016A00020469847206880680346012201A9204609
:1016B000984701AA02A903A80BF0D6FF4FF001003A
:1016C0003A4908704FF00000364908700BE0206876
:1016D00080680346012206A92046984718B14FF0BA
:1016E00000003049087004E04FF000002D490870F8
:1016F00000BF00BF05F10100C0B205460A2DFFF68C
:1017000040AF07B030BD10B586B02448006802F085
:101710005AF900280FDA2648007848B125480268AF
:101720000068401C234B1146186023A00DF06AF995
:10173000002006B010BDFFF71BFF02A804AB03AAF0
:1017400005A900901548006802F03AFC01200299B2
:10175000CDE900101B48DDE9032305990068FFF778
:101760004EFB04F056FC0446006800690146204622
:1017700088470E48007808B9FFF7A3FB01E0FFF7A0
:10178000F7FE07490868016889880268D288A1EBDA
:1017900002010029F3D04FF00000CAE70C0000203E
:1017A0000800002040000020420000202C00002003
:1017B0001C0000204400002064726F702025640A21
:1017C00000000000F800002000207047F0B58BB04A
:1017D00005467248064672480068012839D1002043
:1017E0004FF47A41B122C823CDE90632CDE9081081
:1017F00002204FF4A071CDE90250CDE90410412040
:10180000684964234FF49032CDE9001031466648B0
:1018100000680FF0D4FA04464FF0C8004FF4A071EE
:101820004FF00002CDE900210290C4F5903211463C
:1018300006EB040210464FF000034FF021020CF0BB
:101840007FF904F57A423146574800680FF0CBFA29
:101850007DE053480068642860DB51480068C82870
:101860005CDA4F4800684FF0640190FBF1F201FB35
:1018700012004FF00A01B0FBF1F000F1300045F624
:10188000450141EA0041464800684FF00A0290FBDA
:10189000F2F302FB130000F1300041EA00674FF061
:1018A00000004FF47A414FF0B1024FF0C803CDE988
:1018B0000632CDE908104FF002004FF4A071CDE9D7
:1018C0000250CDE904104FF041004FF064034FF493
:1018D00090323146CDE90070334800680FF06FFA5E
:1018E00004464FF0C8004FF4A0714FF00002CDE95C
:1018F00000210290C4F59032114606EB0402104616
:101900004FF000034FF021020CF01AF904F57A426F
:101910003146254800680FF066FA18E04FF02100C4
:101920000A904FF00000099008904FF4A0700790C3
:101930004FF0C80006901C48006806A9CDE90010C9
:1019400007AB08AA09A90AA80CF0A0FD00BF0BB0BC
:10195000F0BD00B587B012480068C0B94FF0210053
:1019600006904FF00000059004904FF4A070039093
:101970004FF0C80002900C48006802A9CDE90010A1
:1019800003AB04AA05A906A80CF080FD02E0012023
:10199000FFF71CFF002007B000BD0000000008108A
:1019A00018000020434D5632F800002038B5044698
:1019B0004FF4FA702060206880B20090694604F10C
:1019C00008000BF051FF38BDC160026170471FB5C0
:1019D00000204FF4AF7104237CA2CDE900108021D8
:1019E00089A00DF0D7F800204FF41671042389A2C6
:1019F000CDE90010802195A00DF0CCF800204FF427
:101A0000FA71042394A2CDE900108021A1A00DF069
:101A1000C1F800204FF42F710423A1A2CDE90010DA
:101A20008021AEA00DF0B6F8002203A976A00DF03B
:101A30004BF9002202A985A00DF046F9AA48DDE97C
:101A40000221FFF7C1FF002203A992A00DF03CF98B
:101A5000002202A9A1A00DF037F9A448DDE9022176
:101A6000FFF7B2FF1FBD08B54FF0010000906846B8
:101A70000BF056FFFFF7ABFF9B48FFF797FF9B4824
:101A8000FFF794FF9A48006808B1FEF7BEFC99483A
:101A9000006803F0BCFA0020FFF7AAFB002008BD95
:101AA000F8B504460D466068B0F1004F25D0606877
:101AB000A5EB0000216900FB01F0E16805FB0100D6
:101AC0004FF47A7190FBF1F6206830442060206872
:101AD000B0F57A7F02DD0846206005E02068002826
:101AE00002DA4FF000002060206880B20090694662
:101AF00004F108000BF0B8FE00BF6560F8BD2DE9E9
:101B0000F04186B07C48006801F05DFF00217A4812
:101B1000006802F0E4F9044604B3A1886288A1EBEE
:101B20000201084601EBD07102EB61018FB22189FD
:101B3000E288A1EB0201084601EBD07102EB6101E2
:101B40001FFA81F8C7F1A005A8F164062946664886
:101B5000FFF7A6FF31466548FFF7A2FF02A804ABD6
:101B600003AA05A900906448006802F029FA012040
:101B70000299CDE900106148DDE903230599006869
:101B8000FFF73DF9FFF79DF9002006B0BDE8F081B1
:101B900010B54FF4FA7404600172C26003614FF033
:101BA0000044446010BD00B54FF448734FF4FA721E
:101BB00000214D48FFF7ECFF4FF461734FF42F7293
:101BC00001214A48FFF7E4FF00BD000040632050B8
:101BD000616E2F74696C745F44656D6F2050616E27
:101BE00020617869732070726F706F7274696F6EA4
:101BF000616C206761696E202864656661756C742C
:101C0000203335302900000050616E20502067617C
:101C1000696E000040632050616E2F74696C745FC0
:101C200044656D6F2050616E206178697320646532
:101C30007269766174697665206761696E202864CF
:101C4000656661756C7420363030290050616E20F5
:101C500044206761696E000040632050616E2F74FC
:101C6000696C745F44656D6F2054696C7420617891
:101C700069732070726F706F7274696F6E616C201F
:101C80006761696E202864656661756C7420353003
:101C90003029000054696C742050206761696E001F
:101CA00040632050616E2F74696C745F44656D6F82
:101CB0002054696C74206178697320646572697658
:101CC0006174697665206761696E20286465666164
:101CD000756C7420373030290000000054696C7432
:101CE0002044206761696E00D8010020EC010020CB
:101CF0001C010020080000200C000020F80000203B
:101D00002DE9FF4F85B01E46DDE90501884201D26D
:101D1000059800E0069804460798844201D22046C0
:101D200000E007980446DDE90501884201D90598DD
:101D300000E0069807460798874201D9384600E038
:101D4000079807460599A1EB040101FB01F1069AEA
:101D5000A2EB0402069BA3EB040302FB0311079A08
:101D6000A2EB0402079BA3EB040302FB031010F099
:101D7000C5FE8146484610F033F9804610F0B0FEAB
:101D800005461E2D02D94FF01E0005460A2D03D22E
:101D90004FF00000019012E0284610F0AFFE82469E
:101DA000304610F0ABFE8346FD4910F0C7FE814679
:101DB000514610F0C3FE804610F092FE019001984B
:101DC000B0F57A6F02D94FF47A60019001A80CF057
:101DD000ABFB05A807C805F077F8814605F0AFF81A
:101DE000804607AB06AA05A905F083F80598C0B29E
:101DF00004900698C0B203900798C0B2029002AA5D
:101E000003A904A80BF030FC09B0BDE8F08F38B589
:101E100004464FF000002072009068460CF00EFE61
:101E20004FF00000207038BD10B504462046FFF783
:101E3000EEFF204610BD704738B505460C46684693
:101E400010F09AF800BF00980FF0CCFFA042FAD330
:101E50000DF0B0F838BDF8B504460D464FF000005F
:101E6000064619E04FF00000009068460CF0E6FDD1
:101E70004EF660212046FFF7DFFF6178C94A02EB8A
:101E8000810108460CF0DAFD4EF660212046FFF78E
:101E9000D3FF06F101000646AE42E3DBF8BD7FB595
:101EA00004464FF0000003904FF0A00002904FF066
:101EB000640001904FF00000009001AB02AA04F111
:101EC000010103A8FEF7AEFD0546002D00DA7FBD37
:101ED0000121B5480068FFF708FB04212046FFF701
:101EE000BAFF00BFF3E738B504466078072800DD85
:101EF00038BD4FF00000009068460CF09FFD4EF694
:101F000060212046FFF798FF6178A64A02EB810125
:101F100008460CF093FD00BFEAE7F0B593B0074622
:101F20000FAC4FF000052846206005F110006060FE
:101F3000606801469D4A4FF004000FF04AFAA06025
:101F400000BF0EA8294681704170017000BF12A821
:101F50004FF0A0014FF064020180428000BF0446B0
:101F60000FAB224692499348006802F0B5FD03206A
:101F700000908D480422114603680FA8FEF7EDFC7F
:101F80000FAA8B4901A802F008F90AA901A802F0DA
:101F9000C2F906460BAB0CAA0DA9304604F0A9FF06
:101FA000DDE90A32DDE90C10FFF7AAFE0FACA168EB
:101FB00008460FF049F900BF13B0F0BD30B589B045
:101FC00004460FF095FD0546207AF0B14FF0210050
:101FD00008904FF00000079006904FF4A070059015
:101FE0004FF0C80004904FF000006F49096804AA40
:101FF000CDE90021029005AB06AA07A908A80CF0BC
:1020000003FC2046FFF789FF1DE02078D8B14FF090
:10201000210008904FF00000079006904FF4A07048
:1020200005904FF0C80004904FF001005E49096828
:1020300004AACDE90021029005AB06AA07A908A8C9
:102040000CF0E2FB00BF2078062871D2DFE800F038
:10205000031838687CBC95B1201D0FF08DFF5648E1
:102060000088089008A80CF05FFA4FF0010020707B
:102070004FF00000089008A80CF0E0FC00BFACE0B6
:102080001DB94FF00000207019E0616808460FF09C
:10209000A9FE4A49884212D90BF0ACF918B14FF0A9
:1020A0000100607002E04FF000006070201D0FF032
:1020B00063FF2046FFF717FF4FF0020020708CE00F
:1020C000B5B903212046FFF7C6FE201D0FF054FFCF
:1020D000607830B94FF00100089008A80BF0FCF9C7
:1020E00002E04FF0010020724FF00300207016E074
:1020F000616808460FF076FE314988420FD9201DED
:102100000FF03AFF607800F10100607060780828F5
:1021100002D14FF0000060702046FFF7E4FE5CE063
:102120003DB1201D0FF028FF4FF0040020700AE0A1
:102130004FE0616808460FF055FE2249884202D9F7
:102140002046FFF764FE48E09DB9607850B94FF033
:102150000000089008A80BF0BFF904212046FFF703
:102160007AFE02E02046FFF79AFE2046FFF74FFE78
:1021700015E0616808460FF035FE104988420ED917
:10218000607830B94FF00000089008A80BF0A4F96F
:1021900000BF2046FFF73BFE4FF0050020701CE01B
:1021A0008FC2753C44420110F80000203B0F011023
:1021B0001C0100200C00002010000020D012130091
:1021C00040420F000087930315B92046FFF71FFE1A
:1021D00003E02046FFF71BFE00BF00BF207810B1D0
:1021E000012009B030BD0020FBE72DE9F041044695
:1021F0000D46012D02DC0020BDE8F0815EE00FF00D
:1022000077FC06460CF0D6FE207820B101280CD0D1
:1022100002284ED128E0201D0FF0AEFE4FF0010045
:1022200020702046FFF75FFE47E066B1201D0FF0EB
:10223000A3FE4FF0010060702046FFF754FE4FF000
:10224000020020700FE0616808460FF0CBFD1C49CA
:10225000884208D904212046FFF7FDFD2046FFF7FC
:10226000D6FD0020C8E728E04EB967780421204653
:10227000FFF7F1FD2046FFF7CAFD3846BCE761686D
:1022800008460FF0AFFD0F49884211D9201D0FF00D
:1022900073FE607800F101006070617805F1010063
:1022A000814202D14FF0010060702046FFF71BFE13
:1022B00003E02046FFF7ABFD00BF00BF9FE7000033
:1022C00060E3160040420F0070B5044600BF4FF0B7
:1022D0000000206200BF4FF0FF30A08247F6FF7081
:1022E0006082208240F2FF10A18860F3CB01A180C0
:1022F000618960F3CB01618105E0A569A868A061EF
:1023000028460EF0A5FFA0690028F6D104F11800B8
:10231000E06170BD10B504464FF00000A06104F10B
:102320001800E0612046FFF7CFFF204610BD10B532
:1023300004462046FFF7C8FF204610BD4189C1F37F
:10234000C801A1F58072FF3A0AD0D0F80A104160A6
:10235000C189018140F2FF11428961F3CB024281C0
:10236000704710B5B0F910408C4201DD0CB2048208
:10237000B0F91240944201DD14B24482B0F9144025
:102380009C4201DA1CB2848210BDF8B504460D46A9
:10239000A888C0F3090003462888C0F3C800024695
:1023A0006888C0F3090001462046FFF7DAFF60891C
:1023B000C0F3C800A0F58071FF3905D12868C4F8C2
:1023C0000A00A888E08103E0A888C0F30900E08142
:1023D00000BF6A88C2F30902A2F101021046AA886E
:1023E000C2F309021146A1EB0002009200BF694648
:1023F00004F120000EF023FFFF480078F0B13946C9
:102400000C200EF045FF06000AD030462968016016
:10241000A98881804FF00001816000BF064601E07D
:102420004FF00000E1690860E069006800B9F8BD9C
:10243000E069006800F10800E06100BF00BFF6E756
:1024400070B505460C4604F1200105F120000EF0A0
:10245000F6FEB4F914000346B4F912000246B4F9CA
:10246000100001462846FFF77CFF2089C0F30901D0
:102470002889C0F30900814203DD2089C0F30900E7
:102480002881DD48007850B1A069E9690860E069F9
:10249000E8614FF00000A06104F11800E06170BD38
:1024A0004FF0000101618160416000F10401C160F1
:1024B0004FF0FF3101804FF0010181824FF00001A8
:1024C0008161704770B50446606800B905E04FF45B
:1024D000EA72CAA1CFA006F023FF4FF00000A0606F
:1024E0004FF0FF3020804FF00000A0610DE0206928
:1024F00000680546206930B121690846FFF717FFDB
:1025000006460EF0A5FE256100BF20690028EED129
:1025100070BD10B503460DE059680846FFF70EFF81
:102520005868006804465968186908605868186156
:102530005C6000BF58680028EED110BD10B504469D
:102540002046FFF7E6FF2046FFF7BCFF204610BD00
:102550002DE9FF4105460E4633E03068044620462B
:10256000FFF7ECFEB5F90000A188C1F3C801401ADD
:10257000B5F91410884221DD206830606846218A50
:102580000391618A0291A18A0191A188C1F3C801D6
:10259000018000BFBDF90000BDF90810A0EB0100EB
:1025A000012803DD286920602C6109E044B1204640
:1025B000FFF7BDFE07460EF04BFE01E0BDE8FF81D0
:1025C00000BF30680028C8D100BFF7E710B5044647
:1025D000A068E060E0680068A060A06820B1A06822
:1025E00001462046FFF7B4FF10BD10B5044604F1C4
:1025F00004012046FFF7ACFF04F10400E060E0684E
:102600000068A060A06820B1A06801462046FFF7DE
:102610009FFF10BD2DE9F04704460D462888C0F302
:10262000C800B4F90010884206D02888C0F3C8005A
:1026300020802046FFF7D9FF44E06888C0F30901F5
:10264000A0680089C0F30900814203DD2046FFF73E
:10265000BDFF37E0A888C0F30901A068C088C0F3B7
:102660000900814200DA30E0A16808462946FFF7F8
:102670008CFE17E0A068006807463868A16808600B
:10268000A16808463946FFF7DBFE2FB13846FFF751
:102690004EFE82460EF0DCFDA06801462046FFF7A4
:1026A00057FF00BFA068006848B1A888C0F30901BF
:1026B000A0680068C088C0F309008142DADA00200F
:1026C000BDE8F087A0680028B7D100BF49462420A4
:1026D0000EF0DEFD5FEA000804D04046FFF71AFE68
:1026E000804601E04FF00000064656B94D4800789C
:1026F00020B1A06901464CA00CF084F94FF0FF30E6
:10270000DEE7A06900F10100A061A0683060E06828
:102710000660E66029463046FFF737FE0020CFE727
:1027200002464FF00003184604E000F1010318468A
:102730000B6819460029F8D1704770B50546144654
:102740001960216008461A460BE0066806B909E0E0
:102750000668304616683246066806B902E0066822
:102760003046F2E700BF16681E604FF000061660A4
:1027700070BDF0B50646059D2C46284662E054B370
:102780000F6847B3C0B11768B7B117683F6AD1F88F
:1027900000C0DCF820C067450EDD1768D3F800C024
:1027A000CCF800701F683F681F601F683F681760A3
:1027B000A0F10107384645E00F68D3F800C0CCF817
:1027C00000701F683F681F601F683F680F60A4F1BA
:1027D00001073C4636E088B317687FB31768D3F823
:1027E00000C0CCF800701F683F681F601F683F681A
:1027F0001760A0F1010722E0700000202E2E5C2E51
:102800002E5C636F6D6D6F6E5C626C6F622E6370B9
:102810007000000021616374697665426C6F6273B9
:10282000000000001C000020626C6F6273202564B1
:102830000A686561702066756C6C000001E03846BE
:1028400000E0F0BD9BE730B587B00446206908B9C9
:1028500007B030BD2069014605AB06AA2046FFF748
:102860006CFF4FF00100054627E04FF00000049098
:10287000039004A8029003A801900DE002AB05AA02
:1028800006A920460095FFF774FF01AB05AA06A92B
:1028900020460095FFF76DFF06980028EED10598B9
:1028A0000028EBD10199086002990860049806900D
:1028B000039805904FEA4500054605980028D4D1B5
:1028C0000698206100BFC3E770B50646306900B9BD
:1028D00070BD35692C680EE0286A216A884200DBE9
:1028E00006E040F2CD12AFF2EC0105A006F018FDB3
:1028F000254628680446002CEED100BFE8E700001A
:10290000692D3E6D6F6D656E74732E617265612009
:102910003E3D206A2D3E6D6F6D656E74732E617243
:10292000656100002DE9F04104460E461746394620
:10293000204601F061FD04464FF007034FF01C02F2
:10294000FF4904F5D2700EF033FDA0F5D2700446B5
:102950004FF0000004F51674A0774FF01400A06249
:102960004FF0640020844FF0140060844FF00500A5
:10297000A0854FF00000606344F8B86C4FF006008B
:10298000E0854FF0000084F830004FF47A700EF0CC
:1029900063FC20614FF00000A082A084E084A4F5D5
:1029A000167405460BE0C5EBC50204F5D27101EBC8
:1029B00082010846FFF786FD05F101000546072D57
:1029C000F1DB2046BDE8F08110B50446D4F868126A
:1029D00008460EF039FC07231C22DA4904F5D270B0
:1029E00006F05CFE204601F046FD0446204610BD80
:1029F000F0B506460B4614464FF000073D463946F3
:102A00003A4638462FE033F8117047B912B903EB54
:102A100041073A4600F10107BFB238461BE0CAB190
:102A200033F81170178001F1010733F817705780E0
:102A300001F1020733F81770978001F1030733F8AB
:102A40001770D78001F1040733F81770178102F16E
:102A50000A073A4600BF05F10107BFB23D4601F142
:102A60000507BFB23946A542CDDBF0BD2DE9FE4FCB
:102A70000C461546A18862881144084601EBD071C6
:102A80004FEA61010E462189E2881144084601EBB4
:102A9000D0714FEA61010F46A9886A88114408463F
:102AA00001EBD0714FEA610188462989EA88114417
:102AB000084601EBD0714FEA61018946A7EB090195
:102AC000084610F014F8A8EB06010090084610F034
:102AD0000EF80190DDE900010FF000F883469A49F5
:102AE00010F02CF8994902900FF0EAFF8246504608
:102AF0000FF0EFFF00B2BDE8FE8F2DE9F0418AB084
:102B000006464FF0000738463C463D4628E051F85F
:102B10002080274604F1010C1FFA8CFC64464DF816
:102B2000278000F101073B4614E051F823703F88ED
:102B300007F0070751F820C0BCF800C00CF0070CE4
:102B4000674503D14FF001073D4600E006E003F181
:102B500001073B46B2F900709F42E6DC00BF184611
:102B6000B2F90070874201DD0A2CD0DB75B14FF05D
:102B70000007384606E05DF8207041F8207000F14B
:102B800001073846A042F6DB27B217800AB0BDE83D
:102B9000F0812DE9F04106461C46A4B18F88B1F8BA
:102BA00002C067443D4607EBD5774FEA6707B2F8A6
:102BB00004C0B2F80280C44460460CEBD07CA7EBA2
:102BC0006C073BB213E00F89B1F806C067443D467D
:102BD00007EBD5774FEA6707B2F808C0B2F806806E
:102BE000C44460460CEBD07CA7EB6C073BB2002BD7
:102BF00003DA584200B2BDE8F0811846FBE72DE940
:102C0000F04F85B082460D4616461F464FF0000035
:102C100004460EE055F824000246394650460E9B05
:102C2000FFF7B7FF80B22DF8140004F1010080B265
:102C30000446B44201DA0A2CECDB30E04FF001002C
:102C40000446834623E0601E3DF810003DF8141052
:102C5000884218DD3DF81480A4F101003DF8100011
:102C60002DF81400A4F101002DF8108055F82490DF
:102C700055F8200045F82400A4F1010045F8209003
:102C80004FF00000834604F1010080B20446B442D4
:102C900001DA0A2CD7DBBBF1000F00D000E0CDE752
:102CA00000BF05B0BDE8F08F2DE9F04F8CB01446A1
:102CB0004FF0000A5046CDF828A0CDF82CA06BE0CC
:102CC00051F820A0BAF804A051F820B0BBF802B027
:102CD000AAEB0B0A51F820B0BBF808B051F820E07D
:102CE000BEF806E0ABEB0E0B0AFB0BF24FF0640AEA
:102CF00002FB0AFA4FF4FA7BBAFBFBF74FF4C87AEF
:102D000002FB0AFA4FF0640BBAFBFBFA0AEB020C67
:102D10004FF000031E462EE0984200D128E051F803
:102D200023A0BAF804A051F823B0BBF802B0AAEB74
:102D30000B0A51F823B0BBF808B051F823E007E0C4
:102D400041230010DD23001000003443560E49409B
:102D5000BEF806E0ABEB0E0B0AFB0BF8474506D8B6
:102D6000E04504D806F1010A1FFA8AFA564600BF68
:102D700003F1010A5346B4F900A09A45CCDCDDF812
:102D800028A0564505DD0A9691464FF0010ACDF878
:102D90002CA000F1010A5046B4F900A082458FDC56
:102DA000DDF82CA0BAF1000F03D14FF0000AA4F80F
:102DB00000A04FF0000A5046554638E051F820A0D8
:102DC000BAF804A051F820B0BBF802B0AAEB0B0A85
:102DD00051F820B0BBF808B051F820E0BEF806E08A
:102DE000ABEB0E0B0AFB0BF24FF0640A02FB0AFA84
:102DF0004FF4FA7BBAFBFBF74FF4C87A02FB0AFAEE
:102E00004FF0640BBAFBFBFA0AEB020C4F450BD8F0
:102E1000E14509D851F820B0AA4605F1010E1FFA84
:102E20008EFE75464DF82AB000F1010A5046B4F9FD
:102E300000A0824501DD0A2DC0DB4FF0000A50469C
:102E400006E05DF820A041F820A000F1010A5046FC
:102E5000A842F6DB0FFA85FAA4F800A00CB0BDE892
:102E6000F08F70B503460C46D3F8685229464FF0F0
:102E70000005284616E000EB800531F8155025F0D6
:102E8000070595420BD100EB800531F8155005F090
:102E9000070545EA040500EB800621F8165000F10D
:102EA00001052846B3F86C528542E4DC70BD2DE97B
:102EB000F04782460D461646688800B20146A8884B
:102EC00000B20746E88800B20246288900B284466C
:102ED000708800B20346B08800B28046F08800B225
:102EE0000446308900B2814699420EDBA24201DCE1
:102EF000644505DD4A4508DCE14501DD944204DC1A
:102F0000A1EB080000B2BDE8F0878B420CDBA242C7
:102F100001DC644505DD4A4506DCE14501DD9442FE
:102F200002DCD81B00B2EEE7A2420DDB994201DCC5
:102F3000BB4205DD414507DCB84501DD8B4203DCC2
:102F4000A2EB090000B2DEE794420DDB994201DCFE
:102F5000BB4205DD414507DCB84501DD8B4203DCA2
:102F6000A4EB0C0000B2CEE747F6FF70CBE770B5DC
:102F700004460D461646288828B1308818B128889E
:102F80003188884201D1002070BD94F8880202285F
:102F900008D0288800F007000146204601F0A8FF6D
:102FA00001280CD194F8880202280AD0308800F059
:102FB00007000146204601F09BFF012801D00020B8
:102FC000E2E7324629462046FFF771FFB4F8861241
:102FD000884201DC0120D7E70020D5E72DE9F04F3A
:102FE00099B007464FF000001690B7F86C1201EB4D
:102FF0008101D7F8680200EB41008246D7F86802E9
:10300000044648E004F10A0006463FE03246214605
:103010003846FFF7ACFF38B32088072816DC308825
:10302000072813DC169800F1010080B2169016985C
:103030004FEAC0404FEA10408146208840EA09002C
:103040002080308840EA090030801CE02088072872
:103050000BDD3088072808DC208820F00700814637
:10306000308840EA090030800DE0308807280ADD0A
:103070002088072807DC308820F007008146208858
:1030800040EA0900208006F10A0006465645BDD3F5
:1030900004F10A0004465445B4D3D7F86802044644
:1030A0002BE02088072800DC24E0208820F007009F
:1030B000814604F10A00064619E03088072800DC42
:1030C00012E0308820F007001790179881450AD049
:1030D000324621463846FFF74AFF20B14946384676
:1030E000179AFFF7BEFE00BF06F10A0006465645D6
:1030F000E3D300BF04F10A0004465445D1D3D7F806
:10310000680200F577700B904FF0010BD7F87082D2
:103110004FF00000A7F874027CE14FEACB404FEA81
:10312000104081464FF000001890D7F8680204461E
:1031300011E0208820F00700484509D1BDF9601052
:1031400088B200F1010000B2189001A840F82140B7
:1031500004F10A000446544503D2BDF960000A2870
:10316000E7DB18AA01A93846FFF79EFDBDF960000C
:10317000022800DA4AE14FF0000005460C900D905D
:10318000129013901490159049E001A9159851F8E8
:103190002000408851F825104988884200DD1595A7
:1031A00001A9139851F82000C08851F82510C9884A
:1031B000884200DD139501A9149851F820008088F9
:1031C00051F825108988884200DA149501A91298CF
:1031D00051F82000008951F825100989884200DA49
:1031E000129501A850F82500808801A951F82510F2
:1031F0004988A0EB01010D9808440D9001A850F8F2
:103200002500008901A951F82510C988A0EB01010A
:103210000C9808440C9005F1010000B20546BDF978
:1032200060008542B1DBBDF960100D9890FBF1F0B4
:103230000D90BDF960100C9890FBF1F00C9001A975
:10324000159851F820004088A8F80200149851F809
:1032500020008088A8F80400139851F82000C08846
:10326000A8F80600129851F820000089A8F8080074
:10327000149851F82000818801AA159852F820006E
:103280004088A1EB00004FF0640100FB01F00F90BB
:103290000D990F9890FBF1F00F9001A9129851F839
:1032A00020000189139852F82000C088A1EB00008B
:1032B0004FF0640100FB01F00E900C990E9890FB0A
:1032C000F1F00E90DDE90E1088420DDD012001A91C
:1032D0000090159851F820000346BDF8600082B2B6
:1032E0003846FFF78CFC0CE0002001A900901398F1
:1032F00051F820000346BDF8600082B23846FFF75F
:103300007EFC18AA01A93846FFF7F7FBBDF960005B
:10331000022800DA7AE0BDF96000052802DD4FF0EE
:10332000050018904FF000000546119013E0119829
:103330004FEAC0404FEA1040119001A850F8250014
:10334000008800F00700119940EA0100119005F192
:10335000010000B20546BDF960008542E7DBBDF81B
:103360006000A0F1010000B205464FF0000010908F
:1033700019E010984FEAC0404FEA1040109001A8A1
:1033800050F82500008800F00700109940EA01007D
:1033900010904FF0000001A951F825100880A5F108
:1033A000010000B20546002DE3DADDE91010884285
:1033B00011DA1198A8F80000BDF96000401E01ABB9
:1033C00053F820000246019801463846FFF74EFBAD
:1033D000A8F80A0010E01098A8F80000019802462A
:1033E000BDF96000401E01AB53F82000014638468D
:1033F000FFF73CFBA8F80A0008F10C008046B7F87C
:10340000740200F10100A7F8740200BF0BF1010083
:1034100000B283461698834503DC0B988045FFF481
:103420007CAED7F8680204461FE097F888020328AC
:1034300006D12088072815DD4FF00000208011E01C
:10344000208807280BDC97F88802022807D02088FC
:10345000C0B20146384601F04BFD012802D14FF0C1
:103460000000208004F10A0004465445DDD319B061
:10347000BDE8F08F2DE9FC4F96464FF00000044662
:103480000246009069E031F8120000B95DE002F1F7
:10349000010031F8105002F1020031F8106002F121
:1034A000030031F8107002F1040031F810C004F18B
:1034B000010080B2019002F1050080B2034640E0B5
:1034C00031F8130000B933E003F1010031F8108046
:1034D00003F1020031F8109003F1030031F810A05D
:1034E00003F1040031F810B045450FDC4E450DDB0B
:1034F00057450BDCDC4509DB4FF0000021F81300D9
:10350000009800F1010080B2009010E0A8450EDCA8
:10351000B1450CDBBA450ADCE34508DB4FF000009F
:1035200021F81200009800F1010080B2009000BF65
:10353000019800F1010080B2019003F1050080B212
:10354000034601987045BBDB00BF04F1010080B267
:10355000044602F1050080B20246744593DB0098F0
:10356000BDE8FC8F2DE9F74F83B082464FF0000095
:10357000029003460090C2E031F8130000B9B5E0B4
:1035800003F1010031F810C003F1020031F810809E
:1035900003F1030031F8109003F1040031F810B08A
:1035A000029800F1010080B2019003F1050080B2A1
:1035B000024694E031F8120000B987E002F1010000
:1035C00031F8104002F1020031F8105002F103000E
:1035D00031F8106002F1040031F8107064451BDC12
:1035E000ACEB0500BAF884E2704515DCB14501DCAE
:1035F0005E4503DDB9450FDC5F450DDC03F10100DD
:1036000021F810404FF0000021F81200009800F15E
:10361000010080B2009058E045451BDBA4EB080098
:10362000BAF884E2704515DCB14501DC5E4503DD86
:10363000B9450FDC5F450DDC03F1020021F81050A5
:103640004FF0000021F81200009800F1010080B254
:1036500000903AE04E451BDCA9EB0700BAF884E283
:10366000704515DCA44501DC444503DDAC450FDCA9
:1036700045450DDC03F1030021F810604FF0000018
:1036800021F81200009800F1010080B200901CE0C7
:103690005F451ADBA6EB0B00BAF884E2704514DC38
:1036A000A44501DC444503DDAC450EDC45450CDC9E
:1036B00003F1040021F810704FF0000021F812000F
:1036C000009800F1010080B2009000BF019800F165
:1036D000010080B2019002F1050080B20246DDF8DF
:1036E00014E001987045FFF665AF00BF029800F145
:1036F000010080B2029003F1050080B20346DDF8BC
:1037000014E002987045FFF637AF009806B0BDE8A8
:10371000F08F70B505464FF00000044614E0C4EB8E
:10372000C40205F5D27101EB82010846FEF7F1FEF5
:10373000C4EBC40205F5D27101EB82010846FFF724
:1037400082F804F101000446072CE8DB70BD2DE986
:10375000FC4107460D4616461C46DDF820809DF8C4
:10376000000065F302008DF80000BDF8000066F36C
:10377000CB00ADF80000ADF8024004EB080080B2C9
:10378000ADF80400A5F10101C1EBC10207F5D2714A
:1037900001EB820108466946FEF73CFFBDE8FC816B
:1037A0002DE9F04F89B006464FF0FF3080464FF0CC
:1037B0000000054605A84FF000010180C18041804E
:1037C000818000BF08460490ECE000BFD6F8A0114D
:1037D000084605A901F0A5FB0028F7D0BDF81400A4
:1037E0004FF6FE71884200DBDDE00498002800DA25
:1037F000D8E0BDF81400E0B94FF6FF7007904FF025
:10380000000008908DB1AAEB0700401C80B2009028
:10381000781E80B203461FFA88F2E9B23046FFF7FD
:1038200096FF04904FF00000054608F10100804625
:10383000B8E0BDF8140000F00704BDF918000390CB
:10384000BDF91600029003984FEAC0300390029829
:103850004FEAC0300290BDF81A000190019810B9EB
:103860004FF0010001900199039890FBF1F0039053
:10387000DDE9011090FBF1F00290601E00EB800189
:1038800006F1E00050F821100398814276DA601EBC
:1038900000EB800106F1E00000EB81004168039835
:1038A00081426BDD601E00EB800106F1E00000EB61
:1038B000810081680298814260DA601E00EB80011D
:1038C00006F1E00000EB8100C1680298814255DDFD
:1038D000D6F86C110198814250DCBDF814004FEA13
:1038E000E000ADF81400BDF814900798A9EB0000B3
:1038F000052805D80898A04202D14FF0010001E048
:103900004FF0000083462DB9BBF1000F02D02546D1
:10391000079F17E0B5B1A54202D1BBF1000F11D14D
:10392000AAEB0700401C80B20090781E80B20346CC
:103930001FFA88F2E9B23046FFF709FF04904FF012
:103940000000054625B1BBF1000F01D0CA4610E0CA
:103950007DB9BBF1000F0CD102200090A9F101004C
:1039600080B203461FFA88F2E1B23046FFF7EFFE5D
:1039700004900894CDF81C9013E0FFE78DB1AAEBFA
:103980000700401C80B20090781E80B203461FFAE8
:1039900088F2E9B23046FFF7DAFE04904FF00000FB
:1039A000054600BF11E700BF3046FFF7B2FEBDF885
:1039B0001400A0F57F41FE3903D1481E09B0BDE8CF
:1039C000F08F0020FAE72DE9F04F87B0044620463B
:1039D000FFF7E6FE00281BDA4FF000050BE0C5EB11
:1039E000C50204F5D27101EB82010846FEF76AFDBB
:1039F00005F101000546072DF1D34FF00000A4F8B2
:103A00006C02A4F874024FF0FF3007B0BDE8F08FED
:103A10004FF000094FF0010084F876024FF00000EB
:103A2000C4F88C020546A4F86C02A4F87402A7E05E
:103A300094F88802022806D0681CC1B2204601F022
:103A400057FA012802D14FF0010001E04FF00000C9
:103A50008246B4F86C0200EB800006464FF000008E
:103A60008346D4F8680200EB46000690B4F86C0276
:103A70000590C5EBC50104F5D27000EB810000692B
:103A8000074656E0BAF1000F03D000BF386A0A2893
:103A900008DBBAF1000F06D100BF386AD4F88012F3
:103AA000884200DA40E001A8398A0491798A0391BA
:103AB000B98A0291B988C1F3C801018000BFBDF87D
:103AC0000400BDF80C10401A012800DC2CE005F1C0
:103AD000010004F51A74216821F81600BDF81010D1
:103AE00006F10100226822F81010BDF8081006F156
:103AF0000200226822F81010BDF80C1006F1030035
:103B0000226822F81010BDF8041006F104002268A3
:103B100022F81010A08800F10100A080A4F51A740A
:103B200006F10500064600BF386807460BF10100A4
:103B300083464FB1B4F86C02B4F87812884203DAC5
:103B4000B4F87A0258459DD8BAF1000F15D112E0A9
:103B5000B4F86C120598081A80B2024620460699FD
:103B6000FFF700FD8046B8F1000F00D104E009EB3B
:103B7000080080B28146EBE700BF05F10100054671
:103B8000072DFFF455AFB4F86C020246D4F8680272
:103B900001462046FFF76EFC484480B2814694F807
:103BA000880260B1B4F86C1201EB8101D4F86802AC
:103BB00000EB4100C4F870022046FFF70FFAB9F19C
:103BC000000F02D194F8880278B1B4F86C02024672
:103BD000D4F8680201462046FEF70AFF8046B4F892
:103BE0006C02A0EB0800A4F86C024FF00000A4F8EF
:103BF0007C02A4F87E0284F8760205460BE0C5EB51
:103C0000C50204F5D27101EB82010846FEF75AFCA9
:103C100005F101000546072DF1D30020F5E62DE959
:103C2000F04703460F46944639464FF00800804659
:103C3000BCF1120F02D20020BDE8F08793F87602A3
:103C400028B9B3F87E02B3F87492484506DB4FF00A
:103C50000000088048804FF00200EDE7B3F87C02D6
:103C600060B9B3F87E0248B94AF65520088008F1D9
:103C7000010080B2804601F1020001464AF656205A
:103C8000088003F51C73B3F80E9009EB4909186816
:103C900030F82900024614468A80B3F80E9009EBEA
:103CA0004909186800EB89008088B3F80EA00AEB78
:103CB0004A0AD3F8009009EB8A09B9F80290A0EB00
:103CC000090085B204EB050080B204464D81B3F8CB
:103CD0000E9009EB4909186800EB89000089B3F8D8
:103CE0000EA00AEB4A0AD3F8009009EB8A09B9F84A
:103CF0000690A0EB090086B204EB060080B20446F1
:103D00008E81B3F80EA00AEB4A0AD3F8009009EBB3
:103D10008A09B9F80290284605EBD07A09EB6A09BE
:103D20001FFA89F94A4604EB020080B20446CA80B1
:103D3000B3F80EA00AEB4A0AD3F8009009EB8A09FF
:103D4000B9F80690304606EBD07A09EB6A091FFAFB
:103D500089F94A4604EB020080B204460A81B3F8AE
:103D60000E9009EB4909186800EB8900408980B280
:103D7000024604EB020080B20446CA814C80D88916
:103D800000F10100D881A3F51C734FEA48404FEAC7
:103D9000104051E72DE9F74F81B004468B465D4650
:103DA0004FF007000090B4F87C0200EB800007465B
:103DB0000398102803D2002004B0BDE8F08FB4F8B7
:103DC0007C02B4F86C12884208DB94F8880228B1AF
:103DD00059462046039AFFF722FFEDE794F8760252
:103DE00028B9B4F87C02B4F86C12884206DB4FF0B4
:103DF0000000288068804FF00200DDE7B4F87C0204
:103E000050B94AF655202880009800F1010080B290
:103E1000009005F1020005464AF65520288004F579
:103E20001A74206830F817000646B046AE8007F1D5
:103E30000200216831F8101007F10100226832F801
:103E40001000A1EB00001FFA80F908EB090080B216
:103E50008046A5F80A9007F10400216831F8101097
:103E600007F10300226832F81000A1EB00001FFAEE
:103E700080FA08EB0A0080B28046A5F80CA007F192
:103E80000101226832F81110484609EBD07201EBAB
:103E9000620189B20E4608EB060080B28046EE80D1
:103EA00007F10301226832F8111050460AEBD07274
:103EB00001EB620189B20E4608EB060080B2804633
:103EC0002E81A5F80280A08A00F10100A082A4F54D
:103ED0001A7400984FEA40404FEA10406CE72DE911
:103EE000F04302460F46002F4FD1D2F88C0218B192
:103EF000D2F88C02BDE8F0834FF000018C461AE046
:103F000001EB8108D2F8680200EB48039888B3F807
:103F10000280A0EB0800B3F80880B3F80690A8EB85
:103F2000090800FB08F6664502D9B446C2F88C328F
:103F300001F101000146B2F86C028842E0DC4FF06A
:103F4000000001461AE001EB4108D2F8700200EBD4
:103F50008804A088B4F80280A0EB0800B4F80880B8
:103F6000B4F80690A8EB090800FB08F6664502D9EC
:103F7000B446C2F88C4201F101000146B2F8740265
:103F80008842E0DCD2F88C02B4E74FF000010D4625
:103F900010E0D2F8680230F81500B84204D1D2F827
:103FA000680200EB4500A5E701F10100014605F1BB
:103FB00005000546B2F86C028842EADC002099E769
:103FC00030B5039CD0F868520D60B0F86C521560A3
:103FD000D0F870521D60B0F87452256030BD30B515
:103FE0000446039D642902DCA4F8781203E04FF034
:103FF0006400A4F87802A4F87A22C4F8803284F825
:104000008852002030BD2DE9FF4F83B00D46924607
:104010001E46DDF840B04FF000000190804647F6A4
:10402000FF7000904CE04FF00000044642E04FF07B
:1040300000008146029019E055F8290056F8241036
:1040400088420BD055F82900008800F0070056F888
:104050002410098801F00701884203D14FF00100C4
:10406000029005E009F1010000B28146D145E3DB91
:1040700000BF029800B119E056F82400024655F836
:10408000280001460398FEF712FF074600998F4269
:104090000BDA009755F828101198016056F8241093
:1040A000129801604FF00100019000BF04F101007F
:1040B00000B204465C45BADB08F1010000B280465C
:1040C000D045B0DB019807B0BDE8F08F7047000025
:1040D000F8B504460D4615B14FF000002062E069C6
:1040E00018B3E0690168206A81421FDD226A114627
:1040F000E26910460EF002FA408880B20646226A53
:104100001146E26910460EF0F9F9008880B20746C0
:104110000420034632463946009004F108000CF0B2
:104120000BFF206A00F10100206201E00020F8BDD1
:104130004FF0000060612061608940F00100B4F937
:104140000420216800FB0210218941F0010108448C
:10415000A0614FF00100EAE770B504460D4616462F
:1041600020460CF0F7FE044604F108000CF0EBFECC
:10417000A0F108000446D5E90001C4E90001306857
:10418000A0607068E0604FF00000E0614FF0010156
:104190002046FFF79DFF204670BD70B504460D46D2
:1041A000164620460CF0D6FE044604F108000CF03A
:1041B000CAFEA0F108000446D5E90001C4E90001E7
:1041C000E6614FF001012046FFF782FF204670BDF7
:1041D0002DE9F04F03460D464FF02600824678E069
:1041E0009889D3F810B083450DD34FF000001861C3
:1041F000586900F102005861B3F90400D3F818B00F
:104200000BEB40009861D889D3F814B0834502D3F2
:104210000020BDE8F08FD3F810B0986910F80B10AB
:104220001869A0F10100D3F818B01BF80060B3F9C9
:104230000400C0F10000D3F810B05844D3F818B00F
:104240001BF80070B3F90400C0F10000D3F810B0FF
:104250005844A0F10100D3F818B01BF8004052B147
:10426000117006EB070B58460BEBD07BCBF3470BDB
:1042700082F801B094702DB301EB0600204484460F
:10428000D44504DA186900F10200186121E0A1EBBD
:1042900006004FEAC03090FBFCF801EB0700204419
:1042A0008446D44504DA186900F10200186110E070
:1042B000A4EB07004FEAC03090FBFCF9C5F8008082
:1042C000C5F80490186900F1020018614FF0010070
:1042D0009FE785E770B504460D461646E069A0B134
:1042E000324629462046FFF773FF08B1012070BD12
:1042F00000212046FFF7ECFE28B132462946204631
:10430000FFF766FFF3E70020F1E732462946204633
:10431000FFF75EFFEBE72DE9F84381460D4668465F
:104320004FF0000181704170017000BF4FF001013A
:104330004846FFF7CDFE4FF0000004468046074692
:1043400006460EE09DF80000304406469DF8010048
:10435000384407469DF802004044804604F10100BD
:1043600004466A4600214846FFF7B4FF0028E9D119
:10437000B6FBF4F00646B7FBF4F00746B8FBF4F0E2
:10438000804605B12C60300440EA072040EA08006E
:10439000BDE8F88370B504460D462946FF480EF087
:1043A000CDFB06460EF09CFBC4F86C01D4F86C0102
:1043B00018B94FF00100C4F86C0170BD10B5024689
:1043C0004FF00003184613E029B94FF00003D2F86C
:1043D0007041235409E0D2F870311B5C8B4204D148
:1043E0004FF00003D2F87041235400F10103184646
:1043F000B0F5805FE8DB10BD70B504460E464FF0A7
:1044000007034FF02002E64920460CF0D1FF044696
:10441000C4F870614FF0E001204605F0C2F88C212D
:1044200004F1E00005F0BDF800212046FFF7C6FFCB
:10443000DC492046FFF7AEFF4FF07A50C4F87C010C
:104440004FF4FA60C4F87401D748C4F878014FF00B
:104450007F50C4F880014FF00000054607E0D349C3
:1044600004F5C27040F8251005F101000546072D3E
:10447000F5DB204670BD70472DE9F04705460C4638
:10448000012C01DB072C01DDBDE8F087A4F1010060
:10449000C0B2044605EB4410C06901280BD1D5F821
:1044A0008021114605F5C27252F8242010460EF004
:1044B00045FB064603E005F5C27050F8246005EBA5
:1044C0004411096805EB44129268891A08460EF0F7
:1044D0000EFB824631460EF031FB804605EB44115F
:1044E000896808460EF003FB814641460EF0D3FA78
:1044F00007460EF0EEFA04EB840205F1E00141F804
:10450000220005EB4411496805EB44129268A1EBC7
:10451000020108460EF0EBFA824631460EF00EFB21
:10452000804605EB4411896808460EF0E0FA8146A2
:1045300041460EF0B0FA07460EF0CBFA04EB8402C7
:1045400005F1E00101EB8201486005EB4411C96807
:1045500005EB44125269A1EB020108460EF0C7FABE
:10456000824631460EF0EAFA804605EB441149696D
:1045700008460EF0BCFA814641460EF08CFA07461A
:104580000EF0A7FA04EB840205F1E00101EB8201D1
:10459000886005EB4411096905EB44125269A1EBEF
:1045A000020108460EF0A3FA824631460EF0C6FA22
:1045B000804605EB4411496908460EF098FA814699
:1045C00041460EF068FA07460EF083FA04EB8402C7
:1045D00005F1E00101EB8201C86005EB4411896936
:1045E000084602F0ACFC04EB840205F1E00101EBAB
:1045F0008201086100BF47E72DE9F04F89B08B4683
:1046000091469A4607A80CF015FE4FF00000804630
:1046100001460C460D460E460F4606900590049046
:1046200003904FF001015846FFF752FD33E0079821
:10463000D9F80010884203DD039800F101000390CF
:104640000798D9F80410884203DA049800F10100B1
:1046500004900898D9F80C10884203DD059800F101
:10466000010005900898D9F81010884203DA0698DE
:1046700000F1010006900798C1170019694104462E
:104680000D4608984FEAE0718019794106460F46B9
:1046900008F101008046002207A95846FFF71AFEDC
:1046A0000028C4D140460EF029FA0290039908462A
:1046B0000EF024FA019002990EF002FACAF80000F6
:1046C00040460EF01BFA0290049908460EF016FAC6
:1046D000019002990EF0F4F9CAF8040040460EF079
:1046E0000DFA0290059908460EF008FA0190029919
:1046F0000EF0E6F9CAF8080040460EF0FFF9029005
:10470000069908460EF0FAF9019002990EF0D8F9D0
:10471000CAF80C00424600232046294604F0A9FCB2
:10472000C9F80800424600233046394604F0A1FC8F
:10473000C9F8140009B0BDE8F08F2DE9FF41064625
:104740000F4614464FF0804005464FF000002061B0
:10475000E0606060206053E06B4622463946304698
:10476000FFF74AFFD6F878211146009A10460EF05E
:104770003EFA03D220682844206003E02068A0EBC2
:1047800005002060D6F878211146019A10460EF0F7
:104790002EFA0FD26068A0EB050009E000403F440C
:1047A00049F20010CDCCCC3D6666663F000020404B
:1047B000606002E0606828446060D6F878211146A5
:1047C000029A10460EF013FA03D2E0682844E06023
:1047D00003E0E068A0EB0500E060D6F87821114620
:1047E000039A10460EF003FA04D22069A0EB0500EC
:1047F000206102E02069284420614FEA65000546F7
:10480000002DA9D1BDE8FF81F0B589B005460E465F
:1048100017461C46012C01DB072C03DD4FF0FF304F
:1048200009B0F0BD3A4631466846FFF795FC05EB06
:1048300044102038024669462846FFF77EFF4FF0B5
:104840000001A4F1010005EB4010C161214628469A
:10485000FFF712FE0020E3E730B504466BB9088885
:10486000042808DB0888A0F104000880888800F18B
:104870000400888032E0012030BD012B0DD1488832
:10488000042808DB4888A0F104004880C88800F1AB
:104890000400C88022E00120EEE7022B0ED1088838
:1048A0008D882844001DB2F90450A84201DD012082
:1048B000E2E7888800F1040088800FE0032B0DD127
:1048C0004888CD882844001DB2F90650A84201DD71
:1048D0000120D1E7C88800F10400C8800020CBE7A0
:1048E0002DE9F04F8BB08A469346994609A80CF003
:1048F000A1FC4FF000008046524659466846FFF73B
:104900002BFC4FF000010C460D460E460F460FE003
:104910000998C1170019694104460D460A984FEAE3
:10492000E0718019794106460F4608F10100804682
:10493000002209A96846FFF7CDFC0028E8D14246CD
:1049400000232046294604F094FBC9F800004246A3
:1049500000233046394604F08CFBC9F804000BB044
:10496000BDE8F08F2DE9FF4F89B082460D461C4609
:10497000DDF858B007A80CF05DFC042003460022C7
:104980001146009005A80CF0D7FA2888ADF814005D
:104990006888ADF81600A888E988884202DD4FF0E3
:1049A000010001E04FF000000490049808B1A888CD
:1049B00000E0E88803904FF00008C14675E007ABBF
:1049C00005A950460B9AFFF78BFF2168079A891AB1
:1049D00049436268089BD21A6368089E9B1B02FBCE
:1049E00003100EF084F8029002980DF0F9FA0746D1
:1049F00038460EF075F8DAF87411884241D200BFDB
:104A0000DBF800000646206880FB061207984FEA94
:104A1000E0738C461CEB000042EB0301CDE9000182
:104A2000701C0246C317009804F023FB20606068E6
:104A300080FB06120898C3178C461CEB000042EB63
:104A40000301CDE90001701C0246C317009804F071
:104A500010FB6060BDF8160000B20246BDF81400FD
:104A600000B2014602A80CF015FB01460190584621
:104A70000DF0CAFC002800DA1AE009F101008146B5
:104A800000BF049838B1BDF8140000F1040080B2F2
:104A9000ADF8140006E0BDF8160000F1040080B285
:104AA000ADF8160008F1040080460398804586D3CF
:104AB00000BF03980EF022F8029048460EF01EF850
:104AC0004FF0814101900EF039F8064602990DF041
:104AD000F7FF0DB0BDE8F08F2DE9F04F87B08046AD
:104AE000894616461F4605A80CF02DFA03A80CF0BF
:104AF0002AFA01A80CF09EFB4FF000000546308812
:104B000080B2ADF81400708880B2ADF816004FF096
:104B100000034A4605A94046FFF79EFE18B145F03E
:104B20000100054610E0BDF8160000B20246BDF8CF
:104B3000140000B2014668460CF0ACFA83465946B0
:104B400038460DF061FC00BF01234A4605A94046E6
:104B5000FFF782FE18B145F00200054610E0BDF8EF
:104B6000160000B20246BDF8140000B201466846C5
:104B70000CF090FA8346594638460DF045FC00BFCC
:104B800002234A4605A94046FFF766FE18B145F0E4
:104B9000040005460FE0BDF8160000B20246B6F963
:104BA0000000014668460CF075FA834659463846BF
:104BB0000DF02AFC00BF03234A4605A94046FFF733
:104BC0004BFE18B145F00800054603E03146384673
:104BD0000DF01AFC01AB4A4605A94046FFF780FEDE
:104BE0006CE04FF00000044666E0DDE90501CDE928
:104BF0000301012000FA04F0284200D058E024B953
:104C00004FF00000ADF8100023E0012C04D14FF06C
:104C10000000ADF812001CE0022C0CD1BDF80C0015
:104C2000BDF81010084480B2ADF80C004FF0000041
:104C3000ADF810000DE0032C0BD1BDF80E00BDF84F
:104C40001210084480B2ADF80E004FF00000ADF82D
:104C5000120023464A4603A94046FFF7FDFD40B136
:104C60004FF0010000FA04F040EA0500C0B205462A
:104C70001DE001AB4A4603A940460097FFF772FECC
:104C80008246D8F87C01014650460DF03FFF08D21D
:104C90004FF0010000FA04F040EA0500C0B20546FA
:104CA00005E023464A4605A94046FFF7D5FD00BF6B
:104CB00004F10100C0B20446042C96DB0F2D90D104
:104CC00007B0BDE8F08F2DE9F0418AB005460F46E8
:104CD00090461E46109C012C01DB072C04DD4FF092
:104CE000FF300AB0BDE8F0813346424639462846D7
:104CF000FFF7F2FE3246394601A8FFF74EFA05EB00
:104D000044102038024601A92846FFF716FD4FF04F
:104D10000001A4F1010005EB4010C16121462846C5
:104D2000FFF7AAFB0020DCE70246012901DB072987
:104D300001DD0020704702EB41102038FAE770B522
:104D400005460C461646012C01DB072C02DD4FF010
:104D5000FF3070BD611E05EB41110846202231462F
:104D600004F0CBFB21462846FFF786FB0020F0E746
:104D70002DE9F84F04464FF000012046FFF71EFBD7
:104D80004FF00000064606E0F1B22046FFF774FB44
:104D900006F101000646072EF6DB4FF0000006463E
:104DA0008CE04FF00000074682E04FF000008046A4
:104DB00078E006EB070000EB080BD4F86C015845CF
:104DC00000DD6CE0A6EB07004FEAC03090FBFBF083
:104DD0008146A8EB07004FEAC03090FBFBF082460B
:104DE0004FF00000054657E004EB4510006820B97D
:104DF00004EB4510406800B94BE005EB850104F178
:104E0000E00050F82100484542DA05EB850104F145
:104E1000E00000EB81004068484539DD05EB850185
:104E200004F1E00000EB81008068504530DA05EBCA
:104E3000850104F1E00000EB8100C068504527DDEA
:104E4000A6EB070081464FEAE900814609F03F00E2
:104E50008146A8EB070082464FEAEA0082460AF044
:104E60003F0082460AEB89100090D4F87011009838
:104E7000085C30B1D4F870110098095C681C81425C
:104E800006DD05F10100C1B2D4F87021009811547B
:104E900000BF05F101000546072DA5DB00BF08F1A5
:104EA00004008046B8F1FF0F83DD07F104000746D8
:104EB000FF2F7FF77AAF06F104000646FF2E7FF73B
:104EC00070AF0020BDE8F88F10B5012901DB07297C
:104ED00000DD10BDA1F1010300F5C27444F82320E8
:104EE00000BFF6E7C0F874117047C0F88011704732
:104EF0000246012901DB072901DD00207047481E19
:104F000002EB4010C069F9E710B504464F48206035
:104F1000216808464FF0100104F021FB204610BD27
:104F2000704730B50246106880881468E488A0EBAA
:104F3000040080B20346FBB11068048804F101004C
:104F400015682880106800F1080000EBC4000468B0
:104F50000C60406848601068C08800F10100146867
:104F6000E08010680088A0F5E0647F3C02D1204614
:104F700014682080012030BD0020FCE7F0B5034616
:104F80000C461E68B6881F68FF88A6EB0706B6B2F7
:104F900031464FF0000630461E68368835461BE025
:104FA0001E6806F108062F4605F1010C1FFA8CFC5D
:104FB000654606EBC70604EBC007D6F800C0C7F885
:104FC00000C076687E60A5F5E0667F3E00D135467C
:104FD00000F10106B6B23046884201DA9042DFD3D2
:104FE0001E68F6880E441F68FE801E6836880E44D0
:104FF0001F683E801E68368840F27F77BE4205D328
:105000001E683688A6F27F761F683E80F0BD026873
:1050100092880368DB88A2EB030292B21146026811
:10502000D2880A440368DA80026812880A44036856
:105030001A800268128840F27F739A4205D3026890
:105040001288A2F27F7203681A80704700C00020A5
:105050000146FE48814201D100207047FC48814250
:1050600001D10120F9E74FF0FF30F6E701464FF09C
:10507000080088614FF02000086000BF086810F049
:10508000080FFBD04FF020008861486800F0F8005E
:105090007047016811F0200F02D04FF020018161AC
:1050A0004FF0100101604FF0080181617047024626
:1050B000106810F0200F02D04FF020009061916036
:1050C0004FF00800906100BF106810F0080FFBD08F
:1050D000506800F0F80070470346012A03D14FF0F2
:1050E0000400186002E04FF0040098614FF00800DF
:1050F000986100BF186810F0080FFBD0986808701E
:10510000586800F0F800704770B504460D46CF4867
:10511000844210D11A21092005F08CFECD48854229
:1051200004D340F68C40CC49086017E040F60800F4
:10513000C949086012E0C64884420ED11B210920EB
:1051400005F078FE4FF0C100C4490860C449C1F8B9
:105150001001C448854201D070BDFDE7B5F57A7FE6
:1051600000D2F9E74FF06C00A0614FF0110005F09C
:10517000A9FEB0FBF5F64FEA560020612069A6EBC8
:105180000000606100BFE7E74FF0400181617047B8
:10519000012903D14FF04002026002E04FF04002CB
:1051A0008261704770B504460D466DB1A7488442D0
:1051B00003D1122000F07CFC13E0A548844210D1FA
:1051C000132000F075FC0CE0A048844203D11220AB
:1051D00000F07DFC05E09E48844202D1132000F0DF
:1051E00076FC70BD2DE9F04105462846FFF730FFFB
:1051F00006469D4850F836000446686800F0F800FE
:1052000007466762F82F04D14FF00800A861BDE897
:10521000F081954800EBC600406800285FD1202F40
:1052200050D006DC082F0BD0102F0AD0182F54D1E5
:1052300018E0282F17D0302F45D0382F4DD147E018
:1052400000BF4FF02000A861606848B1A06838B185
:1052500020684FEA4000A8604FF00800A86100E015
:1052600014E03BE000BFD4E9021088420DD2606830
:1052700058B1E1686068405CA860E06800F1010036
:10528000E0604FF00800A8611BE000BF4FF0010094
:10529000754901EBC6014860606968B1206958B181
:1052A000A06840B1606830B14FF0200028604FF036
:1052B0000C00A86105E032E0606A40F48060606242
:1052C0009CE00BE000BF606A40F40070606282E026
:1052D000606A40F48070606200BF7CE09CE06248DD
:1052E00000EBC60040680128F8D1402F27D006DC2B
:1052F000082F0BD0102F0AD0382F6BD165E0482F24
:105300005ED0502F2BD0582F64D146E000BF4FF015
:105310002000A861206960B1606950B100BF4FF002
:105320000101206801EB4000A8604FF00800A8616F
:1053300004E0606A40F4806060625FE06BE0D4E9A2
:105340000501401E814203D24FF00400286002E0B4
:105350004FF00400A8614FF00800A8615BE02069ED
:1053600058B1D4E90510884207D2A868A26921691A
:105370008854A06900F10100A061D4E90501401E34
:10538000814203D24FF00400286002E04FF0040095
:10539000A8614FF00800A8613DE0206958B1D4E948
:1053A0000510884207D2A868A26921698854A069BB
:1053B00000F10100A061606A40F4806060621DE05D
:1053C000606A40F40070606205E0606A40F48070DA
:1053D000606200BF00BFD4E9071088420DD24FF0D1
:1053E0000000E0604FF0200028604FF00C00A86142
:1053F000206A00F1010020620CE000BF0021284675
:10540000FFF7D0FE2846FFF744FE4FF00100174992
:1054100041F8260000BF00BF00BFF8E62DE9F041CB
:1054200004462046FFF714FE80460F4850F8380027
:105430000546606800F0F8000646AE61F82E17D108
:105440004FF00800A061BDE8F081000000100A40A4
:1054500000000E4040420F00846C08400C61084080
:1054600000600840801A0600000200201802002098
:1054700016F0070F7AD1F0100C38142876D2DFE836
:1054800000F011751275192F1A303453755469755F
:1054900075757575750A4FF0040020604FF00800AF
:1054A000A06171E000BF4FF0040020604FF00800E1
:1054B000A06169E000BFD5E90410884209D2E8681C
:1054C00038B1A0686A69E9688854686900F1010028
:1054D00068614FF0040020604FF00800A06153E0C5
:1054E00000BF4FF00800A0614EE000212046FFF70A
:1054F00059FE4FF00800A0614FF4803711E020689A
:1055000010F0080F04D001212046FFF74BFE09E000
:10551000A7F10100074627B9A86940F48060A86197
:1055200025E0ECE700BF2FE000BFD5E9011088427D
:1055300009D2286838B1A9682868405CA060A868CA
:1055400000F10100A8604FF0040020604FF0080057
:10555000A06119E04FF0040020604FF00800A06146
:10556000A86940F48060A86101E0FFE700BF002166
:105570002046FFF717FE4FF02C00A0614FF001000E
:10558000FB4941F8280000BF00BF00BF5BE72DE9E1
:10559000F84306460C4617466068804620698146F7
:1055A0004FF00000E060A0616062002F75D12062C2
:1055B00000BF60688046206981464FF00000E060CF
:1055C000A06105463046FFF751FD0546082D0CD079
:1055D000102D0AD0206A00F101002062D4E90710E2
:1055E000884201D96562BAE0E3E7A06878B36068F1
:1055F00068B320684006000E01463046FFF757FDAD
:105600000546182D0CD0206A00F101002062D4E973
:105610000710884203D945F4007060629FE0C8E734
:105620001DE098F8000001463046FFF740FD0546B2
:10563000282D0DD0206A00F101002062D4E9071066
:10564000884203D945F40070606288E0B1E70AE05F
:1056500008F101008046E06800F10100E060D4E953
:1056600002108842DDD3A068C8B16068B8B1606933
:10567000A8B1206998B13046FFF7F8FC0546082D1F
:105680000DD0102D0BD0206A00F101002062D4E96A
:105690000710884202D9656261E065E089E76069C8
:1056A000002856D02069002853D00122206802EB40
:1056B0004000C0B201463046FFF7F9FC0546402DD8
:1056C0000CD0206A00F101002062D4E90710884262
:1056D00003D945F40070606241E06AE735E0D4E93F
:1056E0000501401E814212D2012269463046FFF771
:1056F000F3FC0546502D1DD0206A00F10100206208
:10570000D4E90710884201D9656228E051E70022F8
:1057100069463046FFF7E0FC0546582D0AD0206A5E
:1057200000F101002062D4E90710884201D96562C6
:1057300015E03EE79DF8000089F8000009F101003E
:105740008146A06900F10100A061D4E905108842FA
:10575000C5D33046FFF79DFC0120BDE8F8833046F5
:10576000FFF797FC0020F8E7012F2ED13046FFF716
:105770006FFCC0B200907F489DF8001040F83140A7
:105780004FF000007B499DF8002001EBC20148600A
:105790004FF00800B0614FF0200030604FF0010181
:1057A0003046FFF7FFFC00BF73489DF8001050F82B
:1057B00021000128F8D14FF000006F499DF800202A
:1057C00041F822004FF00100C7E70020C5E72DE9AE
:1057D000F84F04460D46164628688146E86882461A
:1057E0004FF00000A8606861A861002E75D14FF0ED
:1057F000040020604FF02800A0614FF000000090EE
:10580000834687E0206810F0080F7AD04FF0000040
:105810000090606800F0F80717F0070F6CD1F810DF
:105820000C38142868D2DFE800F0116712671931CC
:105830001A32364067415A6767676767670A4FF0F1
:10584000040020604FF00800A06159E000BF4FF055
:10585000040020604FF00800A06151E000BFD5E9CE
:10586000041088420BD2E86848B1A0688AF80000AA
:105870000AF101008246686900F1010068614FF099
:10588000040020604FF00800A06139E000BF4FF035
:105890000800A06134E04FF00800A0614FF0010063
:1058A00000904FF0000083462AE000BFD5E90110C8
:1058B00088420BD2286848B199F80000A06009F12D
:1058C00001008146A86800F10100A8604FF00400C3
:1058D00020604FF00800A06112E02DE011E04FF0D1
:1058E000040020604FF00800A0614FF0010000901C
:1058F0004FF00000834603E04FF00800A06114E081
:1059000008E0009830B15846411C8B46B0F5803F06
:1059100000D900E076E74FF00400A06147F4806012
:10592000A8614FF00100BDE8F88F4FF00400A061BE
:10593000AF614FF00000F6E7012E1FD12046FFF7C0
:1059400087FB80460B4840F838503046094901EB48
:10595000C80148604FF0040020604FF02800A061AB
:105960004FF001012046FFF71DFC0120DBE700009E
:105970002402002000020020180200200020D2E7AC
:1059800010B58B78012B00D101E04FF000034C786B
:1059900043EA4403DAB20B7833B1012B0AD0022B6D
:1059A0000ED0032B18D111E0C260CB7803F0FE03B8
:1059B000036311E00262CB7803F0FE0444630BE062
:1059C0004262CB7803F0FE04846305E08262CB7808
:1059D00003F0FE04C46300BF00BF10BD10B5012A70
:1059E00004D1C36943EA0103C36107E0C3694FF00F
:1059F000070424EA010403EA0403C36110BD01297A
:105A00000AD1C26942F00102C2614FF00402026091
:105A10004FF02802826106E0C26902F00602C2610C
:105A20004FF02C0282614FF000022F4B1A6070473A
:105A30000146C86AC0B2704730B503464FF0000453
:105A400020464FF008049C61DC6A274D2D684C55B8
:105A5000254C246804F10104234D2C602C46246855
:105A6000944202D34FF00104204630BD70B5054684
:105A70002846FFF7EDFA04461C4850F82400064675
:105A80004FF00000194941F82400304670BD70B550
:105A900005462846FFF7DCFA0446154850F824006E
:105AA00006464FF00000124941F82400304670BD10
:105AB00000F01F024FF0010101FA02F14FEA50120B
:105AC0004FF0E02303EB8202C2F80011704700F0B0
:105AD0001F024FF0010101FA02F1064A4FEA50138A
